{
	"GitHub/MCS-School-Team/Project-Donat/ethereum/contracts/CrowdFunding_v1.sol": {
		"Crowd": {
			"abi": [
				{
					"inputs": [
						{
							"internalType": "address",
							"name": "_token",
							"type": "address"
						}
					],
					"stateMutability": "nonpayable",
					"type": "constructor"
				},
				{
					"inputs": [],
					"name": "ContributionsClosed",
					"type": "error"
				},
				{
					"inputs": [],
					"name": "RefundsClosed",
					"type": "error"
				},
				{
					"inputs": [],
					"name": "Unauthorized",
					"type": "error"
				},
				{
					"anonymous": false,
					"inputs": [
						{
							"indexed": false,
							"internalType": "uint256",
							"name": "id",
							"type": "uint256"
						}
					],
					"name": "Cancel",
					"type": "event"
				},
				{
					"anonymous": false,
					"inputs": [
						{
							"indexed": false,
							"internalType": "uint256",
							"name": "id",
							"type": "uint256"
						}
					],
					"name": "Claimed",
					"type": "event"
				},
				{
					"anonymous": false,
					"inputs": [
						{
							"indexed": false,
							"internalType": "uint256",
							"name": "id",
							"type": "uint256"
						},
						{
							"indexed": false,
							"internalType": "address",
							"name": "owner",
							"type": "address"
						},
						{
							"indexed": false,
							"internalType": "uint256",
							"name": "goal",
							"type": "uint256"
						},
						{
							"indexed": false,
							"internalType": "enum Crowd.State",
							"name": "_state",
							"type": "uint8"
						}
					],
					"name": "Launched",
					"type": "event"
				},
				{
					"anonymous": false,
					"inputs": [
						{
							"indexed": true,
							"internalType": "address",
							"name": "_changed",
							"type": "address"
						},
						{
							"indexed": false,
							"internalType": "uint256",
							"name": "_oldLimit",
							"type": "uint256"
						},
						{
							"indexed": false,
							"internalType": "uint256",
							"name": "_newLimit",
							"type": "uint256"
						}
					],
					"name": "LimitChanged",
					"type": "event"
				},
				{
					"anonymous": false,
					"inputs": [
						{
							"indexed": true,
							"internalType": "address",
							"name": "_from",
							"type": "address"
						},
						{
							"indexed": false,
							"internalType": "uint256",
							"name": "_amount",
							"type": "uint256"
						}
					],
					"name": "MoneyReceived",
					"type": "event"
				},
				{
					"anonymous": false,
					"inputs": [
						{
							"indexed": false,
							"internalType": "uint256",
							"name": "id",
							"type": "uint256"
						},
						{
							"indexed": false,
							"internalType": "address",
							"name": "pledger",
							"type": "address"
						},
						{
							"indexed": false,
							"internalType": "uint256",
							"name": "amount",
							"type": "uint256"
						}
					],
					"name": "Pledged",
					"type": "event"
				},
				{
					"anonymous": false,
					"inputs": [
						{
							"indexed": false,
							"internalType": "uint256",
							"name": "id",
							"type": "uint256"
						},
						{
							"indexed": false,
							"internalType": "address",
							"name": "pledger",
							"type": "address"
						},
						{
							"indexed": false,
							"internalType": "uint256",
							"name": "amount",
							"type": "uint256"
						}
					],
					"name": "Refunded",
					"type": "event"
				},
				{
					"anonymous": false,
					"inputs": [
						{
							"indexed": false,
							"internalType": "enum Crowd.State",
							"name": "state",
							"type": "uint8"
						}
					],
					"name": "StateUpdated",
					"type": "event"
				},
				{
					"anonymous": false,
					"inputs": [
						{
							"indexed": false,
							"internalType": "uint256",
							"name": "id",
							"type": "uint256"
						},
						{
							"indexed": false,
							"internalType": "address",
							"name": "pledger",
							"type": "address"
						},
						{
							"indexed": false,
							"internalType": "uint256",
							"name": "amount",
							"type": "uint256"
						}
					],
					"name": "Unpledged",
					"type": "event"
				},
				{
					"stateMutability": "payable",
					"type": "fallback"
				},
				{
					"inputs": [
						{
							"internalType": "uint256",
							"name": "",
							"type": "uint256"
						},
						{
							"internalType": "address",
							"name": "",
							"type": "address"
						}
					],
					"name": "admins",
					"outputs": [
						{
							"internalType": "bool",
							"name": "",
							"type": "bool"
						}
					],
					"stateMutability": "view",
					"type": "function"
				},
				{
					"inputs": [
						{
							"internalType": "uint256",
							"name": "",
							"type": "uint256"
						}
					],
					"name": "campaigns",
					"outputs": [
						{
							"internalType": "address",
							"name": "owner",
							"type": "address"
						},
						{
							"internalType": "uint256",
							"name": "goal",
							"type": "uint256"
						},
						{
							"internalType": "uint256",
							"name": "pledged",
							"type": "uint256"
						},
						{
							"internalType": "enum Crowd.State",
							"name": "state",
							"type": "uint8"
						},
						{
							"internalType": "bool",
							"name": "claimed",
							"type": "bool"
						}
					],
					"stateMutability": "view",
					"type": "function"
				},
				{
					"inputs": [
						{
							"internalType": "uint256",
							"name": "_id",
							"type": "uint256"
						}
					],
					"name": "cancel",
					"outputs": [],
					"stateMutability": "nonpayable",
					"type": "function"
				},
				{
					"inputs": [
						{
							"internalType": "uint256",
							"name": "_id",
							"type": "uint256"
						}
					],
					"name": "claim",
					"outputs": [],
					"stateMutability": "nonpayable",
					"type": "function"
				},
				{
					"inputs": [],
					"name": "currentId",
					"outputs": [
						{
							"internalType": "uint256",
							"name": "",
							"type": "uint256"
						}
					],
					"stateMutability": "view",
					"type": "function"
				},
				{
					"inputs": [],
					"name": "getValueClosed",
					"outputs": [
						{
							"internalType": "uint256",
							"name": "",
							"type": "uint256"
						}
					],
					"stateMutability": "view",
					"type": "function"
				},
				{
					"inputs": [],
					"name": "getValueOpen",
					"outputs": [
						{
							"internalType": "uint256",
							"name": "",
							"type": "uint256"
						}
					],
					"stateMutability": "view",
					"type": "function"
				},
				{
					"inputs": [
						{
							"internalType": "uint256",
							"name": "_goal",
							"type": "uint256"
						}
					],
					"name": "launch",
					"outputs": [],
					"stateMutability": "nonpayable",
					"type": "function"
				},
				{
					"inputs": [
						{
							"internalType": "uint256",
							"name": "_id",
							"type": "uint256"
						},
						{
							"internalType": "address",
							"name": "_member",
							"type": "address"
						}
					],
					"name": "makeAdmin",
					"outputs": [],
					"stateMutability": "nonpayable",
					"type": "function"
				},
				{
					"inputs": [
						{
							"internalType": "uint256",
							"name": "_id",
							"type": "uint256"
						},
						{
							"internalType": "uint256",
							"name": "_amount",
							"type": "uint256"
						}
					],
					"name": "pledge",
					"outputs": [],
					"stateMutability": "nonpayable",
					"type": "function"
				},
				{
					"inputs": [
						{
							"internalType": "uint256",
							"name": "",
							"type": "uint256"
						},
						{
							"internalType": "address",
							"name": "",
							"type": "address"
						}
					],
					"name": "pledges",
					"outputs": [
						{
							"internalType": "uint256",
							"name": "",
							"type": "uint256"
						}
					],
					"stateMutability": "view",
					"type": "function"
				},
				{
					"inputs": [
						{
							"internalType": "uint256",
							"name": "_id",
							"type": "uint256"
						}
					],
					"name": "refund",
					"outputs": [],
					"stateMutability": "nonpayable",
					"type": "function"
				},
				{
					"inputs": [
						{
							"internalType": "uint256",
							"name": "_id",
							"type": "uint256"
						},
						{
							"internalType": "address",
							"name": "_member",
							"type": "address"
						}
					],
					"name": "revokeAdmin",
					"outputs": [],
					"stateMutability": "nonpayable",
					"type": "function"
				},
				{
					"inputs": [
						{
							"internalType": "uint256",
							"name": "_id",
							"type": "uint256"
						}
					],
					"name": "setState",
					"outputs": [],
					"stateMutability": "nonpayable",
					"type": "function"
				},
				{
					"inputs": [],
					"name": "token",
					"outputs": [
						{
							"internalType": "contract IERC20",
							"name": "",
							"type": "address"
						}
					],
					"stateMutability": "view",
					"type": "function"
				},
				{
					"inputs": [
						{
							"internalType": "uint256",
							"name": "_id",
							"type": "uint256"
						},
						{
							"internalType": "uint256",
							"name": "_amount",
							"type": "uint256"
						}
					],
					"name": "unpledge",
					"outputs": [],
					"stateMutability": "nonpayable",
					"type": "function"
				},
				{
					"stateMutability": "payable",
					"type": "receive"
				}
			],
			"devdoc": {
				"kind": "dev",
				"methods": {},
				"version": 1
			},
			"evm": {
				"assembly": "    /* \"GitHub/MCS-School-Team/Project-Donat/ethereum/contracts/CrowdFunding_v1.sol\":130:6427  contract Crowd {... */\n  mstore(0x40, 0xa0)\n    /* \"GitHub/MCS-School-Team/Project-Donat/ethereum/contracts/CrowdFunding_v1.sol\":2274:2343  constructor(address _token) {... */\n  callvalue\n  dup1\n  iszero\n  tag_1\n  jumpi\n  0x00\n  dup1\n  revert\ntag_1:\n  pop\n  mload(0x40)\n  sub(codesize, bytecodeSize)\n  dup1\n  bytecodeSize\n  dup4\n  codecopy\n  dup2\n  dup2\n  add\n  0x40\n  mstore\n  dup2\n  add\n  swap1\n  tag_2\n  swap2\n  swap1\n  tag_3\n  jump\t// in\ntag_2:\n    /* \"GitHub/MCS-School-Team/Project-Donat/ethereum/contracts/CrowdFunding_v1.sol\":2328:2334  _token */\n  dup1\n    /* \"GitHub/MCS-School-Team/Project-Donat/ethereum/contracts/CrowdFunding_v1.sol\":2313:2335  token = IERC20(_token) */\n  0xffffffffffffffffffffffffffffffffffffffff\n  and\n  0x80\n  dup2\n  0xffffffffffffffffffffffffffffffffffffffff\n  and\n  dup2\n  mstore\n  pop\n  pop\n    /* \"GitHub/MCS-School-Team/Project-Donat/ethereum/contracts/CrowdFunding_v1.sol\":2274:2343  constructor(address _token) {... */\n  pop\n    /* \"GitHub/MCS-School-Team/Project-Donat/ethereum/contracts/CrowdFunding_v1.sol\":130:6427  contract Crowd {... */\n  jump(tag_6)\n    /* \"#utility.yul\":88:205   */\ntag_8:\n    /* \"#utility.yul\":197:198   */\n  0x00\n    /* \"#utility.yul\":194:195   */\n  dup1\n    /* \"#utility.yul\":187:199   */\n  revert\n    /* \"#utility.yul\":334:460   */\ntag_10:\n    /* \"#utility.yul\":371:378   */\n  0x00\n    /* \"#utility.yul\":411:453   */\n  0xffffffffffffffffffffffffffffffffffffffff\n    /* \"#utility.yul\":404:409   */\n  dup3\n    /* \"#utility.yul\":400:454   */\n  and\n    /* \"#utility.yul\":389:454   */\n  swap1\n  pop\n    /* \"#utility.yul\":334:460   */\n  swap2\n  swap1\n  pop\n  jump\t// out\n    /* \"#utility.yul\":466:562   */\ntag_11:\n    /* \"#utility.yul\":503:510   */\n  0x00\n    /* \"#utility.yul\":532:556   */\n  tag_20\n    /* \"#utility.yul\":550:555   */\n  dup3\n    /* \"#utility.yul\":532:556   */\n  tag_10\n  jump\t// in\ntag_20:\n    /* \"#utility.yul\":521:556   */\n  swap1\n  pop\n    /* \"#utility.yul\":466:562   */\n  swap2\n  swap1\n  pop\n  jump\t// out\n    /* \"#utility.yul\":568:690   */\ntag_12:\n    /* \"#utility.yul\":641:665   */\n  tag_22\n    /* \"#utility.yul\":659:664   */\n  dup2\n    /* \"#utility.yul\":641:665   */\n  tag_11\n  jump\t// in\ntag_22:\n    /* \"#utility.yul\":634:639   */\n  dup2\n    /* \"#utility.yul\":631:666   */\n  eq\n    /* \"#utility.yul\":621:684   */\n  tag_23\n  jumpi\n    /* \"#utility.yul\":680:681   */\n  0x00\n    /* \"#utility.yul\":677:678   */\n  dup1\n    /* \"#utility.yul\":670:682   */\n  revert\n    /* \"#utility.yul\":621:684   */\ntag_23:\n    /* \"#utility.yul\":568:690   */\n  pop\n  jump\t// out\n    /* \"#utility.yul\":696:839   */\ntag_13:\n    /* \"#utility.yul\":753:758   */\n  0x00\n    /* \"#utility.yul\":784:790   */\n  dup2\n    /* \"#utility.yul\":778:791   */\n  mload\n    /* \"#utility.yul\":769:791   */\n  swap1\n  pop\n    /* \"#utility.yul\":800:833   */\n  tag_25\n    /* \"#utility.yul\":827:832   */\n  dup2\n    /* \"#utility.yul\":800:833   */\n  tag_12\n  jump\t// in\ntag_25:\n    /* \"#utility.yul\":696:839   */\n  swap3\n  swap2\n  pop\n  pop\n  jump\t// out\n    /* \"#utility.yul\":845:1196   */\ntag_3:\n    /* \"#utility.yul\":915:921   */\n  0x00\n    /* \"#utility.yul\":964:966   */\n  0x20\n    /* \"#utility.yul\":952:961   */\n  dup3\n    /* \"#utility.yul\":943:950   */\n  dup5\n    /* \"#utility.yul\":939:962   */\n  sub\n    /* \"#utility.yul\":935:967   */\n  slt\n    /* \"#utility.yul\":932:1051   */\n  iszero\n  tag_27\n  jumpi\n    /* \"#utility.yul\":970:1049   */\n  tag_28\n  tag_8\n  jump\t// in\ntag_28:\n    /* \"#utility.yul\":932:1051   */\ntag_27:\n    /* \"#utility.yul\":1090:1091   */\n  0x00\n    /* \"#utility.yul\":1115:1179   */\n  tag_29\n    /* \"#utility.yul\":1171:1178   */\n  dup5\n    /* \"#utility.yul\":1162:1168   */\n  dup3\n    /* \"#utility.yul\":1151:1160   */\n  dup6\n    /* \"#utility.yul\":1147:1169   */\n  add\n    /* \"#utility.yul\":1115:1179   */\n  tag_13\n  jump\t// in\ntag_29:\n    /* \"#utility.yul\":1105:1179   */\n  swap2\n  pop\n    /* \"#utility.yul\":1061:1189   */\n  pop\n    /* \"#utility.yul\":845:1196   */\n  swap3\n  swap2\n  pop\n  pop\n  jump\t// out\n    /* \"GitHub/MCS-School-Team/Project-Donat/ethereum/contracts/CrowdFunding_v1.sol\":130:6427  contract Crowd {... */\ntag_6:\n  mload(0x80)\n  codecopy(0x00, dataOffset(sub_0), dataSize(sub_0))\n  0x00\n  assignImmutable(\"0x3b4066bd7b7960752225af105d3beafb5c47a26c5aae7e6798a437b7c0bb33e6\")\n  return(0x00, dataSize(sub_0))\nstop\n\nsub_0: assembly {\n        /* \"GitHub/MCS-School-Team/Project-Donat/ethereum/contracts/CrowdFunding_v1.sol\":130:6427  contract Crowd {... */\n      mstore(0x40, 0x80)\n      jumpi(tag_1, lt(calldatasize, 0x04))\n      shr(0xe0, calldataload(0x00))\n      dup1\n      0x8e97f524\n      gt\n      tag_19\n      jumpi\n      dup1\n      0xba282398\n      gt\n      tag_20\n      jumpi\n      dup1\n      0xba282398\n      eq\n      tag_15\n      jumpi\n      dup1\n      0xe00dd161\n      eq\n      tag_16\n      jumpi\n      dup1\n      0xfc0c546a\n      eq\n      tag_17\n      jumpi\n      dup1\n      0xfde327be\n      eq\n      tag_18\n      jumpi\n      jump(tag_2)\n    tag_20:\n      dup1\n      0x8e97f524\n      eq\n      tag_11\n      jumpi\n      dup1\n      0x92f77154\n      eq\n      tag_12\n      jumpi\n      dup1\n      0xa41c57bc\n      eq\n      tag_13\n      jumpi\n      dup1\n      0xa9e966b7\n      eq\n      tag_14\n      jumpi\n      jump(tag_2)\n    tag_19:\n      dup1\n      0x40e58ee5\n      gt\n      tag_21\n      jumpi\n      dup1\n      0x40e58ee5\n      eq\n      tag_7\n      jumpi\n      dup1\n      0x6244c42f\n      eq\n      tag_8\n      jumpi\n      dup1\n      0x711853ab\n      eq\n      tag_9\n      jumpi\n      dup1\n      0x85b12c7c\n      eq\n      tag_10\n      jumpi\n      jump(tag_2)\n    tag_21:\n      dup1\n      0x0b46056b\n      eq\n      tag_3\n      jumpi\n      dup1\n      0x141961bc\n      eq\n      tag_4\n      jumpi\n      dup1\n      0x278ecde1\n      eq\n      tag_5\n      jumpi\n      dup1\n      0x379607f5\n      eq\n      tag_6\n      jumpi\n      jump(tag_2)\n    tag_1:\n      jumpi(tag_2, calldatasize)\n        /* \"GitHub/MCS-School-Team/Project-Donat/ethereum/contracts/CrowdFunding_v1.sol\":6390:6400  msg.sender */\n      caller\n        /* \"GitHub/MCS-School-Team/Project-Donat/ethereum/contracts/CrowdFunding_v1.sol\":6376:6412  MoneyReceived(msg.sender, msg.value) */\n      0xffffffffffffffffffffffffffffffffffffffff\n      and\n      0x27b15ed4cf832749ed39f33a64e4707ed60a761485e41ffec7343ecaddc0c02a\n        /* \"GitHub/MCS-School-Team/Project-Donat/ethereum/contracts/CrowdFunding_v1.sol\":6402:6411  msg.value */\n      callvalue\n        /* \"GitHub/MCS-School-Team/Project-Donat/ethereum/contracts/CrowdFunding_v1.sol\":6376:6412  MoneyReceived(msg.sender, msg.value) */\n      mload(0x40)\n      tag_24\n      swap2\n      swap1\n      tag_25\n      jump\t// in\n    tag_24:\n      mload(0x40)\n      dup1\n      swap2\n      sub\n      swap1\n      log2\n        /* \"GitHub/MCS-School-Team/Project-Donat/ethereum/contracts/CrowdFunding_v1.sol\":130:6427  contract Crowd {... */\n      stop\n    tag_2:\n      stop\n        /* \"GitHub/MCS-School-Team/Project-Donat/ethereum/contracts/CrowdFunding_v1.sol\":1695:1751  mapping (uint => mapping(address => bool)) public admins */\n    tag_3:\n      callvalue\n      dup1\n      iszero\n      tag_28\n      jumpi\n      0x00\n      dup1\n      revert\n    tag_28:\n      pop\n      tag_29\n      0x04\n      dup1\n      calldatasize\n      sub\n      dup2\n      add\n      swap1\n      tag_30\n      swap2\n      swap1\n      tag_31\n      jump\t// in\n    tag_30:\n      tag_32\n      jump\t// in\n    tag_29:\n      mload(0x40)\n      tag_33\n      swap2\n      swap1\n      tag_34\n      jump\t// in\n    tag_33:\n      mload(0x40)\n      dup1\n      swap2\n      sub\n      swap1\n      return\n        /* \"GitHub/MCS-School-Team/Project-Donat/ethereum/contracts/CrowdFunding_v1.sol\":1320:1362  mapping(uint => Campaign) public campaigns */\n    tag_4:\n      callvalue\n      dup1\n      iszero\n      tag_35\n      jumpi\n      0x00\n      dup1\n      revert\n    tag_35:\n      pop\n      tag_36\n      0x04\n      dup1\n      calldatasize\n      sub\n      dup2\n      add\n      swap1\n      tag_37\n      swap2\n      swap1\n      tag_38\n      jump\t// in\n    tag_37:\n      tag_39\n      jump\t// in\n    tag_36:\n      mload(0x40)\n      tag_40\n      swap6\n      swap5\n      swap4\n      swap3\n      swap2\n      swap1\n      tag_41\n      jump\t// in\n    tag_40:\n      mload(0x40)\n      dup1\n      swap2\n      sub\n      swap1\n      return\n        /* \"GitHub/MCS-School-Team/Project-Donat/ethereum/contracts/CrowdFunding_v1.sol\":5823:6255  function refund(uint _id) external {... */\n    tag_5:\n      callvalue\n      dup1\n      iszero\n      tag_42\n      jumpi\n      0x00\n      dup1\n      revert\n    tag_42:\n      pop\n      tag_43\n      0x04\n      dup1\n      calldatasize\n      sub\n      dup2\n      add\n      swap1\n      tag_44\n      swap2\n      swap1\n      tag_38\n      jump\t// in\n    tag_44:\n      tag_45\n      jump\t// in\n    tag_43:\n      stop\n        /* \"GitHub/MCS-School-Team/Project-Donat/ethereum/contracts/CrowdFunding_v1.sol\":5309:5758  function claim(uint _id) external {... */\n    tag_6:\n      callvalue\n      dup1\n      iszero\n      tag_46\n      jumpi\n      0x00\n      dup1\n      revert\n    tag_46:\n      pop\n      tag_47\n      0x04\n      dup1\n      calldatasize\n      sub\n      dup2\n      add\n      swap1\n      tag_48\n      swap2\n      swap1\n      tag_38\n      jump\t// in\n    tag_48:\n      tag_49\n      jump\t// in\n    tag_47:\n      stop\n        /* \"GitHub/MCS-School-Team/Project-Donat/ethereum/contracts/CrowdFunding_v1.sol\":3136:3472  function cancel(uint _id) external {... */\n    tag_7:\n      callvalue\n      dup1\n      iszero\n      tag_50\n      jumpi\n      0x00\n      dup1\n      revert\n    tag_50:\n      pop\n      tag_51\n      0x04\n      dup1\n      calldatasize\n      sub\n      dup2\n      add\n      swap1\n      tag_52\n      swap2\n      swap1\n      tag_38\n      jump\t// in\n    tag_52:\n      tag_53\n      jump\t// in\n    tag_51:\n      stop\n        /* \"GitHub/MCS-School-Team/Project-Donat/ethereum/contracts/CrowdFunding_v1.sol\":2466:2575  function getValueClosed() public view returns(uint) {... */\n    tag_8:\n      callvalue\n      dup1\n      iszero\n      tag_54\n      jumpi\n      0x00\n      dup1\n      revert\n    tag_54:\n      pop\n      tag_55\n      tag_56\n      jump\t// in\n    tag_55:\n      mload(0x40)\n      tag_57\n      swap2\n      swap1\n      tag_25\n      jump\t// in\n    tag_57:\n      mload(0x40)\n      dup1\n      swap2\n      sub\n      swap1\n      return\n        /* \"GitHub/MCS-School-Team/Project-Donat/ethereum/contracts/CrowdFunding_v1.sol\":4496:4868  function unpledge(uint _id, uint _amount) external {... */\n    tag_9:\n      callvalue\n      dup1\n      iszero\n      tag_58\n      jumpi\n      0x00\n      dup1\n      revert\n    tag_58:\n      pop\n      tag_59\n      0x04\n      dup1\n      calldatasize\n      sub\n      dup2\n      add\n      swap1\n      tag_60\n      swap2\n      swap1\n      tag_61\n      jump\t// in\n    tag_60:\n      tag_62\n      jump\t// in\n    tag_59:\n      stop\n        /* \"GitHub/MCS-School-Team/Project-Donat/ethereum/contracts/CrowdFunding_v1.sol\":2740:3081  function launch(uint _goal) public {... */\n    tag_10:\n      callvalue\n      dup1\n      iszero\n      tag_63\n      jumpi\n      0x00\n      dup1\n      revert\n    tag_63:\n      pop\n      tag_64\n      0x04\n      dup1\n      calldatasize\n      sub\n      dup2\n      add\n      swap1\n      tag_65\n      swap2\n      swap1\n      tag_38\n      jump\t// in\n    tag_65:\n      tag_66\n      jump\t// in\n    tag_64:\n      stop\n        /* \"GitHub/MCS-School-Team/Project-Donat/ethereum/contracts/CrowdFunding_v1.sol\":1543:1599  mapping(uint => mapping(address => uint)) public pledges */\n    tag_11:\n      callvalue\n      dup1\n      iszero\n      tag_67\n      jumpi\n      0x00\n      dup1\n      revert\n    tag_67:\n      pop\n      tag_68\n      0x04\n      dup1\n      calldatasize\n      sub\n      dup2\n      add\n      swap1\n      tag_69\n      swap2\n      swap1\n      tag_31\n      jump\t// in\n    tag_69:\n      tag_70\n      jump\t// in\n    tag_68:\n      mload(0x40)\n      tag_71\n      swap2\n      swap1\n      tag_25\n      jump\t// in\n    tag_71:\n      mload(0x40)\n      dup1\n      swap2\n      sub\n      swap1\n      return\n        /* \"GitHub/MCS-School-Team/Project-Donat/ethereum/contracts/CrowdFunding_v1.sol\":2580:2685  function getValueOpen() public view returns(uint) {... */\n    tag_12:\n      callvalue\n      dup1\n      iszero\n      tag_72\n      jumpi\n      0x00\n      dup1\n      revert\n    tag_72:\n      pop\n      tag_73\n      tag_74\n      jump\t// in\n    tag_73:\n      mload(0x40)\n      tag_75\n      swap2\n      swap1\n      tag_25\n      jump\t// in\n    tag_75:\n      mload(0x40)\n      dup1\n      swap2\n      sub\n      swap1\n      return\n        /* \"GitHub/MCS-School-Team/Project-Donat/ethereum/contracts/CrowdFunding_v1.sol\":3519:3745  function makeAdmin(uint _id, address _member) public {... */\n    tag_13:\n      callvalue\n      dup1\n      iszero\n      tag_76\n      jumpi\n      0x00\n      dup1\n      revert\n    tag_76:\n      pop\n      tag_77\n      0x04\n      dup1\n      calldatasize\n      sub\n      dup2\n      add\n      swap1\n      tag_78\n      swap2\n      swap1\n      tag_31\n      jump\t// in\n    tag_78:\n      tag_79\n      jump\t// in\n    tag_77:\n      stop\n        /* \"GitHub/MCS-School-Team/Project-Donat/ethereum/contracts/CrowdFunding_v1.sol\":5013:5258  function setState(uint _id) public {... */\n    tag_14:\n      callvalue\n      dup1\n      iszero\n      tag_80\n      jumpi\n      0x00\n      dup1\n      revert\n    tag_80:\n      pop\n      tag_81\n      0x04\n      dup1\n      calldatasize\n      sub\n      dup2\n      add\n      swap1\n      tag_82\n      swap2\n      swap1\n      tag_38\n      jump\t// in\n    tag_82:\n      tag_83\n      jump\t// in\n    tag_81:\n      stop\n        /* \"GitHub/MCS-School-Team/Project-Donat/ethereum/contracts/CrowdFunding_v1.sol\":3795:4023  function revokeAdmin(uint _id, address _member) public {... */\n    tag_15:\n      callvalue\n      dup1\n      iszero\n      tag_84\n      jumpi\n      0x00\n      dup1\n      revert\n    tag_84:\n      pop\n      tag_85\n      0x04\n      dup1\n      calldatasize\n      sub\n      dup2\n      add\n      swap1\n      tag_86\n      swap2\n      swap1\n      tag_31\n      jump\t// in\n    tag_86:\n      tag_87\n      jump\t// in\n    tag_85:\n      stop\n        /* \"GitHub/MCS-School-Team/Project-Donat/ethereum/contracts/CrowdFunding_v1.sol\":1413:1434  uint public currentId */\n    tag_16:\n      callvalue\n      dup1\n      iszero\n      tag_88\n      jumpi\n      0x00\n      dup1\n      revert\n    tag_88:\n      pop\n      tag_89\n      tag_90\n      jump\t// in\n    tag_89:\n      mload(0x40)\n      tag_91\n      swap2\n      swap1\n      tag_25\n      jump\t// in\n    tag_91:\n      mload(0x40)\n      dup1\n      swap2\n      sub\n      swap1\n      return\n        /* \"GitHub/MCS-School-Team/Project-Donat/ethereum/contracts/CrowdFunding_v1.sol\":1235:1264  IERC20 public immutable token */\n    tag_17:\n      callvalue\n      dup1\n      iszero\n      tag_92\n      jumpi\n      0x00\n      dup1\n      revert\n    tag_92:\n      pop\n      tag_93\n      tag_94\n      jump\t// in\n    tag_93:\n      mload(0x40)\n      tag_95\n      swap2\n      swap1\n      tag_96\n      jump\t// in\n    tag_95:\n      mload(0x40)\n      dup1\n      swap2\n      sub\n      swap1\n      return\n        /* \"GitHub/MCS-School-Team/Project-Donat/ethereum/contracts/CrowdFunding_v1.sol\":4066:4446  function pledge(uint _id, uint _amount) external {... */\n    tag_18:\n      callvalue\n      dup1\n      iszero\n      tag_97\n      jumpi\n      0x00\n      dup1\n      revert\n    tag_97:\n      pop\n      tag_98\n      0x04\n      dup1\n      calldatasize\n      sub\n      dup2\n      add\n      swap1\n      tag_99\n      swap2\n      swap1\n      tag_61\n      jump\t// in\n    tag_99:\n      tag_100\n      jump\t// in\n    tag_98:\n      stop\n        /* \"GitHub/MCS-School-Team/Project-Donat/ethereum/contracts/CrowdFunding_v1.sol\":1695:1751  mapping (uint => mapping(address => bool)) public admins */\n    tag_32:\n      mstore(0x20, 0x04)\n      dup2\n      0x00\n      mstore\n      mstore(0x20, keccak256(0x00, 0x40))\n      dup1\n      0x00\n      mstore\n      keccak256(0x00, 0x40)\n      0x00\n      swap2\n      pop\n      swap2\n      pop\n      swap1\n      sload\n      swap1\n      0x0100\n      exp\n      swap1\n      div\n      0xff\n      and\n      dup2\n      jump\t// out\n        /* \"GitHub/MCS-School-Team/Project-Donat/ethereum/contracts/CrowdFunding_v1.sol\":1320:1362  mapping(uint => Campaign) public campaigns */\n    tag_39:\n      mstore(0x20, 0x01)\n      dup1\n      0x00\n      mstore\n      keccak256(0x00, 0x40)\n      0x00\n      swap2\n      pop\n      swap1\n      pop\n      dup1\n      0x00\n      add\n      0x00\n      swap1\n      sload\n      swap1\n      0x0100\n      exp\n      swap1\n      div\n      0xffffffffffffffffffffffffffffffffffffffff\n      and\n      swap1\n      dup1\n      0x01\n      add\n      sload\n      swap1\n      dup1\n      0x02\n      add\n      sload\n      swap1\n      dup1\n      0x03\n      add\n      0x00\n      swap1\n      sload\n      swap1\n      0x0100\n      exp\n      swap1\n      div\n      0xff\n      and\n      swap1\n      dup1\n      0x03\n      add\n      0x01\n      swap1\n      sload\n      swap1\n      0x0100\n      exp\n      swap1\n      div\n      0xff\n      and\n      swap1\n      pop\n      dup6\n      jump\t// out\n        /* \"GitHub/MCS-School-Team/Project-Donat/ethereum/contracts/CrowdFunding_v1.sol\":5823:6255  function refund(uint _id) external {... */\n    tag_45:\n        /* \"GitHub/MCS-School-Team/Project-Donat/ethereum/contracts/CrowdFunding_v1.sol\":5868:5893  Campaign storage campaign */\n      0x00\n        /* \"GitHub/MCS-School-Team/Project-Donat/ethereum/contracts/CrowdFunding_v1.sol\":5896:5905  campaigns */\n      0x01\n        /* \"GitHub/MCS-School-Team/Project-Donat/ethereum/contracts/CrowdFunding_v1.sol\":5896:5910  campaigns[_id] */\n      0x00\n        /* \"GitHub/MCS-School-Team/Project-Donat/ethereum/contracts/CrowdFunding_v1.sol\":5906:5909  _id */\n      dup4\n        /* \"GitHub/MCS-School-Team/Project-Donat/ethereum/contracts/CrowdFunding_v1.sol\":5896:5910  campaigns[_id] */\n      dup2\n      mstore\n      0x20\n      add\n      swap1\n      dup2\n      mstore\n      0x20\n      add\n      0x00\n      keccak256\n        /* \"GitHub/MCS-School-Team/Project-Donat/ethereum/contracts/CrowdFunding_v1.sol\":5868:5910  Campaign storage campaign = campaigns[_id] */\n      swap1\n      pop\n        /* \"GitHub/MCS-School-Team/Project-Donat/ethereum/contracts/CrowdFunding_v1.sol\":5946:5956  State.OPEN */\n      0x01\n        /* \"GitHub/MCS-School-Team/Project-Donat/ethereum/contracts/CrowdFunding_v1.sol\":5928:5956  campaign.state == State.OPEN */\n      dup1\n      dup2\n      gt\n      iszero\n      tag_102\n      jumpi\n      tag_103\n      tag_104\n      jump\t// in\n    tag_103:\n    tag_102:\n        /* \"GitHub/MCS-School-Team/Project-Donat/ethereum/contracts/CrowdFunding_v1.sol\":5928:5936  campaign */\n      dup2\n        /* \"GitHub/MCS-School-Team/Project-Donat/ethereum/contracts/CrowdFunding_v1.sol\":5928:5942  campaign.state */\n      0x03\n      add\n      0x00\n      swap1\n      sload\n      swap1\n      0x0100\n      exp\n      swap1\n      div\n      0xff\n      and\n        /* \"GitHub/MCS-School-Team/Project-Donat/ethereum/contracts/CrowdFunding_v1.sol\":5928:5956  campaign.state == State.OPEN */\n      0x01\n      dup2\n      gt\n      iszero\n      tag_105\n      jumpi\n      tag_106\n      tag_104\n      jump\t// in\n    tag_106:\n    tag_105:\n      eq\n        /* \"GitHub/MCS-School-Team/Project-Donat/ethereum/contracts/CrowdFunding_v1.sol\":5920:5984  require(campaign.state == State.OPEN, \"campaign is not opened!\") */\n      tag_107\n      jumpi\n      mload(0x40)\n      0x08c379a000000000000000000000000000000000000000000000000000000000\n      dup2\n      mstore\n      0x04\n      add\n      tag_108\n      swap1\n      tag_109\n      jump\t// in\n    tag_108:\n      mload(0x40)\n      dup1\n      swap2\n      sub\n      swap1\n      revert\n    tag_107:\n        /* \"GitHub/MCS-School-Team/Project-Donat/ethereum/contracts/CrowdFunding_v1.sol\":6016:6024  campaign */\n      dup1\n        /* \"GitHub/MCS-School-Team/Project-Donat/ethereum/contracts/CrowdFunding_v1.sol\":6016:6030  campaign.owner */\n      0x00\n      add\n      0x00\n      swap1\n      sload\n      swap1\n      0x0100\n      exp\n      swap1\n      div\n      0xffffffffffffffffffffffffffffffffffffffff\n      and\n        /* \"GitHub/MCS-School-Team/Project-Donat/ethereum/contracts/CrowdFunding_v1.sol\":6002:6030  msg.sender == campaign.owner */\n      0xffffffffffffffffffffffffffffffffffffffff\n      and\n        /* \"GitHub/MCS-School-Team/Project-Donat/ethereum/contracts/CrowdFunding_v1.sol\":6002:6012  msg.sender */\n      caller\n        /* \"GitHub/MCS-School-Team/Project-Donat/ethereum/contracts/CrowdFunding_v1.sol\":6002:6030  msg.sender == campaign.owner */\n      0xffffffffffffffffffffffffffffffffffffffff\n      and\n      eq\n        /* \"GitHub/MCS-School-Team/Project-Donat/ethereum/contracts/CrowdFunding_v1.sol\":5994:6047  require(msg.sender == campaign.owner, \"not an owner\") */\n      tag_110\n      jumpi\n      mload(0x40)\n      0x08c379a000000000000000000000000000000000000000000000000000000000\n      dup2\n      mstore\n      0x04\n      add\n      tag_111\n      swap1\n      tag_112\n      jump\t// in\n    tag_111:\n      mload(0x40)\n      dup1\n      swap2\n      sub\n      swap1\n      revert\n    tag_110:\n        /* \"GitHub/MCS-School-Team/Project-Donat/ethereum/contracts/CrowdFunding_v1.sol\":6059:6077  uint pledgedAmount */\n      0x00\n        /* \"GitHub/MCS-School-Team/Project-Donat/ethereum/contracts/CrowdFunding_v1.sol\":6080:6087  pledges */\n      0x03\n        /* \"GitHub/MCS-School-Team/Project-Donat/ethereum/contracts/CrowdFunding_v1.sol\":6080:6092  pledges[_id] */\n      0x00\n        /* \"GitHub/MCS-School-Team/Project-Donat/ethereum/contracts/CrowdFunding_v1.sol\":6088:6091  _id */\n      dup5\n        /* \"GitHub/MCS-School-Team/Project-Donat/ethereum/contracts/CrowdFunding_v1.sol\":6080:6092  pledges[_id] */\n      dup2\n      mstore\n      0x20\n      add\n      swap1\n      dup2\n      mstore\n      0x20\n      add\n      0x00\n      keccak256\n        /* \"GitHub/MCS-School-Team/Project-Donat/ethereum/contracts/CrowdFunding_v1.sol\":6080:6104  pledges[_id][msg.sender] */\n      0x00\n        /* \"GitHub/MCS-School-Team/Project-Donat/ethereum/contracts/CrowdFunding_v1.sol\":6093:6103  msg.sender */\n      caller\n        /* \"GitHub/MCS-School-Team/Project-Donat/ethereum/contracts/CrowdFunding_v1.sol\":6080:6104  pledges[_id][msg.sender] */\n      0xffffffffffffffffffffffffffffffffffffffff\n      and\n      0xffffffffffffffffffffffffffffffffffffffff\n      and\n      dup2\n      mstore\n      0x20\n      add\n      swap1\n      dup2\n      mstore\n      0x20\n      add\n      0x00\n      keccak256\n      sload\n        /* \"GitHub/MCS-School-Team/Project-Donat/ethereum/contracts/CrowdFunding_v1.sol\":6059:6104  uint pledgedAmount = pledges[_id][msg.sender] */\n      swap1\n      pop\n        /* \"GitHub/MCS-School-Team/Project-Donat/ethereum/contracts/CrowdFunding_v1.sol\":6141:6142  0 */\n      0x00\n        /* \"GitHub/MCS-School-Team/Project-Donat/ethereum/contracts/CrowdFunding_v1.sol\":6114:6121  pledges */\n      0x03\n        /* \"GitHub/MCS-School-Team/Project-Donat/ethereum/contracts/CrowdFunding_v1.sol\":6114:6126  pledges[_id] */\n      0x00\n        /* \"GitHub/MCS-School-Team/Project-Donat/ethereum/contracts/CrowdFunding_v1.sol\":6122:6125  _id */\n      dup6\n        /* \"GitHub/MCS-School-Team/Project-Donat/ethereum/contracts/CrowdFunding_v1.sol\":6114:6126  pledges[_id] */\n      dup2\n      mstore\n      0x20\n      add\n      swap1\n      dup2\n      mstore\n      0x20\n      add\n      0x00\n      keccak256\n        /* \"GitHub/MCS-School-Team/Project-Donat/ethereum/contracts/CrowdFunding_v1.sol\":6114:6138  pledges[_id][msg.sender] */\n      0x00\n        /* \"GitHub/MCS-School-Team/Project-Donat/ethereum/contracts/CrowdFunding_v1.sol\":6127:6137  msg.sender */\n      caller\n        /* \"GitHub/MCS-School-Team/Project-Donat/ethereum/contracts/CrowdFunding_v1.sol\":6114:6138  pledges[_id][msg.sender] */\n      0xffffffffffffffffffffffffffffffffffffffff\n      and\n      0xffffffffffffffffffffffffffffffffffffffff\n      and\n      dup2\n      mstore\n      0x20\n      add\n      swap1\n      dup2\n      mstore\n      0x20\n      add\n      0x00\n      keccak256\n        /* \"GitHub/MCS-School-Team/Project-Donat/ethereum/contracts/CrowdFunding_v1.sol\":6114:6142  pledges[_id][msg.sender] = 0 */\n      dup2\n      swap1\n      sstore\n      pop\n        /* \"GitHub/MCS-School-Team/Project-Donat/ethereum/contracts/CrowdFunding_v1.sol\":6152:6157  token */\n      immutable(\"0x3b4066bd7b7960752225af105d3beafb5c47a26c5aae7e6798a437b7c0bb33e6\")\n        /* \"GitHub/MCS-School-Team/Project-Donat/ethereum/contracts/CrowdFunding_v1.sol\":6152:6166  token.transfer */\n      0xffffffffffffffffffffffffffffffffffffffff\n      and\n      0xa9059cbb\n        /* \"GitHub/MCS-School-Team/Project-Donat/ethereum/contracts/CrowdFunding_v1.sol\":6167:6177  msg.sender */\n      caller\n        /* \"GitHub/MCS-School-Team/Project-Donat/ethereum/contracts/CrowdFunding_v1.sol\":6179:6192  pledgedAmount */\n      dup4\n        /* \"GitHub/MCS-School-Team/Project-Donat/ethereum/contracts/CrowdFunding_v1.sol\":6152:6193  token.transfer(msg.sender, pledgedAmount) */\n      mload(0x40)\n      dup4\n      0xffffffff\n      and\n      0xe0\n      shl\n      dup2\n      mstore\n      0x04\n      add\n      tag_113\n      swap3\n      swap2\n      swap1\n      tag_114\n      jump\t// in\n    tag_113:\n      0x00\n      mload(0x40)\n      dup1\n      dup4\n      sub\n      dup2\n      0x00\n      dup8\n      dup1\n      extcodesize\n      iszero\n      dup1\n      iszero\n      tag_115\n      jumpi\n      0x00\n      dup1\n      revert\n    tag_115:\n      pop\n      gas\n      call\n      iszero\n      dup1\n      iszero\n      tag_117\n      jumpi\n      returndatasize\n      0x00\n      dup1\n      returndatacopy\n      revert(0x00, returndatasize)\n    tag_117:\n      pop\n      pop\n      pop\n      pop\n        /* \"GitHub/MCS-School-Team/Project-Donat/ethereum/contracts/CrowdFunding_v1.sol\":6208:6248  Refunded(_id, msg.sender, pledgedAmount) */\n      0x7ca5472b7ea78c2c0141c5a12ee6d170cf4ce8ed06be3d22c8252ddfc7a6a2c4\n        /* \"GitHub/MCS-School-Team/Project-Donat/ethereum/contracts/CrowdFunding_v1.sol\":6217:6220  _id */\n      dup4\n        /* \"GitHub/MCS-School-Team/Project-Donat/ethereum/contracts/CrowdFunding_v1.sol\":6222:6232  msg.sender */\n      caller\n        /* \"GitHub/MCS-School-Team/Project-Donat/ethereum/contracts/CrowdFunding_v1.sol\":6234:6247  pledgedAmount */\n      dup4\n        /* \"GitHub/MCS-School-Team/Project-Donat/ethereum/contracts/CrowdFunding_v1.sol\":6208:6248  Refunded(_id, msg.sender, pledgedAmount) */\n      mload(0x40)\n      tag_118\n      swap4\n      swap3\n      swap2\n      swap1\n      tag_119\n      jump\t// in\n    tag_118:\n      mload(0x40)\n      dup1\n      swap2\n      sub\n      swap1\n      log1\n        /* \"GitHub/MCS-School-Team/Project-Donat/ethereum/contracts/CrowdFunding_v1.sol\":5858:6255  {... */\n      pop\n      pop\n        /* \"GitHub/MCS-School-Team/Project-Donat/ethereum/contracts/CrowdFunding_v1.sol\":5823:6255  function refund(uint _id) external {... */\n      pop\n      jump\t// out\n        /* \"GitHub/MCS-School-Team/Project-Donat/ethereum/contracts/CrowdFunding_v1.sol\":5309:5758  function claim(uint _id) external {... */\n    tag_49:\n        /* \"GitHub/MCS-School-Team/Project-Donat/ethereum/contracts/CrowdFunding_v1.sol\":5353:5378  Campaign storage campaign */\n      0x00\n        /* \"GitHub/MCS-School-Team/Project-Donat/ethereum/contracts/CrowdFunding_v1.sol\":5381:5390  campaigns */\n      0x01\n        /* \"GitHub/MCS-School-Team/Project-Donat/ethereum/contracts/CrowdFunding_v1.sol\":5381:5395  campaigns[_id] */\n      0x00\n        /* \"GitHub/MCS-School-Team/Project-Donat/ethereum/contracts/CrowdFunding_v1.sol\":5391:5394  _id */\n      dup4\n        /* \"GitHub/MCS-School-Team/Project-Donat/ethereum/contracts/CrowdFunding_v1.sol\":5381:5395  campaigns[_id] */\n      dup2\n      mstore\n      0x20\n      add\n      swap1\n      dup2\n      mstore\n      0x20\n      add\n      0x00\n      keccak256\n        /* \"GitHub/MCS-School-Team/Project-Donat/ethereum/contracts/CrowdFunding_v1.sol\":5353:5395  Campaign storage campaign = campaigns[_id] */\n      swap1\n      pop\n        /* \"GitHub/MCS-School-Team/Project-Donat/ethereum/contracts/CrowdFunding_v1.sol\":5427:5435  campaign */\n      dup1\n        /* \"GitHub/MCS-School-Team/Project-Donat/ethereum/contracts/CrowdFunding_v1.sol\":5427:5441  campaign.owner */\n      0x00\n      add\n      0x00\n      swap1\n      sload\n      swap1\n      0x0100\n      exp\n      swap1\n      div\n      0xffffffffffffffffffffffffffffffffffffffff\n      and\n        /* \"GitHub/MCS-School-Team/Project-Donat/ethereum/contracts/CrowdFunding_v1.sol\":5413:5441  msg.sender == campaign.owner */\n      0xffffffffffffffffffffffffffffffffffffffff\n      and\n        /* \"GitHub/MCS-School-Team/Project-Donat/ethereum/contracts/CrowdFunding_v1.sol\":5413:5423  msg.sender */\n      caller\n        /* \"GitHub/MCS-School-Team/Project-Donat/ethereum/contracts/CrowdFunding_v1.sol\":5413:5441  msg.sender == campaign.owner */\n      0xffffffffffffffffffffffffffffffffffffffff\n      and\n      eq\n        /* \"GitHub/MCS-School-Team/Project-Donat/ethereum/contracts/CrowdFunding_v1.sol\":5413:5476  msg.sender == campaign.owner || admins[_id][msg.sender] == true */\n      dup1\n      tag_121\n      jumpi\n      pop\n        /* \"GitHub/MCS-School-Team/Project-Donat/ethereum/contracts/CrowdFunding_v1.sol\":5472:5476  true */\n      0x01\n        /* \"GitHub/MCS-School-Team/Project-Donat/ethereum/contracts/CrowdFunding_v1.sol\":5445:5476  admins[_id][msg.sender] == true */\n      iszero\n      iszero\n        /* \"GitHub/MCS-School-Team/Project-Donat/ethereum/contracts/CrowdFunding_v1.sol\":5445:5451  admins */\n      0x04\n        /* \"GitHub/MCS-School-Team/Project-Donat/ethereum/contracts/CrowdFunding_v1.sol\":5445:5456  admins[_id] */\n      0x00\n        /* \"GitHub/MCS-School-Team/Project-Donat/ethereum/contracts/CrowdFunding_v1.sol\":5452:5455  _id */\n      dup5\n        /* \"GitHub/MCS-School-Team/Project-Donat/ethereum/contracts/CrowdFunding_v1.sol\":5445:5456  admins[_id] */\n      dup2\n      mstore\n      0x20\n      add\n      swap1\n      dup2\n      mstore\n      0x20\n      add\n      0x00\n      keccak256\n        /* \"GitHub/MCS-School-Team/Project-Donat/ethereum/contracts/CrowdFunding_v1.sol\":5445:5468  admins[_id][msg.sender] */\n      0x00\n        /* \"GitHub/MCS-School-Team/Project-Donat/ethereum/contracts/CrowdFunding_v1.sol\":5457:5467  msg.sender */\n      caller\n        /* \"GitHub/MCS-School-Team/Project-Donat/ethereum/contracts/CrowdFunding_v1.sol\":5445:5468  admins[_id][msg.sender] */\n      0xffffffffffffffffffffffffffffffffffffffff\n      and\n      0xffffffffffffffffffffffffffffffffffffffff\n      and\n      dup2\n      mstore\n      0x20\n      add\n      swap1\n      dup2\n      mstore\n      0x20\n      add\n      0x00\n      keccak256\n      0x00\n      swap1\n      sload\n      swap1\n      0x0100\n      exp\n      swap1\n      div\n      0xff\n      and\n        /* \"GitHub/MCS-School-Team/Project-Donat/ethereum/contracts/CrowdFunding_v1.sol\":5445:5476  admins[_id][msg.sender] == true */\n      iszero\n      iszero\n      eq\n        /* \"GitHub/MCS-School-Team/Project-Donat/ethereum/contracts/CrowdFunding_v1.sol\":5413:5476  msg.sender == campaign.owner || admins[_id][msg.sender] == true */\n    tag_121:\n        /* \"GitHub/MCS-School-Team/Project-Donat/ethereum/contracts/CrowdFunding_v1.sol\":5405:5499  require(msg.sender == campaign.owner || admins[_id][msg.sender] == true, \"not enough rights!\") */\n      tag_122\n      jumpi\n      mload(0x40)\n      0x08c379a000000000000000000000000000000000000000000000000000000000\n      dup2\n      mstore\n      0x04\n      add\n      tag_123\n      swap1\n      tag_124\n      jump\t// in\n    tag_123:\n      mload(0x40)\n      dup1\n      swap2\n      sub\n      swap1\n      revert\n    tag_122:\n        /* \"GitHub/MCS-School-Team/Project-Donat/ethereum/contracts/CrowdFunding_v1.sol\":5537:5545  campaign */\n      dup1\n        /* \"GitHub/MCS-School-Team/Project-Donat/ethereum/contracts/CrowdFunding_v1.sol\":5537:5550  campaign.goal */\n      0x01\n      add\n      sload\n        /* \"GitHub/MCS-School-Team/Project-Donat/ethereum/contracts/CrowdFunding_v1.sol\":5517:5525  campaign */\n      dup2\n        /* \"GitHub/MCS-School-Team/Project-Donat/ethereum/contracts/CrowdFunding_v1.sol\":5517:5533  campaign.pledged */\n      0x02\n      add\n      sload\n        /* \"GitHub/MCS-School-Team/Project-Donat/ethereum/contracts/CrowdFunding_v1.sol\":5517:5550  campaign.pledged >= campaign.goal */\n      lt\n      iszero\n        /* \"GitHub/MCS-School-Team/Project-Donat/ethereum/contracts/CrowdFunding_v1.sol\":5509:5573  require(campaign.pledged >= campaign.goal, \"pledged is too low\") */\n      tag_125\n      jumpi\n      mload(0x40)\n      0x08c379a000000000000000000000000000000000000000000000000000000000\n      dup2\n      mstore\n      0x04\n      add\n      tag_126\n      swap1\n      tag_127\n      jump\t// in\n    tag_126:\n      mload(0x40)\n      dup1\n      swap2\n      sub\n      swap1\n      revert\n    tag_125:\n        /* \"GitHub/MCS-School-Team/Project-Donat/ethereum/contracts/CrowdFunding_v1.sol\":5592:5600  campaign */\n      dup1\n        /* \"GitHub/MCS-School-Team/Project-Donat/ethereum/contracts/CrowdFunding_v1.sol\":5592:5608  campaign.claimed */\n      0x03\n      add\n      0x01\n      swap1\n      sload\n      swap1\n      0x0100\n      exp\n      swap1\n      div\n      0xff\n      and\n        /* \"GitHub/MCS-School-Team/Project-Donat/ethereum/contracts/CrowdFunding_v1.sol\":5591:5608  !campaign.claimed */\n      iszero\n        /* \"GitHub/MCS-School-Team/Project-Donat/ethereum/contracts/CrowdFunding_v1.sol\":5583:5628  require(!campaign.claimed, \"already claimed\") */\n      tag_128\n      jumpi\n      mload(0x40)\n      0x08c379a000000000000000000000000000000000000000000000000000000000\n      dup2\n      mstore\n      0x04\n      add\n      tag_129\n      swap1\n      tag_130\n      jump\t// in\n    tag_129:\n      mload(0x40)\n      dup1\n      swap2\n      sub\n      swap1\n      revert\n    tag_128:\n        /* \"GitHub/MCS-School-Team/Project-Donat/ethereum/contracts/CrowdFunding_v1.sol\":5666:5670  true */\n      0x01\n        /* \"GitHub/MCS-School-Team/Project-Donat/ethereum/contracts/CrowdFunding_v1.sol\":5647:5655  campaign */\n      dup2\n        /* \"GitHub/MCS-School-Team/Project-Donat/ethereum/contracts/CrowdFunding_v1.sol\":5647:5663  campaign.claimed */\n      0x03\n      add\n      0x01\n        /* \"GitHub/MCS-School-Team/Project-Donat/ethereum/contracts/CrowdFunding_v1.sol\":5647:5670  campaign.claimed = true */\n      0x0100\n      exp\n      dup2\n      sload\n      dup2\n      0xff\n      mul\n      not\n      and\n      swap1\n      dup4\n      iszero\n      iszero\n      mul\n      or\n      swap1\n      sstore\n      pop\n        /* \"GitHub/MCS-School-Team/Project-Donat/ethereum/contracts/CrowdFunding_v1.sol\":5680:5685  token */\n      immutable(\"0x3b4066bd7b7960752225af105d3beafb5c47a26c5aae7e6798a437b7c0bb33e6\")\n        /* \"GitHub/MCS-School-Team/Project-Donat/ethereum/contracts/CrowdFunding_v1.sol\":5680:5694  token.transfer */\n      0xffffffffffffffffffffffffffffffffffffffff\n      and\n      0xa9059cbb\n        /* \"GitHub/MCS-School-Team/Project-Donat/ethereum/contracts/CrowdFunding_v1.sol\":5695:5705  msg.sender */\n      caller\n        /* \"GitHub/MCS-School-Team/Project-Donat/ethereum/contracts/CrowdFunding_v1.sol\":5707:5715  campaign */\n      dup4\n        /* \"GitHub/MCS-School-Team/Project-Donat/ethereum/contracts/CrowdFunding_v1.sol\":5707:5723  campaign.pledged */\n      0x02\n      add\n      sload\n        /* \"GitHub/MCS-School-Team/Project-Donat/ethereum/contracts/CrowdFunding_v1.sol\":5680:5724  token.transfer(msg.sender, campaign.pledged) */\n      mload(0x40)\n      dup4\n      0xffffffff\n      and\n      0xe0\n      shl\n      dup2\n      mstore\n      0x04\n      add\n      tag_131\n      swap3\n      swap2\n      swap1\n      tag_114\n      jump\t// in\n    tag_131:\n      0x00\n      mload(0x40)\n      dup1\n      dup4\n      sub\n      dup2\n      0x00\n      dup8\n      dup1\n      extcodesize\n      iszero\n      dup1\n      iszero\n      tag_132\n      jumpi\n      0x00\n      dup1\n      revert\n    tag_132:\n      pop\n      gas\n      call\n      iszero\n      dup1\n      iszero\n      tag_134\n      jumpi\n      returndatasize\n      0x00\n      dup1\n      returndatacopy\n      revert(0x00, returndatasize)\n    tag_134:\n      pop\n      pop\n      pop\n      pop\n        /* \"GitHub/MCS-School-Team/Project-Donat/ethereum/contracts/CrowdFunding_v1.sol\":5739:5751  Claimed(_id) */\n      0x7a355715549cfe7c1cba26304350343fbddc4b4f72d3ce3e7c27117dd20b5cb8\n        /* \"GitHub/MCS-School-Team/Project-Donat/ethereum/contracts/CrowdFunding_v1.sol\":5747:5750  _id */\n      dup3\n        /* \"GitHub/MCS-School-Team/Project-Donat/ethereum/contracts/CrowdFunding_v1.sol\":5739:5751  Claimed(_id) */\n      mload(0x40)\n      tag_135\n      swap2\n      swap1\n      tag_25\n      jump\t// in\n    tag_135:\n      mload(0x40)\n      dup1\n      swap2\n      sub\n      swap1\n      log1\n        /* \"GitHub/MCS-School-Team/Project-Donat/ethereum/contracts/CrowdFunding_v1.sol\":5343:5758  {... */\n      pop\n        /* \"GitHub/MCS-School-Team/Project-Donat/ethereum/contracts/CrowdFunding_v1.sol\":5309:5758  function claim(uint _id) external {... */\n      pop\n      jump\t// out\n        /* \"GitHub/MCS-School-Team/Project-Donat/ethereum/contracts/CrowdFunding_v1.sol\":3136:3472  function cancel(uint _id) external {... */\n    tag_53:\n        /* \"GitHub/MCS-School-Team/Project-Donat/ethereum/contracts/CrowdFunding_v1.sol\":3182:3206  Campaign memory campaign */\n      0x00\n        /* \"GitHub/MCS-School-Team/Project-Donat/ethereum/contracts/CrowdFunding_v1.sol\":3209:3218  campaigns */\n      0x01\n        /* \"GitHub/MCS-School-Team/Project-Donat/ethereum/contracts/CrowdFunding_v1.sol\":3209:3223  campaigns[_id] */\n      0x00\n        /* \"GitHub/MCS-School-Team/Project-Donat/ethereum/contracts/CrowdFunding_v1.sol\":3219:3222  _id */\n      dup4\n        /* \"GitHub/MCS-School-Team/Project-Donat/ethereum/contracts/CrowdFunding_v1.sol\":3209:3223  campaigns[_id] */\n      dup2\n      mstore\n      0x20\n      add\n      swap1\n      dup2\n      mstore\n      0x20\n      add\n      0x00\n      keccak256\n        /* \"GitHub/MCS-School-Team/Project-Donat/ethereum/contracts/CrowdFunding_v1.sol\":3182:3223  Campaign memory campaign = campaigns[_id] */\n      mload(0x40)\n      dup1\n      0xa0\n      add\n      0x40\n      mstore\n      swap1\n      dup2\n      0x00\n      dup3\n      add\n      0x00\n      swap1\n      sload\n      swap1\n      0x0100\n      exp\n      swap1\n      div\n      0xffffffffffffffffffffffffffffffffffffffff\n      and\n      0xffffffffffffffffffffffffffffffffffffffff\n      and\n      0xffffffffffffffffffffffffffffffffffffffff\n      and\n      dup2\n      mstore\n      0x20\n      add\n      0x01\n      dup3\n      add\n      sload\n      dup2\n      mstore\n      0x20\n      add\n      0x02\n      dup3\n      add\n      sload\n      dup2\n      mstore\n      0x20\n      add\n      0x03\n      dup3\n      add\n      0x00\n      swap1\n      sload\n      swap1\n      0x0100\n      exp\n      swap1\n      div\n      0xff\n      and\n      0x01\n      dup2\n      gt\n      iszero\n      tag_137\n      jumpi\n      tag_138\n      tag_104\n      jump\t// in\n    tag_138:\n    tag_137:\n      0x01\n      dup2\n      gt\n      iszero\n      tag_139\n      jumpi\n      tag_140\n      tag_104\n      jump\t// in\n    tag_140:\n    tag_139:\n      dup2\n      mstore\n      0x20\n      add\n      0x03\n      dup3\n      add\n      0x01\n      swap1\n      sload\n      swap1\n      0x0100\n      exp\n      swap1\n      div\n      0xff\n      and\n      iszero\n      iszero\n      iszero\n      iszero\n      dup2\n      mstore\n      pop\n      pop\n      swap1\n      pop\n        /* \"GitHub/MCS-School-Team/Project-Donat/ethereum/contracts/CrowdFunding_v1.sol\":3256:3264  campaign */\n      dup1\n        /* \"GitHub/MCS-School-Team/Project-Donat/ethereum/contracts/CrowdFunding_v1.sol\":3256:3270  campaign.owner */\n      0x00\n      add\n      mload\n        /* \"GitHub/MCS-School-Team/Project-Donat/ethereum/contracts/CrowdFunding_v1.sol\":3242:3270  msg.sender == campaign.owner */\n      0xffffffffffffffffffffffffffffffffffffffff\n      and\n        /* \"GitHub/MCS-School-Team/Project-Donat/ethereum/contracts/CrowdFunding_v1.sol\":3242:3252  msg.sender */\n      caller\n        /* \"GitHub/MCS-School-Team/Project-Donat/ethereum/contracts/CrowdFunding_v1.sol\":3242:3270  msg.sender == campaign.owner */\n      0xffffffffffffffffffffffffffffffffffffffff\n      and\n      eq\n        /* \"GitHub/MCS-School-Team/Project-Donat/ethereum/contracts/CrowdFunding_v1.sol\":3234:3288  require(msg.sender == campaign.owner, \"not an owner!\") */\n      tag_141\n      jumpi\n      mload(0x40)\n      0x08c379a000000000000000000000000000000000000000000000000000000000\n      dup2\n      mstore\n      0x04\n      add\n      tag_142\n      swap1\n      tag_143\n      jump\t// in\n    tag_142:\n      mload(0x40)\n      dup1\n      swap2\n      sub\n      swap1\n      revert\n    tag_141:\n        /* \"GitHub/MCS-School-Team/Project-Donat/ethereum/contracts/CrowdFunding_v1.sol\":3325:3335  State.OPEN */\n      0x01\n        /* \"GitHub/MCS-School-Team/Project-Donat/ethereum/contracts/CrowdFunding_v1.sol\":3307:3335  campaign.state == State.OPEN */\n      dup1\n      dup2\n      gt\n      iszero\n      tag_144\n      jumpi\n      tag_145\n      tag_104\n      jump\t// in\n    tag_145:\n    tag_144:\n        /* \"GitHub/MCS-School-Team/Project-Donat/ethereum/contracts/CrowdFunding_v1.sol\":3307:3315  campaign */\n      dup2\n        /* \"GitHub/MCS-School-Team/Project-Donat/ethereum/contracts/CrowdFunding_v1.sol\":3307:3321  campaign.state */\n      0x60\n      add\n      mload\n        /* \"GitHub/MCS-School-Team/Project-Donat/ethereum/contracts/CrowdFunding_v1.sol\":3307:3335  campaign.state == State.OPEN */\n      0x01\n      dup2\n      gt\n      iszero\n      tag_146\n      jumpi\n      tag_147\n      tag_104\n      jump\t// in\n    tag_147:\n    tag_146:\n      eq\n        /* \"GitHub/MCS-School-Team/Project-Donat/ethereum/contracts/CrowdFunding_v1.sol\":3299:3363  require(campaign.state == State.OPEN, \"campaign is not opened!\") */\n      tag_148\n      jumpi\n      mload(0x40)\n      0x08c379a000000000000000000000000000000000000000000000000000000000\n      dup2\n      mstore\n      0x04\n      add\n      tag_149\n      swap1\n      tag_109\n      jump\t// in\n    tag_149:\n      mload(0x40)\n      dup1\n      swap2\n      sub\n      swap1\n      revert\n    tag_148:\n        /* \"GitHub/MCS-School-Team/Project-Donat/ethereum/contracts/CrowdFunding_v1.sol\":3383:3392  campaigns */\n      0x01\n        /* \"GitHub/MCS-School-Team/Project-Donat/ethereum/contracts/CrowdFunding_v1.sol\":3383:3397  campaigns[_id] */\n      0x00\n        /* \"GitHub/MCS-School-Team/Project-Donat/ethereum/contracts/CrowdFunding_v1.sol\":3393:3396  _id */\n      dup4\n        /* \"GitHub/MCS-School-Team/Project-Donat/ethereum/contracts/CrowdFunding_v1.sol\":3383:3397  campaigns[_id] */\n      dup2\n      mstore\n      0x20\n      add\n      swap1\n      dup2\n      mstore\n      0x20\n      add\n      0x00\n      keccak256\n      0x00\n        /* \"GitHub/MCS-School-Team/Project-Donat/ethereum/contracts/CrowdFunding_v1.sol\":3376:3397  delete campaigns[_id] */\n      dup1\n      dup3\n      add\n      exp(0x0100, 0x00)\n      dup2\n      sload\n      swap1\n      0xffffffffffffffffffffffffffffffffffffffff\n      mul\n      not\n      and\n      swap1\n      sstore\n      0x01\n      dup3\n      add\n      0x00\n      swap1\n      sstore\n      0x02\n      dup3\n      add\n      0x00\n      swap1\n      sstore\n      0x03\n      dup3\n      add\n      exp(0x0100, 0x00)\n      dup2\n      sload\n      swap1\n      0xff\n      mul\n      not\n      and\n      swap1\n      sstore\n      0x03\n      dup3\n      add\n      exp(0x0100, 0x01)\n      dup2\n      sload\n      swap1\n      0xff\n      mul\n      not\n      and\n      swap1\n      sstore\n      pop\n      pop\n        /* \"GitHub/MCS-School-Team/Project-Donat/ethereum/contracts/CrowdFunding_v1.sol\":3413:3424  Cancel(_id) */\n      0x8bf30e7ff26833413be5f69e1d373744864d600b664204b4a2f9844a8eedb9ed\n        /* \"GitHub/MCS-School-Team/Project-Donat/ethereum/contracts/CrowdFunding_v1.sol\":3420:3423  _id */\n      dup3\n        /* \"GitHub/MCS-School-Team/Project-Donat/ethereum/contracts/CrowdFunding_v1.sol\":3413:3424  Cancel(_id) */\n      mload(0x40)\n      tag_150\n      swap2\n      swap1\n      tag_25\n      jump\t// in\n    tag_150:\n      mload(0x40)\n      dup1\n      swap2\n      sub\n      swap1\n      log1\n        /* \"GitHub/MCS-School-Team/Project-Donat/ethereum/contracts/CrowdFunding_v1.sol\":3171:3472  {... */\n      pop\n        /* \"GitHub/MCS-School-Team/Project-Donat/ethereum/contracts/CrowdFunding_v1.sol\":3136:3472  function cancel(uint _id) external {... */\n      pop\n      jump\t// out\n        /* \"GitHub/MCS-School-Team/Project-Donat/ethereum/contracts/CrowdFunding_v1.sol\":2466:2575  function getValueClosed() public view returns(uint) {... */\n    tag_56:\n        /* \"GitHub/MCS-School-Team/Project-Donat/ethereum/contracts/CrowdFunding_v1.sol\":2512:2516  uint */\n      0x00\n        /* \"GitHub/MCS-School-Team/Project-Donat/ethereum/contracts/CrowdFunding_v1.sol\":2536:2547  testMapping */\n      dup1\n        /* \"GitHub/MCS-School-Team/Project-Donat/ethereum/contracts/CrowdFunding_v1.sol\":2536:2567  testMapping[uint(State.CLOSED)] */\n      0x00\n        /* \"GitHub/MCS-School-Team/Project-Donat/ethereum/contracts/CrowdFunding_v1.sol\":2553:2565  State.CLOSED */\n      dup1\n        /* \"GitHub/MCS-School-Team/Project-Donat/ethereum/contracts/CrowdFunding_v1.sol\":2548:2566  uint(State.CLOSED) */\n      0x01\n      dup2\n      gt\n      iszero\n      tag_152\n      jumpi\n      tag_153\n      tag_104\n      jump\t// in\n    tag_153:\n    tag_152:\n        /* \"GitHub/MCS-School-Team/Project-Donat/ethereum/contracts/CrowdFunding_v1.sol\":2536:2567  testMapping[uint(State.CLOSED)] */\n      dup2\n      mstore\n      0x20\n      add\n      swap1\n      dup2\n      mstore\n      0x20\n      add\n      0x00\n      keccak256\n      sload\n        /* \"GitHub/MCS-School-Team/Project-Donat/ethereum/contracts/CrowdFunding_v1.sol\":2529:2567  return testMapping[uint(State.CLOSED)] */\n      swap1\n      pop\n        /* \"GitHub/MCS-School-Team/Project-Donat/ethereum/contracts/CrowdFunding_v1.sol\":2466:2575  function getValueClosed() public view returns(uint) {... */\n      swap1\n      jump\t// out\n        /* \"GitHub/MCS-School-Team/Project-Donat/ethereum/contracts/CrowdFunding_v1.sol\":4496:4868  function unpledge(uint _id, uint _amount) external {... */\n    tag_62:\n        /* \"GitHub/MCS-School-Team/Project-Donat/ethereum/contracts/CrowdFunding_v1.sol\":4557:4582  Campaign storage campaign */\n      0x00\n        /* \"GitHub/MCS-School-Team/Project-Donat/ethereum/contracts/CrowdFunding_v1.sol\":4585:4594  campaigns */\n      0x01\n        /* \"GitHub/MCS-School-Team/Project-Donat/ethereum/contracts/CrowdFunding_v1.sol\":4585:4599  campaigns[_id] */\n      0x00\n        /* \"GitHub/MCS-School-Team/Project-Donat/ethereum/contracts/CrowdFunding_v1.sol\":4595:4598  _id */\n      dup5\n        /* \"GitHub/MCS-School-Team/Project-Donat/ethereum/contracts/CrowdFunding_v1.sol\":4585:4599  campaigns[_id] */\n      dup2\n      mstore\n      0x20\n      add\n      swap1\n      dup2\n      mstore\n      0x20\n      add\n      0x00\n      keccak256\n        /* \"GitHub/MCS-School-Team/Project-Donat/ethereum/contracts/CrowdFunding_v1.sol\":4557:4599  Campaign storage campaign = campaigns[_id] */\n      swap1\n      pop\n        /* \"GitHub/MCS-School-Team/Project-Donat/ethereum/contracts/CrowdFunding_v1.sol\":4635:4645  State.OPEN */\n      0x01\n        /* \"GitHub/MCS-School-Team/Project-Donat/ethereum/contracts/CrowdFunding_v1.sol\":4617:4645  campaign.state == State.OPEN */\n      dup1\n      dup2\n      gt\n      iszero\n      tag_155\n      jumpi\n      tag_156\n      tag_104\n      jump\t// in\n    tag_156:\n    tag_155:\n        /* \"GitHub/MCS-School-Team/Project-Donat/ethereum/contracts/CrowdFunding_v1.sol\":4617:4625  campaign */\n      dup2\n        /* \"GitHub/MCS-School-Team/Project-Donat/ethereum/contracts/CrowdFunding_v1.sol\":4617:4631  campaign.state */\n      0x03\n      add\n      0x00\n      swap1\n      sload\n      swap1\n      0x0100\n      exp\n      swap1\n      div\n      0xff\n      and\n        /* \"GitHub/MCS-School-Team/Project-Donat/ethereum/contracts/CrowdFunding_v1.sol\":4617:4645  campaign.state == State.OPEN */\n      0x01\n      dup2\n      gt\n      iszero\n      tag_157\n      jumpi\n      tag_158\n      tag_104\n      jump\t// in\n    tag_158:\n    tag_157:\n      eq\n        /* \"GitHub/MCS-School-Team/Project-Donat/ethereum/contracts/CrowdFunding_v1.sol\":4609:4673  require(campaign.state == State.OPEN, \"campaign is not opened!\") */\n      tag_159\n      jumpi\n      mload(0x40)\n      0x08c379a000000000000000000000000000000000000000000000000000000000\n      dup2\n      mstore\n      0x04\n      add\n      tag_160\n      swap1\n      tag_109\n      jump\t// in\n    tag_160:\n      mload(0x40)\n      dup1\n      swap2\n      sub\n      swap1\n      revert\n    tag_159:\n        /* \"GitHub/MCS-School-Team/Project-Donat/ethereum/contracts/CrowdFunding_v1.sol\":4712:4719  _amount */\n      dup2\n        /* \"GitHub/MCS-School-Team/Project-Donat/ethereum/contracts/CrowdFunding_v1.sol\":4692:4700  campaign */\n      dup2\n        /* \"GitHub/MCS-School-Team/Project-Donat/ethereum/contracts/CrowdFunding_v1.sol\":4692:4708  campaign.pledged */\n      0x02\n      add\n      0x00\n        /* \"GitHub/MCS-School-Team/Project-Donat/ethereum/contracts/CrowdFunding_v1.sol\":4692:4719  campaign.pledged -= _amount */\n      dup3\n      dup3\n      sload\n      tag_161\n      swap2\n      swap1\n      tag_162\n      jump\t// in\n    tag_161:\n      swap3\n      pop\n      pop\n      dup2\n      swap1\n      sstore\n      pop\n        /* \"GitHub/MCS-School-Team/Project-Donat/ethereum/contracts/CrowdFunding_v1.sol\":4757:4764  _amount */\n      dup2\n        /* \"GitHub/MCS-School-Team/Project-Donat/ethereum/contracts/CrowdFunding_v1.sol\":4729:4736  pledges */\n      0x03\n        /* \"GitHub/MCS-School-Team/Project-Donat/ethereum/contracts/CrowdFunding_v1.sol\":4729:4741  pledges[_id] */\n      0x00\n        /* \"GitHub/MCS-School-Team/Project-Donat/ethereum/contracts/CrowdFunding_v1.sol\":4737:4740  _id */\n      dup6\n        /* \"GitHub/MCS-School-Team/Project-Donat/ethereum/contracts/CrowdFunding_v1.sol\":4729:4741  pledges[_id] */\n      dup2\n      mstore\n      0x20\n      add\n      swap1\n      dup2\n      mstore\n      0x20\n      add\n      0x00\n      keccak256\n        /* \"GitHub/MCS-School-Team/Project-Donat/ethereum/contracts/CrowdFunding_v1.sol\":4729:4753  pledges[_id][msg.sender] */\n      0x00\n        /* \"GitHub/MCS-School-Team/Project-Donat/ethereum/contracts/CrowdFunding_v1.sol\":4742:4752  msg.sender */\n      caller\n        /* \"GitHub/MCS-School-Team/Project-Donat/ethereum/contracts/CrowdFunding_v1.sol\":4729:4753  pledges[_id][msg.sender] */\n      0xffffffffffffffffffffffffffffffffffffffff\n      and\n      0xffffffffffffffffffffffffffffffffffffffff\n      and\n      dup2\n      mstore\n      0x20\n      add\n      swap1\n      dup2\n      mstore\n      0x20\n      add\n      0x00\n      keccak256\n      0x00\n        /* \"GitHub/MCS-School-Team/Project-Donat/ethereum/contracts/CrowdFunding_v1.sol\":4729:4764  pledges[_id][msg.sender] -= _amount */\n      dup3\n      dup3\n      sload\n      tag_163\n      swap2\n      swap1\n      tag_162\n      jump\t// in\n    tag_163:\n      swap3\n      pop\n      pop\n      dup2\n      swap1\n      sstore\n      pop\n        /* \"GitHub/MCS-School-Team/Project-Donat/ethereum/contracts/CrowdFunding_v1.sol\":4774:4779  token */\n      immutable(\"0x3b4066bd7b7960752225af105d3beafb5c47a26c5aae7e6798a437b7c0bb33e6\")\n        /* \"GitHub/MCS-School-Team/Project-Donat/ethereum/contracts/CrowdFunding_v1.sol\":4774:4788  token.transfer */\n      0xffffffffffffffffffffffffffffffffffffffff\n      and\n      0xa9059cbb\n        /* \"GitHub/MCS-School-Team/Project-Donat/ethereum/contracts/CrowdFunding_v1.sol\":4789:4799  msg.sender */\n      caller\n        /* \"GitHub/MCS-School-Team/Project-Donat/ethereum/contracts/CrowdFunding_v1.sol\":4801:4808  _amount */\n      dup5\n        /* \"GitHub/MCS-School-Team/Project-Donat/ethereum/contracts/CrowdFunding_v1.sol\":4774:4809  token.transfer(msg.sender, _amount) */\n      mload(0x40)\n      dup4\n      0xffffffff\n      and\n      0xe0\n      shl\n      dup2\n      mstore\n      0x04\n      add\n      tag_164\n      swap3\n      swap2\n      swap1\n      tag_114\n      jump\t// in\n    tag_164:\n      0x00\n      mload(0x40)\n      dup1\n      dup4\n      sub\n      dup2\n      0x00\n      dup8\n      dup1\n      extcodesize\n      iszero\n      dup1\n      iszero\n      tag_165\n      jumpi\n      0x00\n      dup1\n      revert\n    tag_165:\n      pop\n      gas\n      call\n      iszero\n      dup1\n      iszero\n      tag_167\n      jumpi\n      returndatasize\n      0x00\n      dup1\n      returndatacopy\n      revert(0x00, returndatasize)\n    tag_167:\n      pop\n      pop\n      pop\n      pop\n        /* \"GitHub/MCS-School-Team/Project-Donat/ethereum/contracts/CrowdFunding_v1.sol\":4826:4861  Unpledged(_id, msg.sender, _amount) */\n      0xfcd29b1632c6748a9a4bb9b4cd5c6486c3c84a8550dce2368f83fef3969d9685\n        /* \"GitHub/MCS-School-Team/Project-Donat/ethereum/contracts/CrowdFunding_v1.sol\":4836:4839  _id */\n      dup4\n        /* \"GitHub/MCS-School-Team/Project-Donat/ethereum/contracts/CrowdFunding_v1.sol\":4841:4851  msg.sender */\n      caller\n        /* \"GitHub/MCS-School-Team/Project-Donat/ethereum/contracts/CrowdFunding_v1.sol\":4853:4860  _amount */\n      dup5\n        /* \"GitHub/MCS-School-Team/Project-Donat/ethereum/contracts/CrowdFunding_v1.sol\":4826:4861  Unpledged(_id, msg.sender, _amount) */\n      mload(0x40)\n      tag_168\n      swap4\n      swap3\n      swap2\n      swap1\n      tag_119\n      jump\t// in\n    tag_168:\n      mload(0x40)\n      dup1\n      swap2\n      sub\n      swap1\n      log1\n        /* \"GitHub/MCS-School-Team/Project-Donat/ethereum/contracts/CrowdFunding_v1.sol\":4547:4868  {... */\n      pop\n        /* \"GitHub/MCS-School-Team/Project-Donat/ethereum/contracts/CrowdFunding_v1.sol\":4496:4868  function unpledge(uint _id, uint _amount) external {... */\n      pop\n      pop\n      jump\t// out\n        /* \"GitHub/MCS-School-Team/Project-Donat/ethereum/contracts/CrowdFunding_v1.sol\":2740:3081  function launch(uint _goal) public {... */\n    tag_66:\n        /* \"GitHub/MCS-School-Team/Project-Donat/ethereum/contracts/CrowdFunding_v1.sol\":2815:2980  Campaign({... */\n      mload(0x40)\n      dup1\n      0xa0\n      add\n      0x40\n      mstore\n      dup1\n        /* \"GitHub/MCS-School-Team/Project-Donat/ethereum/contracts/CrowdFunding_v1.sol\":2846:2856  msg.sender */\n      caller\n        /* \"GitHub/MCS-School-Team/Project-Donat/ethereum/contracts/CrowdFunding_v1.sol\":2815:2980  Campaign({... */\n      0xffffffffffffffffffffffffffffffffffffffff\n      and\n      dup2\n      mstore\n      0x20\n      add\n        /* \"GitHub/MCS-School-Team/Project-Donat/ethereum/contracts/CrowdFunding_v1.sol\":2877:2882  _goal */\n      dup3\n        /* \"GitHub/MCS-School-Team/Project-Donat/ethereum/contracts/CrowdFunding_v1.sol\":2815:2980  Campaign({... */\n      dup2\n      mstore\n      0x20\n      add\n        /* \"GitHub/MCS-School-Team/Project-Donat/ethereum/contracts/CrowdFunding_v1.sol\":2906:2907  0 */\n      0x00\n        /* \"GitHub/MCS-School-Team/Project-Donat/ethereum/contracts/CrowdFunding_v1.sol\":2815:2980  Campaign({... */\n      dup2\n      mstore\n      0x20\n      add\n        /* \"GitHub/MCS-School-Team/Project-Donat/ethereum/contracts/CrowdFunding_v1.sol\":2929:2939  State.OPEN */\n      0x01\n        /* \"GitHub/MCS-School-Team/Project-Donat/ethereum/contracts/CrowdFunding_v1.sol\":2815:2980  Campaign({... */\n      dup1\n      dup2\n      gt\n      iszero\n      tag_170\n      jumpi\n      tag_171\n      tag_104\n      jump\t// in\n    tag_171:\n    tag_170:\n      dup2\n      mstore\n      0x20\n      add\n        /* \"GitHub/MCS-School-Team/Project-Donat/ethereum/contracts/CrowdFunding_v1.sol\":2963:2968  false */\n      0x00\n        /* \"GitHub/MCS-School-Team/Project-Donat/ethereum/contracts/CrowdFunding_v1.sol\":2815:2980  Campaign({... */\n      iszero\n      iszero\n      dup2\n      mstore\n      pop\n        /* \"GitHub/MCS-School-Team/Project-Donat/ethereum/contracts/CrowdFunding_v1.sol\":2792:2801  campaigns */\n      0x01\n        /* \"GitHub/MCS-School-Team/Project-Donat/ethereum/contracts/CrowdFunding_v1.sol\":2792:2812  campaigns[currentId] */\n      0x00\n        /* \"GitHub/MCS-School-Team/Project-Donat/ethereum/contracts/CrowdFunding_v1.sol\":2802:2811  currentId */\n      sload(0x02)\n        /* \"GitHub/MCS-School-Team/Project-Donat/ethereum/contracts/CrowdFunding_v1.sol\":2792:2812  campaigns[currentId] */\n      dup2\n      mstore\n      0x20\n      add\n      swap1\n      dup2\n      mstore\n      0x20\n      add\n      0x00\n      keccak256\n        /* \"GitHub/MCS-School-Team/Project-Donat/ethereum/contracts/CrowdFunding_v1.sol\":2792:2980  campaigns[currentId] = Campaign({... */\n      0x00\n      dup3\n      add\n      mload\n      dup2\n      0x00\n      add\n      exp(0x0100, 0x00)\n      dup2\n      sload\n      dup2\n      0xffffffffffffffffffffffffffffffffffffffff\n      mul\n      not\n      and\n      swap1\n      dup4\n      0xffffffffffffffffffffffffffffffffffffffff\n      and\n      mul\n      or\n      swap1\n      sstore\n      pop\n      0x20\n      dup3\n      add\n      mload\n      dup2\n      0x01\n      add\n      sstore\n      0x40\n      dup3\n      add\n      mload\n      dup2\n      0x02\n      add\n      sstore\n      0x60\n      dup3\n      add\n      mload\n      dup2\n      0x03\n      add\n      exp(0x0100, 0x00)\n      dup2\n      sload\n      dup2\n      0xff\n      mul\n      not\n      and\n      swap1\n      dup4\n      0x01\n      dup2\n      gt\n      iszero\n      tag_172\n      jumpi\n      tag_173\n      tag_104\n      jump\t// in\n    tag_173:\n    tag_172:\n      mul\n      or\n      swap1\n      sstore\n      pop\n      0x80\n      dup3\n      add\n      mload\n      dup2\n      0x03\n      add\n      exp(0x0100, 0x01)\n      dup2\n      sload\n      dup2\n      0xff\n      mul\n      not\n      and\n      swap1\n      dup4\n      iszero\n      iszero\n      mul\n      or\n      swap1\n      sstore\n      pop\n      swap1\n      pop\n      pop\n        /* \"GitHub/MCS-School-Team/Project-Donat/ethereum/contracts/CrowdFunding_v1.sol\":2998:3048  Launched(currentId, msg.sender, _goal, State.OPEN) */\n      0x7832315d5668befce61bef59a74a00e6c0e8fd754af2f6943ffce187e5ad3c57\n        /* \"GitHub/MCS-School-Team/Project-Donat/ethereum/contracts/CrowdFunding_v1.sol\":3007:3016  currentId */\n      sload(0x02)\n        /* \"GitHub/MCS-School-Team/Project-Donat/ethereum/contracts/CrowdFunding_v1.sol\":3018:3028  msg.sender */\n      caller\n        /* \"GitHub/MCS-School-Team/Project-Donat/ethereum/contracts/CrowdFunding_v1.sol\":3030:3035  _goal */\n      dup4\n        /* \"GitHub/MCS-School-Team/Project-Donat/ethereum/contracts/CrowdFunding_v1.sol\":3037:3047  State.OPEN */\n      0x01\n        /* \"GitHub/MCS-School-Team/Project-Donat/ethereum/contracts/CrowdFunding_v1.sol\":2998:3048  Launched(currentId, msg.sender, _goal, State.OPEN) */\n      mload(0x40)\n      tag_174\n      swap5\n      swap4\n      swap3\n      swap2\n      swap1\n      tag_175\n      jump\t// in\n    tag_174:\n      mload(0x40)\n      dup1\n      swap2\n      sub\n      swap1\n      log1\n        /* \"GitHub/MCS-School-Team/Project-Donat/ethereum/contracts/CrowdFunding_v1.sol\":3072:3073  1 */\n      0x01\n        /* \"GitHub/MCS-School-Team/Project-Donat/ethereum/contracts/CrowdFunding_v1.sol\":3059:3068  currentId */\n      0x02\n      0x00\n        /* \"GitHub/MCS-School-Team/Project-Donat/ethereum/contracts/CrowdFunding_v1.sol\":3059:3073  currentId += 1 */\n      dup3\n      dup3\n      sload\n      tag_176\n      swap2\n      swap1\n      tag_177\n      jump\t// in\n    tag_176:\n      swap3\n      pop\n      pop\n      dup2\n      swap1\n      sstore\n      pop\n        /* \"GitHub/MCS-School-Team/Project-Donat/ethereum/contracts/CrowdFunding_v1.sol\":2740:3081  function launch(uint _goal) public {... */\n      pop\n      jump\t// out\n        /* \"GitHub/MCS-School-Team/Project-Donat/ethereum/contracts/CrowdFunding_v1.sol\":1543:1599  mapping(uint => mapping(address => uint)) public pledges */\n    tag_70:\n      mstore(0x20, 0x03)\n      dup2\n      0x00\n      mstore\n      mstore(0x20, keccak256(0x00, 0x40))\n      dup1\n      0x00\n      mstore\n      keccak256(0x00, 0x40)\n      0x00\n      swap2\n      pop\n      swap2\n      pop\n      pop\n      sload\n      dup2\n      jump\t// out\n        /* \"GitHub/MCS-School-Team/Project-Donat/ethereum/contracts/CrowdFunding_v1.sol\":2580:2685  function getValueOpen() public view returns(uint) {... */\n    tag_74:\n        /* \"GitHub/MCS-School-Team/Project-Donat/ethereum/contracts/CrowdFunding_v1.sol\":2624:2628  uint */\n      0x00\n        /* \"GitHub/MCS-School-Team/Project-Donat/ethereum/contracts/CrowdFunding_v1.sol\":2648:2659  testMapping */\n      dup1\n        /* \"GitHub/MCS-School-Team/Project-Donat/ethereum/contracts/CrowdFunding_v1.sol\":2648:2677  testMapping[uint(State.OPEN)] */\n      0x00\n        /* \"GitHub/MCS-School-Team/Project-Donat/ethereum/contracts/CrowdFunding_v1.sol\":2665:2675  State.OPEN */\n      0x01\n        /* \"GitHub/MCS-School-Team/Project-Donat/ethereum/contracts/CrowdFunding_v1.sol\":2660:2676  uint(State.OPEN) */\n      dup1\n      dup2\n      gt\n      iszero\n      tag_179\n      jumpi\n      tag_180\n      tag_104\n      jump\t// in\n    tag_180:\n    tag_179:\n        /* \"GitHub/MCS-School-Team/Project-Donat/ethereum/contracts/CrowdFunding_v1.sol\":2648:2677  testMapping[uint(State.OPEN)] */\n      dup2\n      mstore\n      0x20\n      add\n      swap1\n      dup2\n      mstore\n      0x20\n      add\n      0x00\n      keccak256\n      sload\n        /* \"GitHub/MCS-School-Team/Project-Donat/ethereum/contracts/CrowdFunding_v1.sol\":2641:2677  return testMapping[uint(State.OPEN)] */\n      swap1\n      pop\n        /* \"GitHub/MCS-School-Team/Project-Donat/ethereum/contracts/CrowdFunding_v1.sol\":2580:2685  function getValueOpen() public view returns(uint) {... */\n      swap1\n      jump\t// out\n        /* \"GitHub/MCS-School-Team/Project-Donat/ethereum/contracts/CrowdFunding_v1.sol\":3519:3745  function makeAdmin(uint _id, address _member) public {... */\n    tag_79:\n        /* \"GitHub/MCS-School-Team/Project-Donat/ethereum/contracts/CrowdFunding_v1.sol\":3583:3607  Campaign memory campaign */\n      0x00\n        /* \"GitHub/MCS-School-Team/Project-Donat/ethereum/contracts/CrowdFunding_v1.sol\":3610:3619  campaigns */\n      0x01\n        /* \"GitHub/MCS-School-Team/Project-Donat/ethereum/contracts/CrowdFunding_v1.sol\":3610:3624  campaigns[_id] */\n      0x00\n        /* \"GitHub/MCS-School-Team/Project-Donat/ethereum/contracts/CrowdFunding_v1.sol\":3620:3623  _id */\n      dup5\n        /* \"GitHub/MCS-School-Team/Project-Donat/ethereum/contracts/CrowdFunding_v1.sol\":3610:3624  campaigns[_id] */\n      dup2\n      mstore\n      0x20\n      add\n      swap1\n      dup2\n      mstore\n      0x20\n      add\n      0x00\n      keccak256\n        /* \"GitHub/MCS-School-Team/Project-Donat/ethereum/contracts/CrowdFunding_v1.sol\":3583:3624  Campaign memory campaign = campaigns[_id] */\n      mload(0x40)\n      dup1\n      0xa0\n      add\n      0x40\n      mstore\n      swap1\n      dup2\n      0x00\n      dup3\n      add\n      0x00\n      swap1\n      sload\n      swap1\n      0x0100\n      exp\n      swap1\n      div\n      0xffffffffffffffffffffffffffffffffffffffff\n      and\n      0xffffffffffffffffffffffffffffffffffffffff\n      and\n      0xffffffffffffffffffffffffffffffffffffffff\n      and\n      dup2\n      mstore\n      0x20\n      add\n      0x01\n      dup3\n      add\n      sload\n      dup2\n      mstore\n      0x20\n      add\n      0x02\n      dup3\n      add\n      sload\n      dup2\n      mstore\n      0x20\n      add\n      0x03\n      dup3\n      add\n      0x00\n      swap1\n      sload\n      swap1\n      0x0100\n      exp\n      swap1\n      div\n      0xff\n      and\n      0x01\n      dup2\n      gt\n      iszero\n      tag_182\n      jumpi\n      tag_183\n      tag_104\n      jump\t// in\n    tag_183:\n    tag_182:\n      0x01\n      dup2\n      gt\n      iszero\n      tag_184\n      jumpi\n      tag_185\n      tag_104\n      jump\t// in\n    tag_185:\n    tag_184:\n      dup2\n      mstore\n      0x20\n      add\n      0x03\n      dup3\n      add\n      0x01\n      swap1\n      sload\n      swap1\n      0x0100\n      exp\n      swap1\n      div\n      0xff\n      and\n      iszero\n      iszero\n      iszero\n      iszero\n      dup2\n      mstore\n      pop\n      pop\n      swap1\n      pop\n        /* \"GitHub/MCS-School-Team/Project-Donat/ethereum/contracts/CrowdFunding_v1.sol\":3657:3665  campaign */\n      dup1\n        /* \"GitHub/MCS-School-Team/Project-Donat/ethereum/contracts/CrowdFunding_v1.sol\":3657:3671  campaign.owner */\n      0x00\n      add\n      mload\n        /* \"GitHub/MCS-School-Team/Project-Donat/ethereum/contracts/CrowdFunding_v1.sol\":3643:3671  msg.sender == campaign.owner */\n      0xffffffffffffffffffffffffffffffffffffffff\n      and\n        /* \"GitHub/MCS-School-Team/Project-Donat/ethereum/contracts/CrowdFunding_v1.sol\":3643:3653  msg.sender */\n      caller\n        /* \"GitHub/MCS-School-Team/Project-Donat/ethereum/contracts/CrowdFunding_v1.sol\":3643:3671  msg.sender == campaign.owner */\n      0xffffffffffffffffffffffffffffffffffffffff\n      and\n      eq\n        /* \"GitHub/MCS-School-Team/Project-Donat/ethereum/contracts/CrowdFunding_v1.sol\":3635:3689  require(msg.sender == campaign.owner, \"not an owner!\") */\n      tag_186\n      jumpi\n      mload(0x40)\n      0x08c379a000000000000000000000000000000000000000000000000000000000\n      dup2\n      mstore\n      0x04\n      add\n      tag_187\n      swap1\n      tag_143\n      jump\t// in\n    tag_187:\n      mload(0x40)\n      dup1\n      swap2\n      sub\n      swap1\n      revert\n    tag_186:\n        /* \"GitHub/MCS-School-Team/Project-Donat/ethereum/contracts/CrowdFunding_v1.sol\":3733:3737  true */\n      0x01\n        /* \"GitHub/MCS-School-Team/Project-Donat/ethereum/contracts/CrowdFunding_v1.sol\":3710:3716  admins */\n      0x04\n        /* \"GitHub/MCS-School-Team/Project-Donat/ethereum/contracts/CrowdFunding_v1.sol\":3710:3721  admins[_id] */\n      0x00\n        /* \"GitHub/MCS-School-Team/Project-Donat/ethereum/contracts/CrowdFunding_v1.sol\":3717:3720  _id */\n      dup6\n        /* \"GitHub/MCS-School-Team/Project-Donat/ethereum/contracts/CrowdFunding_v1.sol\":3710:3721  admins[_id] */\n      dup2\n      mstore\n      0x20\n      add\n      swap1\n      dup2\n      mstore\n      0x20\n      add\n      0x00\n      keccak256\n        /* \"GitHub/MCS-School-Team/Project-Donat/ethereum/contracts/CrowdFunding_v1.sol\":3710:3730  admins[_id][_member] */\n      0x00\n        /* \"GitHub/MCS-School-Team/Project-Donat/ethereum/contracts/CrowdFunding_v1.sol\":3722:3729  _member */\n      dup5\n        /* \"GitHub/MCS-School-Team/Project-Donat/ethereum/contracts/CrowdFunding_v1.sol\":3710:3730  admins[_id][_member] */\n      0xffffffffffffffffffffffffffffffffffffffff\n      and\n      0xffffffffffffffffffffffffffffffffffffffff\n      and\n      dup2\n      mstore\n      0x20\n      add\n      swap1\n      dup2\n      mstore\n      0x20\n      add\n      0x00\n      keccak256\n      0x00\n        /* \"GitHub/MCS-School-Team/Project-Donat/ethereum/contracts/CrowdFunding_v1.sol\":3710:3737  admins[_id][_member] = true */\n      0x0100\n      exp\n      dup2\n      sload\n      dup2\n      0xff\n      mul\n      not\n      and\n      swap1\n      dup4\n      iszero\n      iszero\n      mul\n      or\n      swap1\n      sstore\n      pop\n        /* \"GitHub/MCS-School-Team/Project-Donat/ethereum/contracts/CrowdFunding_v1.sol\":3572:3745  {... */\n      pop\n        /* \"GitHub/MCS-School-Team/Project-Donat/ethereum/contracts/CrowdFunding_v1.sol\":3519:3745  function makeAdmin(uint _id, address _member) public {... */\n      pop\n      pop\n      jump\t// out\n        /* \"GitHub/MCS-School-Team/Project-Donat/ethereum/contracts/CrowdFunding_v1.sol\":5013:5258  function setState(uint _id) public {... */\n    tag_83:\n        /* \"GitHub/MCS-School-Team/Project-Donat/ethereum/contracts/CrowdFunding_v1.sol\":5059:5084  Campaign storage campaign */\n      0x00\n        /* \"GitHub/MCS-School-Team/Project-Donat/ethereum/contracts/CrowdFunding_v1.sol\":5087:5096  campaigns */\n      0x01\n        /* \"GitHub/MCS-School-Team/Project-Donat/ethereum/contracts/CrowdFunding_v1.sol\":5087:5101  campaigns[_id] */\n      0x00\n        /* \"GitHub/MCS-School-Team/Project-Donat/ethereum/contracts/CrowdFunding_v1.sol\":5097:5100  _id */\n      dup4\n        /* \"GitHub/MCS-School-Team/Project-Donat/ethereum/contracts/CrowdFunding_v1.sol\":5087:5101  campaigns[_id] */\n      dup2\n      mstore\n      0x20\n      add\n      swap1\n      dup2\n      mstore\n      0x20\n      add\n      0x00\n      keccak256\n        /* \"GitHub/MCS-School-Team/Project-Donat/ethereum/contracts/CrowdFunding_v1.sol\":5059:5101  Campaign storage campaign = campaigns[_id] */\n      swap1\n      pop\n        /* \"GitHub/MCS-School-Team/Project-Donat/ethereum/contracts/CrowdFunding_v1.sol\":5134:5142  campaign */\n      dup1\n        /* \"GitHub/MCS-School-Team/Project-Donat/ethereum/contracts/CrowdFunding_v1.sol\":5134:5148  campaign.owner */\n      0x00\n      add\n      0x00\n      swap1\n      sload\n      swap1\n      0x0100\n      exp\n      swap1\n      div\n      0xffffffffffffffffffffffffffffffffffffffff\n      and\n        /* \"GitHub/MCS-School-Team/Project-Donat/ethereum/contracts/CrowdFunding_v1.sol\":5120:5148  msg.sender == campaign.owner */\n      0xffffffffffffffffffffffffffffffffffffffff\n      and\n        /* \"GitHub/MCS-School-Team/Project-Donat/ethereum/contracts/CrowdFunding_v1.sol\":5120:5130  msg.sender */\n      caller\n        /* \"GitHub/MCS-School-Team/Project-Donat/ethereum/contracts/CrowdFunding_v1.sol\":5120:5148  msg.sender == campaign.owner */\n      0xffffffffffffffffffffffffffffffffffffffff\n      and\n      eq\n        /* \"GitHub/MCS-School-Team/Project-Donat/ethereum/contracts/CrowdFunding_v1.sol\":5112:5165  require(msg.sender == campaign.owner, \"not an owner\") */\n      tag_189\n      jumpi\n      mload(0x40)\n      0x08c379a000000000000000000000000000000000000000000000000000000000\n      dup2\n      mstore\n      0x04\n      add\n      tag_190\n      swap1\n      tag_112\n      jump\t// in\n    tag_190:\n      mload(0x40)\n      dup1\n      swap2\n      sub\n      swap1\n      revert\n    tag_189:\n        /* \"GitHub/MCS-School-Team/Project-Donat/ethereum/contracts/CrowdFunding_v1.sol\":5195:5207  State.CLOSED */\n      0x00\n        /* \"GitHub/MCS-School-Team/Project-Donat/ethereum/contracts/CrowdFunding_v1.sol\":5178:5186  campaign */\n      dup2\n        /* \"GitHub/MCS-School-Team/Project-Donat/ethereum/contracts/CrowdFunding_v1.sol\":5178:5192  campaign.state */\n      0x03\n      add\n      0x00\n        /* \"GitHub/MCS-School-Team/Project-Donat/ethereum/contracts/CrowdFunding_v1.sol\":5178:5207  campaign.state = State.CLOSED */\n      0x0100\n      exp\n      dup2\n      sload\n      dup2\n      0xff\n      mul\n      not\n      and\n      swap1\n      dup4\n      0x01\n      dup2\n      gt\n      iszero\n      tag_191\n      jumpi\n      tag_192\n      tag_104\n      jump\t// in\n    tag_192:\n    tag_191:\n      mul\n      or\n      swap1\n      sstore\n      pop\n        /* \"GitHub/MCS-School-Team/Project-Donat/ethereum/contracts/CrowdFunding_v1.sol\":5223:5251  StateUpdated(campaign.state) */\n      0x23ad33ab6a13a00aa7d06cd167b2abd03dec86af3cf3cc91759dcd3ae8411887\n        /* \"GitHub/MCS-School-Team/Project-Donat/ethereum/contracts/CrowdFunding_v1.sol\":5236:5244  campaign */\n      dup2\n        /* \"GitHub/MCS-School-Team/Project-Donat/ethereum/contracts/CrowdFunding_v1.sol\":5236:5250  campaign.state */\n      0x03\n      add\n      0x00\n      swap1\n      sload\n      swap1\n      0x0100\n      exp\n      swap1\n      div\n      0xff\n      and\n        /* \"GitHub/MCS-School-Team/Project-Donat/ethereum/contracts/CrowdFunding_v1.sol\":5223:5251  StateUpdated(campaign.state) */\n      mload(0x40)\n      tag_193\n      swap2\n      swap1\n      tag_194\n      jump\t// in\n    tag_193:\n      mload(0x40)\n      dup1\n      swap2\n      sub\n      swap1\n      log1\n        /* \"GitHub/MCS-School-Team/Project-Donat/ethereum/contracts/CrowdFunding_v1.sol\":5048:5258  {... */\n      pop\n        /* \"GitHub/MCS-School-Team/Project-Donat/ethereum/contracts/CrowdFunding_v1.sol\":5013:5258  function setState(uint _id) public {... */\n      pop\n      jump\t// out\n        /* \"GitHub/MCS-School-Team/Project-Donat/ethereum/contracts/CrowdFunding_v1.sol\":3795:4023  function revokeAdmin(uint _id, address _member) public {... */\n    tag_87:\n        /* \"GitHub/MCS-School-Team/Project-Donat/ethereum/contracts/CrowdFunding_v1.sol\":3861:3885  Campaign memory campaign */\n      0x00\n        /* \"GitHub/MCS-School-Team/Project-Donat/ethereum/contracts/CrowdFunding_v1.sol\":3888:3897  campaigns */\n      0x01\n        /* \"GitHub/MCS-School-Team/Project-Donat/ethereum/contracts/CrowdFunding_v1.sol\":3888:3902  campaigns[_id] */\n      0x00\n        /* \"GitHub/MCS-School-Team/Project-Donat/ethereum/contracts/CrowdFunding_v1.sol\":3898:3901  _id */\n      dup5\n        /* \"GitHub/MCS-School-Team/Project-Donat/ethereum/contracts/CrowdFunding_v1.sol\":3888:3902  campaigns[_id] */\n      dup2\n      mstore\n      0x20\n      add\n      swap1\n      dup2\n      mstore\n      0x20\n      add\n      0x00\n      keccak256\n        /* \"GitHub/MCS-School-Team/Project-Donat/ethereum/contracts/CrowdFunding_v1.sol\":3861:3902  Campaign memory campaign = campaigns[_id] */\n      mload(0x40)\n      dup1\n      0xa0\n      add\n      0x40\n      mstore\n      swap1\n      dup2\n      0x00\n      dup3\n      add\n      0x00\n      swap1\n      sload\n      swap1\n      0x0100\n      exp\n      swap1\n      div\n      0xffffffffffffffffffffffffffffffffffffffff\n      and\n      0xffffffffffffffffffffffffffffffffffffffff\n      and\n      0xffffffffffffffffffffffffffffffffffffffff\n      and\n      dup2\n      mstore\n      0x20\n      add\n      0x01\n      dup3\n      add\n      sload\n      dup2\n      mstore\n      0x20\n      add\n      0x02\n      dup3\n      add\n      sload\n      dup2\n      mstore\n      0x20\n      add\n      0x03\n      dup3\n      add\n      0x00\n      swap1\n      sload\n      swap1\n      0x0100\n      exp\n      swap1\n      div\n      0xff\n      and\n      0x01\n      dup2\n      gt\n      iszero\n      tag_196\n      jumpi\n      tag_197\n      tag_104\n      jump\t// in\n    tag_197:\n    tag_196:\n      0x01\n      dup2\n      gt\n      iszero\n      tag_198\n      jumpi\n      tag_199\n      tag_104\n      jump\t// in\n    tag_199:\n    tag_198:\n      dup2\n      mstore\n      0x20\n      add\n      0x03\n      dup3\n      add\n      0x01\n      swap1\n      sload\n      swap1\n      0x0100\n      exp\n      swap1\n      div\n      0xff\n      and\n      iszero\n      iszero\n      iszero\n      iszero\n      dup2\n      mstore\n      pop\n      pop\n      swap1\n      pop\n        /* \"GitHub/MCS-School-Team/Project-Donat/ethereum/contracts/CrowdFunding_v1.sol\":3935:3943  campaign */\n      dup1\n        /* \"GitHub/MCS-School-Team/Project-Donat/ethereum/contracts/CrowdFunding_v1.sol\":3935:3949  campaign.owner */\n      0x00\n      add\n      mload\n        /* \"GitHub/MCS-School-Team/Project-Donat/ethereum/contracts/CrowdFunding_v1.sol\":3921:3949  msg.sender == campaign.owner */\n      0xffffffffffffffffffffffffffffffffffffffff\n      and\n        /* \"GitHub/MCS-School-Team/Project-Donat/ethereum/contracts/CrowdFunding_v1.sol\":3921:3931  msg.sender */\n      caller\n        /* \"GitHub/MCS-School-Team/Project-Donat/ethereum/contracts/CrowdFunding_v1.sol\":3921:3949  msg.sender == campaign.owner */\n      0xffffffffffffffffffffffffffffffffffffffff\n      and\n      eq\n        /* \"GitHub/MCS-School-Team/Project-Donat/ethereum/contracts/CrowdFunding_v1.sol\":3913:3967  require(msg.sender == campaign.owner, \"not an owner!\") */\n      tag_200\n      jumpi\n      mload(0x40)\n      0x08c379a000000000000000000000000000000000000000000000000000000000\n      dup2\n      mstore\n      0x04\n      add\n      tag_201\n      swap1\n      tag_143\n      jump\t// in\n    tag_201:\n      mload(0x40)\n      dup1\n      swap2\n      sub\n      swap1\n      revert\n    tag_200:\n        /* \"GitHub/MCS-School-Team/Project-Donat/ethereum/contracts/CrowdFunding_v1.sol\":4011:4015  true */\n      0x01\n        /* \"GitHub/MCS-School-Team/Project-Donat/ethereum/contracts/CrowdFunding_v1.sol\":3988:3994  admins */\n      0x04\n        /* \"GitHub/MCS-School-Team/Project-Donat/ethereum/contracts/CrowdFunding_v1.sol\":3988:3999  admins[_id] */\n      0x00\n        /* \"GitHub/MCS-School-Team/Project-Donat/ethereum/contracts/CrowdFunding_v1.sol\":3995:3998  _id */\n      dup6\n        /* \"GitHub/MCS-School-Team/Project-Donat/ethereum/contracts/CrowdFunding_v1.sol\":3988:3999  admins[_id] */\n      dup2\n      mstore\n      0x20\n      add\n      swap1\n      dup2\n      mstore\n      0x20\n      add\n      0x00\n      keccak256\n        /* \"GitHub/MCS-School-Team/Project-Donat/ethereum/contracts/CrowdFunding_v1.sol\":3988:4008  admins[_id][_member] */\n      0x00\n        /* \"GitHub/MCS-School-Team/Project-Donat/ethereum/contracts/CrowdFunding_v1.sol\":4000:4007  _member */\n      dup5\n        /* \"GitHub/MCS-School-Team/Project-Donat/ethereum/contracts/CrowdFunding_v1.sol\":3988:4008  admins[_id][_member] */\n      0xffffffffffffffffffffffffffffffffffffffff\n      and\n      0xffffffffffffffffffffffffffffffffffffffff\n      and\n      dup2\n      mstore\n      0x20\n      add\n      swap1\n      dup2\n      mstore\n      0x20\n      add\n      0x00\n      keccak256\n      0x00\n        /* \"GitHub/MCS-School-Team/Project-Donat/ethereum/contracts/CrowdFunding_v1.sol\":3988:4015  admins[_id][_member] = true */\n      0x0100\n      exp\n      dup2\n      sload\n      dup2\n      0xff\n      mul\n      not\n      and\n      swap1\n      dup4\n      iszero\n      iszero\n      mul\n      or\n      swap1\n      sstore\n      pop\n        /* \"GitHub/MCS-School-Team/Project-Donat/ethereum/contracts/CrowdFunding_v1.sol\":3850:4023  {... */\n      pop\n        /* \"GitHub/MCS-School-Team/Project-Donat/ethereum/contracts/CrowdFunding_v1.sol\":3795:4023  function revokeAdmin(uint _id, address _member) public {... */\n      pop\n      pop\n      jump\t// out\n        /* \"GitHub/MCS-School-Team/Project-Donat/ethereum/contracts/CrowdFunding_v1.sol\":1413:1434  uint public currentId */\n    tag_90:\n      sload(0x02)\n      dup2\n      jump\t// out\n        /* \"GitHub/MCS-School-Team/Project-Donat/ethereum/contracts/CrowdFunding_v1.sol\":1235:1264  IERC20 public immutable token */\n    tag_94:\n      immutable(\"0x3b4066bd7b7960752225af105d3beafb5c47a26c5aae7e6798a437b7c0bb33e6\")\n      dup2\n      jump\t// out\n        /* \"GitHub/MCS-School-Team/Project-Donat/ethereum/contracts/CrowdFunding_v1.sol\":4066:4446  function pledge(uint _id, uint _amount) external {... */\n    tag_100:\n        /* \"GitHub/MCS-School-Team/Project-Donat/ethereum/contracts/CrowdFunding_v1.sol\":4125:4150  Campaign storage campaign */\n      0x00\n        /* \"GitHub/MCS-School-Team/Project-Donat/ethereum/contracts/CrowdFunding_v1.sol\":4153:4162  campaigns */\n      0x01\n        /* \"GitHub/MCS-School-Team/Project-Donat/ethereum/contracts/CrowdFunding_v1.sol\":4153:4167  campaigns[_id] */\n      0x00\n        /* \"GitHub/MCS-School-Team/Project-Donat/ethereum/contracts/CrowdFunding_v1.sol\":4163:4166  _id */\n      dup5\n        /* \"GitHub/MCS-School-Team/Project-Donat/ethereum/contracts/CrowdFunding_v1.sol\":4153:4167  campaigns[_id] */\n      dup2\n      mstore\n      0x20\n      add\n      swap1\n      dup2\n      mstore\n      0x20\n      add\n      0x00\n      keccak256\n        /* \"GitHub/MCS-School-Team/Project-Donat/ethereum/contracts/CrowdFunding_v1.sol\":4125:4167  Campaign storage campaign = campaigns[_id] */\n      swap1\n      pop\n        /* \"GitHub/MCS-School-Team/Project-Donat/ethereum/contracts/CrowdFunding_v1.sol\":4203:4213  State.OPEN */\n      0x01\n        /* \"GitHub/MCS-School-Team/Project-Donat/ethereum/contracts/CrowdFunding_v1.sol\":4185:4213  campaign.state == State.OPEN */\n      dup1\n      dup2\n      gt\n      iszero\n      tag_203\n      jumpi\n      tag_204\n      tag_104\n      jump\t// in\n    tag_204:\n    tag_203:\n        /* \"GitHub/MCS-School-Team/Project-Donat/ethereum/contracts/CrowdFunding_v1.sol\":4185:4193  campaign */\n      dup2\n        /* \"GitHub/MCS-School-Team/Project-Donat/ethereum/contracts/CrowdFunding_v1.sol\":4185:4199  campaign.state */\n      0x03\n      add\n      0x00\n      swap1\n      sload\n      swap1\n      0x0100\n      exp\n      swap1\n      div\n      0xff\n      and\n        /* \"GitHub/MCS-School-Team/Project-Donat/ethereum/contracts/CrowdFunding_v1.sol\":4185:4213  campaign.state == State.OPEN */\n      0x01\n      dup2\n      gt\n      iszero\n      tag_205\n      jumpi\n      tag_206\n      tag_104\n      jump\t// in\n    tag_206:\n    tag_205:\n      eq\n        /* \"GitHub/MCS-School-Team/Project-Donat/ethereum/contracts/CrowdFunding_v1.sol\":4177:4241  require(campaign.state == State.OPEN, \"campaign is not opened!\") */\n      tag_207\n      jumpi\n      mload(0x40)\n      0x08c379a000000000000000000000000000000000000000000000000000000000\n      dup2\n      mstore\n      0x04\n      add\n      tag_208\n      swap1\n      tag_109\n      jump\t// in\n    tag_208:\n      mload(0x40)\n      dup1\n      swap2\n      sub\n      swap1\n      revert\n    tag_207:\n        /* \"GitHub/MCS-School-Team/Project-Donat/ethereum/contracts/CrowdFunding_v1.sol\":4273:4280  _amount */\n      dup2\n        /* \"GitHub/MCS-School-Team/Project-Donat/ethereum/contracts/CrowdFunding_v1.sol\":4253:4261  campaign */\n      dup2\n        /* \"GitHub/MCS-School-Team/Project-Donat/ethereum/contracts/CrowdFunding_v1.sol\":4253:4269  campaign.pledged */\n      0x02\n      add\n      0x00\n        /* \"GitHub/MCS-School-Team/Project-Donat/ethereum/contracts/CrowdFunding_v1.sol\":4253:4280  campaign.pledged += _amount */\n      dup3\n      dup3\n      sload\n      tag_209\n      swap2\n      swap1\n      tag_177\n      jump\t// in\n    tag_209:\n      swap3\n      pop\n      pop\n      dup2\n      swap1\n      sstore\n      pop\n        /* \"GitHub/MCS-School-Team/Project-Donat/ethereum/contracts/CrowdFunding_v1.sol\":4318:4325  _amount */\n      dup2\n        /* \"GitHub/MCS-School-Team/Project-Donat/ethereum/contracts/CrowdFunding_v1.sol\":4290:4297  pledges */\n      0x03\n        /* \"GitHub/MCS-School-Team/Project-Donat/ethereum/contracts/CrowdFunding_v1.sol\":4290:4302  pledges[_id] */\n      0x00\n        /* \"GitHub/MCS-School-Team/Project-Donat/ethereum/contracts/CrowdFunding_v1.sol\":4298:4301  _id */\n      dup6\n        /* \"GitHub/MCS-School-Team/Project-Donat/ethereum/contracts/CrowdFunding_v1.sol\":4290:4302  pledges[_id] */\n      dup2\n      mstore\n      0x20\n      add\n      swap1\n      dup2\n      mstore\n      0x20\n      add\n      0x00\n      keccak256\n        /* \"GitHub/MCS-School-Team/Project-Donat/ethereum/contracts/CrowdFunding_v1.sol\":4290:4314  pledges[_id][msg.sender] */\n      0x00\n        /* \"GitHub/MCS-School-Team/Project-Donat/ethereum/contracts/CrowdFunding_v1.sol\":4303:4313  msg.sender */\n      caller\n        /* \"GitHub/MCS-School-Team/Project-Donat/ethereum/contracts/CrowdFunding_v1.sol\":4290:4314  pledges[_id][msg.sender] */\n      0xffffffffffffffffffffffffffffffffffffffff\n      and\n      0xffffffffffffffffffffffffffffffffffffffff\n      and\n      dup2\n      mstore\n      0x20\n      add\n      swap1\n      dup2\n      mstore\n      0x20\n      add\n      0x00\n      keccak256\n      0x00\n        /* \"GitHub/MCS-School-Team/Project-Donat/ethereum/contracts/CrowdFunding_v1.sol\":4290:4325  pledges[_id][msg.sender] += _amount */\n      dup3\n      dup3\n      sload\n      tag_210\n      swap2\n      swap1\n      tag_177\n      jump\t// in\n    tag_210:\n      swap3\n      pop\n      pop\n      dup2\n      swap1\n      sstore\n      pop\n        /* \"GitHub/MCS-School-Team/Project-Donat/ethereum/contracts/CrowdFunding_v1.sol\":4335:4340  token */\n      immutable(\"0x3b4066bd7b7960752225af105d3beafb5c47a26c5aae7e6798a437b7c0bb33e6\")\n        /* \"GitHub/MCS-School-Team/Project-Donat/ethereum/contracts/CrowdFunding_v1.sol\":4335:4353  token.transferFrom */\n      0xffffffffffffffffffffffffffffffffffffffff\n      and\n      0x23b872dd\n        /* \"GitHub/MCS-School-Team/Project-Donat/ethereum/contracts/CrowdFunding_v1.sol\":4354:4364  msg.sender */\n      caller\n        /* \"GitHub/MCS-School-Team/Project-Donat/ethereum/contracts/CrowdFunding_v1.sol\":4374:4378  this */\n      address\n        /* \"GitHub/MCS-School-Team/Project-Donat/ethereum/contracts/CrowdFunding_v1.sol\":4381:4388  _amount */\n      dup6\n        /* \"GitHub/MCS-School-Team/Project-Donat/ethereum/contracts/CrowdFunding_v1.sol\":4335:4389  token.transferFrom(msg.sender, address(this), _amount) */\n      mload(0x40)\n      dup5\n      0xffffffff\n      and\n      0xe0\n      shl\n      dup2\n      mstore\n      0x04\n      add\n      tag_211\n      swap4\n      swap3\n      swap2\n      swap1\n      tag_212\n      jump\t// in\n    tag_211:\n      0x00\n      mload(0x40)\n      dup1\n      dup4\n      sub\n      dup2\n      0x00\n      dup8\n      dup1\n      extcodesize\n      iszero\n      dup1\n      iszero\n      tag_213\n      jumpi\n      0x00\n      dup1\n      revert\n    tag_213:\n      pop\n      gas\n      call\n      iszero\n      dup1\n      iszero\n      tag_215\n      jumpi\n      returndatasize\n      0x00\n      dup1\n      returndatacopy\n      revert(0x00, returndatasize)\n    tag_215:\n      pop\n      pop\n      pop\n      pop\n        /* \"GitHub/MCS-School-Team/Project-Donat/ethereum/contracts/CrowdFunding_v1.sol\":4406:4439  Pledged(_id, msg.sender, _amount) */\n      0x2757ac6a40883f4491cc56930ae964df9034e343e660d5179eb01e198336756b\n        /* \"GitHub/MCS-School-Team/Project-Donat/ethereum/contracts/CrowdFunding_v1.sol\":4414:4417  _id */\n      dup4\n        /* \"GitHub/MCS-School-Team/Project-Donat/ethereum/contracts/CrowdFunding_v1.sol\":4419:4429  msg.sender */\n      caller\n        /* \"GitHub/MCS-School-Team/Project-Donat/ethereum/contracts/CrowdFunding_v1.sol\":4431:4438  _amount */\n      dup5\n        /* \"GitHub/MCS-School-Team/Project-Donat/ethereum/contracts/CrowdFunding_v1.sol\":4406:4439  Pledged(_id, msg.sender, _amount) */\n      mload(0x40)\n      tag_216\n      swap4\n      swap3\n      swap2\n      swap1\n      tag_119\n      jump\t// in\n    tag_216:\n      mload(0x40)\n      dup1\n      swap2\n      sub\n      swap1\n      log1\n        /* \"GitHub/MCS-School-Team/Project-Donat/ethereum/contracts/CrowdFunding_v1.sol\":4115:4446  {... */\n      pop\n        /* \"GitHub/MCS-School-Team/Project-Donat/ethereum/contracts/CrowdFunding_v1.sol\":4066:4446  function pledge(uint _id, uint _amount) external {... */\n      pop\n      pop\n      jump\t// out\n        /* \"#utility.yul\":7:84   */\n    tag_217:\n        /* \"#utility.yul\":44:51   */\n      0x00\n        /* \"#utility.yul\":73:78   */\n      dup2\n        /* \"#utility.yul\":62:78   */\n      swap1\n      pop\n        /* \"#utility.yul\":7:84   */\n      swap2\n      swap1\n      pop\n      jump\t// out\n        /* \"#utility.yul\":90:208   */\n    tag_218:\n        /* \"#utility.yul\":177:201   */\n      tag_257\n        /* \"#utility.yul\":195:200   */\n      dup2\n        /* \"#utility.yul\":177:201   */\n      tag_217\n      jump\t// in\n    tag_257:\n        /* \"#utility.yul\":172:175   */\n      dup3\n        /* \"#utility.yul\":165:202   */\n      mstore\n        /* \"#utility.yul\":90:208   */\n      pop\n      pop\n      jump\t// out\n        /* \"#utility.yul\":214:436   */\n    tag_25:\n        /* \"#utility.yul\":307:311   */\n      0x00\n        /* \"#utility.yul\":345:347   */\n      0x20\n        /* \"#utility.yul\":334:343   */\n      dup3\n        /* \"#utility.yul\":330:348   */\n      add\n        /* \"#utility.yul\":322:348   */\n      swap1\n      pop\n        /* \"#utility.yul\":358:429   */\n      tag_259\n        /* \"#utility.yul\":426:427   */\n      0x00\n        /* \"#utility.yul\":415:424   */\n      dup4\n        /* \"#utility.yul\":411:428   */\n      add\n        /* \"#utility.yul\":402:408   */\n      dup5\n        /* \"#utility.yul\":358:429   */\n      tag_218\n      jump\t// in\n    tag_259:\n        /* \"#utility.yul\":214:436   */\n      swap3\n      swap2\n      pop\n      pop\n      jump\t// out\n        /* \"#utility.yul\":523:640   */\n    tag_220:\n        /* \"#utility.yul\":632:633   */\n      0x00\n        /* \"#utility.yul\":629:630   */\n      dup1\n        /* \"#utility.yul\":622:634   */\n      revert\n        /* \"#utility.yul\":769:891   */\n    tag_222:\n        /* \"#utility.yul\":842:866   */\n      tag_264\n        /* \"#utility.yul\":860:865   */\n      dup2\n        /* \"#utility.yul\":842:866   */\n      tag_217\n      jump\t// in\n    tag_264:\n        /* \"#utility.yul\":835:840   */\n      dup2\n        /* \"#utility.yul\":832:867   */\n      eq\n        /* \"#utility.yul\":822:885   */\n      tag_265\n      jumpi\n        /* \"#utility.yul\":881:882   */\n      0x00\n        /* \"#utility.yul\":878:879   */\n      dup1\n        /* \"#utility.yul\":871:883   */\n      revert\n        /* \"#utility.yul\":822:885   */\n    tag_265:\n        /* \"#utility.yul\":769:891   */\n      pop\n      jump\t// out\n        /* \"#utility.yul\":897:1036   */\n    tag_223:\n        /* \"#utility.yul\":943:948   */\n      0x00\n        /* \"#utility.yul\":981:987   */\n      dup2\n        /* \"#utility.yul\":968:988   */\n      calldataload\n        /* \"#utility.yul\":959:988   */\n      swap1\n      pop\n        /* \"#utility.yul\":997:1030   */\n      tag_267\n        /* \"#utility.yul\":1024:1029   */\n      dup2\n        /* \"#utility.yul\":997:1030   */\n      tag_222\n      jump\t// in\n    tag_267:\n        /* \"#utility.yul\":897:1036   */\n      swap3\n      swap2\n      pop\n      pop\n      jump\t// out\n        /* \"#utility.yul\":1042:1168   */\n    tag_224:\n        /* \"#utility.yul\":1079:1086   */\n      0x00\n        /* \"#utility.yul\":1119:1161   */\n      0xffffffffffffffffffffffffffffffffffffffff\n        /* \"#utility.yul\":1112:1117   */\n      dup3\n        /* \"#utility.yul\":1108:1162   */\n      and\n        /* \"#utility.yul\":1097:1162   */\n      swap1\n      pop\n        /* \"#utility.yul\":1042:1168   */\n      swap2\n      swap1\n      pop\n      jump\t// out\n        /* \"#utility.yul\":1174:1270   */\n    tag_225:\n        /* \"#utility.yul\":1211:1218   */\n      0x00\n        /* \"#utility.yul\":1240:1264   */\n      tag_270\n        /* \"#utility.yul\":1258:1263   */\n      dup3\n        /* \"#utility.yul\":1240:1264   */\n      tag_224\n      jump\t// in\n    tag_270:\n        /* \"#utility.yul\":1229:1264   */\n      swap1\n      pop\n        /* \"#utility.yul\":1174:1270   */\n      swap2\n      swap1\n      pop\n      jump\t// out\n        /* \"#utility.yul\":1276:1398   */\n    tag_226:\n        /* \"#utility.yul\":1349:1373   */\n      tag_272\n        /* \"#utility.yul\":1367:1372   */\n      dup2\n        /* \"#utility.yul\":1349:1373   */\n      tag_225\n      jump\t// in\n    tag_272:\n        /* \"#utility.yul\":1342:1347   */\n      dup2\n        /* \"#utility.yul\":1339:1374   */\n      eq\n        /* \"#utility.yul\":1329:1392   */\n      tag_273\n      jumpi\n        /* \"#utility.yul\":1388:1389   */\n      0x00\n        /* \"#utility.yul\":1385:1386   */\n      dup1\n        /* \"#utility.yul\":1378:1390   */\n      revert\n        /* \"#utility.yul\":1329:1392   */\n    tag_273:\n        /* \"#utility.yul\":1276:1398   */\n      pop\n      jump\t// out\n        /* \"#utility.yul\":1404:1543   */\n    tag_227:\n        /* \"#utility.yul\":1450:1455   */\n      0x00\n        /* \"#utility.yul\":1488:1494   */\n      dup2\n        /* \"#utility.yul\":1475:1495   */\n      calldataload\n        /* \"#utility.yul\":1466:1495   */\n      swap1\n      pop\n        /* \"#utility.yul\":1504:1537   */\n      tag_275\n        /* \"#utility.yul\":1531:1536   */\n      dup2\n        /* \"#utility.yul\":1504:1537   */\n      tag_226\n      jump\t// in\n    tag_275:\n        /* \"#utility.yul\":1404:1543   */\n      swap3\n      swap2\n      pop\n      pop\n      jump\t// out\n        /* \"#utility.yul\":1549:2023   */\n    tag_31:\n        /* \"#utility.yul\":1617:1623   */\n      0x00\n        /* \"#utility.yul\":1625:1631   */\n      dup1\n        /* \"#utility.yul\":1674:1676   */\n      0x40\n        /* \"#utility.yul\":1662:1671   */\n      dup4\n        /* \"#utility.yul\":1653:1660   */\n      dup6\n        /* \"#utility.yul\":1649:1672   */\n      sub\n        /* \"#utility.yul\":1645:1677   */\n      slt\n        /* \"#utility.yul\":1642:1761   */\n      iszero\n      tag_277\n      jumpi\n        /* \"#utility.yul\":1680:1759   */\n      tag_278\n      tag_220\n      jump\t// in\n    tag_278:\n        /* \"#utility.yul\":1642:1761   */\n    tag_277:\n        /* \"#utility.yul\":1800:1801   */\n      0x00\n        /* \"#utility.yul\":1825:1878   */\n      tag_279\n        /* \"#utility.yul\":1870:1877   */\n      dup6\n        /* \"#utility.yul\":1861:1867   */\n      dup3\n        /* \"#utility.yul\":1850:1859   */\n      dup7\n        /* \"#utility.yul\":1846:1868   */\n      add\n        /* \"#utility.yul\":1825:1878   */\n      tag_223\n      jump\t// in\n    tag_279:\n        /* \"#utility.yul\":1815:1878   */\n      swap3\n      pop\n        /* \"#utility.yul\":1771:1888   */\n      pop\n        /* \"#utility.yul\":1927:1929   */\n      0x20\n        /* \"#utility.yul\":1953:2006   */\n      tag_280\n        /* \"#utility.yul\":1998:2005   */\n      dup6\n        /* \"#utility.yul\":1989:1995   */\n      dup3\n        /* \"#utility.yul\":1978:1987   */\n      dup7\n        /* \"#utility.yul\":1974:1996   */\n      add\n        /* \"#utility.yul\":1953:2006   */\n      tag_227\n      jump\t// in\n    tag_280:\n        /* \"#utility.yul\":1943:2006   */\n      swap2\n      pop\n        /* \"#utility.yul\":1898:2016   */\n      pop\n        /* \"#utility.yul\":1549:2023   */\n      swap3\n      pop\n      swap3\n      swap1\n      pop\n      jump\t// out\n        /* \"#utility.yul\":2029:2119   */\n    tag_228:\n        /* \"#utility.yul\":2063:2070   */\n      0x00\n        /* \"#utility.yul\":2106:2111   */\n      dup2\n        /* \"#utility.yul\":2099:2112   */\n      iszero\n        /* \"#utility.yul\":2092:2113   */\n      iszero\n        /* \"#utility.yul\":2081:2113   */\n      swap1\n      pop\n        /* \"#utility.yul\":2029:2119   */\n      swap2\n      swap1\n      pop\n      jump\t// out\n        /* \"#utility.yul\":2125:2234   */\n    tag_229:\n        /* \"#utility.yul\":2206:2227   */\n      tag_283\n        /* \"#utility.yul\":2221:2226   */\n      dup2\n        /* \"#utility.yul\":2206:2227   */\n      tag_228\n      jump\t// in\n    tag_283:\n        /* \"#utility.yul\":2201:2204   */\n      dup3\n        /* \"#utility.yul\":2194:2228   */\n      mstore\n        /* \"#utility.yul\":2125:2234   */\n      pop\n      pop\n      jump\t// out\n        /* \"#utility.yul\":2240:2450   */\n    tag_34:\n        /* \"#utility.yul\":2327:2331   */\n      0x00\n        /* \"#utility.yul\":2365:2367   */\n      0x20\n        /* \"#utility.yul\":2354:2363   */\n      dup3\n        /* \"#utility.yul\":2350:2368   */\n      add\n        /* \"#utility.yul\":2342:2368   */\n      swap1\n      pop\n        /* \"#utility.yul\":2378:2443   */\n      tag_285\n        /* \"#utility.yul\":2440:2441   */\n      0x00\n        /* \"#utility.yul\":2429:2438   */\n      dup4\n        /* \"#utility.yul\":2425:2442   */\n      add\n        /* \"#utility.yul\":2416:2422   */\n      dup5\n        /* \"#utility.yul\":2378:2443   */\n      tag_229\n      jump\t// in\n    tag_285:\n        /* \"#utility.yul\":2240:2450   */\n      swap3\n      swap2\n      pop\n      pop\n      jump\t// out\n        /* \"#utility.yul\":2456:2785   */\n    tag_38:\n        /* \"#utility.yul\":2515:2521   */\n      0x00\n        /* \"#utility.yul\":2564:2566   */\n      0x20\n        /* \"#utility.yul\":2552:2561   */\n      dup3\n        /* \"#utility.yul\":2543:2550   */\n      dup5\n        /* \"#utility.yul\":2539:2562   */\n      sub\n        /* \"#utility.yul\":2535:2567   */\n      slt\n        /* \"#utility.yul\":2532:2651   */\n      iszero\n      tag_287\n      jumpi\n        /* \"#utility.yul\":2570:2649   */\n      tag_288\n      tag_220\n      jump\t// in\n    tag_288:\n        /* \"#utility.yul\":2532:2651   */\n    tag_287:\n        /* \"#utility.yul\":2690:2691   */\n      0x00\n        /* \"#utility.yul\":2715:2768   */\n      tag_289\n        /* \"#utility.yul\":2760:2767   */\n      dup5\n        /* \"#utility.yul\":2751:2757   */\n      dup3\n        /* \"#utility.yul\":2740:2749   */\n      dup6\n        /* \"#utility.yul\":2736:2758   */\n      add\n        /* \"#utility.yul\":2715:2768   */\n      tag_223\n      jump\t// in\n    tag_289:\n        /* \"#utility.yul\":2705:2768   */\n      swap2\n      pop\n        /* \"#utility.yul\":2661:2778   */\n      pop\n        /* \"#utility.yul\":2456:2785   */\n      swap3\n      swap2\n      pop\n      pop\n      jump\t// out\n        /* \"#utility.yul\":2791:2909   */\n    tag_230:\n        /* \"#utility.yul\":2878:2902   */\n      tag_291\n        /* \"#utility.yul\":2896:2901   */\n      dup2\n        /* \"#utility.yul\":2878:2902   */\n      tag_225\n      jump\t// in\n    tag_291:\n        /* \"#utility.yul\":2873:2876   */\n      dup3\n        /* \"#utility.yul\":2866:2903   */\n      mstore\n        /* \"#utility.yul\":2791:2909   */\n      pop\n      pop\n      jump\t// out\n        /* \"#utility.yul\":2915:3095   */\n    tag_104:\n        /* \"#utility.yul\":2963:3040   */\n      0x4e487b7100000000000000000000000000000000000000000000000000000000\n        /* \"#utility.yul\":2960:2961   */\n      0x00\n        /* \"#utility.yul\":2953:3041   */\n      mstore\n        /* \"#utility.yul\":3060:3064   */\n      0x21\n        /* \"#utility.yul\":3057:3058   */\n      0x04\n        /* \"#utility.yul\":3050:3065   */\n      mstore\n        /* \"#utility.yul\":3084:3088   */\n      0x24\n        /* \"#utility.yul\":3081:3082   */\n      0x00\n        /* \"#utility.yul\":3074:3089   */\n      revert\n        /* \"#utility.yul\":3101:3214   */\n    tag_231:\n        /* \"#utility.yul\":3182:3183   */\n      0x02\n        /* \"#utility.yul\":3175:3180   */\n      dup2\n        /* \"#utility.yul\":3172:3184   */\n      lt\n        /* \"#utility.yul\":3162:3208   */\n      tag_294\n      jumpi\n        /* \"#utility.yul\":3188:3206   */\n      tag_295\n      tag_104\n      jump\t// in\n    tag_295:\n        /* \"#utility.yul\":3162:3208   */\n    tag_294:\n        /* \"#utility.yul\":3101:3214   */\n      pop\n      jump\t// out\n        /* \"#utility.yul\":3220:3347   */\n    tag_232:\n        /* \"#utility.yul\":3265:3272   */\n      0x00\n        /* \"#utility.yul\":3294:3299   */\n      dup2\n        /* \"#utility.yul\":3283:3299   */\n      swap1\n      pop\n        /* \"#utility.yul\":3300:3341   */\n      tag_297\n        /* \"#utility.yul\":3335:3340   */\n      dup3\n        /* \"#utility.yul\":3300:3341   */\n      tag_231\n      jump\t// in\n    tag_297:\n        /* \"#utility.yul\":3220:3347   */\n      swap2\n      swap1\n      pop\n      jump\t// out\n        /* \"#utility.yul\":3353:3480   */\n    tag_233:\n        /* \"#utility.yul\":3409:3418   */\n      0x00\n        /* \"#utility.yul\":3442:3474   */\n      tag_299\n        /* \"#utility.yul\":3468:3473   */\n      dup3\n        /* \"#utility.yul\":3442:3474   */\n      tag_232\n      jump\t// in\n    tag_299:\n        /* \"#utility.yul\":3429:3474   */\n      swap1\n      pop\n        /* \"#utility.yul\":3353:3480   */\n      swap2\n      swap1\n      pop\n      jump\t// out\n        /* \"#utility.yul\":3486:3629   */\n    tag_234:\n        /* \"#utility.yul\":3579:3622   */\n      tag_301\n        /* \"#utility.yul\":3616:3621   */\n      dup2\n        /* \"#utility.yul\":3579:3622   */\n      tag_233\n      jump\t// in\n    tag_301:\n        /* \"#utility.yul\":3574:3577   */\n      dup3\n        /* \"#utility.yul\":3567:3623   */\n      mstore\n        /* \"#utility.yul\":3486:3629   */\n      pop\n      pop\n      jump\t// out\n        /* \"#utility.yul\":3635:4299   */\n    tag_41:\n        /* \"#utility.yul\":3840:3844   */\n      0x00\n        /* \"#utility.yul\":3878:3881   */\n      0xa0\n        /* \"#utility.yul\":3867:3876   */\n      dup3\n        /* \"#utility.yul\":3863:3882   */\n      add\n        /* \"#utility.yul\":3855:3882   */\n      swap1\n      pop\n        /* \"#utility.yul\":3892:3963   */\n      tag_303\n        /* \"#utility.yul\":3960:3961   */\n      0x00\n        /* \"#utility.yul\":3949:3958   */\n      dup4\n        /* \"#utility.yul\":3945:3962   */\n      add\n        /* \"#utility.yul\":3936:3942   */\n      dup9\n        /* \"#utility.yul\":3892:3963   */\n      tag_230\n      jump\t// in\n    tag_303:\n        /* \"#utility.yul\":3973:4045   */\n      tag_304\n        /* \"#utility.yul\":4041:4043   */\n      0x20\n        /* \"#utility.yul\":4030:4039   */\n      dup4\n        /* \"#utility.yul\":4026:4044   */\n      add\n        /* \"#utility.yul\":4017:4023   */\n      dup8\n        /* \"#utility.yul\":3973:4045   */\n      tag_218\n      jump\t// in\n    tag_304:\n        /* \"#utility.yul\":4055:4127   */\n      tag_305\n        /* \"#utility.yul\":4123:4125   */\n      0x40\n        /* \"#utility.yul\":4112:4121   */\n      dup4\n        /* \"#utility.yul\":4108:4126   */\n      add\n        /* \"#utility.yul\":4099:4105   */\n      dup7\n        /* \"#utility.yul\":4055:4127   */\n      tag_218\n      jump\t// in\n    tag_305:\n        /* \"#utility.yul\":4137:4215   */\n      tag_306\n        /* \"#utility.yul\":4211:4213   */\n      0x60\n        /* \"#utility.yul\":4200:4209   */\n      dup4\n        /* \"#utility.yul\":4196:4214   */\n      add\n        /* \"#utility.yul\":4187:4193   */\n      dup6\n        /* \"#utility.yul\":4137:4215   */\n      tag_234\n      jump\t// in\n    tag_306:\n        /* \"#utility.yul\":4225:4292   */\n      tag_307\n        /* \"#utility.yul\":4287:4290   */\n      0x80\n        /* \"#utility.yul\":4276:4285   */\n      dup4\n        /* \"#utility.yul\":4272:4291   */\n      add\n        /* \"#utility.yul\":4263:4269   */\n      dup5\n        /* \"#utility.yul\":4225:4292   */\n      tag_229\n      jump\t// in\n    tag_307:\n        /* \"#utility.yul\":3635:4299   */\n      swap7\n      swap6\n      pop\n      pop\n      pop\n      pop\n      pop\n      pop\n      jump\t// out\n        /* \"#utility.yul\":4305:4779   */\n    tag_61:\n        /* \"#utility.yul\":4373:4379   */\n      0x00\n        /* \"#utility.yul\":4381:4387   */\n      dup1\n        /* \"#utility.yul\":4430:4432   */\n      0x40\n        /* \"#utility.yul\":4418:4427   */\n      dup4\n        /* \"#utility.yul\":4409:4416   */\n      dup6\n        /* \"#utility.yul\":4405:4428   */\n      sub\n        /* \"#utility.yul\":4401:4433   */\n      slt\n        /* \"#utility.yul\":4398:4517   */\n      iszero\n      tag_309\n      jumpi\n        /* \"#utility.yul\":4436:4515   */\n      tag_310\n      tag_220\n      jump\t// in\n    tag_310:\n        /* \"#utility.yul\":4398:4517   */\n    tag_309:\n        /* \"#utility.yul\":4556:4557   */\n      0x00\n        /* \"#utility.yul\":4581:4634   */\n      tag_311\n        /* \"#utility.yul\":4626:4633   */\n      dup6\n        /* \"#utility.yul\":4617:4623   */\n      dup3\n        /* \"#utility.yul\":4606:4615   */\n      dup7\n        /* \"#utility.yul\":4602:4624   */\n      add\n        /* \"#utility.yul\":4581:4634   */\n      tag_223\n      jump\t// in\n    tag_311:\n        /* \"#utility.yul\":4571:4634   */\n      swap3\n      pop\n        /* \"#utility.yul\":4527:4644   */\n      pop\n        /* \"#utility.yul\":4683:4685   */\n      0x20\n        /* \"#utility.yul\":4709:4762   */\n      tag_312\n        /* \"#utility.yul\":4754:4761   */\n      dup6\n        /* \"#utility.yul\":4745:4751   */\n      dup3\n        /* \"#utility.yul\":4734:4743   */\n      dup7\n        /* \"#utility.yul\":4730:4752   */\n      add\n        /* \"#utility.yul\":4709:4762   */\n      tag_223\n      jump\t// in\n    tag_312:\n        /* \"#utility.yul\":4699:4762   */\n      swap2\n      pop\n        /* \"#utility.yul\":4654:4772   */\n      pop\n        /* \"#utility.yul\":4305:4779   */\n      swap3\n      pop\n      swap3\n      swap1\n      pop\n      jump\t// out\n        /* \"#utility.yul\":4785:4845   */\n    tag_235:\n        /* \"#utility.yul\":4813:4816   */\n      0x00\n        /* \"#utility.yul\":4834:4839   */\n      dup2\n        /* \"#utility.yul\":4827:4839   */\n      swap1\n      pop\n        /* \"#utility.yul\":4785:4845   */\n      swap2\n      swap1\n      pop\n      jump\t// out\n        /* \"#utility.yul\":4851:4993   */\n    tag_236:\n        /* \"#utility.yul\":4901:4910   */\n      0x00\n        /* \"#utility.yul\":4934:4987   */\n      tag_315\n        /* \"#utility.yul\":4952:4986   */\n      tag_316\n        /* \"#utility.yul\":4961:4985   */\n      tag_317\n        /* \"#utility.yul\":4979:4984   */\n      dup5\n        /* \"#utility.yul\":4961:4985   */\n      tag_224\n      jump\t// in\n    tag_317:\n        /* \"#utility.yul\":4952:4986   */\n      tag_235\n      jump\t// in\n    tag_316:\n        /* \"#utility.yul\":4934:4987   */\n      tag_224\n      jump\t// in\n    tag_315:\n        /* \"#utility.yul\":4921:4987   */\n      swap1\n      pop\n        /* \"#utility.yul\":4851:4993   */\n      swap2\n      swap1\n      pop\n      jump\t// out\n        /* \"#utility.yul\":4999:5125   */\n    tag_237:\n        /* \"#utility.yul\":5049:5058   */\n      0x00\n        /* \"#utility.yul\":5082:5119   */\n      tag_319\n        /* \"#utility.yul\":5113:5118   */\n      dup3\n        /* \"#utility.yul\":5082:5119   */\n      tag_236\n      jump\t// in\n    tag_319:\n        /* \"#utility.yul\":5069:5119   */\n      swap1\n      pop\n        /* \"#utility.yul\":4999:5125   */\n      swap2\n      swap1\n      pop\n      jump\t// out\n        /* \"#utility.yul\":5131:5272   */\n    tag_238:\n        /* \"#utility.yul\":5196:5205   */\n      0x00\n        /* \"#utility.yul\":5229:5266   */\n      tag_321\n        /* \"#utility.yul\":5260:5265   */\n      dup3\n        /* \"#utility.yul\":5229:5266   */\n      tag_237\n      jump\t// in\n    tag_321:\n        /* \"#utility.yul\":5216:5266   */\n      swap1\n      pop\n        /* \"#utility.yul\":5131:5272   */\n      swap2\n      swap1\n      pop\n      jump\t// out\n        /* \"#utility.yul\":5278:5439   */\n    tag_239:\n        /* \"#utility.yul\":5380:5432   */\n      tag_323\n        /* \"#utility.yul\":5426:5431   */\n      dup2\n        /* \"#utility.yul\":5380:5432   */\n      tag_238\n      jump\t// in\n    tag_323:\n        /* \"#utility.yul\":5375:5378   */\n      dup3\n        /* \"#utility.yul\":5368:5433   */\n      mstore\n        /* \"#utility.yul\":5278:5439   */\n      pop\n      pop\n      jump\t// out\n        /* \"#utility.yul\":5445:5697   */\n    tag_96:\n        /* \"#utility.yul\":5553:5557   */\n      0x00\n        /* \"#utility.yul\":5591:5593   */\n      0x20\n        /* \"#utility.yul\":5580:5589   */\n      dup3\n        /* \"#utility.yul\":5576:5594   */\n      add\n        /* \"#utility.yul\":5568:5594   */\n      swap1\n      pop\n        /* \"#utility.yul\":5604:5690   */\n      tag_325\n        /* \"#utility.yul\":5687:5688   */\n      0x00\n        /* \"#utility.yul\":5676:5685   */\n      dup4\n        /* \"#utility.yul\":5672:5689   */\n      add\n        /* \"#utility.yul\":5663:5669   */\n      dup5\n        /* \"#utility.yul\":5604:5690   */\n      tag_239\n      jump\t// in\n    tag_325:\n        /* \"#utility.yul\":5445:5697   */\n      swap3\n      swap2\n      pop\n      pop\n      jump\t// out\n        /* \"#utility.yul\":5703:5872   */\n    tag_240:\n        /* \"#utility.yul\":5787:5798   */\n      0x00\n        /* \"#utility.yul\":5821:5827   */\n      dup3\n        /* \"#utility.yul\":5816:5819   */\n      dup3\n        /* \"#utility.yul\":5809:5828   */\n      mstore\n        /* \"#utility.yul\":5861:5865   */\n      0x20\n        /* \"#utility.yul\":5856:5859   */\n      dup3\n        /* \"#utility.yul\":5852:5866   */\n      add\n        /* \"#utility.yul\":5837:5866   */\n      swap1\n      pop\n        /* \"#utility.yul\":5703:5872   */\n      swap3\n      swap2\n      pop\n      pop\n      jump\t// out\n        /* \"#utility.yul\":5878:6051   */\n    tag_241:\n        /* \"#utility.yul\":6018:6043   */\n      0x63616d706169676e206973206e6f74206f70656e656421000000000000000000\n        /* \"#utility.yul\":6014:6015   */\n      0x00\n        /* \"#utility.yul\":6006:6012   */\n      dup3\n        /* \"#utility.yul\":6002:6016   */\n      add\n        /* \"#utility.yul\":5995:6044   */\n      mstore\n        /* \"#utility.yul\":5878:6051   */\n      pop\n      jump\t// out\n        /* \"#utility.yul\":6057:6423   */\n    tag_242:\n        /* \"#utility.yul\":6199:6202   */\n      0x00\n        /* \"#utility.yul\":6220:6287   */\n      tag_329\n        /* \"#utility.yul\":6284:6286   */\n      0x17\n        /* \"#utility.yul\":6279:6282   */\n      dup4\n        /* \"#utility.yul\":6220:6287   */\n      tag_240\n      jump\t// in\n    tag_329:\n        /* \"#utility.yul\":6213:6287   */\n      swap2\n      pop\n        /* \"#utility.yul\":6296:6389   */\n      tag_330\n        /* \"#utility.yul\":6385:6388   */\n      dup3\n        /* \"#utility.yul\":6296:6389   */\n      tag_241\n      jump\t// in\n    tag_330:\n        /* \"#utility.yul\":6414:6416   */\n      0x20\n        /* \"#utility.yul\":6409:6412   */\n      dup3\n        /* \"#utility.yul\":6405:6417   */\n      add\n        /* \"#utility.yul\":6398:6417   */\n      swap1\n      pop\n        /* \"#utility.yul\":6057:6423   */\n      swap2\n      swap1\n      pop\n      jump\t// out\n        /* \"#utility.yul\":6429:6848   */\n    tag_109:\n        /* \"#utility.yul\":6595:6599   */\n      0x00\n        /* \"#utility.yul\":6633:6635   */\n      0x20\n        /* \"#utility.yul\":6622:6631   */\n      dup3\n        /* \"#utility.yul\":6618:6636   */\n      add\n        /* \"#utility.yul\":6610:6636   */\n      swap1\n      pop\n        /* \"#utility.yul\":6682:6691   */\n      dup2\n        /* \"#utility.yul\":6676:6680   */\n      dup2\n        /* \"#utility.yul\":6672:6692   */\n      sub\n        /* \"#utility.yul\":6668:6669   */\n      0x00\n        /* \"#utility.yul\":6657:6666   */\n      dup4\n        /* \"#utility.yul\":6653:6670   */\n      add\n        /* \"#utility.yul\":6646:6693   */\n      mstore\n        /* \"#utility.yul\":6710:6841   */\n      tag_332\n        /* \"#utility.yul\":6836:6840   */\n      dup2\n        /* \"#utility.yul\":6710:6841   */\n      tag_242\n      jump\t// in\n    tag_332:\n        /* \"#utility.yul\":6702:6841   */\n      swap1\n      pop\n        /* \"#utility.yul\":6429:6848   */\n      swap2\n      swap1\n      pop\n      jump\t// out\n        /* \"#utility.yul\":6854:7016   */\n    tag_243:\n        /* \"#utility.yul\":6994:7008   */\n      0x6e6f7420616e206f776e65720000000000000000000000000000000000000000\n        /* \"#utility.yul\":6990:6991   */\n      0x00\n        /* \"#utility.yul\":6982:6988   */\n      dup3\n        /* \"#utility.yul\":6978:6992   */\n      add\n        /* \"#utility.yul\":6971:7009   */\n      mstore\n        /* \"#utility.yul\":6854:7016   */\n      pop\n      jump\t// out\n        /* \"#utility.yul\":7022:7388   */\n    tag_244:\n        /* \"#utility.yul\":7164:7167   */\n      0x00\n        /* \"#utility.yul\":7185:7252   */\n      tag_335\n        /* \"#utility.yul\":7249:7251   */\n      0x0c\n        /* \"#utility.yul\":7244:7247   */\n      dup4\n        /* \"#utility.yul\":7185:7252   */\n      tag_240\n      jump\t// in\n    tag_335:\n        /* \"#utility.yul\":7178:7252   */\n      swap2\n      pop\n        /* \"#utility.yul\":7261:7354   */\n      tag_336\n        /* \"#utility.yul\":7350:7353   */\n      dup3\n        /* \"#utility.yul\":7261:7354   */\n      tag_243\n      jump\t// in\n    tag_336:\n        /* \"#utility.yul\":7379:7381   */\n      0x20\n        /* \"#utility.yul\":7374:7377   */\n      dup3\n        /* \"#utility.yul\":7370:7382   */\n      add\n        /* \"#utility.yul\":7363:7382   */\n      swap1\n      pop\n        /* \"#utility.yul\":7022:7388   */\n      swap2\n      swap1\n      pop\n      jump\t// out\n        /* \"#utility.yul\":7394:7813   */\n    tag_112:\n        /* \"#utility.yul\":7560:7564   */\n      0x00\n        /* \"#utility.yul\":7598:7600   */\n      0x20\n        /* \"#utility.yul\":7587:7596   */\n      dup3\n        /* \"#utility.yul\":7583:7601   */\n      add\n        /* \"#utility.yul\":7575:7601   */\n      swap1\n      pop\n        /* \"#utility.yul\":7647:7656   */\n      dup2\n        /* \"#utility.yul\":7641:7645   */\n      dup2\n        /* \"#utility.yul\":7637:7657   */\n      sub\n        /* \"#utility.yul\":7633:7634   */\n      0x00\n        /* \"#utility.yul\":7622:7631   */\n      dup4\n        /* \"#utility.yul\":7618:7635   */\n      add\n        /* \"#utility.yul\":7611:7658   */\n      mstore\n        /* \"#utility.yul\":7675:7806   */\n      tag_338\n        /* \"#utility.yul\":7801:7805   */\n      dup2\n        /* \"#utility.yul\":7675:7806   */\n      tag_244\n      jump\t// in\n    tag_338:\n        /* \"#utility.yul\":7667:7806   */\n      swap1\n      pop\n        /* \"#utility.yul\":7394:7813   */\n      swap2\n      swap1\n      pop\n      jump\t// out\n        /* \"#utility.yul\":7819:8151   */\n    tag_114:\n        /* \"#utility.yul\":7940:7944   */\n      0x00\n        /* \"#utility.yul\":7978:7980   */\n      0x40\n        /* \"#utility.yul\":7967:7976   */\n      dup3\n        /* \"#utility.yul\":7963:7981   */\n      add\n        /* \"#utility.yul\":7955:7981   */\n      swap1\n      pop\n        /* \"#utility.yul\":7991:8062   */\n      tag_340\n        /* \"#utility.yul\":8059:8060   */\n      0x00\n        /* \"#utility.yul\":8048:8057   */\n      dup4\n        /* \"#utility.yul\":8044:8061   */\n      add\n        /* \"#utility.yul\":8035:8041   */\n      dup6\n        /* \"#utility.yul\":7991:8062   */\n      tag_230\n      jump\t// in\n    tag_340:\n        /* \"#utility.yul\":8072:8144   */\n      tag_341\n        /* \"#utility.yul\":8140:8142   */\n      0x20\n        /* \"#utility.yul\":8129:8138   */\n      dup4\n        /* \"#utility.yul\":8125:8143   */\n      add\n        /* \"#utility.yul\":8116:8122   */\n      dup5\n        /* \"#utility.yul\":8072:8144   */\n      tag_218\n      jump\t// in\n    tag_341:\n        /* \"#utility.yul\":7819:8151   */\n      swap4\n      swap3\n      pop\n      pop\n      pop\n      jump\t// out\n        /* \"#utility.yul\":8157:8599   */\n    tag_119:\n        /* \"#utility.yul\":8306:8310   */\n      0x00\n        /* \"#utility.yul\":8344:8346   */\n      0x60\n        /* \"#utility.yul\":8333:8342   */\n      dup3\n        /* \"#utility.yul\":8329:8347   */\n      add\n        /* \"#utility.yul\":8321:8347   */\n      swap1\n      pop\n        /* \"#utility.yul\":8357:8428   */\n      tag_343\n        /* \"#utility.yul\":8425:8426   */\n      0x00\n        /* \"#utility.yul\":8414:8423   */\n      dup4\n        /* \"#utility.yul\":8410:8427   */\n      add\n        /* \"#utility.yul\":8401:8407   */\n      dup7\n        /* \"#utility.yul\":8357:8428   */\n      tag_218\n      jump\t// in\n    tag_343:\n        /* \"#utility.yul\":8438:8510   */\n      tag_344\n        /* \"#utility.yul\":8506:8508   */\n      0x20\n        /* \"#utility.yul\":8495:8504   */\n      dup4\n        /* \"#utility.yul\":8491:8509   */\n      add\n        /* \"#utility.yul\":8482:8488   */\n      dup6\n        /* \"#utility.yul\":8438:8510   */\n      tag_230\n      jump\t// in\n    tag_344:\n        /* \"#utility.yul\":8520:8592   */\n      tag_345\n        /* \"#utility.yul\":8588:8590   */\n      0x40\n        /* \"#utility.yul\":8577:8586   */\n      dup4\n        /* \"#utility.yul\":8573:8591   */\n      add\n        /* \"#utility.yul\":8564:8570   */\n      dup5\n        /* \"#utility.yul\":8520:8592   */\n      tag_218\n      jump\t// in\n    tag_345:\n        /* \"#utility.yul\":8157:8599   */\n      swap5\n      swap4\n      pop\n      pop\n      pop\n      pop\n      jump\t// out\n        /* \"#utility.yul\":8605:8773   */\n    tag_245:\n        /* \"#utility.yul\":8745:8765   */\n      0x6e6f7420656e6f75676820726967687473210000000000000000000000000000\n        /* \"#utility.yul\":8741:8742   */\n      0x00\n        /* \"#utility.yul\":8733:8739   */\n      dup3\n        /* \"#utility.yul\":8729:8743   */\n      add\n        /* \"#utility.yul\":8722:8766   */\n      mstore\n        /* \"#utility.yul\":8605:8773   */\n      pop\n      jump\t// out\n        /* \"#utility.yul\":8779:9145   */\n    tag_246:\n        /* \"#utility.yul\":8921:8924   */\n      0x00\n        /* \"#utility.yul\":8942:9009   */\n      tag_348\n        /* \"#utility.yul\":9006:9008   */\n      0x12\n        /* \"#utility.yul\":9001:9004   */\n      dup4\n        /* \"#utility.yul\":8942:9009   */\n      tag_240\n      jump\t// in\n    tag_348:\n        /* \"#utility.yul\":8935:9009   */\n      swap2\n      pop\n        /* \"#utility.yul\":9018:9111   */\n      tag_349\n        /* \"#utility.yul\":9107:9110   */\n      dup3\n        /* \"#utility.yul\":9018:9111   */\n      tag_245\n      jump\t// in\n    tag_349:\n        /* \"#utility.yul\":9136:9138   */\n      0x20\n        /* \"#utility.yul\":9131:9134   */\n      dup3\n        /* \"#utility.yul\":9127:9139   */\n      add\n        /* \"#utility.yul\":9120:9139   */\n      swap1\n      pop\n        /* \"#utility.yul\":8779:9145   */\n      swap2\n      swap1\n      pop\n      jump\t// out\n        /* \"#utility.yul\":9151:9570   */\n    tag_124:\n        /* \"#utility.yul\":9317:9321   */\n      0x00\n        /* \"#utility.yul\":9355:9357   */\n      0x20\n        /* \"#utility.yul\":9344:9353   */\n      dup3\n        /* \"#utility.yul\":9340:9358   */\n      add\n        /* \"#utility.yul\":9332:9358   */\n      swap1\n      pop\n        /* \"#utility.yul\":9404:9413   */\n      dup2\n        /* \"#utility.yul\":9398:9402   */\n      dup2\n        /* \"#utility.yul\":9394:9414   */\n      sub\n        /* \"#utility.yul\":9390:9391   */\n      0x00\n        /* \"#utility.yul\":9379:9388   */\n      dup4\n        /* \"#utility.yul\":9375:9392   */\n      add\n        /* \"#utility.yul\":9368:9415   */\n      mstore\n        /* \"#utility.yul\":9432:9563   */\n      tag_351\n        /* \"#utility.yul\":9558:9562   */\n      dup2\n        /* \"#utility.yul\":9432:9563   */\n      tag_246\n      jump\t// in\n    tag_351:\n        /* \"#utility.yul\":9424:9563   */\n      swap1\n      pop\n        /* \"#utility.yul\":9151:9570   */\n      swap2\n      swap1\n      pop\n      jump\t// out\n        /* \"#utility.yul\":9576:9744   */\n    tag_247:\n        /* \"#utility.yul\":9716:9736   */\n      0x706c656467656420697320746f6f206c6f770000000000000000000000000000\n        /* \"#utility.yul\":9712:9713   */\n      0x00\n        /* \"#utility.yul\":9704:9710   */\n      dup3\n        /* \"#utility.yul\":9700:9714   */\n      add\n        /* \"#utility.yul\":9693:9737   */\n      mstore\n        /* \"#utility.yul\":9576:9744   */\n      pop\n      jump\t// out\n        /* \"#utility.yul\":9750:10116   */\n    tag_248:\n        /* \"#utility.yul\":9892:9895   */\n      0x00\n        /* \"#utility.yul\":9913:9980   */\n      tag_354\n        /* \"#utility.yul\":9977:9979   */\n      0x12\n        /* \"#utility.yul\":9972:9975   */\n      dup4\n        /* \"#utility.yul\":9913:9980   */\n      tag_240\n      jump\t// in\n    tag_354:\n        /* \"#utility.yul\":9906:9980   */\n      swap2\n      pop\n        /* \"#utility.yul\":9989:10082   */\n      tag_355\n        /* \"#utility.yul\":10078:10081   */\n      dup3\n        /* \"#utility.yul\":9989:10082   */\n      tag_247\n      jump\t// in\n    tag_355:\n        /* \"#utility.yul\":10107:10109   */\n      0x20\n        /* \"#utility.yul\":10102:10105   */\n      dup3\n        /* \"#utility.yul\":10098:10110   */\n      add\n        /* \"#utility.yul\":10091:10110   */\n      swap1\n      pop\n        /* \"#utility.yul\":9750:10116   */\n      swap2\n      swap1\n      pop\n      jump\t// out\n        /* \"#utility.yul\":10122:10541   */\n    tag_127:\n        /* \"#utility.yul\":10288:10292   */\n      0x00\n        /* \"#utility.yul\":10326:10328   */\n      0x20\n        /* \"#utility.yul\":10315:10324   */\n      dup3\n        /* \"#utility.yul\":10311:10329   */\n      add\n        /* \"#utility.yul\":10303:10329   */\n      swap1\n      pop\n        /* \"#utility.yul\":10375:10384   */\n      dup2\n        /* \"#utility.yul\":10369:10373   */\n      dup2\n        /* \"#utility.yul\":10365:10385   */\n      sub\n        /* \"#utility.yul\":10361:10362   */\n      0x00\n        /* \"#utility.yul\":10350:10359   */\n      dup4\n        /* \"#utility.yul\":10346:10363   */\n      add\n        /* \"#utility.yul\":10339:10386   */\n      mstore\n        /* \"#utility.yul\":10403:10534   */\n      tag_357\n        /* \"#utility.yul\":10529:10533   */\n      dup2\n        /* \"#utility.yul\":10403:10534   */\n      tag_248\n      jump\t// in\n    tag_357:\n        /* \"#utility.yul\":10395:10534   */\n      swap1\n      pop\n        /* \"#utility.yul\":10122:10541   */\n      swap2\n      swap1\n      pop\n      jump\t// out\n        /* \"#utility.yul\":10547:10712   */\n    tag_249:\n        /* \"#utility.yul\":10687:10704   */\n      0x616c726561647920636c61696d65640000000000000000000000000000000000\n        /* \"#utility.yul\":10683:10684   */\n      0x00\n        /* \"#utility.yul\":10675:10681   */\n      dup3\n        /* \"#utility.yul\":10671:10685   */\n      add\n        /* \"#utility.yul\":10664:10705   */\n      mstore\n        /* \"#utility.yul\":10547:10712   */\n      pop\n      jump\t// out\n        /* \"#utility.yul\":10718:11084   */\n    tag_250:\n        /* \"#utility.yul\":10860:10863   */\n      0x00\n        /* \"#utility.yul\":10881:10948   */\n      tag_360\n        /* \"#utility.yul\":10945:10947   */\n      0x0f\n        /* \"#utility.yul\":10940:10943   */\n      dup4\n        /* \"#utility.yul\":10881:10948   */\n      tag_240\n      jump\t// in\n    tag_360:\n        /* \"#utility.yul\":10874:10948   */\n      swap2\n      pop\n        /* \"#utility.yul\":10957:11050   */\n      tag_361\n        /* \"#utility.yul\":11046:11049   */\n      dup3\n        /* \"#utility.yul\":10957:11050   */\n      tag_249\n      jump\t// in\n    tag_361:\n        /* \"#utility.yul\":11075:11077   */\n      0x20\n        /* \"#utility.yul\":11070:11073   */\n      dup3\n        /* \"#utility.yul\":11066:11078   */\n      add\n        /* \"#utility.yul\":11059:11078   */\n      swap1\n      pop\n        /* \"#utility.yul\":10718:11084   */\n      swap2\n      swap1\n      pop\n      jump\t// out\n        /* \"#utility.yul\":11090:11509   */\n    tag_130:\n        /* \"#utility.yul\":11256:11260   */\n      0x00\n        /* \"#utility.yul\":11294:11296   */\n      0x20\n        /* \"#utility.yul\":11283:11292   */\n      dup3\n        /* \"#utility.yul\":11279:11297   */\n      add\n        /* \"#utility.yul\":11271:11297   */\n      swap1\n      pop\n        /* \"#utility.yul\":11343:11352   */\n      dup2\n        /* \"#utility.yul\":11337:11341   */\n      dup2\n        /* \"#utility.yul\":11333:11353   */\n      sub\n        /* \"#utility.yul\":11329:11330   */\n      0x00\n        /* \"#utility.yul\":11318:11327   */\n      dup4\n        /* \"#utility.yul\":11314:11331   */\n      add\n        /* \"#utility.yul\":11307:11354   */\n      mstore\n        /* \"#utility.yul\":11371:11502   */\n      tag_363\n        /* \"#utility.yul\":11497:11501   */\n      dup2\n        /* \"#utility.yul\":11371:11502   */\n      tag_250\n      jump\t// in\n    tag_363:\n        /* \"#utility.yul\":11363:11502   */\n      swap1\n      pop\n        /* \"#utility.yul\":11090:11509   */\n      swap2\n      swap1\n      pop\n      jump\t// out\n        /* \"#utility.yul\":11515:11678   */\n    tag_251:\n        /* \"#utility.yul\":11655:11670   */\n      0x6e6f7420616e206f776e65722100000000000000000000000000000000000000\n        /* \"#utility.yul\":11651:11652   */\n      0x00\n        /* \"#utility.yul\":11643:11649   */\n      dup3\n        /* \"#utility.yul\":11639:11653   */\n      add\n        /* \"#utility.yul\":11632:11671   */\n      mstore\n        /* \"#utility.yul\":11515:11678   */\n      pop\n      jump\t// out\n        /* \"#utility.yul\":11684:12050   */\n    tag_252:\n        /* \"#utility.yul\":11826:11829   */\n      0x00\n        /* \"#utility.yul\":11847:11914   */\n      tag_366\n        /* \"#utility.yul\":11911:11913   */\n      0x0d\n        /* \"#utility.yul\":11906:11909   */\n      dup4\n        /* \"#utility.yul\":11847:11914   */\n      tag_240\n      jump\t// in\n    tag_366:\n        /* \"#utility.yul\":11840:11914   */\n      swap2\n      pop\n        /* \"#utility.yul\":11923:12016   */\n      tag_367\n        /* \"#utility.yul\":12012:12015   */\n      dup3\n        /* \"#utility.yul\":11923:12016   */\n      tag_251\n      jump\t// in\n    tag_367:\n        /* \"#utility.yul\":12041:12043   */\n      0x20\n        /* \"#utility.yul\":12036:12039   */\n      dup3\n        /* \"#utility.yul\":12032:12044   */\n      add\n        /* \"#utility.yul\":12025:12044   */\n      swap1\n      pop\n        /* \"#utility.yul\":11684:12050   */\n      swap2\n      swap1\n      pop\n      jump\t// out\n        /* \"#utility.yul\":12056:12475   */\n    tag_143:\n        /* \"#utility.yul\":12222:12226   */\n      0x00\n        /* \"#utility.yul\":12260:12262   */\n      0x20\n        /* \"#utility.yul\":12249:12258   */\n      dup3\n        /* \"#utility.yul\":12245:12263   */\n      add\n        /* \"#utility.yul\":12237:12263   */\n      swap1\n      pop\n        /* \"#utility.yul\":12309:12318   */\n      dup2\n        /* \"#utility.yul\":12303:12307   */\n      dup2\n        /* \"#utility.yul\":12299:12319   */\n      sub\n        /* \"#utility.yul\":12295:12296   */\n      0x00\n        /* \"#utility.yul\":12284:12293   */\n      dup4\n        /* \"#utility.yul\":12280:12297   */\n      add\n        /* \"#utility.yul\":12273:12320   */\n      mstore\n        /* \"#utility.yul\":12337:12468   */\n      tag_369\n        /* \"#utility.yul\":12463:12467   */\n      dup2\n        /* \"#utility.yul\":12337:12468   */\n      tag_252\n      jump\t// in\n    tag_369:\n        /* \"#utility.yul\":12329:12468   */\n      swap1\n      pop\n        /* \"#utility.yul\":12056:12475   */\n      swap2\n      swap1\n      pop\n      jump\t// out\n        /* \"#utility.yul\":12481:12661   */\n    tag_253:\n        /* \"#utility.yul\":12529:12606   */\n      0x4e487b7100000000000000000000000000000000000000000000000000000000\n        /* \"#utility.yul\":12526:12527   */\n      0x00\n        /* \"#utility.yul\":12519:12607   */\n      mstore\n        /* \"#utility.yul\":12626:12630   */\n      0x11\n        /* \"#utility.yul\":12623:12624   */\n      0x04\n        /* \"#utility.yul\":12616:12631   */\n      mstore\n        /* \"#utility.yul\":12650:12654   */\n      0x24\n        /* \"#utility.yul\":12647:12648   */\n      0x00\n        /* \"#utility.yul\":12640:12655   */\n      revert\n        /* \"#utility.yul\":12667:12861   */\n    tag_162:\n        /* \"#utility.yul\":12707:12711   */\n      0x00\n        /* \"#utility.yul\":12727:12747   */\n      tag_372\n        /* \"#utility.yul\":12745:12746   */\n      dup3\n        /* \"#utility.yul\":12727:12747   */\n      tag_217\n      jump\t// in\n    tag_372:\n        /* \"#utility.yul\":12722:12747   */\n      swap2\n      pop\n        /* \"#utility.yul\":12761:12781   */\n      tag_373\n        /* \"#utility.yul\":12779:12780   */\n      dup4\n        /* \"#utility.yul\":12761:12781   */\n      tag_217\n      jump\t// in\n    tag_373:\n        /* \"#utility.yul\":12756:12781   */\n      swap3\n      pop\n        /* \"#utility.yul\":12805:12806   */\n      dup3\n        /* \"#utility.yul\":12802:12803   */\n      dup3\n        /* \"#utility.yul\":12798:12807   */\n      sub\n        /* \"#utility.yul\":12790:12807   */\n      swap1\n      pop\n        /* \"#utility.yul\":12829:12830   */\n      dup2\n        /* \"#utility.yul\":12823:12827   */\n      dup2\n        /* \"#utility.yul\":12820:12831   */\n      gt\n        /* \"#utility.yul\":12817:12854   */\n      iszero\n      tag_374\n      jumpi\n        /* \"#utility.yul\":12834:12852   */\n      tag_375\n      tag_253\n      jump\t// in\n    tag_375:\n        /* \"#utility.yul\":12817:12854   */\n    tag_374:\n        /* \"#utility.yul\":12667:12861   */\n      swap3\n      swap2\n      pop\n      pop\n      jump\t// out\n        /* \"#utility.yul\":12867:13432   */\n    tag_175:\n        /* \"#utility.yul\":13050:13054   */\n      0x00\n        /* \"#utility.yul\":13088:13091   */\n      0x80\n        /* \"#utility.yul\":13077:13086   */\n      dup3\n        /* \"#utility.yul\":13073:13092   */\n      add\n        /* \"#utility.yul\":13065:13092   */\n      swap1\n      pop\n        /* \"#utility.yul\":13102:13173   */\n      tag_377\n        /* \"#utility.yul\":13170:13171   */\n      0x00\n        /* \"#utility.yul\":13159:13168   */\n      dup4\n        /* \"#utility.yul\":13155:13172   */\n      add\n        /* \"#utility.yul\":13146:13152   */\n      dup8\n        /* \"#utility.yul\":13102:13173   */\n      tag_218\n      jump\t// in\n    tag_377:\n        /* \"#utility.yul\":13183:13255   */\n      tag_378\n        /* \"#utility.yul\":13251:13253   */\n      0x20\n        /* \"#utility.yul\":13240:13249   */\n      dup4\n        /* \"#utility.yul\":13236:13254   */\n      add\n        /* \"#utility.yul\":13227:13233   */\n      dup7\n        /* \"#utility.yul\":13183:13255   */\n      tag_230\n      jump\t// in\n    tag_378:\n        /* \"#utility.yul\":13265:13337   */\n      tag_379\n        /* \"#utility.yul\":13333:13335   */\n      0x40\n        /* \"#utility.yul\":13322:13331   */\n      dup4\n        /* \"#utility.yul\":13318:13336   */\n      add\n        /* \"#utility.yul\":13309:13315   */\n      dup6\n        /* \"#utility.yul\":13265:13337   */\n      tag_218\n      jump\t// in\n    tag_379:\n        /* \"#utility.yul\":13347:13425   */\n      tag_380\n        /* \"#utility.yul\":13421:13423   */\n      0x60\n        /* \"#utility.yul\":13410:13419   */\n      dup4\n        /* \"#utility.yul\":13406:13424   */\n      add\n        /* \"#utility.yul\":13397:13403   */\n      dup5\n        /* \"#utility.yul\":13347:13425   */\n      tag_234\n      jump\t// in\n    tag_380:\n        /* \"#utility.yul\":12867:13432   */\n      swap6\n      swap5\n      pop\n      pop\n      pop\n      pop\n      pop\n      jump\t// out\n        /* \"#utility.yul\":13438:13629   */\n    tag_177:\n        /* \"#utility.yul\":13478:13481   */\n      0x00\n        /* \"#utility.yul\":13497:13517   */\n      tag_382\n        /* \"#utility.yul\":13515:13516   */\n      dup3\n        /* \"#utility.yul\":13497:13517   */\n      tag_217\n      jump\t// in\n    tag_382:\n        /* \"#utility.yul\":13492:13517   */\n      swap2\n      pop\n        /* \"#utility.yul\":13531:13551   */\n      tag_383\n        /* \"#utility.yul\":13549:13550   */\n      dup4\n        /* \"#utility.yul\":13531:13551   */\n      tag_217\n      jump\t// in\n    tag_383:\n        /* \"#utility.yul\":13526:13551   */\n      swap3\n      pop\n        /* \"#utility.yul\":13574:13575   */\n      dup3\n        /* \"#utility.yul\":13571:13572   */\n      dup3\n        /* \"#utility.yul\":13567:13576   */\n      add\n        /* \"#utility.yul\":13560:13576   */\n      swap1\n      pop\n        /* \"#utility.yul\":13595:13598   */\n      dup1\n        /* \"#utility.yul\":13592:13593   */\n      dup3\n        /* \"#utility.yul\":13589:13599   */\n      gt\n        /* \"#utility.yul\":13586:13622   */\n      iszero\n      tag_384\n      jumpi\n        /* \"#utility.yul\":13602:13620   */\n      tag_385\n      tag_253\n      jump\t// in\n    tag_385:\n        /* \"#utility.yul\":13586:13622   */\n    tag_384:\n        /* \"#utility.yul\":13438:13629   */\n      swap3\n      swap2\n      pop\n      pop\n      jump\t// out\n        /* \"#utility.yul\":13635:13869   */\n    tag_194:\n        /* \"#utility.yul\":13734:13738   */\n      0x00\n        /* \"#utility.yul\":13772:13774   */\n      0x20\n        /* \"#utility.yul\":13761:13770   */\n      dup3\n        /* \"#utility.yul\":13757:13775   */\n      add\n        /* \"#utility.yul\":13749:13775   */\n      swap1\n      pop\n        /* \"#utility.yul\":13785:13862   */\n      tag_387\n        /* \"#utility.yul\":13859:13860   */\n      0x00\n        /* \"#utility.yul\":13848:13857   */\n      dup4\n        /* \"#utility.yul\":13844:13861   */\n      add\n        /* \"#utility.yul\":13835:13841   */\n      dup5\n        /* \"#utility.yul\":13785:13862   */\n      tag_234\n      jump\t// in\n    tag_387:\n        /* \"#utility.yul\":13635:13869   */\n      swap3\n      swap2\n      pop\n      pop\n      jump\t// out\n        /* \"#utility.yul\":13875:14317   */\n    tag_212:\n        /* \"#utility.yul\":14024:14028   */\n      0x00\n        /* \"#utility.yul\":14062:14064   */\n      0x60\n        /* \"#utility.yul\":14051:14060   */\n      dup3\n        /* \"#utility.yul\":14047:14065   */\n      add\n        /* \"#utility.yul\":14039:14065   */\n      swap1\n      pop\n        /* \"#utility.yul\":14075:14146   */\n      tag_389\n        /* \"#utility.yul\":14143:14144   */\n      0x00\n        /* \"#utility.yul\":14132:14141   */\n      dup4\n        /* \"#utility.yul\":14128:14145   */\n      add\n        /* \"#utility.yul\":14119:14125   */\n      dup7\n        /* \"#utility.yul\":14075:14146   */\n      tag_230\n      jump\t// in\n    tag_389:\n        /* \"#utility.yul\":14156:14228   */\n      tag_390\n        /* \"#utility.yul\":14224:14226   */\n      0x20\n        /* \"#utility.yul\":14213:14222   */\n      dup4\n        /* \"#utility.yul\":14209:14227   */\n      add\n        /* \"#utility.yul\":14200:14206   */\n      dup6\n        /* \"#utility.yul\":14156:14228   */\n      tag_230\n      jump\t// in\n    tag_390:\n        /* \"#utility.yul\":14238:14310   */\n      tag_391\n        /* \"#utility.yul\":14306:14308   */\n      0x40\n        /* \"#utility.yul\":14295:14304   */\n      dup4\n        /* \"#utility.yul\":14291:14309   */\n      add\n        /* \"#utility.yul\":14282:14288   */\n      dup5\n        /* \"#utility.yul\":14238:14310   */\n      tag_218\n      jump\t// in\n    tag_391:\n        /* \"#utility.yul\":13875:14317   */\n      swap5\n      swap4\n      pop\n      pop\n      pop\n      pop\n      jump\t// out\n\n    auxdata: 0xa26469706673582212205ef6da7c06b5f3de9fc7f1285f3398e57ff05c5714185381e13b63130654abcf64736f6c63430008110033\n}\n",
				"bytecode": {
					"linkReferences": {},
					"object": "60a06040523480156200001157600080fd5b5060405162001f7e38038062001f7e8339818101604052810190620000379190620000dc565b8073ffffffffffffffffffffffffffffffffffffffff1660808173ffffffffffffffffffffffffffffffffffffffff1681525050506200010e565b600080fd5b600073ffffffffffffffffffffffffffffffffffffffff82169050919050565b6000620000a48262000077565b9050919050565b620000b68162000097565b8114620000c257600080fd5b50565b600081519050620000d681620000ab565b92915050565b600060208284031215620000f557620000f462000072565b5b60006200010584828501620000c5565b91505092915050565b608051611e3862000146600039600081816106920152818161092e01528181610da4015281816114e101526116150152611e386000f3fe6080604052600436106100f75760003560e01c80638e97f5241161008a578063ba28239811610059578063ba2823981461037e578063e00dd161146103a7578063fc0c546a146103d2578063fde327be146103fd5761014c565b80638e97f524146102c457806392f7715414610301578063a41c57bc1461032c578063a9e966b7146103555761014c565b806340e58ee5116100c657806340e58ee51461021e5780636244c42f14610247578063711853ab1461027257806385b12c7c1461029b5761014c565b80630b46056b1461014e578063141961bc1461018b578063278ecde1146101cc578063379607f5146101f55761014c565b3661014c573373ffffffffffffffffffffffffffffffffffffffff167f27b15ed4cf832749ed39f33a64e4707ed60a761485e41ffec7343ecaddc0c02a3460405161014291906116fb565b60405180910390a2005b005b34801561015a57600080fd5b50610175600480360381019061017091906117a5565b610426565b6040516101829190611800565b60405180910390f35b34801561019757600080fd5b506101b260048036038101906101ad919061181b565b610455565b6040516101c39594939291906118ce565b60405180910390f35b3480156101d857600080fd5b506101f360048036038101906101ee919061181b565b6104c5565b005b34801561020157600080fd5b5061021c6004803603810190610217919061181b565b61075d565b005b34801561022a57600080fd5b506102456004803603810190610240919061181b565b6109f8565b005b34801561025357600080fd5b5061025c610c66565b60405161026991906116fb565b60405180910390f35b34801561027e57600080fd5b5061029960048036038101906102949190611921565b610c92565b005b3480156102a757600080fd5b506102c260048036038101906102bd919061181b565b610e6f565b005b3480156102d057600080fd5b506102eb60048036038101906102e691906117a5565b610fe2565b6040516102f891906116fb565b60405180910390f35b34801561030d57600080fd5b50610316611007565b60405161032391906116fb565b60405180910390f35b34801561033857600080fd5b50610353600480360381019061034e91906117a5565b611033565b005b34801561036157600080fd5b5061037c6004803603810190610377919061181b565b6111f5565b005b34801561038a57600080fd5b506103a560048036038101906103a091906117a5565b611317565b005b3480156103b357600080fd5b506103bc6114d9565b6040516103c991906116fb565b60405180910390f35b3480156103de57600080fd5b506103e76114df565b6040516103f491906119c0565b60405180910390f35b34801561040957600080fd5b50610424600480360381019061041f9190611921565b611503565b005b60046020528160005260406000206020528060005260406000206000915091509054906101000a900460ff1681565b60016020528060005260406000206000915090508060000160009054906101000a900473ffffffffffffffffffffffffffffffffffffffff16908060010154908060020154908060030160009054906101000a900460ff16908060030160019054906101000a900460ff16905085565b60006001600083815260200190815260200160002090506001808111156104ef576104ee611857565b5b8160030160009054906101000a900460ff16600181111561051357610512611857565b5b14610553576040517f08c379a000000000000000000000000000000000000000000000000000000000815260040161054a90611a38565b60405180910390fd5b8060000160009054906101000a900473ffffffffffffffffffffffffffffffffffffffff1673ffffffffffffffffffffffffffffffffffffffff163373ffffffffffffffffffffffffffffffffffffffff16146105e5576040517f08c379a00000000000000000000000000000000000000000000000000000000081526004016105dc90611aa4565b60405180910390fd5b60006003600084815260200190815260200160002060003373ffffffffffffffffffffffffffffffffffffffff1673ffffffffffffffffffffffffffffffffffffffff16815260200190815260200160002054905060006003600085815260200190815260200160002060003373ffffffffffffffffffffffffffffffffffffffff1673ffffffffffffffffffffffffffffffffffffffff168152602001908152602001600020819055507f000000000000000000000000000000000000000000000000000000000000000073ffffffffffffffffffffffffffffffffffffffff1663a9059cbb33836040518363ffffffff1660e01b81526004016106eb929190611ac4565b600060405180830381600087803b15801561070557600080fd5b505af1158015610719573d6000803e3d6000fd5b505050507f7ca5472b7ea78c2c0141c5a12ee6d170cf4ce8ed06be3d22c8252ddfc7a6a2c483338360405161075093929190611aed565b60405180910390a1505050565b60006001600083815260200190815260200160002090508060000160009054906101000a900473ffffffffffffffffffffffffffffffffffffffff1673ffffffffffffffffffffffffffffffffffffffff163373ffffffffffffffffffffffffffffffffffffffff1614806108335750600115156004600084815260200190815260200160002060003373ffffffffffffffffffffffffffffffffffffffff1673ffffffffffffffffffffffffffffffffffffffff16815260200190815260200160002060009054906101000a900460ff161515145b610872576040517f08c379a000000000000000000000000000000000000000000000000000000000815260040161086990611b70565b60405180910390fd5b8060010154816002015410156108bd576040517f08c379a00000000000000000000000000000000000000000000000000000000081526004016108b490611bdc565b60405180910390fd5b8060030160019054906101000a900460ff161561090f576040517f08c379a000000000000000000000000000000000000000000000000000000000815260040161090690611c48565b60405180910390fd5b60018160030160016101000a81548160ff0219169083151502179055507f000000000000000000000000000000000000000000000000000000000000000073ffffffffffffffffffffffffffffffffffffffff1663a9059cbb3383600201546040518363ffffffff1660e01b815260040161098b929190611ac4565b600060405180830381600087803b1580156109a557600080fd5b505af11580156109b9573d6000803e3d6000fd5b505050507f7a355715549cfe7c1cba26304350343fbddc4b4f72d3ce3e7c27117dd20b5cb8826040516109ec91906116fb565b60405180910390a15050565b6000600160008381526020019081526020016000206040518060a00160405290816000820160009054906101000a900473ffffffffffffffffffffffffffffffffffffffff1673ffffffffffffffffffffffffffffffffffffffff1673ffffffffffffffffffffffffffffffffffffffff16815260200160018201548152602001600282015481526020016003820160009054906101000a900460ff166001811115610aa757610aa6611857565b5b6001811115610ab957610ab8611857565b5b81526020016003820160019054906101000a900460ff1615151515815250509050806000015173ffffffffffffffffffffffffffffffffffffffff163373ffffffffffffffffffffffffffffffffffffffff1614610b4c576040517f08c379a0000000000000000000000000000000000000000000000000000000008152600401610b4390611cb4565b60405180910390fd5b600180811115610b5f57610b5e611857565b5b81606001516001811115610b7657610b75611857565b5b14610bb6576040517f08c379a0000000000000000000000000000000000000000000000000000000008152600401610bad90611a38565b60405180910390fd5b60016000838152602001908152602001600020600080820160006101000a81549073ffffffffffffffffffffffffffffffffffffffff0219169055600182016000905560028201600090556003820160006101000a81549060ff02191690556003820160016101000a81549060ff021916905550507f8bf30e7ff26833413be5f69e1d373744864d600b664204b4a2f9844a8eedb9ed82604051610c5a91906116fb565b60405180910390a15050565b6000806000806001811115610c7e57610c7d611857565b5b815260200190815260200160002054905090565b6000600160008481526020019081526020016000209050600180811115610cbc57610cbb611857565b5b8160030160009054906101000a900460ff166001811115610ce057610cdf611857565b5b14610d20576040517f08c379a0000000000000000000000000000000000000000000000000000000008152600401610d1790611a38565b60405180910390fd5b81816002016000828254610d349190611d03565b92505081905550816003600085815260200190815260200160002060003373ffffffffffffffffffffffffffffffffffffffff1673ffffffffffffffffffffffffffffffffffffffff1681526020019081526020016000206000828254610d9b9190611d03565b925050819055507f000000000000000000000000000000000000000000000000000000000000000073ffffffffffffffffffffffffffffffffffffffff1663a9059cbb33846040518363ffffffff1660e01b8152600401610dfd929190611ac4565b600060405180830381600087803b158015610e1757600080fd5b505af1158015610e2b573d6000803e3d6000fd5b505050507ffcd29b1632c6748a9a4bb9b4cd5c6486c3c84a8550dce2368f83fef3969d9685833384604051610e6293929190611aed565b60405180910390a1505050565b6040518060a001604052803373ffffffffffffffffffffffffffffffffffffffff16815260200182815260200160008152602001600180811115610eb657610eb5611857565b5b81526020016000151581525060016000600254815260200190815260200160002060008201518160000160006101000a81548173ffffffffffffffffffffffffffffffffffffffff021916908373ffffffffffffffffffffffffffffffffffffffff160217905550602082015181600101556040820151816002015560608201518160030160006101000a81548160ff02191690836001811115610f5d57610f5c611857565b5b021790555060808201518160030160016101000a81548160ff0219169083151502179055509050507f7832315d5668befce61bef59a74a00e6c0e8fd754af2f6943ffce187e5ad3c5760025433836001604051610fbd9493929190611d37565b60405180910390a1600160026000828254610fd89190611d7c565b9250508190555050565b6003602052816000526040600020602052806000526040600020600091509150505481565b600080600060018081111561101f5761101e611857565b5b815260200190815260200160002054905090565b6000600160008481526020019081526020016000206040518060a00160405290816000820160009054906101000a900473ffffffffffffffffffffffffffffffffffffffff1673ffffffffffffffffffffffffffffffffffffffff1673ffffffffffffffffffffffffffffffffffffffff16815260200160018201548152602001600282015481526020016003820160009054906101000a900460ff1660018111156110e2576110e1611857565b5b60018111156110f4576110f3611857565b5b81526020016003820160019054906101000a900460ff1615151515815250509050806000015173ffffffffffffffffffffffffffffffffffffffff163373ffffffffffffffffffffffffffffffffffffffff1614611187576040517f08c379a000000000000000000000000000000000000000000000000000000000815260040161117e90611cb4565b60405180910390fd5b60016004600085815260200190815260200160002060008473ffffffffffffffffffffffffffffffffffffffff1673ffffffffffffffffffffffffffffffffffffffff16815260200190815260200160002060006101000a81548160ff021916908315150217905550505050565b60006001600083815260200190815260200160002090508060000160009054906101000a900473ffffffffffffffffffffffffffffffffffffffff1673ffffffffffffffffffffffffffffffffffffffff163373ffffffffffffffffffffffffffffffffffffffff161461129e576040517f08c379a000000000000000000000000000000000000000000000000000000000815260040161129590611aa4565b60405180910390fd5b60008160030160006101000a81548160ff021916908360018111156112c6576112c5611857565b5b02179055507f23ad33ab6a13a00aa7d06cd167b2abd03dec86af3cf3cc91759dcd3ae84118878160030160009054906101000a900460ff1660405161130b9190611db0565b60405180910390a15050565b6000600160008481526020019081526020016000206040518060a00160405290816000820160009054906101000a900473ffffffffffffffffffffffffffffffffffffffff1673ffffffffffffffffffffffffffffffffffffffff1673ffffffffffffffffffffffffffffffffffffffff16815260200160018201548152602001600282015481526020016003820160009054906101000a900460ff1660018111156113c6576113c5611857565b5b60018111156113d8576113d7611857565b5b81526020016003820160019054906101000a900460ff1615151515815250509050806000015173ffffffffffffffffffffffffffffffffffffffff163373ffffffffffffffffffffffffffffffffffffffff161461146b576040517f08c379a000000000000000000000000000000000000000000000000000000000815260040161146290611cb4565b60405180910390fd5b60016004600085815260200190815260200160002060008473ffffffffffffffffffffffffffffffffffffffff1673ffffffffffffffffffffffffffffffffffffffff16815260200190815260200160002060006101000a81548160ff021916908315150217905550505050565b60025481565b7f000000000000000000000000000000000000000000000000000000000000000081565b600060016000848152602001908152602001600020905060018081111561152d5761152c611857565b5b8160030160009054906101000a900460ff16600181111561155157611550611857565b5b14611591576040517f08c379a000000000000000000000000000000000000000000000000000000000815260040161158890611a38565b60405180910390fd5b818160020160008282546115a59190611d7c565b92505081905550816003600085815260200190815260200160002060003373ffffffffffffffffffffffffffffffffffffffff1673ffffffffffffffffffffffffffffffffffffffff168152602001908152602001600020600082825461160c9190611d7c565b925050819055507f000000000000000000000000000000000000000000000000000000000000000073ffffffffffffffffffffffffffffffffffffffff166323b872dd3330856040518463ffffffff1660e01b815260040161167093929190611dcb565b600060405180830381600087803b15801561168a57600080fd5b505af115801561169e573d6000803e3d6000fd5b505050507f2757ac6a40883f4491cc56930ae964df9034e343e660d5179eb01e198336756b8333846040516116d593929190611aed565b60405180910390a1505050565b6000819050919050565b6116f5816116e2565b82525050565b600060208201905061171060008301846116ec565b92915050565b600080fd5b611724816116e2565b811461172f57600080fd5b50565b6000813590506117418161171b565b92915050565b600073ffffffffffffffffffffffffffffffffffffffff82169050919050565b600061177282611747565b9050919050565b61178281611767565b811461178d57600080fd5b50565b60008135905061179f81611779565b92915050565b600080604083850312156117bc576117bb611716565b5b60006117ca85828601611732565b92505060206117db85828601611790565b9150509250929050565b60008115159050919050565b6117fa816117e5565b82525050565b600060208201905061181560008301846117f1565b92915050565b60006020828403121561183157611830611716565b5b600061183f84828501611732565b91505092915050565b61185181611767565b82525050565b7f4e487b7100000000000000000000000000000000000000000000000000000000600052602160045260246000fd5b6002811061189757611896611857565b5b50565b60008190506118a882611886565b919050565b60006118b88261189a565b9050919050565b6118c8816118ad565b82525050565b600060a0820190506118e36000830188611848565b6118f060208301876116ec565b6118fd60408301866116ec565b61190a60608301856118bf565b61191760808301846117f1565b9695505050505050565b6000806040838503121561193857611937611716565b5b600061194685828601611732565b925050602061195785828601611732565b9150509250929050565b6000819050919050565b600061198661198161197c84611747565b611961565b611747565b9050919050565b60006119988261196b565b9050919050565b60006119aa8261198d565b9050919050565b6119ba8161199f565b82525050565b60006020820190506119d560008301846119b1565b92915050565b600082825260208201905092915050565b7f63616d706169676e206973206e6f74206f70656e656421000000000000000000600082015250565b6000611a226017836119db565b9150611a2d826119ec565b602082019050919050565b60006020820190508181036000830152611a5181611a15565b9050919050565b7f6e6f7420616e206f776e65720000000000000000000000000000000000000000600082015250565b6000611a8e600c836119db565b9150611a9982611a58565b602082019050919050565b60006020820190508181036000830152611abd81611a81565b9050919050565b6000604082019050611ad96000830185611848565b611ae660208301846116ec565b9392505050565b6000606082019050611b0260008301866116ec565b611b0f6020830185611848565b611b1c60408301846116ec565b949350505050565b7f6e6f7420656e6f75676820726967687473210000000000000000000000000000600082015250565b6000611b5a6012836119db565b9150611b6582611b24565b602082019050919050565b60006020820190508181036000830152611b8981611b4d565b9050919050565b7f706c656467656420697320746f6f206c6f770000000000000000000000000000600082015250565b6000611bc66012836119db565b9150611bd182611b90565b602082019050919050565b60006020820190508181036000830152611bf581611bb9565b9050919050565b7f616c726561647920636c61696d65640000000000000000000000000000000000600082015250565b6000611c32600f836119db565b9150611c3d82611bfc565b602082019050919050565b60006020820190508181036000830152611c6181611c25565b9050919050565b7f6e6f7420616e206f776e65722100000000000000000000000000000000000000600082015250565b6000611c9e600d836119db565b9150611ca982611c68565b602082019050919050565b60006020820190508181036000830152611ccd81611c91565b9050919050565b7f4e487b7100000000000000000000000000000000000000000000000000000000600052601160045260246000fd5b6000611d0e826116e2565b9150611d19836116e2565b9250828203905081811115611d3157611d30611cd4565b5b92915050565b6000608082019050611d4c60008301876116ec565b611d596020830186611848565b611d6660408301856116ec565b611d7360608301846118bf565b95945050505050565b6000611d87826116e2565b9150611d92836116e2565b9250828201905080821115611daa57611da9611cd4565b5b92915050565b6000602082019050611dc560008301846118bf565b92915050565b6000606082019050611de06000830186611848565b611ded6020830185611848565b611dfa60408301846116ec565b94935050505056fea26469706673582212205ef6da7c06b5f3de9fc7f1285f3398e57ff05c5714185381e13b63130654abcf64736f6c63430008110033",
					"opcodes": "PUSH1 0xA0 PUSH1 0x40 MSTORE CALLVALUE DUP1 ISZERO PUSH3 0x11 JUMPI PUSH1 0x0 DUP1 REVERT JUMPDEST POP PUSH1 0x40 MLOAD PUSH3 0x1F7E CODESIZE SUB DUP1 PUSH3 0x1F7E DUP4 CODECOPY DUP2 DUP2 ADD PUSH1 0x40 MSTORE DUP2 ADD SWAP1 PUSH3 0x37 SWAP2 SWAP1 PUSH3 0xDC JUMP JUMPDEST DUP1 PUSH20 0xFFFFFFFFFFFFFFFFFFFFFFFFFFFFFFFFFFFFFFFF AND PUSH1 0x80 DUP2 PUSH20 0xFFFFFFFFFFFFFFFFFFFFFFFFFFFFFFFFFFFFFFFF AND DUP2 MSTORE POP POP POP PUSH3 0x10E JUMP JUMPDEST PUSH1 0x0 DUP1 REVERT JUMPDEST PUSH1 0x0 PUSH20 0xFFFFFFFFFFFFFFFFFFFFFFFFFFFFFFFFFFFFFFFF DUP3 AND SWAP1 POP SWAP2 SWAP1 POP JUMP JUMPDEST PUSH1 0x0 PUSH3 0xA4 DUP3 PUSH3 0x77 JUMP JUMPDEST SWAP1 POP SWAP2 SWAP1 POP JUMP JUMPDEST PUSH3 0xB6 DUP2 PUSH3 0x97 JUMP JUMPDEST DUP2 EQ PUSH3 0xC2 JUMPI PUSH1 0x0 DUP1 REVERT JUMPDEST POP JUMP JUMPDEST PUSH1 0x0 DUP2 MLOAD SWAP1 POP PUSH3 0xD6 DUP2 PUSH3 0xAB JUMP JUMPDEST SWAP3 SWAP2 POP POP JUMP JUMPDEST PUSH1 0x0 PUSH1 0x20 DUP3 DUP5 SUB SLT ISZERO PUSH3 0xF5 JUMPI PUSH3 0xF4 PUSH3 0x72 JUMP JUMPDEST JUMPDEST PUSH1 0x0 PUSH3 0x105 DUP5 DUP3 DUP6 ADD PUSH3 0xC5 JUMP JUMPDEST SWAP2 POP POP SWAP3 SWAP2 POP POP JUMP JUMPDEST PUSH1 0x80 MLOAD PUSH2 0x1E38 PUSH3 0x146 PUSH1 0x0 CODECOPY PUSH1 0x0 DUP2 DUP2 PUSH2 0x692 ADD MSTORE DUP2 DUP2 PUSH2 0x92E ADD MSTORE DUP2 DUP2 PUSH2 0xDA4 ADD MSTORE DUP2 DUP2 PUSH2 0x14E1 ADD MSTORE PUSH2 0x1615 ADD MSTORE PUSH2 0x1E38 PUSH1 0x0 RETURN INVALID PUSH1 0x80 PUSH1 0x40 MSTORE PUSH1 0x4 CALLDATASIZE LT PUSH2 0xF7 JUMPI PUSH1 0x0 CALLDATALOAD PUSH1 0xE0 SHR DUP1 PUSH4 0x8E97F524 GT PUSH2 0x8A JUMPI DUP1 PUSH4 0xBA282398 GT PUSH2 0x59 JUMPI DUP1 PUSH4 0xBA282398 EQ PUSH2 0x37E JUMPI DUP1 PUSH4 0xE00DD161 EQ PUSH2 0x3A7 JUMPI DUP1 PUSH4 0xFC0C546A EQ PUSH2 0x3D2 JUMPI DUP1 PUSH4 0xFDE327BE EQ PUSH2 0x3FD JUMPI PUSH2 0x14C JUMP JUMPDEST DUP1 PUSH4 0x8E97F524 EQ PUSH2 0x2C4 JUMPI DUP1 PUSH4 0x92F77154 EQ PUSH2 0x301 JUMPI DUP1 PUSH4 0xA41C57BC EQ PUSH2 0x32C JUMPI DUP1 PUSH4 0xA9E966B7 EQ PUSH2 0x355 JUMPI PUSH2 0x14C JUMP JUMPDEST DUP1 PUSH4 0x40E58EE5 GT PUSH2 0xC6 JUMPI DUP1 PUSH4 0x40E58EE5 EQ PUSH2 0x21E JUMPI DUP1 PUSH4 0x6244C42F EQ PUSH2 0x247 JUMPI DUP1 PUSH4 0x711853AB EQ PUSH2 0x272 JUMPI DUP1 PUSH4 0x85B12C7C EQ PUSH2 0x29B JUMPI PUSH2 0x14C JUMP JUMPDEST DUP1 PUSH4 0xB46056B EQ PUSH2 0x14E JUMPI DUP1 PUSH4 0x141961BC EQ PUSH2 0x18B JUMPI DUP1 PUSH4 0x278ECDE1 EQ PUSH2 0x1CC JUMPI DUP1 PUSH4 0x379607F5 EQ PUSH2 0x1F5 JUMPI PUSH2 0x14C JUMP JUMPDEST CALLDATASIZE PUSH2 0x14C JUMPI CALLER PUSH20 0xFFFFFFFFFFFFFFFFFFFFFFFFFFFFFFFFFFFFFFFF AND PUSH32 0x27B15ED4CF832749ED39F33A64E4707ED60A761485E41FFEC7343ECADDC0C02A CALLVALUE PUSH1 0x40 MLOAD PUSH2 0x142 SWAP2 SWAP1 PUSH2 0x16FB JUMP JUMPDEST PUSH1 0x40 MLOAD DUP1 SWAP2 SUB SWAP1 LOG2 STOP JUMPDEST STOP JUMPDEST CALLVALUE DUP1 ISZERO PUSH2 0x15A JUMPI PUSH1 0x0 DUP1 REVERT JUMPDEST POP PUSH2 0x175 PUSH1 0x4 DUP1 CALLDATASIZE SUB DUP2 ADD SWAP1 PUSH2 0x170 SWAP2 SWAP1 PUSH2 0x17A5 JUMP JUMPDEST PUSH2 0x426 JUMP JUMPDEST PUSH1 0x40 MLOAD PUSH2 0x182 SWAP2 SWAP1 PUSH2 0x1800 JUMP JUMPDEST PUSH1 0x40 MLOAD DUP1 SWAP2 SUB SWAP1 RETURN JUMPDEST CALLVALUE DUP1 ISZERO PUSH2 0x197 JUMPI PUSH1 0x0 DUP1 REVERT JUMPDEST POP PUSH2 0x1B2 PUSH1 0x4 DUP1 CALLDATASIZE SUB DUP2 ADD SWAP1 PUSH2 0x1AD SWAP2 SWAP1 PUSH2 0x181B JUMP JUMPDEST PUSH2 0x455 JUMP JUMPDEST PUSH1 0x40 MLOAD PUSH2 0x1C3 SWAP6 SWAP5 SWAP4 SWAP3 SWAP2 SWAP1 PUSH2 0x18CE JUMP JUMPDEST PUSH1 0x40 MLOAD DUP1 SWAP2 SUB SWAP1 RETURN JUMPDEST CALLVALUE DUP1 ISZERO PUSH2 0x1D8 JUMPI PUSH1 0x0 DUP1 REVERT JUMPDEST POP PUSH2 0x1F3 PUSH1 0x4 DUP1 CALLDATASIZE SUB DUP2 ADD SWAP1 PUSH2 0x1EE SWAP2 SWAP1 PUSH2 0x181B JUMP JUMPDEST PUSH2 0x4C5 JUMP JUMPDEST STOP JUMPDEST CALLVALUE DUP1 ISZERO PUSH2 0x201 JUMPI PUSH1 0x0 DUP1 REVERT JUMPDEST POP PUSH2 0x21C PUSH1 0x4 DUP1 CALLDATASIZE SUB DUP2 ADD SWAP1 PUSH2 0x217 SWAP2 SWAP1 PUSH2 0x181B JUMP JUMPDEST PUSH2 0x75D JUMP JUMPDEST STOP JUMPDEST CALLVALUE DUP1 ISZERO PUSH2 0x22A JUMPI PUSH1 0x0 DUP1 REVERT JUMPDEST POP PUSH2 0x245 PUSH1 0x4 DUP1 CALLDATASIZE SUB DUP2 ADD SWAP1 PUSH2 0x240 SWAP2 SWAP1 PUSH2 0x181B JUMP JUMPDEST PUSH2 0x9F8 JUMP JUMPDEST STOP JUMPDEST CALLVALUE DUP1 ISZERO PUSH2 0x253 JUMPI PUSH1 0x0 DUP1 REVERT JUMPDEST POP PUSH2 0x25C PUSH2 0xC66 JUMP JUMPDEST PUSH1 0x40 MLOAD PUSH2 0x269 SWAP2 SWAP1 PUSH2 0x16FB JUMP JUMPDEST PUSH1 0x40 MLOAD DUP1 SWAP2 SUB SWAP1 RETURN JUMPDEST CALLVALUE DUP1 ISZERO PUSH2 0x27E JUMPI PUSH1 0x0 DUP1 REVERT JUMPDEST POP PUSH2 0x299 PUSH1 0x4 DUP1 CALLDATASIZE SUB DUP2 ADD SWAP1 PUSH2 0x294 SWAP2 SWAP1 PUSH2 0x1921 JUMP JUMPDEST PUSH2 0xC92 JUMP JUMPDEST STOP JUMPDEST CALLVALUE DUP1 ISZERO PUSH2 0x2A7 JUMPI PUSH1 0x0 DUP1 REVERT JUMPDEST POP PUSH2 0x2C2 PUSH1 0x4 DUP1 CALLDATASIZE SUB DUP2 ADD SWAP1 PUSH2 0x2BD SWAP2 SWAP1 PUSH2 0x181B JUMP JUMPDEST PUSH2 0xE6F JUMP JUMPDEST STOP JUMPDEST CALLVALUE DUP1 ISZERO PUSH2 0x2D0 JUMPI PUSH1 0x0 DUP1 REVERT JUMPDEST POP PUSH2 0x2EB PUSH1 0x4 DUP1 CALLDATASIZE SUB DUP2 ADD SWAP1 PUSH2 0x2E6 SWAP2 SWAP1 PUSH2 0x17A5 JUMP JUMPDEST PUSH2 0xFE2 JUMP JUMPDEST PUSH1 0x40 MLOAD PUSH2 0x2F8 SWAP2 SWAP1 PUSH2 0x16FB JUMP JUMPDEST PUSH1 0x40 MLOAD DUP1 SWAP2 SUB SWAP1 RETURN JUMPDEST CALLVALUE DUP1 ISZERO PUSH2 0x30D JUMPI PUSH1 0x0 DUP1 REVERT JUMPDEST POP PUSH2 0x316 PUSH2 0x1007 JUMP JUMPDEST PUSH1 0x40 MLOAD PUSH2 0x323 SWAP2 SWAP1 PUSH2 0x16FB JUMP JUMPDEST PUSH1 0x40 MLOAD DUP1 SWAP2 SUB SWAP1 RETURN JUMPDEST CALLVALUE DUP1 ISZERO PUSH2 0x338 JUMPI PUSH1 0x0 DUP1 REVERT JUMPDEST POP PUSH2 0x353 PUSH1 0x4 DUP1 CALLDATASIZE SUB DUP2 ADD SWAP1 PUSH2 0x34E SWAP2 SWAP1 PUSH2 0x17A5 JUMP JUMPDEST PUSH2 0x1033 JUMP JUMPDEST STOP JUMPDEST CALLVALUE DUP1 ISZERO PUSH2 0x361 JUMPI PUSH1 0x0 DUP1 REVERT JUMPDEST POP PUSH2 0x37C PUSH1 0x4 DUP1 CALLDATASIZE SUB DUP2 ADD SWAP1 PUSH2 0x377 SWAP2 SWAP1 PUSH2 0x181B JUMP JUMPDEST PUSH2 0x11F5 JUMP JUMPDEST STOP JUMPDEST CALLVALUE DUP1 ISZERO PUSH2 0x38A JUMPI PUSH1 0x0 DUP1 REVERT JUMPDEST POP PUSH2 0x3A5 PUSH1 0x4 DUP1 CALLDATASIZE SUB DUP2 ADD SWAP1 PUSH2 0x3A0 SWAP2 SWAP1 PUSH2 0x17A5 JUMP JUMPDEST PUSH2 0x1317 JUMP JUMPDEST STOP JUMPDEST CALLVALUE DUP1 ISZERO PUSH2 0x3B3 JUMPI PUSH1 0x0 DUP1 REVERT JUMPDEST POP PUSH2 0x3BC PUSH2 0x14D9 JUMP JUMPDEST PUSH1 0x40 MLOAD PUSH2 0x3C9 SWAP2 SWAP1 PUSH2 0x16FB JUMP JUMPDEST PUSH1 0x40 MLOAD DUP1 SWAP2 SUB SWAP1 RETURN JUMPDEST CALLVALUE DUP1 ISZERO PUSH2 0x3DE JUMPI PUSH1 0x0 DUP1 REVERT JUMPDEST POP PUSH2 0x3E7 PUSH2 0x14DF JUMP JUMPDEST PUSH1 0x40 MLOAD PUSH2 0x3F4 SWAP2 SWAP1 PUSH2 0x19C0 JUMP JUMPDEST PUSH1 0x40 MLOAD DUP1 SWAP2 SUB SWAP1 RETURN JUMPDEST CALLVALUE DUP1 ISZERO PUSH2 0x409 JUMPI PUSH1 0x0 DUP1 REVERT JUMPDEST POP PUSH2 0x424 PUSH1 0x4 DUP1 CALLDATASIZE SUB DUP2 ADD SWAP1 PUSH2 0x41F SWAP2 SWAP1 PUSH2 0x1921 JUMP JUMPDEST PUSH2 0x1503 JUMP JUMPDEST STOP JUMPDEST PUSH1 0x4 PUSH1 0x20 MSTORE DUP2 PUSH1 0x0 MSTORE PUSH1 0x40 PUSH1 0x0 KECCAK256 PUSH1 0x20 MSTORE DUP1 PUSH1 0x0 MSTORE PUSH1 0x40 PUSH1 0x0 KECCAK256 PUSH1 0x0 SWAP2 POP SWAP2 POP SWAP1 SLOAD SWAP1 PUSH2 0x100 EXP SWAP1 DIV PUSH1 0xFF AND DUP2 JUMP JUMPDEST PUSH1 0x1 PUSH1 0x20 MSTORE DUP1 PUSH1 0x0 MSTORE PUSH1 0x40 PUSH1 0x0 KECCAK256 PUSH1 0x0 SWAP2 POP SWAP1 POP DUP1 PUSH1 0x0 ADD PUSH1 0x0 SWAP1 SLOAD SWAP1 PUSH2 0x100 EXP SWAP1 DIV PUSH20 0xFFFFFFFFFFFFFFFFFFFFFFFFFFFFFFFFFFFFFFFF AND SWAP1 DUP1 PUSH1 0x1 ADD SLOAD SWAP1 DUP1 PUSH1 0x2 ADD SLOAD SWAP1 DUP1 PUSH1 0x3 ADD PUSH1 0x0 SWAP1 SLOAD SWAP1 PUSH2 0x100 EXP SWAP1 DIV PUSH1 0xFF AND SWAP1 DUP1 PUSH1 0x3 ADD PUSH1 0x1 SWAP1 SLOAD SWAP1 PUSH2 0x100 EXP SWAP1 DIV PUSH1 0xFF AND SWAP1 POP DUP6 JUMP JUMPDEST PUSH1 0x0 PUSH1 0x1 PUSH1 0x0 DUP4 DUP2 MSTORE PUSH1 0x20 ADD SWAP1 DUP2 MSTORE PUSH1 0x20 ADD PUSH1 0x0 KECCAK256 SWAP1 POP PUSH1 0x1 DUP1 DUP2 GT ISZERO PUSH2 0x4EF JUMPI PUSH2 0x4EE PUSH2 0x1857 JUMP JUMPDEST JUMPDEST DUP2 PUSH1 0x3 ADD PUSH1 0x0 SWAP1 SLOAD SWAP1 PUSH2 0x100 EXP SWAP1 DIV PUSH1 0xFF AND PUSH1 0x1 DUP2 GT ISZERO PUSH2 0x513 JUMPI PUSH2 0x512 PUSH2 0x1857 JUMP JUMPDEST JUMPDEST EQ PUSH2 0x553 JUMPI PUSH1 0x40 MLOAD PUSH32 0x8C379A000000000000000000000000000000000000000000000000000000000 DUP2 MSTORE PUSH1 0x4 ADD PUSH2 0x54A SWAP1 PUSH2 0x1A38 JUMP JUMPDEST PUSH1 0x40 MLOAD DUP1 SWAP2 SUB SWAP1 REVERT JUMPDEST DUP1 PUSH1 0x0 ADD PUSH1 0x0 SWAP1 SLOAD SWAP1 PUSH2 0x100 EXP SWAP1 DIV PUSH20 0xFFFFFFFFFFFFFFFFFFFFFFFFFFFFFFFFFFFFFFFF AND PUSH20 0xFFFFFFFFFFFFFFFFFFFFFFFFFFFFFFFFFFFFFFFF AND CALLER PUSH20 0xFFFFFFFFFFFFFFFFFFFFFFFFFFFFFFFFFFFFFFFF AND EQ PUSH2 0x5E5 JUMPI PUSH1 0x40 MLOAD PUSH32 0x8C379A000000000000000000000000000000000000000000000000000000000 DUP2 MSTORE PUSH1 0x4 ADD PUSH2 0x5DC SWAP1 PUSH2 0x1AA4 JUMP JUMPDEST PUSH1 0x40 MLOAD DUP1 SWAP2 SUB SWAP1 REVERT JUMPDEST PUSH1 0x0 PUSH1 0x3 PUSH1 0x0 DUP5 DUP2 MSTORE PUSH1 0x20 ADD SWAP1 DUP2 MSTORE PUSH1 0x20 ADD PUSH1 0x0 KECCAK256 PUSH1 0x0 CALLER PUSH20 0xFFFFFFFFFFFFFFFFFFFFFFFFFFFFFFFFFFFFFFFF AND PUSH20 0xFFFFFFFFFFFFFFFFFFFFFFFFFFFFFFFFFFFFFFFF AND DUP2 MSTORE PUSH1 0x20 ADD SWAP1 DUP2 MSTORE PUSH1 0x20 ADD PUSH1 0x0 KECCAK256 SLOAD SWAP1 POP PUSH1 0x0 PUSH1 0x3 PUSH1 0x0 DUP6 DUP2 MSTORE PUSH1 0x20 ADD SWAP1 DUP2 MSTORE PUSH1 0x20 ADD PUSH1 0x0 KECCAK256 PUSH1 0x0 CALLER PUSH20 0xFFFFFFFFFFFFFFFFFFFFFFFFFFFFFFFFFFFFFFFF AND PUSH20 0xFFFFFFFFFFFFFFFFFFFFFFFFFFFFFFFFFFFFFFFF AND DUP2 MSTORE PUSH1 0x20 ADD SWAP1 DUP2 MSTORE PUSH1 0x20 ADD PUSH1 0x0 KECCAK256 DUP2 SWAP1 SSTORE POP PUSH32 0x0 PUSH20 0xFFFFFFFFFFFFFFFFFFFFFFFFFFFFFFFFFFFFFFFF AND PUSH4 0xA9059CBB CALLER DUP4 PUSH1 0x40 MLOAD DUP4 PUSH4 0xFFFFFFFF AND PUSH1 0xE0 SHL DUP2 MSTORE PUSH1 0x4 ADD PUSH2 0x6EB SWAP3 SWAP2 SWAP1 PUSH2 0x1AC4 JUMP JUMPDEST PUSH1 0x0 PUSH1 0x40 MLOAD DUP1 DUP4 SUB DUP2 PUSH1 0x0 DUP8 DUP1 EXTCODESIZE ISZERO DUP1 ISZERO PUSH2 0x705 JUMPI PUSH1 0x0 DUP1 REVERT JUMPDEST POP GAS CALL ISZERO DUP1 ISZERO PUSH2 0x719 JUMPI RETURNDATASIZE PUSH1 0x0 DUP1 RETURNDATACOPY RETURNDATASIZE PUSH1 0x0 REVERT JUMPDEST POP POP POP POP PUSH32 0x7CA5472B7EA78C2C0141C5A12EE6D170CF4CE8ED06BE3D22C8252DDFC7A6A2C4 DUP4 CALLER DUP4 PUSH1 0x40 MLOAD PUSH2 0x750 SWAP4 SWAP3 SWAP2 SWAP1 PUSH2 0x1AED JUMP JUMPDEST PUSH1 0x40 MLOAD DUP1 SWAP2 SUB SWAP1 LOG1 POP POP POP JUMP JUMPDEST PUSH1 0x0 PUSH1 0x1 PUSH1 0x0 DUP4 DUP2 MSTORE PUSH1 0x20 ADD SWAP1 DUP2 MSTORE PUSH1 0x20 ADD PUSH1 0x0 KECCAK256 SWAP1 POP DUP1 PUSH1 0x0 ADD PUSH1 0x0 SWAP1 SLOAD SWAP1 PUSH2 0x100 EXP SWAP1 DIV PUSH20 0xFFFFFFFFFFFFFFFFFFFFFFFFFFFFFFFFFFFFFFFF AND PUSH20 0xFFFFFFFFFFFFFFFFFFFFFFFFFFFFFFFFFFFFFFFF AND CALLER PUSH20 0xFFFFFFFFFFFFFFFFFFFFFFFFFFFFFFFFFFFFFFFF AND EQ DUP1 PUSH2 0x833 JUMPI POP PUSH1 0x1 ISZERO ISZERO PUSH1 0x4 PUSH1 0x0 DUP5 DUP2 MSTORE PUSH1 0x20 ADD SWAP1 DUP2 MSTORE PUSH1 0x20 ADD PUSH1 0x0 KECCAK256 PUSH1 0x0 CALLER PUSH20 0xFFFFFFFFFFFFFFFFFFFFFFFFFFFFFFFFFFFFFFFF AND PUSH20 0xFFFFFFFFFFFFFFFFFFFFFFFFFFFFFFFFFFFFFFFF AND DUP2 MSTORE PUSH1 0x20 ADD SWAP1 DUP2 MSTORE PUSH1 0x20 ADD PUSH1 0x0 KECCAK256 PUSH1 0x0 SWAP1 SLOAD SWAP1 PUSH2 0x100 EXP SWAP1 DIV PUSH1 0xFF AND ISZERO ISZERO EQ JUMPDEST PUSH2 0x872 JUMPI PUSH1 0x40 MLOAD PUSH32 0x8C379A000000000000000000000000000000000000000000000000000000000 DUP2 MSTORE PUSH1 0x4 ADD PUSH2 0x869 SWAP1 PUSH2 0x1B70 JUMP JUMPDEST PUSH1 0x40 MLOAD DUP1 SWAP2 SUB SWAP1 REVERT JUMPDEST DUP1 PUSH1 0x1 ADD SLOAD DUP2 PUSH1 0x2 ADD SLOAD LT ISZERO PUSH2 0x8BD JUMPI PUSH1 0x40 MLOAD PUSH32 0x8C379A000000000000000000000000000000000000000000000000000000000 DUP2 MSTORE PUSH1 0x4 ADD PUSH2 0x8B4 SWAP1 PUSH2 0x1BDC JUMP JUMPDEST PUSH1 0x40 MLOAD DUP1 SWAP2 SUB SWAP1 REVERT JUMPDEST DUP1 PUSH1 0x3 ADD PUSH1 0x1 SWAP1 SLOAD SWAP1 PUSH2 0x100 EXP SWAP1 DIV PUSH1 0xFF AND ISZERO PUSH2 0x90F JUMPI PUSH1 0x40 MLOAD PUSH32 0x8C379A000000000000000000000000000000000000000000000000000000000 DUP2 MSTORE PUSH1 0x4 ADD PUSH2 0x906 SWAP1 PUSH2 0x1C48 JUMP JUMPDEST PUSH1 0x40 MLOAD DUP1 SWAP2 SUB SWAP1 REVERT JUMPDEST PUSH1 0x1 DUP2 PUSH1 0x3 ADD PUSH1 0x1 PUSH2 0x100 EXP DUP2 SLOAD DUP2 PUSH1 0xFF MUL NOT AND SWAP1 DUP4 ISZERO ISZERO MUL OR SWAP1 SSTORE POP PUSH32 0x0 PUSH20 0xFFFFFFFFFFFFFFFFFFFFFFFFFFFFFFFFFFFFFFFF AND PUSH4 0xA9059CBB CALLER DUP4 PUSH1 0x2 ADD SLOAD PUSH1 0x40 MLOAD DUP4 PUSH4 0xFFFFFFFF AND PUSH1 0xE0 SHL DUP2 MSTORE PUSH1 0x4 ADD PUSH2 0x98B SWAP3 SWAP2 SWAP1 PUSH2 0x1AC4 JUMP JUMPDEST PUSH1 0x0 PUSH1 0x40 MLOAD DUP1 DUP4 SUB DUP2 PUSH1 0x0 DUP8 DUP1 EXTCODESIZE ISZERO DUP1 ISZERO PUSH2 0x9A5 JUMPI PUSH1 0x0 DUP1 REVERT JUMPDEST POP GAS CALL ISZERO DUP1 ISZERO PUSH2 0x9B9 JUMPI RETURNDATASIZE PUSH1 0x0 DUP1 RETURNDATACOPY RETURNDATASIZE PUSH1 0x0 REVERT JUMPDEST POP POP POP POP PUSH32 0x7A355715549CFE7C1CBA26304350343FBDDC4B4F72D3CE3E7C27117DD20B5CB8 DUP3 PUSH1 0x40 MLOAD PUSH2 0x9EC SWAP2 SWAP1 PUSH2 0x16FB JUMP JUMPDEST PUSH1 0x40 MLOAD DUP1 SWAP2 SUB SWAP1 LOG1 POP POP JUMP JUMPDEST PUSH1 0x0 PUSH1 0x1 PUSH1 0x0 DUP4 DUP2 MSTORE PUSH1 0x20 ADD SWAP1 DUP2 MSTORE PUSH1 0x20 ADD PUSH1 0x0 KECCAK256 PUSH1 0x40 MLOAD DUP1 PUSH1 0xA0 ADD PUSH1 0x40 MSTORE SWAP1 DUP2 PUSH1 0x0 DUP3 ADD PUSH1 0x0 SWAP1 SLOAD SWAP1 PUSH2 0x100 EXP SWAP1 DIV PUSH20 0xFFFFFFFFFFFFFFFFFFFFFFFFFFFFFFFFFFFFFFFF AND PUSH20 0xFFFFFFFFFFFFFFFFFFFFFFFFFFFFFFFFFFFFFFFF AND PUSH20 0xFFFFFFFFFFFFFFFFFFFFFFFFFFFFFFFFFFFFFFFF AND DUP2 MSTORE PUSH1 0x20 ADD PUSH1 0x1 DUP3 ADD SLOAD DUP2 MSTORE PUSH1 0x20 ADD PUSH1 0x2 DUP3 ADD SLOAD DUP2 MSTORE PUSH1 0x20 ADD PUSH1 0x3 DUP3 ADD PUSH1 0x0 SWAP1 SLOAD SWAP1 PUSH2 0x100 EXP SWAP1 DIV PUSH1 0xFF AND PUSH1 0x1 DUP2 GT ISZERO PUSH2 0xAA7 JUMPI PUSH2 0xAA6 PUSH2 0x1857 JUMP JUMPDEST JUMPDEST PUSH1 0x1 DUP2 GT ISZERO PUSH2 0xAB9 JUMPI PUSH2 0xAB8 PUSH2 0x1857 JUMP JUMPDEST JUMPDEST DUP2 MSTORE PUSH1 0x20 ADD PUSH1 0x3 DUP3 ADD PUSH1 0x1 SWAP1 SLOAD SWAP1 PUSH2 0x100 EXP SWAP1 DIV PUSH1 0xFF AND ISZERO ISZERO ISZERO ISZERO DUP2 MSTORE POP POP SWAP1 POP DUP1 PUSH1 0x0 ADD MLOAD PUSH20 0xFFFFFFFFFFFFFFFFFFFFFFFFFFFFFFFFFFFFFFFF AND CALLER PUSH20 0xFFFFFFFFFFFFFFFFFFFFFFFFFFFFFFFFFFFFFFFF AND EQ PUSH2 0xB4C JUMPI PUSH1 0x40 MLOAD PUSH32 0x8C379A000000000000000000000000000000000000000000000000000000000 DUP2 MSTORE PUSH1 0x4 ADD PUSH2 0xB43 SWAP1 PUSH2 0x1CB4 JUMP JUMPDEST PUSH1 0x40 MLOAD DUP1 SWAP2 SUB SWAP1 REVERT JUMPDEST PUSH1 0x1 DUP1 DUP2 GT ISZERO PUSH2 0xB5F JUMPI PUSH2 0xB5E PUSH2 0x1857 JUMP JUMPDEST JUMPDEST DUP2 PUSH1 0x60 ADD MLOAD PUSH1 0x1 DUP2 GT ISZERO PUSH2 0xB76 JUMPI PUSH2 0xB75 PUSH2 0x1857 JUMP JUMPDEST JUMPDEST EQ PUSH2 0xBB6 JUMPI PUSH1 0x40 MLOAD PUSH32 0x8C379A000000000000000000000000000000000000000000000000000000000 DUP2 MSTORE PUSH1 0x4 ADD PUSH2 0xBAD SWAP1 PUSH2 0x1A38 JUMP JUMPDEST PUSH1 0x40 MLOAD DUP1 SWAP2 SUB SWAP1 REVERT JUMPDEST PUSH1 0x1 PUSH1 0x0 DUP4 DUP2 MSTORE PUSH1 0x20 ADD SWAP1 DUP2 MSTORE PUSH1 0x20 ADD PUSH1 0x0 KECCAK256 PUSH1 0x0 DUP1 DUP3 ADD PUSH1 0x0 PUSH2 0x100 EXP DUP2 SLOAD SWAP1 PUSH20 0xFFFFFFFFFFFFFFFFFFFFFFFFFFFFFFFFFFFFFFFF MUL NOT AND SWAP1 SSTORE PUSH1 0x1 DUP3 ADD PUSH1 0x0 SWAP1 SSTORE PUSH1 0x2 DUP3 ADD PUSH1 0x0 SWAP1 SSTORE PUSH1 0x3 DUP3 ADD PUSH1 0x0 PUSH2 0x100 EXP DUP2 SLOAD SWAP1 PUSH1 0xFF MUL NOT AND SWAP1 SSTORE PUSH1 0x3 DUP3 ADD PUSH1 0x1 PUSH2 0x100 EXP DUP2 SLOAD SWAP1 PUSH1 0xFF MUL NOT AND SWAP1 SSTORE POP POP PUSH32 0x8BF30E7FF26833413BE5F69E1D373744864D600B664204B4A2F9844A8EEDB9ED DUP3 PUSH1 0x40 MLOAD PUSH2 0xC5A SWAP2 SWAP1 PUSH2 0x16FB JUMP JUMPDEST PUSH1 0x40 MLOAD DUP1 SWAP2 SUB SWAP1 LOG1 POP POP JUMP JUMPDEST PUSH1 0x0 DUP1 PUSH1 0x0 DUP1 PUSH1 0x1 DUP2 GT ISZERO PUSH2 0xC7E JUMPI PUSH2 0xC7D PUSH2 0x1857 JUMP JUMPDEST JUMPDEST DUP2 MSTORE PUSH1 0x20 ADD SWAP1 DUP2 MSTORE PUSH1 0x20 ADD PUSH1 0x0 KECCAK256 SLOAD SWAP1 POP SWAP1 JUMP JUMPDEST PUSH1 0x0 PUSH1 0x1 PUSH1 0x0 DUP5 DUP2 MSTORE PUSH1 0x20 ADD SWAP1 DUP2 MSTORE PUSH1 0x20 ADD PUSH1 0x0 KECCAK256 SWAP1 POP PUSH1 0x1 DUP1 DUP2 GT ISZERO PUSH2 0xCBC JUMPI PUSH2 0xCBB PUSH2 0x1857 JUMP JUMPDEST JUMPDEST DUP2 PUSH1 0x3 ADD PUSH1 0x0 SWAP1 SLOAD SWAP1 PUSH2 0x100 EXP SWAP1 DIV PUSH1 0xFF AND PUSH1 0x1 DUP2 GT ISZERO PUSH2 0xCE0 JUMPI PUSH2 0xCDF PUSH2 0x1857 JUMP JUMPDEST JUMPDEST EQ PUSH2 0xD20 JUMPI PUSH1 0x40 MLOAD PUSH32 0x8C379A000000000000000000000000000000000000000000000000000000000 DUP2 MSTORE PUSH1 0x4 ADD PUSH2 0xD17 SWAP1 PUSH2 0x1A38 JUMP JUMPDEST PUSH1 0x40 MLOAD DUP1 SWAP2 SUB SWAP1 REVERT JUMPDEST DUP2 DUP2 PUSH1 0x2 ADD PUSH1 0x0 DUP3 DUP3 SLOAD PUSH2 0xD34 SWAP2 SWAP1 PUSH2 0x1D03 JUMP JUMPDEST SWAP3 POP POP DUP2 SWAP1 SSTORE POP DUP2 PUSH1 0x3 PUSH1 0x0 DUP6 DUP2 MSTORE PUSH1 0x20 ADD SWAP1 DUP2 MSTORE PUSH1 0x20 ADD PUSH1 0x0 KECCAK256 PUSH1 0x0 CALLER PUSH20 0xFFFFFFFFFFFFFFFFFFFFFFFFFFFFFFFFFFFFFFFF AND PUSH20 0xFFFFFFFFFFFFFFFFFFFFFFFFFFFFFFFFFFFFFFFF AND DUP2 MSTORE PUSH1 0x20 ADD SWAP1 DUP2 MSTORE PUSH1 0x20 ADD PUSH1 0x0 KECCAK256 PUSH1 0x0 DUP3 DUP3 SLOAD PUSH2 0xD9B SWAP2 SWAP1 PUSH2 0x1D03 JUMP JUMPDEST SWAP3 POP POP DUP2 SWAP1 SSTORE POP PUSH32 0x0 PUSH20 0xFFFFFFFFFFFFFFFFFFFFFFFFFFFFFFFFFFFFFFFF AND PUSH4 0xA9059CBB CALLER DUP5 PUSH1 0x40 MLOAD DUP4 PUSH4 0xFFFFFFFF AND PUSH1 0xE0 SHL DUP2 MSTORE PUSH1 0x4 ADD PUSH2 0xDFD SWAP3 SWAP2 SWAP1 PUSH2 0x1AC4 JUMP JUMPDEST PUSH1 0x0 PUSH1 0x40 MLOAD DUP1 DUP4 SUB DUP2 PUSH1 0x0 DUP8 DUP1 EXTCODESIZE ISZERO DUP1 ISZERO PUSH2 0xE17 JUMPI PUSH1 0x0 DUP1 REVERT JUMPDEST POP GAS CALL ISZERO DUP1 ISZERO PUSH2 0xE2B JUMPI RETURNDATASIZE PUSH1 0x0 DUP1 RETURNDATACOPY RETURNDATASIZE PUSH1 0x0 REVERT JUMPDEST POP POP POP POP PUSH32 0xFCD29B1632C6748A9A4BB9B4CD5C6486C3C84A8550DCE2368F83FEF3969D9685 DUP4 CALLER DUP5 PUSH1 0x40 MLOAD PUSH2 0xE62 SWAP4 SWAP3 SWAP2 SWAP1 PUSH2 0x1AED JUMP JUMPDEST PUSH1 0x40 MLOAD DUP1 SWAP2 SUB SWAP1 LOG1 POP POP POP JUMP JUMPDEST PUSH1 0x40 MLOAD DUP1 PUSH1 0xA0 ADD PUSH1 0x40 MSTORE DUP1 CALLER PUSH20 0xFFFFFFFFFFFFFFFFFFFFFFFFFFFFFFFFFFFFFFFF AND DUP2 MSTORE PUSH1 0x20 ADD DUP3 DUP2 MSTORE PUSH1 0x20 ADD PUSH1 0x0 DUP2 MSTORE PUSH1 0x20 ADD PUSH1 0x1 DUP1 DUP2 GT ISZERO PUSH2 0xEB6 JUMPI PUSH2 0xEB5 PUSH2 0x1857 JUMP JUMPDEST JUMPDEST DUP2 MSTORE PUSH1 0x20 ADD PUSH1 0x0 ISZERO ISZERO DUP2 MSTORE POP PUSH1 0x1 PUSH1 0x0 PUSH1 0x2 SLOAD DUP2 MSTORE PUSH1 0x20 ADD SWAP1 DUP2 MSTORE PUSH1 0x20 ADD PUSH1 0x0 KECCAK256 PUSH1 0x0 DUP3 ADD MLOAD DUP2 PUSH1 0x0 ADD PUSH1 0x0 PUSH2 0x100 EXP DUP2 SLOAD DUP2 PUSH20 0xFFFFFFFFFFFFFFFFFFFFFFFFFFFFFFFFFFFFFFFF MUL NOT AND SWAP1 DUP4 PUSH20 0xFFFFFFFFFFFFFFFFFFFFFFFFFFFFFFFFFFFFFFFF AND MUL OR SWAP1 SSTORE POP PUSH1 0x20 DUP3 ADD MLOAD DUP2 PUSH1 0x1 ADD SSTORE PUSH1 0x40 DUP3 ADD MLOAD DUP2 PUSH1 0x2 ADD SSTORE PUSH1 0x60 DUP3 ADD MLOAD DUP2 PUSH1 0x3 ADD PUSH1 0x0 PUSH2 0x100 EXP DUP2 SLOAD DUP2 PUSH1 0xFF MUL NOT AND SWAP1 DUP4 PUSH1 0x1 DUP2 GT ISZERO PUSH2 0xF5D JUMPI PUSH2 0xF5C PUSH2 0x1857 JUMP JUMPDEST JUMPDEST MUL OR SWAP1 SSTORE POP PUSH1 0x80 DUP3 ADD MLOAD DUP2 PUSH1 0x3 ADD PUSH1 0x1 PUSH2 0x100 EXP DUP2 SLOAD DUP2 PUSH1 0xFF MUL NOT AND SWAP1 DUP4 ISZERO ISZERO MUL OR SWAP1 SSTORE POP SWAP1 POP POP PUSH32 0x7832315D5668BEFCE61BEF59A74A00E6C0E8FD754AF2F6943FFCE187E5AD3C57 PUSH1 0x2 SLOAD CALLER DUP4 PUSH1 0x1 PUSH1 0x40 MLOAD PUSH2 0xFBD SWAP5 SWAP4 SWAP3 SWAP2 SWAP1 PUSH2 0x1D37 JUMP JUMPDEST PUSH1 0x40 MLOAD DUP1 SWAP2 SUB SWAP1 LOG1 PUSH1 0x1 PUSH1 0x2 PUSH1 0x0 DUP3 DUP3 SLOAD PUSH2 0xFD8 SWAP2 SWAP1 PUSH2 0x1D7C JUMP JUMPDEST SWAP3 POP POP DUP2 SWAP1 SSTORE POP POP JUMP JUMPDEST PUSH1 0x3 PUSH1 0x20 MSTORE DUP2 PUSH1 0x0 MSTORE PUSH1 0x40 PUSH1 0x0 KECCAK256 PUSH1 0x20 MSTORE DUP1 PUSH1 0x0 MSTORE PUSH1 0x40 PUSH1 0x0 KECCAK256 PUSH1 0x0 SWAP2 POP SWAP2 POP POP SLOAD DUP2 JUMP JUMPDEST PUSH1 0x0 DUP1 PUSH1 0x0 PUSH1 0x1 DUP1 DUP2 GT ISZERO PUSH2 0x101F JUMPI PUSH2 0x101E PUSH2 0x1857 JUMP JUMPDEST JUMPDEST DUP2 MSTORE PUSH1 0x20 ADD SWAP1 DUP2 MSTORE PUSH1 0x20 ADD PUSH1 0x0 KECCAK256 SLOAD SWAP1 POP SWAP1 JUMP JUMPDEST PUSH1 0x0 PUSH1 0x1 PUSH1 0x0 DUP5 DUP2 MSTORE PUSH1 0x20 ADD SWAP1 DUP2 MSTORE PUSH1 0x20 ADD PUSH1 0x0 KECCAK256 PUSH1 0x40 MLOAD DUP1 PUSH1 0xA0 ADD PUSH1 0x40 MSTORE SWAP1 DUP2 PUSH1 0x0 DUP3 ADD PUSH1 0x0 SWAP1 SLOAD SWAP1 PUSH2 0x100 EXP SWAP1 DIV PUSH20 0xFFFFFFFFFFFFFFFFFFFFFFFFFFFFFFFFFFFFFFFF AND PUSH20 0xFFFFFFFFFFFFFFFFFFFFFFFFFFFFFFFFFFFFFFFF AND PUSH20 0xFFFFFFFFFFFFFFFFFFFFFFFFFFFFFFFFFFFFFFFF AND DUP2 MSTORE PUSH1 0x20 ADD PUSH1 0x1 DUP3 ADD SLOAD DUP2 MSTORE PUSH1 0x20 ADD PUSH1 0x2 DUP3 ADD SLOAD DUP2 MSTORE PUSH1 0x20 ADD PUSH1 0x3 DUP3 ADD PUSH1 0x0 SWAP1 SLOAD SWAP1 PUSH2 0x100 EXP SWAP1 DIV PUSH1 0xFF AND PUSH1 0x1 DUP2 GT ISZERO PUSH2 0x10E2 JUMPI PUSH2 0x10E1 PUSH2 0x1857 JUMP JUMPDEST JUMPDEST PUSH1 0x1 DUP2 GT ISZERO PUSH2 0x10F4 JUMPI PUSH2 0x10F3 PUSH2 0x1857 JUMP JUMPDEST JUMPDEST DUP2 MSTORE PUSH1 0x20 ADD PUSH1 0x3 DUP3 ADD PUSH1 0x1 SWAP1 SLOAD SWAP1 PUSH2 0x100 EXP SWAP1 DIV PUSH1 0xFF AND ISZERO ISZERO ISZERO ISZERO DUP2 MSTORE POP POP SWAP1 POP DUP1 PUSH1 0x0 ADD MLOAD PUSH20 0xFFFFFFFFFFFFFFFFFFFFFFFFFFFFFFFFFFFFFFFF AND CALLER PUSH20 0xFFFFFFFFFFFFFFFFFFFFFFFFFFFFFFFFFFFFFFFF AND EQ PUSH2 0x1187 JUMPI PUSH1 0x40 MLOAD PUSH32 0x8C379A000000000000000000000000000000000000000000000000000000000 DUP2 MSTORE PUSH1 0x4 ADD PUSH2 0x117E SWAP1 PUSH2 0x1CB4 JUMP JUMPDEST PUSH1 0x40 MLOAD DUP1 SWAP2 SUB SWAP1 REVERT JUMPDEST PUSH1 0x1 PUSH1 0x4 PUSH1 0x0 DUP6 DUP2 MSTORE PUSH1 0x20 ADD SWAP1 DUP2 MSTORE PUSH1 0x20 ADD PUSH1 0x0 KECCAK256 PUSH1 0x0 DUP5 PUSH20 0xFFFFFFFFFFFFFFFFFFFFFFFFFFFFFFFFFFFFFFFF AND PUSH20 0xFFFFFFFFFFFFFFFFFFFFFFFFFFFFFFFFFFFFFFFF AND DUP2 MSTORE PUSH1 0x20 ADD SWAP1 DUP2 MSTORE PUSH1 0x20 ADD PUSH1 0x0 KECCAK256 PUSH1 0x0 PUSH2 0x100 EXP DUP2 SLOAD DUP2 PUSH1 0xFF MUL NOT AND SWAP1 DUP4 ISZERO ISZERO MUL OR SWAP1 SSTORE POP POP POP POP JUMP JUMPDEST PUSH1 0x0 PUSH1 0x1 PUSH1 0x0 DUP4 DUP2 MSTORE PUSH1 0x20 ADD SWAP1 DUP2 MSTORE PUSH1 0x20 ADD PUSH1 0x0 KECCAK256 SWAP1 POP DUP1 PUSH1 0x0 ADD PUSH1 0x0 SWAP1 SLOAD SWAP1 PUSH2 0x100 EXP SWAP1 DIV PUSH20 0xFFFFFFFFFFFFFFFFFFFFFFFFFFFFFFFFFFFFFFFF AND PUSH20 0xFFFFFFFFFFFFFFFFFFFFFFFFFFFFFFFFFFFFFFFF AND CALLER PUSH20 0xFFFFFFFFFFFFFFFFFFFFFFFFFFFFFFFFFFFFFFFF AND EQ PUSH2 0x129E JUMPI PUSH1 0x40 MLOAD PUSH32 0x8C379A000000000000000000000000000000000000000000000000000000000 DUP2 MSTORE PUSH1 0x4 ADD PUSH2 0x1295 SWAP1 PUSH2 0x1AA4 JUMP JUMPDEST PUSH1 0x40 MLOAD DUP1 SWAP2 SUB SWAP1 REVERT JUMPDEST PUSH1 0x0 DUP2 PUSH1 0x3 ADD PUSH1 0x0 PUSH2 0x100 EXP DUP2 SLOAD DUP2 PUSH1 0xFF MUL NOT AND SWAP1 DUP4 PUSH1 0x1 DUP2 GT ISZERO PUSH2 0x12C6 JUMPI PUSH2 0x12C5 PUSH2 0x1857 JUMP JUMPDEST JUMPDEST MUL OR SWAP1 SSTORE POP PUSH32 0x23AD33AB6A13A00AA7D06CD167B2ABD03DEC86AF3CF3CC91759DCD3AE8411887 DUP2 PUSH1 0x3 ADD PUSH1 0x0 SWAP1 SLOAD SWAP1 PUSH2 0x100 EXP SWAP1 DIV PUSH1 0xFF AND PUSH1 0x40 MLOAD PUSH2 0x130B SWAP2 SWAP1 PUSH2 0x1DB0 JUMP JUMPDEST PUSH1 0x40 MLOAD DUP1 SWAP2 SUB SWAP1 LOG1 POP POP JUMP JUMPDEST PUSH1 0x0 PUSH1 0x1 PUSH1 0x0 DUP5 DUP2 MSTORE PUSH1 0x20 ADD SWAP1 DUP2 MSTORE PUSH1 0x20 ADD PUSH1 0x0 KECCAK256 PUSH1 0x40 MLOAD DUP1 PUSH1 0xA0 ADD PUSH1 0x40 MSTORE SWAP1 DUP2 PUSH1 0x0 DUP3 ADD PUSH1 0x0 SWAP1 SLOAD SWAP1 PUSH2 0x100 EXP SWAP1 DIV PUSH20 0xFFFFFFFFFFFFFFFFFFFFFFFFFFFFFFFFFFFFFFFF AND PUSH20 0xFFFFFFFFFFFFFFFFFFFFFFFFFFFFFFFFFFFFFFFF AND PUSH20 0xFFFFFFFFFFFFFFFFFFFFFFFFFFFFFFFFFFFFFFFF AND DUP2 MSTORE PUSH1 0x20 ADD PUSH1 0x1 DUP3 ADD SLOAD DUP2 MSTORE PUSH1 0x20 ADD PUSH1 0x2 DUP3 ADD SLOAD DUP2 MSTORE PUSH1 0x20 ADD PUSH1 0x3 DUP3 ADD PUSH1 0x0 SWAP1 SLOAD SWAP1 PUSH2 0x100 EXP SWAP1 DIV PUSH1 0xFF AND PUSH1 0x1 DUP2 GT ISZERO PUSH2 0x13C6 JUMPI PUSH2 0x13C5 PUSH2 0x1857 JUMP JUMPDEST JUMPDEST PUSH1 0x1 DUP2 GT ISZERO PUSH2 0x13D8 JUMPI PUSH2 0x13D7 PUSH2 0x1857 JUMP JUMPDEST JUMPDEST DUP2 MSTORE PUSH1 0x20 ADD PUSH1 0x3 DUP3 ADD PUSH1 0x1 SWAP1 SLOAD SWAP1 PUSH2 0x100 EXP SWAP1 DIV PUSH1 0xFF AND ISZERO ISZERO ISZERO ISZERO DUP2 MSTORE POP POP SWAP1 POP DUP1 PUSH1 0x0 ADD MLOAD PUSH20 0xFFFFFFFFFFFFFFFFFFFFFFFFFFFFFFFFFFFFFFFF AND CALLER PUSH20 0xFFFFFFFFFFFFFFFFFFFFFFFFFFFFFFFFFFFFFFFF AND EQ PUSH2 0x146B JUMPI PUSH1 0x40 MLOAD PUSH32 0x8C379A000000000000000000000000000000000000000000000000000000000 DUP2 MSTORE PUSH1 0x4 ADD PUSH2 0x1462 SWAP1 PUSH2 0x1CB4 JUMP JUMPDEST PUSH1 0x40 MLOAD DUP1 SWAP2 SUB SWAP1 REVERT JUMPDEST PUSH1 0x1 PUSH1 0x4 PUSH1 0x0 DUP6 DUP2 MSTORE PUSH1 0x20 ADD SWAP1 DUP2 MSTORE PUSH1 0x20 ADD PUSH1 0x0 KECCAK256 PUSH1 0x0 DUP5 PUSH20 0xFFFFFFFFFFFFFFFFFFFFFFFFFFFFFFFFFFFFFFFF AND PUSH20 0xFFFFFFFFFFFFFFFFFFFFFFFFFFFFFFFFFFFFFFFF AND DUP2 MSTORE PUSH1 0x20 ADD SWAP1 DUP2 MSTORE PUSH1 0x20 ADD PUSH1 0x0 KECCAK256 PUSH1 0x0 PUSH2 0x100 EXP DUP2 SLOAD DUP2 PUSH1 0xFF MUL NOT AND SWAP1 DUP4 ISZERO ISZERO MUL OR SWAP1 SSTORE POP POP POP POP JUMP JUMPDEST PUSH1 0x2 SLOAD DUP2 JUMP JUMPDEST PUSH32 0x0 DUP2 JUMP JUMPDEST PUSH1 0x0 PUSH1 0x1 PUSH1 0x0 DUP5 DUP2 MSTORE PUSH1 0x20 ADD SWAP1 DUP2 MSTORE PUSH1 0x20 ADD PUSH1 0x0 KECCAK256 SWAP1 POP PUSH1 0x1 DUP1 DUP2 GT ISZERO PUSH2 0x152D JUMPI PUSH2 0x152C PUSH2 0x1857 JUMP JUMPDEST JUMPDEST DUP2 PUSH1 0x3 ADD PUSH1 0x0 SWAP1 SLOAD SWAP1 PUSH2 0x100 EXP SWAP1 DIV PUSH1 0xFF AND PUSH1 0x1 DUP2 GT ISZERO PUSH2 0x1551 JUMPI PUSH2 0x1550 PUSH2 0x1857 JUMP JUMPDEST JUMPDEST EQ PUSH2 0x1591 JUMPI PUSH1 0x40 MLOAD PUSH32 0x8C379A000000000000000000000000000000000000000000000000000000000 DUP2 MSTORE PUSH1 0x4 ADD PUSH2 0x1588 SWAP1 PUSH2 0x1A38 JUMP JUMPDEST PUSH1 0x40 MLOAD DUP1 SWAP2 SUB SWAP1 REVERT JUMPDEST DUP2 DUP2 PUSH1 0x2 ADD PUSH1 0x0 DUP3 DUP3 SLOAD PUSH2 0x15A5 SWAP2 SWAP1 PUSH2 0x1D7C JUMP JUMPDEST SWAP3 POP POP DUP2 SWAP1 SSTORE POP DUP2 PUSH1 0x3 PUSH1 0x0 DUP6 DUP2 MSTORE PUSH1 0x20 ADD SWAP1 DUP2 MSTORE PUSH1 0x20 ADD PUSH1 0x0 KECCAK256 PUSH1 0x0 CALLER PUSH20 0xFFFFFFFFFFFFFFFFFFFFFFFFFFFFFFFFFFFFFFFF AND PUSH20 0xFFFFFFFFFFFFFFFFFFFFFFFFFFFFFFFFFFFFFFFF AND DUP2 MSTORE PUSH1 0x20 ADD SWAP1 DUP2 MSTORE PUSH1 0x20 ADD PUSH1 0x0 KECCAK256 PUSH1 0x0 DUP3 DUP3 SLOAD PUSH2 0x160C SWAP2 SWAP1 PUSH2 0x1D7C JUMP JUMPDEST SWAP3 POP POP DUP2 SWAP1 SSTORE POP PUSH32 0x0 PUSH20 0xFFFFFFFFFFFFFFFFFFFFFFFFFFFFFFFFFFFFFFFF AND PUSH4 0x23B872DD CALLER ADDRESS DUP6 PUSH1 0x40 MLOAD DUP5 PUSH4 0xFFFFFFFF AND PUSH1 0xE0 SHL DUP2 MSTORE PUSH1 0x4 ADD PUSH2 0x1670 SWAP4 SWAP3 SWAP2 SWAP1 PUSH2 0x1DCB JUMP JUMPDEST PUSH1 0x0 PUSH1 0x40 MLOAD DUP1 DUP4 SUB DUP2 PUSH1 0x0 DUP8 DUP1 EXTCODESIZE ISZERO DUP1 ISZERO PUSH2 0x168A JUMPI PUSH1 0x0 DUP1 REVERT JUMPDEST POP GAS CALL ISZERO DUP1 ISZERO PUSH2 0x169E JUMPI RETURNDATASIZE PUSH1 0x0 DUP1 RETURNDATACOPY RETURNDATASIZE PUSH1 0x0 REVERT JUMPDEST POP POP POP POP PUSH32 0x2757AC6A40883F4491CC56930AE964DF9034E343E660D5179EB01E198336756B DUP4 CALLER DUP5 PUSH1 0x40 MLOAD PUSH2 0x16D5 SWAP4 SWAP3 SWAP2 SWAP1 PUSH2 0x1AED JUMP JUMPDEST PUSH1 0x40 MLOAD DUP1 SWAP2 SUB SWAP1 LOG1 POP POP POP JUMP JUMPDEST PUSH1 0x0 DUP2 SWAP1 POP SWAP2 SWAP1 POP JUMP JUMPDEST PUSH2 0x16F5 DUP2 PUSH2 0x16E2 JUMP JUMPDEST DUP3 MSTORE POP POP JUMP JUMPDEST PUSH1 0x0 PUSH1 0x20 DUP3 ADD SWAP1 POP PUSH2 0x1710 PUSH1 0x0 DUP4 ADD DUP5 PUSH2 0x16EC JUMP JUMPDEST SWAP3 SWAP2 POP POP JUMP JUMPDEST PUSH1 0x0 DUP1 REVERT JUMPDEST PUSH2 0x1724 DUP2 PUSH2 0x16E2 JUMP JUMPDEST DUP2 EQ PUSH2 0x172F JUMPI PUSH1 0x0 DUP1 REVERT JUMPDEST POP JUMP JUMPDEST PUSH1 0x0 DUP2 CALLDATALOAD SWAP1 POP PUSH2 0x1741 DUP2 PUSH2 0x171B JUMP JUMPDEST SWAP3 SWAP2 POP POP JUMP JUMPDEST PUSH1 0x0 PUSH20 0xFFFFFFFFFFFFFFFFFFFFFFFFFFFFFFFFFFFFFFFF DUP3 AND SWAP1 POP SWAP2 SWAP1 POP JUMP JUMPDEST PUSH1 0x0 PUSH2 0x1772 DUP3 PUSH2 0x1747 JUMP JUMPDEST SWAP1 POP SWAP2 SWAP1 POP JUMP JUMPDEST PUSH2 0x1782 DUP2 PUSH2 0x1767 JUMP JUMPDEST DUP2 EQ PUSH2 0x178D JUMPI PUSH1 0x0 DUP1 REVERT JUMPDEST POP JUMP JUMPDEST PUSH1 0x0 DUP2 CALLDATALOAD SWAP1 POP PUSH2 0x179F DUP2 PUSH2 0x1779 JUMP JUMPDEST SWAP3 SWAP2 POP POP JUMP JUMPDEST PUSH1 0x0 DUP1 PUSH1 0x40 DUP4 DUP6 SUB SLT ISZERO PUSH2 0x17BC JUMPI PUSH2 0x17BB PUSH2 0x1716 JUMP JUMPDEST JUMPDEST PUSH1 0x0 PUSH2 0x17CA DUP6 DUP3 DUP7 ADD PUSH2 0x1732 JUMP JUMPDEST SWAP3 POP POP PUSH1 0x20 PUSH2 0x17DB DUP6 DUP3 DUP7 ADD PUSH2 0x1790 JUMP JUMPDEST SWAP2 POP POP SWAP3 POP SWAP3 SWAP1 POP JUMP JUMPDEST PUSH1 0x0 DUP2 ISZERO ISZERO SWAP1 POP SWAP2 SWAP1 POP JUMP JUMPDEST PUSH2 0x17FA DUP2 PUSH2 0x17E5 JUMP JUMPDEST DUP3 MSTORE POP POP JUMP JUMPDEST PUSH1 0x0 PUSH1 0x20 DUP3 ADD SWAP1 POP PUSH2 0x1815 PUSH1 0x0 DUP4 ADD DUP5 PUSH2 0x17F1 JUMP JUMPDEST SWAP3 SWAP2 POP POP JUMP JUMPDEST PUSH1 0x0 PUSH1 0x20 DUP3 DUP5 SUB SLT ISZERO PUSH2 0x1831 JUMPI PUSH2 0x1830 PUSH2 0x1716 JUMP JUMPDEST JUMPDEST PUSH1 0x0 PUSH2 0x183F DUP5 DUP3 DUP6 ADD PUSH2 0x1732 JUMP JUMPDEST SWAP2 POP POP SWAP3 SWAP2 POP POP JUMP JUMPDEST PUSH2 0x1851 DUP2 PUSH2 0x1767 JUMP JUMPDEST DUP3 MSTORE POP POP JUMP JUMPDEST PUSH32 0x4E487B7100000000000000000000000000000000000000000000000000000000 PUSH1 0x0 MSTORE PUSH1 0x21 PUSH1 0x4 MSTORE PUSH1 0x24 PUSH1 0x0 REVERT JUMPDEST PUSH1 0x2 DUP2 LT PUSH2 0x1897 JUMPI PUSH2 0x1896 PUSH2 0x1857 JUMP JUMPDEST JUMPDEST POP JUMP JUMPDEST PUSH1 0x0 DUP2 SWAP1 POP PUSH2 0x18A8 DUP3 PUSH2 0x1886 JUMP JUMPDEST SWAP2 SWAP1 POP JUMP JUMPDEST PUSH1 0x0 PUSH2 0x18B8 DUP3 PUSH2 0x189A JUMP JUMPDEST SWAP1 POP SWAP2 SWAP1 POP JUMP JUMPDEST PUSH2 0x18C8 DUP2 PUSH2 0x18AD JUMP JUMPDEST DUP3 MSTORE POP POP JUMP JUMPDEST PUSH1 0x0 PUSH1 0xA0 DUP3 ADD SWAP1 POP PUSH2 0x18E3 PUSH1 0x0 DUP4 ADD DUP9 PUSH2 0x1848 JUMP JUMPDEST PUSH2 0x18F0 PUSH1 0x20 DUP4 ADD DUP8 PUSH2 0x16EC JUMP JUMPDEST PUSH2 0x18FD PUSH1 0x40 DUP4 ADD DUP7 PUSH2 0x16EC JUMP JUMPDEST PUSH2 0x190A PUSH1 0x60 DUP4 ADD DUP6 PUSH2 0x18BF JUMP JUMPDEST PUSH2 0x1917 PUSH1 0x80 DUP4 ADD DUP5 PUSH2 0x17F1 JUMP JUMPDEST SWAP7 SWAP6 POP POP POP POP POP POP JUMP JUMPDEST PUSH1 0x0 DUP1 PUSH1 0x40 DUP4 DUP6 SUB SLT ISZERO PUSH2 0x1938 JUMPI PUSH2 0x1937 PUSH2 0x1716 JUMP JUMPDEST JUMPDEST PUSH1 0x0 PUSH2 0x1946 DUP6 DUP3 DUP7 ADD PUSH2 0x1732 JUMP JUMPDEST SWAP3 POP POP PUSH1 0x20 PUSH2 0x1957 DUP6 DUP3 DUP7 ADD PUSH2 0x1732 JUMP JUMPDEST SWAP2 POP POP SWAP3 POP SWAP3 SWAP1 POP JUMP JUMPDEST PUSH1 0x0 DUP2 SWAP1 POP SWAP2 SWAP1 POP JUMP JUMPDEST PUSH1 0x0 PUSH2 0x1986 PUSH2 0x1981 PUSH2 0x197C DUP5 PUSH2 0x1747 JUMP JUMPDEST PUSH2 0x1961 JUMP JUMPDEST PUSH2 0x1747 JUMP JUMPDEST SWAP1 POP SWAP2 SWAP1 POP JUMP JUMPDEST PUSH1 0x0 PUSH2 0x1998 DUP3 PUSH2 0x196B JUMP JUMPDEST SWAP1 POP SWAP2 SWAP1 POP JUMP JUMPDEST PUSH1 0x0 PUSH2 0x19AA DUP3 PUSH2 0x198D JUMP JUMPDEST SWAP1 POP SWAP2 SWAP1 POP JUMP JUMPDEST PUSH2 0x19BA DUP2 PUSH2 0x199F JUMP JUMPDEST DUP3 MSTORE POP POP JUMP JUMPDEST PUSH1 0x0 PUSH1 0x20 DUP3 ADD SWAP1 POP PUSH2 0x19D5 PUSH1 0x0 DUP4 ADD DUP5 PUSH2 0x19B1 JUMP JUMPDEST SWAP3 SWAP2 POP POP JUMP JUMPDEST PUSH1 0x0 DUP3 DUP3 MSTORE PUSH1 0x20 DUP3 ADD SWAP1 POP SWAP3 SWAP2 POP POP JUMP JUMPDEST PUSH32 0x63616D706169676E206973206E6F74206F70656E656421000000000000000000 PUSH1 0x0 DUP3 ADD MSTORE POP JUMP JUMPDEST PUSH1 0x0 PUSH2 0x1A22 PUSH1 0x17 DUP4 PUSH2 0x19DB JUMP JUMPDEST SWAP2 POP PUSH2 0x1A2D DUP3 PUSH2 0x19EC JUMP JUMPDEST PUSH1 0x20 DUP3 ADD SWAP1 POP SWAP2 SWAP1 POP JUMP JUMPDEST PUSH1 0x0 PUSH1 0x20 DUP3 ADD SWAP1 POP DUP2 DUP2 SUB PUSH1 0x0 DUP4 ADD MSTORE PUSH2 0x1A51 DUP2 PUSH2 0x1A15 JUMP JUMPDEST SWAP1 POP SWAP2 SWAP1 POP JUMP JUMPDEST PUSH32 0x6E6F7420616E206F776E65720000000000000000000000000000000000000000 PUSH1 0x0 DUP3 ADD MSTORE POP JUMP JUMPDEST PUSH1 0x0 PUSH2 0x1A8E PUSH1 0xC DUP4 PUSH2 0x19DB JUMP JUMPDEST SWAP2 POP PUSH2 0x1A99 DUP3 PUSH2 0x1A58 JUMP JUMPDEST PUSH1 0x20 DUP3 ADD SWAP1 POP SWAP2 SWAP1 POP JUMP JUMPDEST PUSH1 0x0 PUSH1 0x20 DUP3 ADD SWAP1 POP DUP2 DUP2 SUB PUSH1 0x0 DUP4 ADD MSTORE PUSH2 0x1ABD DUP2 PUSH2 0x1A81 JUMP JUMPDEST SWAP1 POP SWAP2 SWAP1 POP JUMP JUMPDEST PUSH1 0x0 PUSH1 0x40 DUP3 ADD SWAP1 POP PUSH2 0x1AD9 PUSH1 0x0 DUP4 ADD DUP6 PUSH2 0x1848 JUMP JUMPDEST PUSH2 0x1AE6 PUSH1 0x20 DUP4 ADD DUP5 PUSH2 0x16EC JUMP JUMPDEST SWAP4 SWAP3 POP POP POP JUMP JUMPDEST PUSH1 0x0 PUSH1 0x60 DUP3 ADD SWAP1 POP PUSH2 0x1B02 PUSH1 0x0 DUP4 ADD DUP7 PUSH2 0x16EC JUMP JUMPDEST PUSH2 0x1B0F PUSH1 0x20 DUP4 ADD DUP6 PUSH2 0x1848 JUMP JUMPDEST PUSH2 0x1B1C PUSH1 0x40 DUP4 ADD DUP5 PUSH2 0x16EC JUMP JUMPDEST SWAP5 SWAP4 POP POP POP POP JUMP JUMPDEST PUSH32 0x6E6F7420656E6F75676820726967687473210000000000000000000000000000 PUSH1 0x0 DUP3 ADD MSTORE POP JUMP JUMPDEST PUSH1 0x0 PUSH2 0x1B5A PUSH1 0x12 DUP4 PUSH2 0x19DB JUMP JUMPDEST SWAP2 POP PUSH2 0x1B65 DUP3 PUSH2 0x1B24 JUMP JUMPDEST PUSH1 0x20 DUP3 ADD SWAP1 POP SWAP2 SWAP1 POP JUMP JUMPDEST PUSH1 0x0 PUSH1 0x20 DUP3 ADD SWAP1 POP DUP2 DUP2 SUB PUSH1 0x0 DUP4 ADD MSTORE PUSH2 0x1B89 DUP2 PUSH2 0x1B4D JUMP JUMPDEST SWAP1 POP SWAP2 SWAP1 POP JUMP JUMPDEST PUSH32 0x706C656467656420697320746F6F206C6F770000000000000000000000000000 PUSH1 0x0 DUP3 ADD MSTORE POP JUMP JUMPDEST PUSH1 0x0 PUSH2 0x1BC6 PUSH1 0x12 DUP4 PUSH2 0x19DB JUMP JUMPDEST SWAP2 POP PUSH2 0x1BD1 DUP3 PUSH2 0x1B90 JUMP JUMPDEST PUSH1 0x20 DUP3 ADD SWAP1 POP SWAP2 SWAP1 POP JUMP JUMPDEST PUSH1 0x0 PUSH1 0x20 DUP3 ADD SWAP1 POP DUP2 DUP2 SUB PUSH1 0x0 DUP4 ADD MSTORE PUSH2 0x1BF5 DUP2 PUSH2 0x1BB9 JUMP JUMPDEST SWAP1 POP SWAP2 SWAP1 POP JUMP JUMPDEST PUSH32 0x616C726561647920636C61696D65640000000000000000000000000000000000 PUSH1 0x0 DUP3 ADD MSTORE POP JUMP JUMPDEST PUSH1 0x0 PUSH2 0x1C32 PUSH1 0xF DUP4 PUSH2 0x19DB JUMP JUMPDEST SWAP2 POP PUSH2 0x1C3D DUP3 PUSH2 0x1BFC JUMP JUMPDEST PUSH1 0x20 DUP3 ADD SWAP1 POP SWAP2 SWAP1 POP JUMP JUMPDEST PUSH1 0x0 PUSH1 0x20 DUP3 ADD SWAP1 POP DUP2 DUP2 SUB PUSH1 0x0 DUP4 ADD MSTORE PUSH2 0x1C61 DUP2 PUSH2 0x1C25 JUMP JUMPDEST SWAP1 POP SWAP2 SWAP1 POP JUMP JUMPDEST PUSH32 0x6E6F7420616E206F776E65722100000000000000000000000000000000000000 PUSH1 0x0 DUP3 ADD MSTORE POP JUMP JUMPDEST PUSH1 0x0 PUSH2 0x1C9E PUSH1 0xD DUP4 PUSH2 0x19DB JUMP JUMPDEST SWAP2 POP PUSH2 0x1CA9 DUP3 PUSH2 0x1C68 JUMP JUMPDEST PUSH1 0x20 DUP3 ADD SWAP1 POP SWAP2 SWAP1 POP JUMP JUMPDEST PUSH1 0x0 PUSH1 0x20 DUP3 ADD SWAP1 POP DUP2 DUP2 SUB PUSH1 0x0 DUP4 ADD MSTORE PUSH2 0x1CCD DUP2 PUSH2 0x1C91 JUMP JUMPDEST SWAP1 POP SWAP2 SWAP1 POP JUMP JUMPDEST PUSH32 0x4E487B7100000000000000000000000000000000000000000000000000000000 PUSH1 0x0 MSTORE PUSH1 0x11 PUSH1 0x4 MSTORE PUSH1 0x24 PUSH1 0x0 REVERT JUMPDEST PUSH1 0x0 PUSH2 0x1D0E DUP3 PUSH2 0x16E2 JUMP JUMPDEST SWAP2 POP PUSH2 0x1D19 DUP4 PUSH2 0x16E2 JUMP JUMPDEST SWAP3 POP DUP3 DUP3 SUB SWAP1 POP DUP2 DUP2 GT ISZERO PUSH2 0x1D31 JUMPI PUSH2 0x1D30 PUSH2 0x1CD4 JUMP JUMPDEST JUMPDEST SWAP3 SWAP2 POP POP JUMP JUMPDEST PUSH1 0x0 PUSH1 0x80 DUP3 ADD SWAP1 POP PUSH2 0x1D4C PUSH1 0x0 DUP4 ADD DUP8 PUSH2 0x16EC JUMP JUMPDEST PUSH2 0x1D59 PUSH1 0x20 DUP4 ADD DUP7 PUSH2 0x1848 JUMP JUMPDEST PUSH2 0x1D66 PUSH1 0x40 DUP4 ADD DUP6 PUSH2 0x16EC JUMP JUMPDEST PUSH2 0x1D73 PUSH1 0x60 DUP4 ADD DUP5 PUSH2 0x18BF JUMP JUMPDEST SWAP6 SWAP5 POP POP POP POP POP JUMP JUMPDEST PUSH1 0x0 PUSH2 0x1D87 DUP3 PUSH2 0x16E2 JUMP JUMPDEST SWAP2 POP PUSH2 0x1D92 DUP4 PUSH2 0x16E2 JUMP JUMPDEST SWAP3 POP DUP3 DUP3 ADD SWAP1 POP DUP1 DUP3 GT ISZERO PUSH2 0x1DAA JUMPI PUSH2 0x1DA9 PUSH2 0x1CD4 JUMP JUMPDEST JUMPDEST SWAP3 SWAP2 POP POP JUMP JUMPDEST PUSH1 0x0 PUSH1 0x20 DUP3 ADD SWAP1 POP PUSH2 0x1DC5 PUSH1 0x0 DUP4 ADD DUP5 PUSH2 0x18BF JUMP JUMPDEST SWAP3 SWAP2 POP POP JUMP JUMPDEST PUSH1 0x0 PUSH1 0x60 DUP3 ADD SWAP1 POP PUSH2 0x1DE0 PUSH1 0x0 DUP4 ADD DUP7 PUSH2 0x1848 JUMP JUMPDEST PUSH2 0x1DED PUSH1 0x20 DUP4 ADD DUP6 PUSH2 0x1848 JUMP JUMPDEST PUSH2 0x1DFA PUSH1 0x40 DUP4 ADD DUP5 PUSH2 0x16EC JUMP JUMPDEST SWAP5 SWAP4 POP POP POP POP JUMP INVALID LOG2 PUSH5 0x6970667358 0x22 SLT KECCAK256 0x5E 0xF6 0xDA PUSH29 0x6B5F3DE9FC7F1285F3398E57FF05C5714185381E13B63130654ABCF64 PUSH20 0x6F6C634300081100330000000000000000000000 "
				},
				"gasEstimates": {
					"creation": {
						"codeDepositCost": "1547200",
						"executionCost": "infinite",
						"totalCost": "infinite"
					},
					"external": {
						"": "197",
						"admins(uint256,address)": "3111",
						"campaigns(uint256)": "infinite",
						"cancel(uint256)": "infinite",
						"claim(uint256)": "infinite",
						"currentId()": "2473",
						"getValueClosed()": "2586",
						"getValueOpen()": "2586",
						"launch(uint256)": "infinite",
						"makeAdmin(uint256,address)": "36146",
						"pledge(uint256,uint256)": "infinite",
						"pledges(uint256,address)": "infinite",
						"refund(uint256)": "infinite",
						"revokeAdmin(uint256,address)": "36101",
						"setState(uint256)": "30483",
						"token()": "infinite",
						"unpledge(uint256,uint256)": "infinite"
					}
				},
				"methodIdentifiers": {
					"admins(uint256,address)": "0b46056b",
					"campaigns(uint256)": "141961bc",
					"cancel(uint256)": "40e58ee5",
					"claim(uint256)": "379607f5",
					"currentId()": "e00dd161",
					"getValueClosed()": "6244c42f",
					"getValueOpen()": "92f77154",
					"launch(uint256)": "85b12c7c",
					"makeAdmin(uint256,address)": "a41c57bc",
					"pledge(uint256,uint256)": "fde327be",
					"pledges(uint256,address)": "8e97f524",
					"refund(uint256)": "278ecde1",
					"revokeAdmin(uint256,address)": "ba282398",
					"setState(uint256)": "a9e966b7",
					"token()": "fc0c546a",
					"unpledge(uint256,uint256)": "711853ab"
				}
			},
			"storageLayout": {
				"storage": [
					{
						"astId": 32,
						"contract": "GitHub/MCS-School-Team/Project-Donat/ethereum/contracts/CrowdFunding_v1.sol:Crowd",
						"label": "testMapping",
						"offset": 0,
						"slot": "0",
						"type": "t_mapping(t_uint256,t_uint256)"
					},
					{
						"astId": 42,
						"contract": "GitHub/MCS-School-Team/Project-Donat/ethereum/contracts/CrowdFunding_v1.sol:Crowd",
						"label": "campaigns",
						"offset": 0,
						"slot": "1",
						"type": "t_mapping(t_uint256,t_struct(Campaign)25_storage)"
					},
					{
						"astId": 45,
						"contract": "GitHub/MCS-School-Team/Project-Donat/ethereum/contracts/CrowdFunding_v1.sol:Crowd",
						"label": "currentId",
						"offset": 0,
						"slot": "2",
						"type": "t_uint256"
					},
					{
						"astId": 52,
						"contract": "GitHub/MCS-School-Team/Project-Donat/ethereum/contracts/CrowdFunding_v1.sol:Crowd",
						"label": "pledges",
						"offset": 0,
						"slot": "3",
						"type": "t_mapping(t_uint256,t_mapping(t_address,t_uint256))"
					},
					{
						"astId": 59,
						"contract": "GitHub/MCS-School-Team/Project-Donat/ethereum/contracts/CrowdFunding_v1.sol:Crowd",
						"label": "admins",
						"offset": 0,
						"slot": "4",
						"type": "t_mapping(t_uint256,t_mapping(t_address,t_bool))"
					}
				],
				"types": {
					"t_address": {
						"encoding": "inplace",
						"label": "address",
						"numberOfBytes": "20"
					},
					"t_bool": {
						"encoding": "inplace",
						"label": "bool",
						"numberOfBytes": "1"
					},
					"t_enum(State)28": {
						"encoding": "inplace",
						"label": "enum Crowd.State",
						"numberOfBytes": "1"
					},
					"t_mapping(t_address,t_bool)": {
						"encoding": "mapping",
						"key": "t_address",
						"label": "mapping(address => bool)",
						"numberOfBytes": "32",
						"value": "t_bool"
					},
					"t_mapping(t_address,t_uint256)": {
						"encoding": "mapping",
						"key": "t_address",
						"label": "mapping(address => uint256)",
						"numberOfBytes": "32",
						"value": "t_uint256"
					},
					"t_mapping(t_uint256,t_mapping(t_address,t_bool))": {
						"encoding": "mapping",
						"key": "t_uint256",
						"label": "mapping(uint256 => mapping(address => bool))",
						"numberOfBytes": "32",
						"value": "t_mapping(t_address,t_bool)"
					},
					"t_mapping(t_uint256,t_mapping(t_address,t_uint256))": {
						"encoding": "mapping",
						"key": "t_uint256",
						"label": "mapping(uint256 => mapping(address => uint256))",
						"numberOfBytes": "32",
						"value": "t_mapping(t_address,t_uint256)"
					},
					"t_mapping(t_uint256,t_struct(Campaign)25_storage)": {
						"encoding": "mapping",
						"key": "t_uint256",
						"label": "mapping(uint256 => struct Crowd.Campaign)",
						"numberOfBytes": "32",
						"value": "t_struct(Campaign)25_storage"
					},
					"t_mapping(t_uint256,t_uint256)": {
						"encoding": "mapping",
						"key": "t_uint256",
						"label": "mapping(uint256 => uint256)",
						"numberOfBytes": "32",
						"value": "t_uint256"
					},
					"t_struct(Campaign)25_storage": {
						"encoding": "inplace",
						"label": "struct Crowd.Campaign",
						"members": [
							{
								"astId": 15,
								"contract": "GitHub/MCS-School-Team/Project-Donat/ethereum/contracts/CrowdFunding_v1.sol:Crowd",
								"label": "owner",
								"offset": 0,
								"slot": "0",
								"type": "t_address"
							},
							{
								"astId": 17,
								"contract": "GitHub/MCS-School-Team/Project-Donat/ethereum/contracts/CrowdFunding_v1.sol:Crowd",
								"label": "goal",
								"offset": 0,
								"slot": "1",
								"type": "t_uint256"
							},
							{
								"astId": 19,
								"contract": "GitHub/MCS-School-Team/Project-Donat/ethereum/contracts/CrowdFunding_v1.sol:Crowd",
								"label": "pledged",
								"offset": 0,
								"slot": "2",
								"type": "t_uint256"
							},
							{
								"astId": 22,
								"contract": "GitHub/MCS-School-Team/Project-Donat/ethereum/contracts/CrowdFunding_v1.sol:Crowd",
								"label": "state",
								"offset": 0,
								"slot": "3",
								"type": "t_enum(State)28"
							},
							{
								"astId": 24,
								"contract": "GitHub/MCS-School-Team/Project-Donat/ethereum/contracts/CrowdFunding_v1.sol:Crowd",
								"label": "claimed",
								"offset": 1,
								"slot": "3",
								"type": "t_bool"
							}
						],
						"numberOfBytes": "128"
					},
					"t_uint256": {
						"encoding": "inplace",
						"label": "uint256",
						"numberOfBytes": "32"
					}
				}
			},
			"userdoc": {
				"errors": {
					"ContributionsClosed()": [
						{
							"notice": "Thrown when trying to contribute while contributions are closed"
						}
					],
					"RefundsClosed()": [
						{
							"notice": "Thrown when trying to claim a refund while refunds are closed"
						}
					],
					"Unauthorized()": [
						{
							"notice": "Thrown when trying to change the state of the campaign or renounce the contract without being the manager"
						}
					]
				},
				"events": {
					"Launched(uint256,address,uint256,uint8)": {
						"notice": "EVENTS ///"
					}
				},
				"kind": "user",
				"methods": {
					"admins(uint256,address)": {
						"notice": "mapping that keeps the addressess and admin rights of campaign managers"
					},
					"campaigns(uint256)": {
						"notice": "mapping keeps the campaigns' id"
					},
					"currentId()": {
						"notice": "id of the current campaign"
					},
					"getValueClosed()": {
						"notice": "FUNCTIONS ///"
					},
					"pledges(uint256,address)": {
						"notice": "mapping that keeps the addressess and pledges of all the donators of the campaign"
					},
					"token()": {
						"notice": "url to the token "
					}
				},
				"version": 1
			}
		}
	}
}