{
	"GitHub/MCS-School-Team/Project-Donat/ethereum/contracts/ERC20.sol": {
		"ERC20": {
			"abi": [
				{
					"inputs": [
						{
							"internalType": "uint256",
							"name": "initialSupply",
							"type": "uint256"
						}
					],
					"stateMutability": "nonpayable",
					"type": "constructor"
				},
				{
					"anonymous": false,
					"inputs": [
						{
							"indexed": true,
							"internalType": "address",
							"name": "owner",
							"type": "address"
						},
						{
							"indexed": true,
							"internalType": "address",
							"name": "spender",
							"type": "address"
						},
						{
							"indexed": false,
							"internalType": "uint256",
							"name": "value",
							"type": "uint256"
						}
					],
					"name": "Approval",
					"type": "event"
				},
				{
					"anonymous": false,
					"inputs": [
						{
							"indexed": true,
							"internalType": "address",
							"name": "from",
							"type": "address"
						},
						{
							"indexed": true,
							"internalType": "address",
							"name": "to",
							"type": "address"
						},
						{
							"indexed": false,
							"internalType": "uint256",
							"name": "value",
							"type": "uint256"
						}
					],
					"name": "Transfer",
					"type": "event"
				},
				{
					"inputs": [
						{
							"internalType": "address",
							"name": "owner",
							"type": "address"
						},
						{
							"internalType": "address",
							"name": "spender",
							"type": "address"
						}
					],
					"name": "allowance",
					"outputs": [
						{
							"internalType": "uint256",
							"name": "",
							"type": "uint256"
						}
					],
					"stateMutability": "view",
					"type": "function"
				},
				{
					"inputs": [
						{
							"internalType": "address",
							"name": "spender",
							"type": "address"
						},
						{
							"internalType": "uint256",
							"name": "amount",
							"type": "uint256"
						}
					],
					"name": "approve",
					"outputs": [],
					"stateMutability": "nonpayable",
					"type": "function"
				},
				{
					"inputs": [
						{
							"internalType": "address",
							"name": "account",
							"type": "address"
						}
					],
					"name": "balanceOf",
					"outputs": [
						{
							"internalType": "uint256",
							"name": "",
							"type": "uint256"
						}
					],
					"stateMutability": "view",
					"type": "function"
				},
				{
					"inputs": [
						{
							"internalType": "uint256",
							"name": "amount",
							"type": "uint256"
						}
					],
					"name": "burn",
					"outputs": [],
					"stateMutability": "nonpayable",
					"type": "function"
				},
				{
					"inputs": [],
					"name": "decimals",
					"outputs": [
						{
							"internalType": "uint256",
							"name": "",
							"type": "uint256"
						}
					],
					"stateMutability": "pure",
					"type": "function"
				},
				{
					"inputs": [
						{
							"internalType": "uint256",
							"name": "amount",
							"type": "uint256"
						}
					],
					"name": "mint",
					"outputs": [],
					"stateMutability": "nonpayable",
					"type": "function"
				},
				{
					"inputs": [],
					"name": "totalSupply",
					"outputs": [
						{
							"internalType": "uint256",
							"name": "",
							"type": "uint256"
						}
					],
					"stateMutability": "view",
					"type": "function"
				},
				{
					"inputs": [
						{
							"internalType": "address",
							"name": "to",
							"type": "address"
						},
						{
							"internalType": "uint256",
							"name": "amount",
							"type": "uint256"
						}
					],
					"name": "transfer",
					"outputs": [],
					"stateMutability": "nonpayable",
					"type": "function"
				},
				{
					"inputs": [
						{
							"internalType": "address",
							"name": "sender",
							"type": "address"
						},
						{
							"internalType": "address",
							"name": "recipient",
							"type": "address"
						},
						{
							"internalType": "uint256",
							"name": "amount",
							"type": "uint256"
						}
					],
					"name": "transferFrom",
					"outputs": [],
					"stateMutability": "nonpayable",
					"type": "function"
				}
			],
			"devdoc": {
				"kind": "dev",
				"methods": {
					"allowance(address,address)": {
						"details": "Returns the remaining number of tokens that `spender` will be allowed to spend on behalf of `owner` through {transferFrom}. This is zero by default. This value changes when {approve} or {transferFrom} are called."
					},
					"approve(address,uint256)": {
						"details": "Sets `amount` as the allowance of `spender` over the caller's tokens. Returns a boolean value indicating whether the operation succeeded. IMPORTANT: Beware that changing an allowance with this method brings the risk that someone may use both the old and the new allowance by unfortunate transaction ordering. One possible solution to mitigate this race condition is to first reduce the spender's allowance to 0 and set the desired value afterwards: https://github.com/ethereum/EIPs/issues/20#issuecomment-263524729 Emits an {Approval} event."
					},
					"balanceOf(address)": {
						"details": "Returns the amount of tokens owned by `account`."
					},
					"totalSupply()": {
						"details": "Returns the amount of tokens in existence."
					},
					"transfer(address,uint256)": {
						"details": "Moves `amount` tokens from the caller's account to `to`. Returns a boolean value indicating whether the operation succeeded. Emits a {Transfer} event."
					}
				},
				"version": 1
			},
			"evm": {
				"assembly": "    /* \"GitHub/MCS-School-Team/Project-Donat/ethereum/contracts/ERC20.sol\":96:2073  contract ERC20 is IERC20 {... */\n  mstore(0x40, 0x80)\n    /* \"GitHub/MCS-School-Team/Project-Donat/ethereum/contracts/ERC20.sol\":321:391  constructor(uint initialSupply) {... */\n  callvalue\n  dup1\n  iszero\n  tag_1\n  jumpi\n  0x00\n  dup1\n  revert\ntag_1:\n  pop\n  mload(0x40)\n  sub(codesize, bytecodeSize)\n  dup1\n  bytecodeSize\n  dup4\n  codecopy\n  dup2\n  dup2\n  add\n  0x40\n  mstore\n  dup2\n  add\n  swap1\n  tag_2\n  swap2\n  swap1\n  tag_3\n  jump\t// in\ntag_2:\n    /* \"GitHub/MCS-School-Team/Project-Donat/ethereum/contracts/ERC20.sol\":364:383  mint(initialSupply) */\n  tag_6\n    /* \"GitHub/MCS-School-Team/Project-Donat/ethereum/contracts/ERC20.sol\":369:382  initialSupply */\n  dup2\n    /* \"GitHub/MCS-School-Team/Project-Donat/ethereum/contracts/ERC20.sol\":364:368  mint */\n  shl(0x20, tag_7)\n    /* \"GitHub/MCS-School-Team/Project-Donat/ethereum/contracts/ERC20.sol\":364:383  mint(initialSupply) */\n  0x20\n  shr\n  jump\t// in\ntag_6:\n    /* \"GitHub/MCS-School-Team/Project-Donat/ethereum/contracts/ERC20.sol\":321:391  constructor(uint initialSupply) {... */\n  pop\n    /* \"GitHub/MCS-School-Team/Project-Donat/ethereum/contracts/ERC20.sol\":96:2073  contract ERC20 is IERC20 {... */\n  jump(tag_8)\n    /* \"GitHub/MCS-School-Team/Project-Donat/ethereum/contracts/ERC20.sol\":1687:1858  function mint(uint amount) public {... */\ntag_7:\n    /* \"GitHub/MCS-School-Team/Project-Donat/ethereum/contracts/ERC20.sol\":1756:1762  amount */\n  dup1\n    /* \"GitHub/MCS-School-Team/Project-Donat/ethereum/contracts/ERC20.sol\":1732:1740  balances */\n  0x01\n    /* \"GitHub/MCS-School-Team/Project-Donat/ethereum/contracts/ERC20.sol\":1732:1752  balances[msg.sender] */\n  0x00\n    /* \"GitHub/MCS-School-Team/Project-Donat/ethereum/contracts/ERC20.sol\":1741:1751  msg.sender */\n  caller\n    /* \"GitHub/MCS-School-Team/Project-Donat/ethereum/contracts/ERC20.sol\":1732:1752  balances[msg.sender] */\n  0xffffffffffffffffffffffffffffffffffffffff\n  and\n  0xffffffffffffffffffffffffffffffffffffffff\n  and\n  dup2\n  mstore\n  0x20\n  add\n  swap1\n  dup2\n  mstore\n  0x20\n  add\n  0x00\n  keccak256\n  0x00\n    /* \"GitHub/MCS-School-Team/Project-Donat/ethereum/contracts/ERC20.sol\":1732:1762  balances[msg.sender] += amount */\n  dup3\n  dup3\n  sload\n  tag_10\n  swap2\n  swap1\n  tag_11\n  jump\t// in\ntag_10:\n  swap3\n  pop\n  pop\n  dup2\n  swap1\n  sstore\n  pop\n    /* \"GitHub/MCS-School-Team/Project-Donat/ethereum/contracts/ERC20.sol\":1788:1794  amount */\n  dup1\n    /* \"GitHub/MCS-School-Team/Project-Donat/ethereum/contracts/ERC20.sol\":1773:1784  totalTokens */\n  0x00\n  dup1\n    /* \"GitHub/MCS-School-Team/Project-Donat/ethereum/contracts/ERC20.sol\":1773:1794  totalTokens += amount */\n  dup3\n  dup3\n  sload\n  tag_12\n  swap2\n  swap1\n  tag_11\n  jump\t// in\ntag_12:\n  swap3\n  pop\n  pop\n  dup2\n  swap1\n  sstore\n  pop\n    /* \"GitHub/MCS-School-Team/Project-Donat/ethereum/contracts/ERC20.sol\":1831:1841  msg.sender */\n  caller\n    /* \"GitHub/MCS-School-Team/Project-Donat/ethereum/contracts/ERC20.sol\":1810:1850  Transfer(address(0), msg.sender, amount) */\n  0xffffffffffffffffffffffffffffffffffffffff\n  and\n    /* \"GitHub/MCS-School-Team/Project-Donat/ethereum/contracts/ERC20.sol\":1827:1828  0 */\n  0x00\n    /* \"GitHub/MCS-School-Team/Project-Donat/ethereum/contracts/ERC20.sol\":1810:1850  Transfer(address(0), msg.sender, amount) */\n  0xffffffffffffffffffffffffffffffffffffffff\n  and\n  0xddf252ad1be2c89b69c2b068fc378daa952ba7f163c4a11628f55a4df523b3ef\n    /* \"GitHub/MCS-School-Team/Project-Donat/ethereum/contracts/ERC20.sol\":1843:1849  amount */\n  dup4\n    /* \"GitHub/MCS-School-Team/Project-Donat/ethereum/contracts/ERC20.sol\":1810:1850  Transfer(address(0), msg.sender, amount) */\n  mload(0x40)\n  tag_13\n  swap2\n  swap1\n  tag_14\n  jump\t// in\ntag_13:\n  mload(0x40)\n  dup1\n  swap2\n  sub\n  swap1\n  log3\n    /* \"GitHub/MCS-School-Team/Project-Donat/ethereum/contracts/ERC20.sol\":1687:1858  function mint(uint amount) public {... */\n  pop\n  jump\t// out\n    /* \"#utility.yul\":88:205   */\ntag_16:\n    /* \"#utility.yul\":197:198   */\n  0x00\n    /* \"#utility.yul\":194:195   */\n  dup1\n    /* \"#utility.yul\":187:199   */\n  revert\n    /* \"#utility.yul\":334:411   */\ntag_18:\n    /* \"#utility.yul\":371:378   */\n  0x00\n    /* \"#utility.yul\":400:405   */\n  dup2\n    /* \"#utility.yul\":389:405   */\n  swap1\n  pop\n    /* \"#utility.yul\":334:411   */\n  swap2\n  swap1\n  pop\n  jump\t// out\n    /* \"#utility.yul\":417:539   */\ntag_19:\n    /* \"#utility.yul\":490:514   */\n  tag_29\n    /* \"#utility.yul\":508:513   */\n  dup2\n    /* \"#utility.yul\":490:514   */\n  tag_18\n  jump\t// in\ntag_29:\n    /* \"#utility.yul\":483:488   */\n  dup2\n    /* \"#utility.yul\":480:515   */\n  eq\n    /* \"#utility.yul\":470:533   */\n  tag_30\n  jumpi\n    /* \"#utility.yul\":529:530   */\n  0x00\n    /* \"#utility.yul\":526:527   */\n  dup1\n    /* \"#utility.yul\":519:531   */\n  revert\n    /* \"#utility.yul\":470:533   */\ntag_30:\n    /* \"#utility.yul\":417:539   */\n  pop\n  jump\t// out\n    /* \"#utility.yul\":545:688   */\ntag_20:\n    /* \"#utility.yul\":602:607   */\n  0x00\n    /* \"#utility.yul\":633:639   */\n  dup2\n    /* \"#utility.yul\":627:640   */\n  mload\n    /* \"#utility.yul\":618:640   */\n  swap1\n  pop\n    /* \"#utility.yul\":649:682   */\n  tag_32\n    /* \"#utility.yul\":676:681   */\n  dup2\n    /* \"#utility.yul\":649:682   */\n  tag_19\n  jump\t// in\ntag_32:\n    /* \"#utility.yul\":545:688   */\n  swap3\n  swap2\n  pop\n  pop\n  jump\t// out\n    /* \"#utility.yul\":694:1045   */\ntag_3:\n    /* \"#utility.yul\":764:770   */\n  0x00\n    /* \"#utility.yul\":813:815   */\n  0x20\n    /* \"#utility.yul\":801:810   */\n  dup3\n    /* \"#utility.yul\":792:799   */\n  dup5\n    /* \"#utility.yul\":788:811   */\n  sub\n    /* \"#utility.yul\":784:816   */\n  slt\n    /* \"#utility.yul\":781:900   */\n  iszero\n  tag_34\n  jumpi\n    /* \"#utility.yul\":819:898   */\n  tag_35\n  tag_16\n  jump\t// in\ntag_35:\n    /* \"#utility.yul\":781:900   */\ntag_34:\n    /* \"#utility.yul\":939:940   */\n  0x00\n    /* \"#utility.yul\":964:1028   */\n  tag_36\n    /* \"#utility.yul\":1020:1027   */\n  dup5\n    /* \"#utility.yul\":1011:1017   */\n  dup3\n    /* \"#utility.yul\":1000:1009   */\n  dup6\n    /* \"#utility.yul\":996:1018   */\n  add\n    /* \"#utility.yul\":964:1028   */\n  tag_20\n  jump\t// in\ntag_36:\n    /* \"#utility.yul\":954:1028   */\n  swap2\n  pop\n    /* \"#utility.yul\":910:1038   */\n  pop\n    /* \"#utility.yul\":694:1045   */\n  swap3\n  swap2\n  pop\n  pop\n  jump\t// out\n    /* \"#utility.yul\":1051:1231   */\ntag_21:\n    /* \"#utility.yul\":1099:1176   */\n  0x4e487b7100000000000000000000000000000000000000000000000000000000\n    /* \"#utility.yul\":1096:1097   */\n  0x00\n    /* \"#utility.yul\":1089:1177   */\n  mstore\n    /* \"#utility.yul\":1196:1200   */\n  0x11\n    /* \"#utility.yul\":1193:1194   */\n  0x04\n    /* \"#utility.yul\":1186:1201   */\n  mstore\n    /* \"#utility.yul\":1220:1224   */\n  0x24\n    /* \"#utility.yul\":1217:1218   */\n  0x00\n    /* \"#utility.yul\":1210:1225   */\n  revert\n    /* \"#utility.yul\":1237:1428   */\ntag_11:\n    /* \"#utility.yul\":1277:1280   */\n  0x00\n    /* \"#utility.yul\":1296:1316   */\n  tag_39\n    /* \"#utility.yul\":1314:1315   */\n  dup3\n    /* \"#utility.yul\":1296:1316   */\n  tag_18\n  jump\t// in\ntag_39:\n    /* \"#utility.yul\":1291:1316   */\n  swap2\n  pop\n    /* \"#utility.yul\":1330:1350   */\n  tag_40\n    /* \"#utility.yul\":1348:1349   */\n  dup4\n    /* \"#utility.yul\":1330:1350   */\n  tag_18\n  jump\t// in\ntag_40:\n    /* \"#utility.yul\":1325:1350   */\n  swap3\n  pop\n    /* \"#utility.yul\":1373:1374   */\n  dup3\n    /* \"#utility.yul\":1370:1371   */\n  dup3\n    /* \"#utility.yul\":1366:1375   */\n  add\n    /* \"#utility.yul\":1359:1375   */\n  swap1\n  pop\n    /* \"#utility.yul\":1394:1397   */\n  dup1\n    /* \"#utility.yul\":1391:1392   */\n  dup3\n    /* \"#utility.yul\":1388:1398   */\n  gt\n    /* \"#utility.yul\":1385:1421   */\n  iszero\n  tag_41\n  jumpi\n    /* \"#utility.yul\":1401:1419   */\n  tag_42\n  tag_21\n  jump\t// in\ntag_42:\n    /* \"#utility.yul\":1385:1421   */\ntag_41:\n    /* \"#utility.yul\":1237:1428   */\n  swap3\n  swap2\n  pop\n  pop\n  jump\t// out\n    /* \"#utility.yul\":1434:1552   */\ntag_22:\n    /* \"#utility.yul\":1521:1545   */\n  tag_44\n    /* \"#utility.yul\":1539:1544   */\n  dup2\n    /* \"#utility.yul\":1521:1545   */\n  tag_18\n  jump\t// in\ntag_44:\n    /* \"#utility.yul\":1516:1519   */\n  dup3\n    /* \"#utility.yul\":1509:1546   */\n  mstore\n    /* \"#utility.yul\":1434:1552   */\n  pop\n  pop\n  jump\t// out\n    /* \"#utility.yul\":1558:1780   */\ntag_14:\n    /* \"#utility.yul\":1651:1655   */\n  0x00\n    /* \"#utility.yul\":1689:1691   */\n  0x20\n    /* \"#utility.yul\":1678:1687   */\n  dup3\n    /* \"#utility.yul\":1674:1692   */\n  add\n    /* \"#utility.yul\":1666:1692   */\n  swap1\n  pop\n    /* \"#utility.yul\":1702:1773   */\n  tag_46\n    /* \"#utility.yul\":1770:1771   */\n  0x00\n    /* \"#utility.yul\":1759:1768   */\n  dup4\n    /* \"#utility.yul\":1755:1772   */\n  add\n    /* \"#utility.yul\":1746:1752   */\n  dup5\n    /* \"#utility.yul\":1702:1773   */\n  tag_22\n  jump\t// in\ntag_46:\n    /* \"#utility.yul\":1558:1780   */\n  swap3\n  swap2\n  pop\n  pop\n  jump\t// out\n    /* \"GitHub/MCS-School-Team/Project-Donat/ethereum/contracts/ERC20.sol\":96:2073  contract ERC20 is IERC20 {... */\ntag_8:\n  dataSize(sub_0)\n  dup1\n  dataOffset(sub_0)\n  0x00\n  codecopy\n  0x00\n  return\nstop\n\nsub_0: assembly {\n        /* \"GitHub/MCS-School-Team/Project-Donat/ethereum/contracts/ERC20.sol\":96:2073  contract ERC20 is IERC20 {... */\n      mstore(0x40, 0x80)\n      callvalue\n      dup1\n      iszero\n      tag_1\n      jumpi\n      0x00\n      dup1\n      revert\n    tag_1:\n      pop\n      jumpi(tag_2, lt(calldatasize, 0x04))\n      shr(0xe0, calldataload(0x00))\n      dup1\n      0x42966c68\n      gt\n      tag_12\n      jumpi\n      dup1\n      0x42966c68\n      eq\n      tag_7\n      jumpi\n      dup1\n      0x70a08231\n      eq\n      tag_8\n      jumpi\n      dup1\n      0xa0712d68\n      eq\n      tag_9\n      jumpi\n      dup1\n      0xa9059cbb\n      eq\n      tag_10\n      jumpi\n      dup1\n      0xdd62ed3e\n      eq\n      tag_11\n      jumpi\n      jump(tag_2)\n    tag_12:\n      dup1\n      0x095ea7b3\n      eq\n      tag_3\n      jumpi\n      dup1\n      0x18160ddd\n      eq\n      tag_4\n      jumpi\n      dup1\n      0x23b872dd\n      eq\n      tag_5\n      jumpi\n      dup1\n      0x313ce567\n      eq\n      tag_6\n      jumpi\n    tag_2:\n      0x00\n      dup1\n      revert\n        /* \"GitHub/MCS-School-Team/Project-Donat/ethereum/contracts/ERC20.sol\":1211:1379  function approve(address spender, uint amount) external {... */\n    tag_3:\n      tag_13\n      0x04\n      dup1\n      calldatasize\n      sub\n      dup2\n      add\n      swap1\n      tag_14\n      swap2\n      swap1\n      tag_15\n      jump\t// in\n    tag_14:\n      tag_16\n      jump\t// in\n    tag_13:\n      stop\n        /* \"GitHub/MCS-School-Team/Project-Donat/ethereum/contracts/ERC20.sol\":646:736  function totalSupply() public view returns (uint256) {... */\n    tag_4:\n      tag_17\n      tag_18\n      jump\t// in\n    tag_17:\n      mload(0x40)\n      tag_19\n      swap2\n      swap1\n      tag_20\n      jump\t// in\n    tag_19:\n      mload(0x40)\n      dup1\n      swap2\n      sub\n      swap1\n      return\n        /* \"GitHub/MCS-School-Team/Project-Donat/ethereum/contracts/ERC20.sol\":1385:1681  function transferFrom(address sender, address recipient, uint amount) public enoughTokens(msg.sender, amount) {... */\n    tag_5:\n      tag_21\n      0x04\n      dup1\n      calldatasize\n      sub\n      dup2\n      add\n      swap1\n      tag_22\n      swap2\n      swap1\n      tag_23\n      jump\t// in\n    tag_22:\n      tag_24\n      jump\t// in\n    tag_21:\n      stop\n        /* \"GitHub/MCS-School-Team/Project-Donat/ethereum/contracts/ERC20.sol\":567:640  function decimals() public pure returns(uint) {... */\n    tag_6:\n      tag_25\n      tag_26\n      jump\t// in\n    tag_25:\n      mload(0x40)\n      tag_27\n      swap2\n      swap1\n      tag_20\n      jump\t// in\n    tag_27:\n      mload(0x40)\n      dup1\n      swap2\n      sub\n      swap1\n      return\n        /* \"GitHub/MCS-School-Team/Project-Donat/ethereum/contracts/ERC20.sol\":1864:2070  function burn(uint amount) external enoughTokens(msg.sender, amount) {... */\n    tag_7:\n      tag_28\n      0x04\n      dup1\n      calldatasize\n      sub\n      dup2\n      add\n      swap1\n      tag_29\n      swap2\n      swap1\n      tag_30\n      jump\t// in\n    tag_29:\n      tag_31\n      jump\t// in\n    tag_28:\n      stop\n        /* \"GitHub/MCS-School-Team/Project-Donat/ethereum/contracts/ERC20.sol\":742:847  function balanceOf(address account) public view returns(uint) {... */\n    tag_8:\n      tag_32\n      0x04\n      dup1\n      calldatasize\n      sub\n      dup2\n      add\n      swap1\n      tag_33\n      swap2\n      swap1\n      tag_34\n      jump\t// in\n    tag_33:\n      tag_35\n      jump\t// in\n    tag_32:\n      mload(0x40)\n      tag_36\n      swap2\n      swap1\n      tag_20\n      jump\t// in\n    tag_36:\n      mload(0x40)\n      dup1\n      swap2\n      sub\n      swap1\n      return\n        /* \"GitHub/MCS-School-Team/Project-Donat/ethereum/contracts/ERC20.sol\":1687:1858  function mint(uint amount) public {... */\n    tag_9:\n      tag_37\n      0x04\n      dup1\n      calldatasize\n      sub\n      dup2\n      add\n      swap1\n      tag_38\n      swap2\n      swap1\n      tag_30\n      jump\t// in\n    tag_38:\n      tag_39\n      jump\t// in\n    tag_37:\n      stop\n        /* \"GitHub/MCS-School-Team/Project-Donat/ethereum/contracts/ERC20.sol\":853:1068  function transfer(address to, uint amount) external enoughTokens(msg.sender, amount) {... */\n    tag_10:\n      tag_40\n      0x04\n      dup1\n      calldatasize\n      sub\n      dup2\n      add\n      swap1\n      tag_41\n      swap2\n      swap1\n      tag_15\n      jump\t// in\n    tag_41:\n      tag_42\n      jump\t// in\n    tag_40:\n      stop\n        /* \"GitHub/MCS-School-Team/Project-Donat/ethereum/contracts/ERC20.sol\":1074:1205  function allowance(address owner, address spender) external view returns(uint) {... */\n    tag_11:\n      tag_43\n      0x04\n      dup1\n      calldatasize\n      sub\n      dup2\n      add\n      swap1\n      tag_44\n      swap2\n      swap1\n      tag_45\n      jump\t// in\n    tag_44:\n      tag_46\n      jump\t// in\n    tag_43:\n      mload(0x40)\n      tag_47\n      swap2\n      swap1\n      tag_20\n      jump\t// in\n    tag_47:\n      mload(0x40)\n      dup1\n      swap2\n      sub\n      swap1\n      return\n        /* \"GitHub/MCS-School-Team/Project-Donat/ethereum/contracts/ERC20.sol\":1211:1379  function approve(address spender, uint amount) external {... */\n    tag_16:\n        /* \"GitHub/MCS-School-Team/Project-Donat/ethereum/contracts/ERC20.sol\":1312:1318  amount */\n      dup1\n        /* \"GitHub/MCS-School-Team/Project-Donat/ethereum/contracts/ERC20.sol\":1278:1288  allowances */\n      0x02\n        /* \"GitHub/MCS-School-Team/Project-Donat/ethereum/contracts/ERC20.sol\":1278:1300  allowances[msg.sender] */\n      0x00\n        /* \"GitHub/MCS-School-Team/Project-Donat/ethereum/contracts/ERC20.sol\":1289:1299  msg.sender */\n      caller\n        /* \"GitHub/MCS-School-Team/Project-Donat/ethereum/contracts/ERC20.sol\":1278:1300  allowances[msg.sender] */\n      0xffffffffffffffffffffffffffffffffffffffff\n      and\n      0xffffffffffffffffffffffffffffffffffffffff\n      and\n      dup2\n      mstore\n      0x20\n      add\n      swap1\n      dup2\n      mstore\n      0x20\n      add\n      0x00\n      keccak256\n        /* \"GitHub/MCS-School-Team/Project-Donat/ethereum/contracts/ERC20.sol\":1278:1309  allowances[msg.sender][spender] */\n      0x00\n        /* \"GitHub/MCS-School-Team/Project-Donat/ethereum/contracts/ERC20.sol\":1301:1308  spender */\n      dup5\n        /* \"GitHub/MCS-School-Team/Project-Donat/ethereum/contracts/ERC20.sol\":1278:1309  allowances[msg.sender][spender] */\n      0xffffffffffffffffffffffffffffffffffffffff\n      and\n      0xffffffffffffffffffffffffffffffffffffffff\n      and\n      dup2\n      mstore\n      0x20\n      add\n      swap1\n      dup2\n      mstore\n      0x20\n      add\n      0x00\n      keccak256\n        /* \"GitHub/MCS-School-Team/Project-Donat/ethereum/contracts/ERC20.sol\":1278:1318  allowances[msg.sender][spender] = amount */\n      dup2\n      swap1\n      sstore\n      pop\n        /* \"GitHub/MCS-School-Team/Project-Donat/ethereum/contracts/ERC20.sol\":1355:1362  spender */\n      dup2\n        /* \"GitHub/MCS-School-Team/Project-Donat/ethereum/contracts/ERC20.sol\":1334:1371  Approval(msg.sender, spender, amount) */\n      0xffffffffffffffffffffffffffffffffffffffff\n      and\n        /* \"GitHub/MCS-School-Team/Project-Donat/ethereum/contracts/ERC20.sol\":1343:1353  msg.sender */\n      caller\n        /* \"GitHub/MCS-School-Team/Project-Donat/ethereum/contracts/ERC20.sol\":1334:1371  Approval(msg.sender, spender, amount) */\n      0xffffffffffffffffffffffffffffffffffffffff\n      and\n      0x8c5be1e5ebec7d5bd14f71427d1e84f3dd0314c0f7b2291e5b200ac8c7c3b925\n        /* \"GitHub/MCS-School-Team/Project-Donat/ethereum/contracts/ERC20.sol\":1364:1370  amount */\n      dup4\n        /* \"GitHub/MCS-School-Team/Project-Donat/ethereum/contracts/ERC20.sol\":1334:1371  Approval(msg.sender, spender, amount) */\n      mload(0x40)\n      tag_49\n      swap2\n      swap1\n      tag_20\n      jump\t// in\n    tag_49:\n      mload(0x40)\n      dup1\n      swap2\n      sub\n      swap1\n      log3\n        /* \"GitHub/MCS-School-Team/Project-Donat/ethereum/contracts/ERC20.sol\":1211:1379  function approve(address spender, uint amount) external {... */\n      pop\n      pop\n      jump\t// out\n        /* \"GitHub/MCS-School-Team/Project-Donat/ethereum/contracts/ERC20.sol\":646:736  function totalSupply() public view returns (uint256) {... */\n    tag_18:\n        /* \"GitHub/MCS-School-Team/Project-Donat/ethereum/contracts/ERC20.sol\":690:697  uint256 */\n      0x00\n        /* \"GitHub/MCS-School-Team/Project-Donat/ethereum/contracts/ERC20.sol\":717:728  totalTokens */\n      dup1\n      sload\n        /* \"GitHub/MCS-School-Team/Project-Donat/ethereum/contracts/ERC20.sol\":710:728  return totalTokens */\n      swap1\n      pop\n        /* \"GitHub/MCS-School-Team/Project-Donat/ethereum/contracts/ERC20.sol\":646:736  function totalSupply() public view returns (uint256) {... */\n      swap1\n      jump\t// out\n        /* \"GitHub/MCS-School-Team/Project-Donat/ethereum/contracts/ERC20.sol\":1385:1681  function transferFrom(address sender, address recipient, uint amount) public enoughTokens(msg.sender, amount) {... */\n    tag_24:\n        /* \"GitHub/MCS-School-Team/Project-Donat/ethereum/contracts/ERC20.sol\":1475:1485  msg.sender */\n      caller\n        /* \"GitHub/MCS-School-Team/Project-Donat/ethereum/contracts/ERC20.sol\":1487:1493  amount */\n      dup2\n        /* \"GitHub/MCS-School-Team/Project-Donat/ethereum/contracts/ERC20.sol\":489:496  _amount */\n      dup1\n        /* \"GitHub/MCS-School-Team/Project-Donat/ethereum/contracts/ERC20.sol\":469:485  balanceOf(_from) */\n      tag_52\n        /* \"GitHub/MCS-School-Team/Project-Donat/ethereum/contracts/ERC20.sol\":479:484  _from */\n      dup4\n        /* \"GitHub/MCS-School-Team/Project-Donat/ethereum/contracts/ERC20.sol\":469:478  balanceOf */\n      tag_35\n        /* \"GitHub/MCS-School-Team/Project-Donat/ethereum/contracts/ERC20.sol\":469:485  balanceOf(_from) */\n      jump\t// in\n    tag_52:\n        /* \"GitHub/MCS-School-Team/Project-Donat/ethereum/contracts/ERC20.sol\":469:496  balanceOf(_from) >= _amount */\n      lt\n      iszero\n        /* \"GitHub/MCS-School-Team/Project-Donat/ethereum/contracts/ERC20.sol\":461:519  require(balanceOf(_from) >= _amount, \"Not enough tokens!\") */\n      tag_53\n      jumpi\n      mload(0x40)\n      0x08c379a000000000000000000000000000000000000000000000000000000000\n      dup2\n      mstore\n      0x04\n      add\n      tag_54\n      swap1\n      tag_55\n      jump\t// in\n    tag_54:\n      mload(0x40)\n      dup1\n      swap2\n      sub\n      swap1\n      revert\n    tag_53:\n        /* \"GitHub/MCS-School-Team/Project-Donat/ethereum/contracts/ERC20.sol\":1539:1545  amount */\n      dup3\n        /* \"GitHub/MCS-School-Team/Project-Donat/ethereum/contracts/ERC20.sol\":1506:1516  allowances */\n      0x02\n        /* \"GitHub/MCS-School-Team/Project-Donat/ethereum/contracts/ERC20.sol\":1506:1524  allowances[sender] */\n      0x00\n        /* \"GitHub/MCS-School-Team/Project-Donat/ethereum/contracts/ERC20.sol\":1517:1523  sender */\n      dup8\n        /* \"GitHub/MCS-School-Team/Project-Donat/ethereum/contracts/ERC20.sol\":1506:1524  allowances[sender] */\n      0xffffffffffffffffffffffffffffffffffffffff\n      and\n      0xffffffffffffffffffffffffffffffffffffffff\n      and\n      dup2\n      mstore\n      0x20\n      add\n      swap1\n      dup2\n      mstore\n      0x20\n      add\n      0x00\n      keccak256\n        /* \"GitHub/MCS-School-Team/Project-Donat/ethereum/contracts/ERC20.sol\":1506:1535  allowances[sender][recipient] */\n      0x00\n        /* \"GitHub/MCS-School-Team/Project-Donat/ethereum/contracts/ERC20.sol\":1525:1534  recipient */\n      dup7\n        /* \"GitHub/MCS-School-Team/Project-Donat/ethereum/contracts/ERC20.sol\":1506:1535  allowances[sender][recipient] */\n      0xffffffffffffffffffffffffffffffffffffffff\n      and\n      0xffffffffffffffffffffffffffffffffffffffff\n      and\n      dup2\n      mstore\n      0x20\n      add\n      swap1\n      dup2\n      mstore\n      0x20\n      add\n      0x00\n      keccak256\n      0x00\n        /* \"GitHub/MCS-School-Team/Project-Donat/ethereum/contracts/ERC20.sol\":1506:1545  allowances[sender][recipient] -= amount */\n      dup3\n      dup3\n      sload\n      tag_57\n      swap2\n      swap1\n      tag_58\n      jump\t// in\n    tag_57:\n      swap3\n      pop\n      pop\n      dup2\n      swap1\n      sstore\n      pop\n        /* \"GitHub/MCS-School-Team/Project-Donat/ethereum/contracts/ERC20.sol\":1576:1582  amount */\n      dup3\n        /* \"GitHub/MCS-School-Team/Project-Donat/ethereum/contracts/ERC20.sol\":1556:1564  balances */\n      0x01\n        /* \"GitHub/MCS-School-Team/Project-Donat/ethereum/contracts/ERC20.sol\":1556:1572  balances[sender] */\n      0x00\n        /* \"GitHub/MCS-School-Team/Project-Donat/ethereum/contracts/ERC20.sol\":1565:1571  sender */\n      dup8\n        /* \"GitHub/MCS-School-Team/Project-Donat/ethereum/contracts/ERC20.sol\":1556:1572  balances[sender] */\n      0xffffffffffffffffffffffffffffffffffffffff\n      and\n      0xffffffffffffffffffffffffffffffffffffffff\n      and\n      dup2\n      mstore\n      0x20\n      add\n      swap1\n      dup2\n      mstore\n      0x20\n      add\n      0x00\n      keccak256\n      0x00\n        /* \"GitHub/MCS-School-Team/Project-Donat/ethereum/contracts/ERC20.sol\":1556:1582  balances[sender] -= amount */\n      dup3\n      dup3\n      sload\n      tag_59\n      swap2\n      swap1\n      tag_58\n      jump\t// in\n    tag_59:\n      swap3\n      pop\n      pop\n      dup2\n      swap1\n      sstore\n      pop\n        /* \"GitHub/MCS-School-Team/Project-Donat/ethereum/contracts/ERC20.sol\":1616:1622  amount */\n      dup3\n        /* \"GitHub/MCS-School-Team/Project-Donat/ethereum/contracts/ERC20.sol\":1593:1601  balances */\n      0x01\n        /* \"GitHub/MCS-School-Team/Project-Donat/ethereum/contracts/ERC20.sol\":1593:1612  balances[recipient] */\n      0x00\n        /* \"GitHub/MCS-School-Team/Project-Donat/ethereum/contracts/ERC20.sol\":1602:1611  recipient */\n      dup7\n        /* \"GitHub/MCS-School-Team/Project-Donat/ethereum/contracts/ERC20.sol\":1593:1612  balances[recipient] */\n      0xffffffffffffffffffffffffffffffffffffffff\n      and\n      0xffffffffffffffffffffffffffffffffffffffff\n      and\n      dup2\n      mstore\n      0x20\n      add\n      swap1\n      dup2\n      mstore\n      0x20\n      add\n      0x00\n      keccak256\n      0x00\n        /* \"GitHub/MCS-School-Team/Project-Donat/ethereum/contracts/ERC20.sol\":1593:1622  balances[recipient] += amount */\n      dup3\n      dup3\n      sload\n      tag_60\n      swap2\n      swap1\n      tag_61\n      jump\t// in\n    tag_60:\n      swap3\n      pop\n      pop\n      dup2\n      swap1\n      sstore\n      pop\n        /* \"GitHub/MCS-School-Team/Project-Donat/ethereum/contracts/ERC20.sol\":1655:1664  recipient */\n      dup4\n        /* \"GitHub/MCS-School-Team/Project-Donat/ethereum/contracts/ERC20.sol\":1638:1673  Transfer(sender, recipient, amount) */\n      0xffffffffffffffffffffffffffffffffffffffff\n      and\n        /* \"GitHub/MCS-School-Team/Project-Donat/ethereum/contracts/ERC20.sol\":1647:1653  sender */\n      dup6\n        /* \"GitHub/MCS-School-Team/Project-Donat/ethereum/contracts/ERC20.sol\":1638:1673  Transfer(sender, recipient, amount) */\n      0xffffffffffffffffffffffffffffffffffffffff\n      and\n      0xddf252ad1be2c89b69c2b068fc378daa952ba7f163c4a11628f55a4df523b3ef\n        /* \"GitHub/MCS-School-Team/Project-Donat/ethereum/contracts/ERC20.sol\":1666:1672  amount */\n      dup6\n        /* \"GitHub/MCS-School-Team/Project-Donat/ethereum/contracts/ERC20.sol\":1638:1673  Transfer(sender, recipient, amount) */\n      mload(0x40)\n      tag_62\n      swap2\n      swap1\n      tag_20\n      jump\t// in\n    tag_62:\n      mload(0x40)\n      dup1\n      swap2\n      sub\n      swap1\n      log3\n        /* \"GitHub/MCS-School-Team/Project-Donat/ethereum/contracts/ERC20.sol\":1385:1681  function transferFrom(address sender, address recipient, uint amount) public enoughTokens(msg.sender, amount) {... */\n      pop\n      pop\n      pop\n      pop\n      pop\n      jump\t// out\n        /* \"GitHub/MCS-School-Team/Project-Donat/ethereum/contracts/ERC20.sol\":567:640  function decimals() public pure returns(uint) {... */\n    tag_26:\n        /* \"GitHub/MCS-School-Team/Project-Donat/ethereum/contracts/ERC20.sol\":607:611  uint */\n      0x00\n        /* \"GitHub/MCS-School-Team/Project-Donat/ethereum/contracts/ERC20.sol\":567:640  function decimals() public pure returns(uint) {... */\n      swap1\n      jump\t// out\n        /* \"GitHub/MCS-School-Team/Project-Donat/ethereum/contracts/ERC20.sol\":1864:2070  function burn(uint amount) external enoughTokens(msg.sender, amount) {... */\n    tag_31:\n        /* \"GitHub/MCS-School-Team/Project-Donat/ethereum/contracts/ERC20.sol\":1913:1923  msg.sender */\n      caller\n        /* \"GitHub/MCS-School-Team/Project-Donat/ethereum/contracts/ERC20.sol\":1925:1931  amount */\n      dup2\n        /* \"GitHub/MCS-School-Team/Project-Donat/ethereum/contracts/ERC20.sol\":489:496  _amount */\n      dup1\n        /* \"GitHub/MCS-School-Team/Project-Donat/ethereum/contracts/ERC20.sol\":469:485  balanceOf(_from) */\n      tag_65\n        /* \"GitHub/MCS-School-Team/Project-Donat/ethereum/contracts/ERC20.sol\":479:484  _from */\n      dup4\n        /* \"GitHub/MCS-School-Team/Project-Donat/ethereum/contracts/ERC20.sol\":469:478  balanceOf */\n      tag_35\n        /* \"GitHub/MCS-School-Team/Project-Donat/ethereum/contracts/ERC20.sol\":469:485  balanceOf(_from) */\n      jump\t// in\n    tag_65:\n        /* \"GitHub/MCS-School-Team/Project-Donat/ethereum/contracts/ERC20.sol\":469:496  balanceOf(_from) >= _amount */\n      lt\n      iszero\n        /* \"GitHub/MCS-School-Team/Project-Donat/ethereum/contracts/ERC20.sol\":461:519  require(balanceOf(_from) >= _amount, \"Not enough tokens!\") */\n      tag_66\n      jumpi\n      mload(0x40)\n      0x08c379a000000000000000000000000000000000000000000000000000000000\n      dup2\n      mstore\n      0x04\n      add\n      tag_67\n      swap1\n      tag_55\n      jump\t// in\n    tag_67:\n      mload(0x40)\n      dup1\n      swap2\n      sub\n      swap1\n      revert\n    tag_66:\n        /* \"GitHub/MCS-School-Team/Project-Donat/ethereum/contracts/ERC20.sol\":1968:1974  amount */\n      dup3\n        /* \"GitHub/MCS-School-Team/Project-Donat/ethereum/contracts/ERC20.sol\":1944:1952  balances */\n      0x01\n        /* \"GitHub/MCS-School-Team/Project-Donat/ethereum/contracts/ERC20.sol\":1944:1964  balances[msg.sender] */\n      0x00\n        /* \"GitHub/MCS-School-Team/Project-Donat/ethereum/contracts/ERC20.sol\":1953:1963  msg.sender */\n      caller\n        /* \"GitHub/MCS-School-Team/Project-Donat/ethereum/contracts/ERC20.sol\":1944:1964  balances[msg.sender] */\n      0xffffffffffffffffffffffffffffffffffffffff\n      and\n      0xffffffffffffffffffffffffffffffffffffffff\n      and\n      dup2\n      mstore\n      0x20\n      add\n      swap1\n      dup2\n      mstore\n      0x20\n      add\n      0x00\n      keccak256\n      0x00\n        /* \"GitHub/MCS-School-Team/Project-Donat/ethereum/contracts/ERC20.sol\":1944:1974  balances[msg.sender] -= amount */\n      dup3\n      dup3\n      sload\n      tag_69\n      swap2\n      swap1\n      tag_58\n      jump\t// in\n    tag_69:\n      swap3\n      pop\n      pop\n      dup2\n      swap1\n      sstore\n      pop\n        /* \"GitHub/MCS-School-Team/Project-Donat/ethereum/contracts/ERC20.sol\":2000:2006  amount */\n      dup3\n        /* \"GitHub/MCS-School-Team/Project-Donat/ethereum/contracts/ERC20.sol\":1985:1996  totalTokens */\n      0x00\n      dup1\n        /* \"GitHub/MCS-School-Team/Project-Donat/ethereum/contracts/ERC20.sol\":1985:2006  totalTokens -= amount */\n      dup3\n      dup3\n      sload\n      tag_70\n      swap2\n      swap1\n      tag_58\n      jump\t// in\n    tag_70:\n      swap3\n      pop\n      pop\n      dup2\n      swap1\n      sstore\n      pop\n        /* \"GitHub/MCS-School-Team/Project-Donat/ethereum/contracts/ERC20.sol\":2051:2052  0 */\n      0x00\n        /* \"GitHub/MCS-School-Team/Project-Donat/ethereum/contracts/ERC20.sol\":2022:2062  Transfer(msg.sender, address(0), amount) */\n      0xffffffffffffffffffffffffffffffffffffffff\n      and\n        /* \"GitHub/MCS-School-Team/Project-Donat/ethereum/contracts/ERC20.sol\":2031:2041  msg.sender */\n      caller\n        /* \"GitHub/MCS-School-Team/Project-Donat/ethereum/contracts/ERC20.sol\":2022:2062  Transfer(msg.sender, address(0), amount) */\n      0xffffffffffffffffffffffffffffffffffffffff\n      and\n      0xddf252ad1be2c89b69c2b068fc378daa952ba7f163c4a11628f55a4df523b3ef\n        /* \"GitHub/MCS-School-Team/Project-Donat/ethereum/contracts/ERC20.sol\":2055:2061  amount */\n      dup6\n        /* \"GitHub/MCS-School-Team/Project-Donat/ethereum/contracts/ERC20.sol\":2022:2062  Transfer(msg.sender, address(0), amount) */\n      mload(0x40)\n      tag_71\n      swap2\n      swap1\n      tag_20\n      jump\t// in\n    tag_71:\n      mload(0x40)\n      dup1\n      swap2\n      sub\n      swap1\n      log3\n        /* \"GitHub/MCS-School-Team/Project-Donat/ethereum/contracts/ERC20.sol\":1864:2070  function burn(uint amount) external enoughTokens(msg.sender, amount) {... */\n      pop\n      pop\n      pop\n      jump\t// out\n        /* \"GitHub/MCS-School-Team/Project-Donat/ethereum/contracts/ERC20.sol\":742:847  function balanceOf(address account) public view returns(uint) {... */\n    tag_35:\n        /* \"GitHub/MCS-School-Team/Project-Donat/ethereum/contracts/ERC20.sol\":798:802  uint */\n      0x00\n        /* \"GitHub/MCS-School-Team/Project-Donat/ethereum/contracts/ERC20.sol\":822:830  balances */\n      0x01\n        /* \"GitHub/MCS-School-Team/Project-Donat/ethereum/contracts/ERC20.sol\":822:839  balances[account] */\n      0x00\n        /* \"GitHub/MCS-School-Team/Project-Donat/ethereum/contracts/ERC20.sol\":831:838  account */\n      dup4\n        /* \"GitHub/MCS-School-Team/Project-Donat/ethereum/contracts/ERC20.sol\":822:839  balances[account] */\n      0xffffffffffffffffffffffffffffffffffffffff\n      and\n      0xffffffffffffffffffffffffffffffffffffffff\n      and\n      dup2\n      mstore\n      0x20\n      add\n      swap1\n      dup2\n      mstore\n      0x20\n      add\n      0x00\n      keccak256\n      sload\n        /* \"GitHub/MCS-School-Team/Project-Donat/ethereum/contracts/ERC20.sol\":815:839  return balances[account] */\n      swap1\n      pop\n        /* \"GitHub/MCS-School-Team/Project-Donat/ethereum/contracts/ERC20.sol\":742:847  function balanceOf(address account) public view returns(uint) {... */\n      swap2\n      swap1\n      pop\n      jump\t// out\n        /* \"GitHub/MCS-School-Team/Project-Donat/ethereum/contracts/ERC20.sol\":1687:1858  function mint(uint amount) public {... */\n    tag_39:\n        /* \"GitHub/MCS-School-Team/Project-Donat/ethereum/contracts/ERC20.sol\":1756:1762  amount */\n      dup1\n        /* \"GitHub/MCS-School-Team/Project-Donat/ethereum/contracts/ERC20.sol\":1732:1740  balances */\n      0x01\n        /* \"GitHub/MCS-School-Team/Project-Donat/ethereum/contracts/ERC20.sol\":1732:1752  balances[msg.sender] */\n      0x00\n        /* \"GitHub/MCS-School-Team/Project-Donat/ethereum/contracts/ERC20.sol\":1741:1751  msg.sender */\n      caller\n        /* \"GitHub/MCS-School-Team/Project-Donat/ethereum/contracts/ERC20.sol\":1732:1752  balances[msg.sender] */\n      0xffffffffffffffffffffffffffffffffffffffff\n      and\n      0xffffffffffffffffffffffffffffffffffffffff\n      and\n      dup2\n      mstore\n      0x20\n      add\n      swap1\n      dup2\n      mstore\n      0x20\n      add\n      0x00\n      keccak256\n      0x00\n        /* \"GitHub/MCS-School-Team/Project-Donat/ethereum/contracts/ERC20.sol\":1732:1762  balances[msg.sender] += amount */\n      dup3\n      dup3\n      sload\n      tag_74\n      swap2\n      swap1\n      tag_61\n      jump\t// in\n    tag_74:\n      swap3\n      pop\n      pop\n      dup2\n      swap1\n      sstore\n      pop\n        /* \"GitHub/MCS-School-Team/Project-Donat/ethereum/contracts/ERC20.sol\":1788:1794  amount */\n      dup1\n        /* \"GitHub/MCS-School-Team/Project-Donat/ethereum/contracts/ERC20.sol\":1773:1784  totalTokens */\n      0x00\n      dup1\n        /* \"GitHub/MCS-School-Team/Project-Donat/ethereum/contracts/ERC20.sol\":1773:1794  totalTokens += amount */\n      dup3\n      dup3\n      sload\n      tag_75\n      swap2\n      swap1\n      tag_61\n      jump\t// in\n    tag_75:\n      swap3\n      pop\n      pop\n      dup2\n      swap1\n      sstore\n      pop\n        /* \"GitHub/MCS-School-Team/Project-Donat/ethereum/contracts/ERC20.sol\":1831:1841  msg.sender */\n      caller\n        /* \"GitHub/MCS-School-Team/Project-Donat/ethereum/contracts/ERC20.sol\":1810:1850  Transfer(address(0), msg.sender, amount) */\n      0xffffffffffffffffffffffffffffffffffffffff\n      and\n        /* \"GitHub/MCS-School-Team/Project-Donat/ethereum/contracts/ERC20.sol\":1827:1828  0 */\n      0x00\n        /* \"GitHub/MCS-School-Team/Project-Donat/ethereum/contracts/ERC20.sol\":1810:1850  Transfer(address(0), msg.sender, amount) */\n      0xffffffffffffffffffffffffffffffffffffffff\n      and\n      0xddf252ad1be2c89b69c2b068fc378daa952ba7f163c4a11628f55a4df523b3ef\n        /* \"GitHub/MCS-School-Team/Project-Donat/ethereum/contracts/ERC20.sol\":1843:1849  amount */\n      dup4\n        /* \"GitHub/MCS-School-Team/Project-Donat/ethereum/contracts/ERC20.sol\":1810:1850  Transfer(address(0), msg.sender, amount) */\n      mload(0x40)\n      tag_76\n      swap2\n      swap1\n      tag_20\n      jump\t// in\n    tag_76:\n      mload(0x40)\n      dup1\n      swap2\n      sub\n      swap1\n      log3\n        /* \"GitHub/MCS-School-Team/Project-Donat/ethereum/contracts/ERC20.sol\":1687:1858  function mint(uint amount) public {... */\n      pop\n      jump\t// out\n        /* \"GitHub/MCS-School-Team/Project-Donat/ethereum/contracts/ERC20.sol\":853:1068  function transfer(address to, uint amount) external enoughTokens(msg.sender, amount) {... */\n    tag_42:\n        /* \"GitHub/MCS-School-Team/Project-Donat/ethereum/contracts/ERC20.sol\":918:928  msg.sender */\n      caller\n        /* \"GitHub/MCS-School-Team/Project-Donat/ethereum/contracts/ERC20.sol\":930:936  amount */\n      dup2\n        /* \"GitHub/MCS-School-Team/Project-Donat/ethereum/contracts/ERC20.sol\":489:496  _amount */\n      dup1\n        /* \"GitHub/MCS-School-Team/Project-Donat/ethereum/contracts/ERC20.sol\":469:485  balanceOf(_from) */\n      tag_78\n        /* \"GitHub/MCS-School-Team/Project-Donat/ethereum/contracts/ERC20.sol\":479:484  _from */\n      dup4\n        /* \"GitHub/MCS-School-Team/Project-Donat/ethereum/contracts/ERC20.sol\":469:478  balanceOf */\n      tag_35\n        /* \"GitHub/MCS-School-Team/Project-Donat/ethereum/contracts/ERC20.sol\":469:485  balanceOf(_from) */\n      jump\t// in\n    tag_78:\n        /* \"GitHub/MCS-School-Team/Project-Donat/ethereum/contracts/ERC20.sol\":469:496  balanceOf(_from) >= _amount */\n      lt\n      iszero\n        /* \"GitHub/MCS-School-Team/Project-Donat/ethereum/contracts/ERC20.sol\":461:519  require(balanceOf(_from) >= _amount, \"Not enough tokens!\") */\n      tag_79\n      jumpi\n      mload(0x40)\n      0x08c379a000000000000000000000000000000000000000000000000000000000\n      dup2\n      mstore\n      0x04\n      add\n      tag_80\n      swap1\n      tag_55\n      jump\t// in\n    tag_80:\n      mload(0x40)\n      dup1\n      swap2\n      sub\n      swap1\n      revert\n    tag_79:\n        /* \"GitHub/MCS-School-Team/Project-Donat/ethereum/contracts/ERC20.sol\":973:979  amount */\n      dup3\n        /* \"GitHub/MCS-School-Team/Project-Donat/ethereum/contracts/ERC20.sol\":949:957  balances */\n      0x01\n        /* \"GitHub/MCS-School-Team/Project-Donat/ethereum/contracts/ERC20.sol\":949:969  balances[msg.sender] */\n      0x00\n        /* \"GitHub/MCS-School-Team/Project-Donat/ethereum/contracts/ERC20.sol\":958:968  msg.sender */\n      caller\n        /* \"GitHub/MCS-School-Team/Project-Donat/ethereum/contracts/ERC20.sol\":949:969  balances[msg.sender] */\n      0xffffffffffffffffffffffffffffffffffffffff\n      and\n      0xffffffffffffffffffffffffffffffffffffffff\n      and\n      dup2\n      mstore\n      0x20\n      add\n      swap1\n      dup2\n      mstore\n      0x20\n      add\n      0x00\n      keccak256\n      0x00\n        /* \"GitHub/MCS-School-Team/Project-Donat/ethereum/contracts/ERC20.sol\":949:979  balances[msg.sender] -= amount */\n      dup3\n      dup3\n      sload\n      tag_82\n      swap2\n      swap1\n      tag_58\n      jump\t// in\n    tag_82:\n      swap3\n      pop\n      pop\n      dup2\n      swap1\n      sstore\n      pop\n        /* \"GitHub/MCS-School-Team/Project-Donat/ethereum/contracts/ERC20.sol\":1006:1012  amount */\n      dup3\n        /* \"GitHub/MCS-School-Team/Project-Donat/ethereum/contracts/ERC20.sol\":990:998  balances */\n      0x01\n        /* \"GitHub/MCS-School-Team/Project-Donat/ethereum/contracts/ERC20.sol\":990:1002  balances[to] */\n      0x00\n        /* \"GitHub/MCS-School-Team/Project-Donat/ethereum/contracts/ERC20.sol\":999:1001  to */\n      dup7\n        /* \"GitHub/MCS-School-Team/Project-Donat/ethereum/contracts/ERC20.sol\":990:1002  balances[to] */\n      0xffffffffffffffffffffffffffffffffffffffff\n      and\n      0xffffffffffffffffffffffffffffffffffffffff\n      and\n      dup2\n      mstore\n      0x20\n      add\n      swap1\n      dup2\n      mstore\n      0x20\n      add\n      0x00\n      keccak256\n      0x00\n        /* \"GitHub/MCS-School-Team/Project-Donat/ethereum/contracts/ERC20.sol\":990:1012  balances[to] += amount */\n      dup3\n      dup3\n      sload\n      tag_83\n      swap2\n      swap1\n      tag_61\n      jump\t// in\n    tag_83:\n      swap3\n      pop\n      pop\n      dup2\n      swap1\n      sstore\n      pop\n        /* \"GitHub/MCS-School-Team/Project-Donat/ethereum/contracts/ERC20.sol\":1049:1051  to */\n      dup4\n        /* \"GitHub/MCS-School-Team/Project-Donat/ethereum/contracts/ERC20.sol\":1028:1060  Transfer(msg.sender, to, amount) */\n      0xffffffffffffffffffffffffffffffffffffffff\n      and\n        /* \"GitHub/MCS-School-Team/Project-Donat/ethereum/contracts/ERC20.sol\":1037:1047  msg.sender */\n      caller\n        /* \"GitHub/MCS-School-Team/Project-Donat/ethereum/contracts/ERC20.sol\":1028:1060  Transfer(msg.sender, to, amount) */\n      0xffffffffffffffffffffffffffffffffffffffff\n      and\n      0xddf252ad1be2c89b69c2b068fc378daa952ba7f163c4a11628f55a4df523b3ef\n        /* \"GitHub/MCS-School-Team/Project-Donat/ethereum/contracts/ERC20.sol\":1053:1059  amount */\n      dup6\n        /* \"GitHub/MCS-School-Team/Project-Donat/ethereum/contracts/ERC20.sol\":1028:1060  Transfer(msg.sender, to, amount) */\n      mload(0x40)\n      tag_84\n      swap2\n      swap1\n      tag_20\n      jump\t// in\n    tag_84:\n      mload(0x40)\n      dup1\n      swap2\n      sub\n      swap1\n      log3\n        /* \"GitHub/MCS-School-Team/Project-Donat/ethereum/contracts/ERC20.sol\":853:1068  function transfer(address to, uint amount) external enoughTokens(msg.sender, amount) {... */\n      pop\n      pop\n      pop\n      pop\n      jump\t// out\n        /* \"GitHub/MCS-School-Team/Project-Donat/ethereum/contracts/ERC20.sol\":1074:1205  function allowance(address owner, address spender) external view returns(uint) {... */\n    tag_46:\n        /* \"GitHub/MCS-School-Team/Project-Donat/ethereum/contracts/ERC20.sol\":1147:1151  uint */\n      0x00\n        /* \"GitHub/MCS-School-Team/Project-Donat/ethereum/contracts/ERC20.sol\":1171:1181  allowances */\n      0x02\n        /* \"GitHub/MCS-School-Team/Project-Donat/ethereum/contracts/ERC20.sol\":1171:1188  allowances[owner] */\n      0x00\n        /* \"GitHub/MCS-School-Team/Project-Donat/ethereum/contracts/ERC20.sol\":1182:1187  owner */\n      dup5\n        /* \"GitHub/MCS-School-Team/Project-Donat/ethereum/contracts/ERC20.sol\":1171:1188  allowances[owner] */\n      0xffffffffffffffffffffffffffffffffffffffff\n      and\n      0xffffffffffffffffffffffffffffffffffffffff\n      and\n      dup2\n      mstore\n      0x20\n      add\n      swap1\n      dup2\n      mstore\n      0x20\n      add\n      0x00\n      keccak256\n        /* \"GitHub/MCS-School-Team/Project-Donat/ethereum/contracts/ERC20.sol\":1171:1197  allowances[owner][spender] */\n      0x00\n        /* \"GitHub/MCS-School-Team/Project-Donat/ethereum/contracts/ERC20.sol\":1189:1196  spender */\n      dup4\n        /* \"GitHub/MCS-School-Team/Project-Donat/ethereum/contracts/ERC20.sol\":1171:1197  allowances[owner][spender] */\n      0xffffffffffffffffffffffffffffffffffffffff\n      and\n      0xffffffffffffffffffffffffffffffffffffffff\n      and\n      dup2\n      mstore\n      0x20\n      add\n      swap1\n      dup2\n      mstore\n      0x20\n      add\n      0x00\n      keccak256\n      sload\n        /* \"GitHub/MCS-School-Team/Project-Donat/ethereum/contracts/ERC20.sol\":1164:1197  return allowances[owner][spender] */\n      swap1\n      pop\n        /* \"GitHub/MCS-School-Team/Project-Donat/ethereum/contracts/ERC20.sol\":1074:1205  function allowance(address owner, address spender) external view returns(uint) {... */\n      swap3\n      swap2\n      pop\n      pop\n      jump\t// out\n        /* \"#utility.yul\":88:205   */\n    tag_87:\n        /* \"#utility.yul\":197:198   */\n      0x00\n        /* \"#utility.yul\":194:195   */\n      dup1\n        /* \"#utility.yul\":187:199   */\n      revert\n        /* \"#utility.yul\":334:460   */\n    tag_89:\n        /* \"#utility.yul\":371:378   */\n      0x00\n        /* \"#utility.yul\":411:453   */\n      0xffffffffffffffffffffffffffffffffffffffff\n        /* \"#utility.yul\":404:409   */\n      dup3\n        /* \"#utility.yul\":400:454   */\n      and\n        /* \"#utility.yul\":389:454   */\n      swap1\n      pop\n        /* \"#utility.yul\":334:460   */\n      swap2\n      swap1\n      pop\n      jump\t// out\n        /* \"#utility.yul\":466:562   */\n    tag_90:\n        /* \"#utility.yul\":503:510   */\n      0x00\n        /* \"#utility.yul\":532:556   */\n      tag_107\n        /* \"#utility.yul\":550:555   */\n      dup3\n        /* \"#utility.yul\":532:556   */\n      tag_89\n      jump\t// in\n    tag_107:\n        /* \"#utility.yul\":521:556   */\n      swap1\n      pop\n        /* \"#utility.yul\":466:562   */\n      swap2\n      swap1\n      pop\n      jump\t// out\n        /* \"#utility.yul\":568:690   */\n    tag_91:\n        /* \"#utility.yul\":641:665   */\n      tag_109\n        /* \"#utility.yul\":659:664   */\n      dup2\n        /* \"#utility.yul\":641:665   */\n      tag_90\n      jump\t// in\n    tag_109:\n        /* \"#utility.yul\":634:639   */\n      dup2\n        /* \"#utility.yul\":631:666   */\n      eq\n        /* \"#utility.yul\":621:684   */\n      tag_110\n      jumpi\n        /* \"#utility.yul\":680:681   */\n      0x00\n        /* \"#utility.yul\":677:678   */\n      dup1\n        /* \"#utility.yul\":670:682   */\n      revert\n        /* \"#utility.yul\":621:684   */\n    tag_110:\n        /* \"#utility.yul\":568:690   */\n      pop\n      jump\t// out\n        /* \"#utility.yul\":696:835   */\n    tag_92:\n        /* \"#utility.yul\":742:747   */\n      0x00\n        /* \"#utility.yul\":780:786   */\n      dup2\n        /* \"#utility.yul\":767:787   */\n      calldataload\n        /* \"#utility.yul\":758:787   */\n      swap1\n      pop\n        /* \"#utility.yul\":796:829   */\n      tag_112\n        /* \"#utility.yul\":823:828   */\n      dup2\n        /* \"#utility.yul\":796:829   */\n      tag_91\n      jump\t// in\n    tag_112:\n        /* \"#utility.yul\":696:835   */\n      swap3\n      swap2\n      pop\n      pop\n      jump\t// out\n        /* \"#utility.yul\":841:918   */\n    tag_93:\n        /* \"#utility.yul\":878:885   */\n      0x00\n        /* \"#utility.yul\":907:912   */\n      dup2\n        /* \"#utility.yul\":896:912   */\n      swap1\n      pop\n        /* \"#utility.yul\":841:918   */\n      swap2\n      swap1\n      pop\n      jump\t// out\n        /* \"#utility.yul\":924:1046   */\n    tag_94:\n        /* \"#utility.yul\":997:1021   */\n      tag_115\n        /* \"#utility.yul\":1015:1020   */\n      dup2\n        /* \"#utility.yul\":997:1021   */\n      tag_93\n      jump\t// in\n    tag_115:\n        /* \"#utility.yul\":990:995   */\n      dup2\n        /* \"#utility.yul\":987:1022   */\n      eq\n        /* \"#utility.yul\":977:1040   */\n      tag_116\n      jumpi\n        /* \"#utility.yul\":1036:1037   */\n      0x00\n        /* \"#utility.yul\":1033:1034   */\n      dup1\n        /* \"#utility.yul\":1026:1038   */\n      revert\n        /* \"#utility.yul\":977:1040   */\n    tag_116:\n        /* \"#utility.yul\":924:1046   */\n      pop\n      jump\t// out\n        /* \"#utility.yul\":1052:1191   */\n    tag_95:\n        /* \"#utility.yul\":1098:1103   */\n      0x00\n        /* \"#utility.yul\":1136:1142   */\n      dup2\n        /* \"#utility.yul\":1123:1143   */\n      calldataload\n        /* \"#utility.yul\":1114:1143   */\n      swap1\n      pop\n        /* \"#utility.yul\":1152:1185   */\n      tag_118\n        /* \"#utility.yul\":1179:1184   */\n      dup2\n        /* \"#utility.yul\":1152:1185   */\n      tag_94\n      jump\t// in\n    tag_118:\n        /* \"#utility.yul\":1052:1191   */\n      swap3\n      swap2\n      pop\n      pop\n      jump\t// out\n        /* \"#utility.yul\":1197:1671   */\n    tag_15:\n        /* \"#utility.yul\":1265:1271   */\n      0x00\n        /* \"#utility.yul\":1273:1279   */\n      dup1\n        /* \"#utility.yul\":1322:1324   */\n      0x40\n        /* \"#utility.yul\":1310:1319   */\n      dup4\n        /* \"#utility.yul\":1301:1308   */\n      dup6\n        /* \"#utility.yul\":1297:1320   */\n      sub\n        /* \"#utility.yul\":1293:1325   */\n      slt\n        /* \"#utility.yul\":1290:1409   */\n      iszero\n      tag_120\n      jumpi\n        /* \"#utility.yul\":1328:1407   */\n      tag_121\n      tag_87\n      jump\t// in\n    tag_121:\n        /* \"#utility.yul\":1290:1409   */\n    tag_120:\n        /* \"#utility.yul\":1448:1449   */\n      0x00\n        /* \"#utility.yul\":1473:1526   */\n      tag_122\n        /* \"#utility.yul\":1518:1525   */\n      dup6\n        /* \"#utility.yul\":1509:1515   */\n      dup3\n        /* \"#utility.yul\":1498:1507   */\n      dup7\n        /* \"#utility.yul\":1494:1516   */\n      add\n        /* \"#utility.yul\":1473:1526   */\n      tag_92\n      jump\t// in\n    tag_122:\n        /* \"#utility.yul\":1463:1526   */\n      swap3\n      pop\n        /* \"#utility.yul\":1419:1536   */\n      pop\n        /* \"#utility.yul\":1575:1577   */\n      0x20\n        /* \"#utility.yul\":1601:1654   */\n      tag_123\n        /* \"#utility.yul\":1646:1653   */\n      dup6\n        /* \"#utility.yul\":1637:1643   */\n      dup3\n        /* \"#utility.yul\":1626:1635   */\n      dup7\n        /* \"#utility.yul\":1622:1644   */\n      add\n        /* \"#utility.yul\":1601:1654   */\n      tag_95\n      jump\t// in\n    tag_123:\n        /* \"#utility.yul\":1591:1654   */\n      swap2\n      pop\n        /* \"#utility.yul\":1546:1664   */\n      pop\n        /* \"#utility.yul\":1197:1671   */\n      swap3\n      pop\n      swap3\n      swap1\n      pop\n      jump\t// out\n        /* \"#utility.yul\":1677:1795   */\n    tag_96:\n        /* \"#utility.yul\":1764:1788   */\n      tag_125\n        /* \"#utility.yul\":1782:1787   */\n      dup2\n        /* \"#utility.yul\":1764:1788   */\n      tag_93\n      jump\t// in\n    tag_125:\n        /* \"#utility.yul\":1759:1762   */\n      dup3\n        /* \"#utility.yul\":1752:1789   */\n      mstore\n        /* \"#utility.yul\":1677:1795   */\n      pop\n      pop\n      jump\t// out\n        /* \"#utility.yul\":1801:2023   */\n    tag_20:\n        /* \"#utility.yul\":1894:1898   */\n      0x00\n        /* \"#utility.yul\":1932:1934   */\n      0x20\n        /* \"#utility.yul\":1921:1930   */\n      dup3\n        /* \"#utility.yul\":1917:1935   */\n      add\n        /* \"#utility.yul\":1909:1935   */\n      swap1\n      pop\n        /* \"#utility.yul\":1945:2016   */\n      tag_127\n        /* \"#utility.yul\":2013:2014   */\n      0x00\n        /* \"#utility.yul\":2002:2011   */\n      dup4\n        /* \"#utility.yul\":1998:2015   */\n      add\n        /* \"#utility.yul\":1989:1995   */\n      dup5\n        /* \"#utility.yul\":1945:2016   */\n      tag_96\n      jump\t// in\n    tag_127:\n        /* \"#utility.yul\":1801:2023   */\n      swap3\n      swap2\n      pop\n      pop\n      jump\t// out\n        /* \"#utility.yul\":2029:2648   */\n    tag_23:\n        /* \"#utility.yul\":2106:2112   */\n      0x00\n        /* \"#utility.yul\":2114:2120   */\n      dup1\n        /* \"#utility.yul\":2122:2128   */\n      0x00\n        /* \"#utility.yul\":2171:2173   */\n      0x60\n        /* \"#utility.yul\":2159:2168   */\n      dup5\n        /* \"#utility.yul\":2150:2157   */\n      dup7\n        /* \"#utility.yul\":2146:2169   */\n      sub\n        /* \"#utility.yul\":2142:2174   */\n      slt\n        /* \"#utility.yul\":2139:2258   */\n      iszero\n      tag_129\n      jumpi\n        /* \"#utility.yul\":2177:2256   */\n      tag_130\n      tag_87\n      jump\t// in\n    tag_130:\n        /* \"#utility.yul\":2139:2258   */\n    tag_129:\n        /* \"#utility.yul\":2297:2298   */\n      0x00\n        /* \"#utility.yul\":2322:2375   */\n      tag_131\n        /* \"#utility.yul\":2367:2374   */\n      dup7\n        /* \"#utility.yul\":2358:2364   */\n      dup3\n        /* \"#utility.yul\":2347:2356   */\n      dup8\n        /* \"#utility.yul\":2343:2365   */\n      add\n        /* \"#utility.yul\":2322:2375   */\n      tag_92\n      jump\t// in\n    tag_131:\n        /* \"#utility.yul\":2312:2375   */\n      swap4\n      pop\n        /* \"#utility.yul\":2268:2385   */\n      pop\n        /* \"#utility.yul\":2424:2426   */\n      0x20\n        /* \"#utility.yul\":2450:2503   */\n      tag_132\n        /* \"#utility.yul\":2495:2502   */\n      dup7\n        /* \"#utility.yul\":2486:2492   */\n      dup3\n        /* \"#utility.yul\":2475:2484   */\n      dup8\n        /* \"#utility.yul\":2471:2493   */\n      add\n        /* \"#utility.yul\":2450:2503   */\n      tag_92\n      jump\t// in\n    tag_132:\n        /* \"#utility.yul\":2440:2503   */\n      swap3\n      pop\n        /* \"#utility.yul\":2395:2513   */\n      pop\n        /* \"#utility.yul\":2552:2554   */\n      0x40\n        /* \"#utility.yul\":2578:2631   */\n      tag_133\n        /* \"#utility.yul\":2623:2630   */\n      dup7\n        /* \"#utility.yul\":2614:2620   */\n      dup3\n        /* \"#utility.yul\":2603:2612   */\n      dup8\n        /* \"#utility.yul\":2599:2621   */\n      add\n        /* \"#utility.yul\":2578:2631   */\n      tag_95\n      jump\t// in\n    tag_133:\n        /* \"#utility.yul\":2568:2631   */\n      swap2\n      pop\n        /* \"#utility.yul\":2523:2641   */\n      pop\n        /* \"#utility.yul\":2029:2648   */\n      swap3\n      pop\n      swap3\n      pop\n      swap3\n      jump\t// out\n        /* \"#utility.yul\":2654:2983   */\n    tag_30:\n        /* \"#utility.yul\":2713:2719   */\n      0x00\n        /* \"#utility.yul\":2762:2764   */\n      0x20\n        /* \"#utility.yul\":2750:2759   */\n      dup3\n        /* \"#utility.yul\":2741:2748   */\n      dup5\n        /* \"#utility.yul\":2737:2760   */\n      sub\n        /* \"#utility.yul\":2733:2765   */\n      slt\n        /* \"#utility.yul\":2730:2849   */\n      iszero\n      tag_135\n      jumpi\n        /* \"#utility.yul\":2768:2847   */\n      tag_136\n      tag_87\n      jump\t// in\n    tag_136:\n        /* \"#utility.yul\":2730:2849   */\n    tag_135:\n        /* \"#utility.yul\":2888:2889   */\n      0x00\n        /* \"#utility.yul\":2913:2966   */\n      tag_137\n        /* \"#utility.yul\":2958:2965   */\n      dup5\n        /* \"#utility.yul\":2949:2955   */\n      dup3\n        /* \"#utility.yul\":2938:2947   */\n      dup6\n        /* \"#utility.yul\":2934:2956   */\n      add\n        /* \"#utility.yul\":2913:2966   */\n      tag_95\n      jump\t// in\n    tag_137:\n        /* \"#utility.yul\":2903:2966   */\n      swap2\n      pop\n        /* \"#utility.yul\":2859:2976   */\n      pop\n        /* \"#utility.yul\":2654:2983   */\n      swap3\n      swap2\n      pop\n      pop\n      jump\t// out\n        /* \"#utility.yul\":2989:3318   */\n    tag_34:\n        /* \"#utility.yul\":3048:3054   */\n      0x00\n        /* \"#utility.yul\":3097:3099   */\n      0x20\n        /* \"#utility.yul\":3085:3094   */\n      dup3\n        /* \"#utility.yul\":3076:3083   */\n      dup5\n        /* \"#utility.yul\":3072:3095   */\n      sub\n        /* \"#utility.yul\":3068:3100   */\n      slt\n        /* \"#utility.yul\":3065:3184   */\n      iszero\n      tag_139\n      jumpi\n        /* \"#utility.yul\":3103:3182   */\n      tag_140\n      tag_87\n      jump\t// in\n    tag_140:\n        /* \"#utility.yul\":3065:3184   */\n    tag_139:\n        /* \"#utility.yul\":3223:3224   */\n      0x00\n        /* \"#utility.yul\":3248:3301   */\n      tag_141\n        /* \"#utility.yul\":3293:3300   */\n      dup5\n        /* \"#utility.yul\":3284:3290   */\n      dup3\n        /* \"#utility.yul\":3273:3282   */\n      dup6\n        /* \"#utility.yul\":3269:3291   */\n      add\n        /* \"#utility.yul\":3248:3301   */\n      tag_92\n      jump\t// in\n    tag_141:\n        /* \"#utility.yul\":3238:3301   */\n      swap2\n      pop\n        /* \"#utility.yul\":3194:3311   */\n      pop\n        /* \"#utility.yul\":2989:3318   */\n      swap3\n      swap2\n      pop\n      pop\n      jump\t// out\n        /* \"#utility.yul\":3324:3798   */\n    tag_45:\n        /* \"#utility.yul\":3392:3398   */\n      0x00\n        /* \"#utility.yul\":3400:3406   */\n      dup1\n        /* \"#utility.yul\":3449:3451   */\n      0x40\n        /* \"#utility.yul\":3437:3446   */\n      dup4\n        /* \"#utility.yul\":3428:3435   */\n      dup6\n        /* \"#utility.yul\":3424:3447   */\n      sub\n        /* \"#utility.yul\":3420:3452   */\n      slt\n        /* \"#utility.yul\":3417:3536   */\n      iszero\n      tag_143\n      jumpi\n        /* \"#utility.yul\":3455:3534   */\n      tag_144\n      tag_87\n      jump\t// in\n    tag_144:\n        /* \"#utility.yul\":3417:3536   */\n    tag_143:\n        /* \"#utility.yul\":3575:3576   */\n      0x00\n        /* \"#utility.yul\":3600:3653   */\n      tag_145\n        /* \"#utility.yul\":3645:3652   */\n      dup6\n        /* \"#utility.yul\":3636:3642   */\n      dup3\n        /* \"#utility.yul\":3625:3634   */\n      dup7\n        /* \"#utility.yul\":3621:3643   */\n      add\n        /* \"#utility.yul\":3600:3653   */\n      tag_92\n      jump\t// in\n    tag_145:\n        /* \"#utility.yul\":3590:3653   */\n      swap3\n      pop\n        /* \"#utility.yul\":3546:3663   */\n      pop\n        /* \"#utility.yul\":3702:3704   */\n      0x20\n        /* \"#utility.yul\":3728:3781   */\n      tag_146\n        /* \"#utility.yul\":3773:3780   */\n      dup6\n        /* \"#utility.yul\":3764:3770   */\n      dup3\n        /* \"#utility.yul\":3753:3762   */\n      dup7\n        /* \"#utility.yul\":3749:3771   */\n      add\n        /* \"#utility.yul\":3728:3781   */\n      tag_92\n      jump\t// in\n    tag_146:\n        /* \"#utility.yul\":3718:3781   */\n      swap2\n      pop\n        /* \"#utility.yul\":3673:3791   */\n      pop\n        /* \"#utility.yul\":3324:3798   */\n      swap3\n      pop\n      swap3\n      swap1\n      pop\n      jump\t// out\n        /* \"#utility.yul\":3804:3973   */\n    tag_97:\n        /* \"#utility.yul\":3888:3899   */\n      0x00\n        /* \"#utility.yul\":3922:3928   */\n      dup3\n        /* \"#utility.yul\":3917:3920   */\n      dup3\n        /* \"#utility.yul\":3910:3929   */\n      mstore\n        /* \"#utility.yul\":3962:3966   */\n      0x20\n        /* \"#utility.yul\":3957:3960   */\n      dup3\n        /* \"#utility.yul\":3953:3967   */\n      add\n        /* \"#utility.yul\":3938:3967   */\n      swap1\n      pop\n        /* \"#utility.yul\":3804:3973   */\n      swap3\n      swap2\n      pop\n      pop\n      jump\t// out\n        /* \"#utility.yul\":3979:4147   */\n    tag_98:\n        /* \"#utility.yul\":4119:4139   */\n      0x4e6f7420656e6f75676820746f6b656e73210000000000000000000000000000\n        /* \"#utility.yul\":4115:4116   */\n      0x00\n        /* \"#utility.yul\":4107:4113   */\n      dup3\n        /* \"#utility.yul\":4103:4117   */\n      add\n        /* \"#utility.yul\":4096:4140   */\n      mstore\n        /* \"#utility.yul\":3979:4147   */\n      pop\n      jump\t// out\n        /* \"#utility.yul\":4153:4519   */\n    tag_99:\n        /* \"#utility.yul\":4295:4298   */\n      0x00\n        /* \"#utility.yul\":4316:4383   */\n      tag_150\n        /* \"#utility.yul\":4380:4382   */\n      0x12\n        /* \"#utility.yul\":4375:4378   */\n      dup4\n        /* \"#utility.yul\":4316:4383   */\n      tag_97\n      jump\t// in\n    tag_150:\n        /* \"#utility.yul\":4309:4383   */\n      swap2\n      pop\n        /* \"#utility.yul\":4392:4485   */\n      tag_151\n        /* \"#utility.yul\":4481:4484   */\n      dup3\n        /* \"#utility.yul\":4392:4485   */\n      tag_98\n      jump\t// in\n    tag_151:\n        /* \"#utility.yul\":4510:4512   */\n      0x20\n        /* \"#utility.yul\":4505:4508   */\n      dup3\n        /* \"#utility.yul\":4501:4513   */\n      add\n        /* \"#utility.yul\":4494:4513   */\n      swap1\n      pop\n        /* \"#utility.yul\":4153:4519   */\n      swap2\n      swap1\n      pop\n      jump\t// out\n        /* \"#utility.yul\":4525:4944   */\n    tag_55:\n        /* \"#utility.yul\":4691:4695   */\n      0x00\n        /* \"#utility.yul\":4729:4731   */\n      0x20\n        /* \"#utility.yul\":4718:4727   */\n      dup3\n        /* \"#utility.yul\":4714:4732   */\n      add\n        /* \"#utility.yul\":4706:4732   */\n      swap1\n      pop\n        /* \"#utility.yul\":4778:4787   */\n      dup2\n        /* \"#utility.yul\":4772:4776   */\n      dup2\n        /* \"#utility.yul\":4768:4788   */\n      sub\n        /* \"#utility.yul\":4764:4765   */\n      0x00\n        /* \"#utility.yul\":4753:4762   */\n      dup4\n        /* \"#utility.yul\":4749:4766   */\n      add\n        /* \"#utility.yul\":4742:4789   */\n      mstore\n        /* \"#utility.yul\":4806:4937   */\n      tag_153\n        /* \"#utility.yul\":4932:4936   */\n      dup2\n        /* \"#utility.yul\":4806:4937   */\n      tag_99\n      jump\t// in\n    tag_153:\n        /* \"#utility.yul\":4798:4937   */\n      swap1\n      pop\n        /* \"#utility.yul\":4525:4944   */\n      swap2\n      swap1\n      pop\n      jump\t// out\n        /* \"#utility.yul\":4950:5130   */\n    tag_100:\n        /* \"#utility.yul\":4998:5075   */\n      0x4e487b7100000000000000000000000000000000000000000000000000000000\n        /* \"#utility.yul\":4995:4996   */\n      0x00\n        /* \"#utility.yul\":4988:5076   */\n      mstore\n        /* \"#utility.yul\":5095:5099   */\n      0x11\n        /* \"#utility.yul\":5092:5093   */\n      0x04\n        /* \"#utility.yul\":5085:5100   */\n      mstore\n        /* \"#utility.yul\":5119:5123   */\n      0x24\n        /* \"#utility.yul\":5116:5117   */\n      0x00\n        /* \"#utility.yul\":5109:5124   */\n      revert\n        /* \"#utility.yul\":5136:5330   */\n    tag_58:\n        /* \"#utility.yul\":5176:5180   */\n      0x00\n        /* \"#utility.yul\":5196:5216   */\n      tag_156\n        /* \"#utility.yul\":5214:5215   */\n      dup3\n        /* \"#utility.yul\":5196:5216   */\n      tag_93\n      jump\t// in\n    tag_156:\n        /* \"#utility.yul\":5191:5216   */\n      swap2\n      pop\n        /* \"#utility.yul\":5230:5250   */\n      tag_157\n        /* \"#utility.yul\":5248:5249   */\n      dup4\n        /* \"#utility.yul\":5230:5250   */\n      tag_93\n      jump\t// in\n    tag_157:\n        /* \"#utility.yul\":5225:5250   */\n      swap3\n      pop\n        /* \"#utility.yul\":5274:5275   */\n      dup3\n        /* \"#utility.yul\":5271:5272   */\n      dup3\n        /* \"#utility.yul\":5267:5276   */\n      sub\n        /* \"#utility.yul\":5259:5276   */\n      swap1\n      pop\n        /* \"#utility.yul\":5298:5299   */\n      dup2\n        /* \"#utility.yul\":5292:5296   */\n      dup2\n        /* \"#utility.yul\":5289:5300   */\n      gt\n        /* \"#utility.yul\":5286:5323   */\n      iszero\n      tag_158\n      jumpi\n        /* \"#utility.yul\":5303:5321   */\n      tag_159\n      tag_100\n      jump\t// in\n    tag_159:\n        /* \"#utility.yul\":5286:5323   */\n    tag_158:\n        /* \"#utility.yul\":5136:5330   */\n      swap3\n      swap2\n      pop\n      pop\n      jump\t// out\n        /* \"#utility.yul\":5336:5527   */\n    tag_61:\n        /* \"#utility.yul\":5376:5379   */\n      0x00\n        /* \"#utility.yul\":5395:5415   */\n      tag_161\n        /* \"#utility.yul\":5413:5414   */\n      dup3\n        /* \"#utility.yul\":5395:5415   */\n      tag_93\n      jump\t// in\n    tag_161:\n        /* \"#utility.yul\":5390:5415   */\n      swap2\n      pop\n        /* \"#utility.yul\":5429:5449   */\n      tag_162\n        /* \"#utility.yul\":5447:5448   */\n      dup4\n        /* \"#utility.yul\":5429:5449   */\n      tag_93\n      jump\t// in\n    tag_162:\n        /* \"#utility.yul\":5424:5449   */\n      swap3\n      pop\n        /* \"#utility.yul\":5472:5473   */\n      dup3\n        /* \"#utility.yul\":5469:5470   */\n      dup3\n        /* \"#utility.yul\":5465:5474   */\n      add\n        /* \"#utility.yul\":5458:5474   */\n      swap1\n      pop\n        /* \"#utility.yul\":5493:5496   */\n      dup1\n        /* \"#utility.yul\":5490:5491   */\n      dup3\n        /* \"#utility.yul\":5487:5497   */\n      gt\n        /* \"#utility.yul\":5484:5520   */\n      iszero\n      tag_163\n      jumpi\n        /* \"#utility.yul\":5500:5518   */\n      tag_164\n      tag_100\n      jump\t// in\n    tag_164:\n        /* \"#utility.yul\":5484:5520   */\n    tag_163:\n        /* \"#utility.yul\":5336:5527   */\n      swap3\n      swap2\n      pop\n      pop\n      jump\t// out\n\n    auxdata: 0xa264697066735822122066eb9c04eb79d10ed70df7d3b1caf271b81f0c18da635672f4192a308182ad0364736f6c63430008110033\n}\n",
				"bytecode": {
					"linkReferences": {},
					"object": "60806040523480156200001157600080fd5b5060405162000e6138038062000e6183398181016040528101906200003791906200016c565b62000048816200004f60201b60201c565b5062000236565b80600160003373ffffffffffffffffffffffffffffffffffffffff1673ffffffffffffffffffffffffffffffffffffffff1681526020019081526020016000206000828254620000a09190620001cd565b9250508190555080600080828254620000ba9190620001cd565b925050819055503373ffffffffffffffffffffffffffffffffffffffff16600073ffffffffffffffffffffffffffffffffffffffff167fddf252ad1be2c89b69c2b068fc378daa952ba7f163c4a11628f55a4df523b3ef8360405162000121919062000219565b60405180910390a350565b600080fd5b6000819050919050565b620001468162000131565b81146200015257600080fd5b50565b60008151905062000166816200013b565b92915050565b6000602082840312156200018557620001846200012c565b5b6000620001958482850162000155565b91505092915050565b7f4e487b7100000000000000000000000000000000000000000000000000000000600052601160045260246000fd5b6000620001da8262000131565b9150620001e78362000131565b92508282019050808211156200020257620002016200019e565b5b92915050565b620002138162000131565b82525050565b600060208201905062000230600083018462000208565b92915050565b610c1b80620002466000396000f3fe608060405234801561001057600080fd5b50600436106100935760003560e01c806342966c681161006657806342966c681461010c57806370a0823114610128578063a0712d6814610158578063a9059cbb14610174578063dd62ed3e1461019057610093565b8063095ea7b31461009857806318160ddd146100b457806323b872dd146100d2578063313ce567146100ee575b600080fd5b6100b260048036038101906100ad919061097a565b6101c0565b005b6100bc6102aa565b6040516100c991906109c9565b60405180910390f35b6100ec60048036038101906100e791906109e4565b6102b3565b005b6100f66104ab565b60405161010391906109c9565b60405180910390f35b61012660048036038101906101219190610a37565b6104b0565b005b610142600480360381019061013d9190610a64565b6105d6565b60405161014f91906109c9565b60405180910390f35b610172600480360381019061016d9190610a37565b61061f565b005b61018e6004803603810190610189919061097a565b6106f6565b005b6101aa60048036038101906101a59190610a91565b61085a565b6040516101b791906109c9565b60405180910390f35b80600260003373ffffffffffffffffffffffffffffffffffffffff1673ffffffffffffffffffffffffffffffffffffffff16815260200190815260200160002060008473ffffffffffffffffffffffffffffffffffffffff1673ffffffffffffffffffffffffffffffffffffffff168152602001908152602001600020819055508173ffffffffffffffffffffffffffffffffffffffff163373ffffffffffffffffffffffffffffffffffffffff167f8c5be1e5ebec7d5bd14f71427d1e84f3dd0314c0f7b2291e5b200ac8c7c3b9258360405161029e91906109c9565b60405180910390a35050565b60008054905090565b3381806102bf836105d6565b1015610300576040517f08c379a00000000000000000000000000000000000000000000000000000000081526004016102f790610b2e565b60405180910390fd5b82600260008773ffffffffffffffffffffffffffffffffffffffff1673ffffffffffffffffffffffffffffffffffffffff16815260200190815260200160002060008673ffffffffffffffffffffffffffffffffffffffff1673ffffffffffffffffffffffffffffffffffffffff168152602001908152602001600020600082825461038c9190610b7d565b9250508190555082600160008773ffffffffffffffffffffffffffffffffffffffff1673ffffffffffffffffffffffffffffffffffffffff16815260200190815260200160002060008282546103e29190610b7d565b9250508190555082600160008673ffffffffffffffffffffffffffffffffffffffff1673ffffffffffffffffffffffffffffffffffffffff16815260200190815260200160002060008282546104389190610bb1565b925050819055508373ffffffffffffffffffffffffffffffffffffffff168573ffffffffffffffffffffffffffffffffffffffff167fddf252ad1be2c89b69c2b068fc378daa952ba7f163c4a11628f55a4df523b3ef8560405161049c91906109c9565b60405180910390a35050505050565b600090565b3381806104bc836105d6565b10156104fd576040517f08c379a00000000000000000000000000000000000000000000000000000000081526004016104f490610b2e565b60405180910390fd5b82600160003373ffffffffffffffffffffffffffffffffffffffff1673ffffffffffffffffffffffffffffffffffffffff168152602001908152602001600020600082825461054c9190610b7d565b92505081905550826000808282546105649190610b7d565b92505081905550600073ffffffffffffffffffffffffffffffffffffffff163373ffffffffffffffffffffffffffffffffffffffff167fddf252ad1be2c89b69c2b068fc378daa952ba7f163c4a11628f55a4df523b3ef856040516105c991906109c9565b60405180910390a3505050565b6000600160008373ffffffffffffffffffffffffffffffffffffffff1673ffffffffffffffffffffffffffffffffffffffff168152602001908152602001600020549050919050565b80600160003373ffffffffffffffffffffffffffffffffffffffff1673ffffffffffffffffffffffffffffffffffffffff168152602001908152602001600020600082825461066e9190610bb1565b92505081905550806000808282546106869190610bb1565b925050819055503373ffffffffffffffffffffffffffffffffffffffff16600073ffffffffffffffffffffffffffffffffffffffff167fddf252ad1be2c89b69c2b068fc378daa952ba7f163c4a11628f55a4df523b3ef836040516106eb91906109c9565b60405180910390a350565b338180610702836105d6565b1015610743576040517f08c379a000000000000000000000000000000000000000000000000000000000815260040161073a90610b2e565b60405180910390fd5b82600160003373ffffffffffffffffffffffffffffffffffffffff1673ffffffffffffffffffffffffffffffffffffffff16815260200190815260200160002060008282546107929190610b7d565b9250508190555082600160008673ffffffffffffffffffffffffffffffffffffffff1673ffffffffffffffffffffffffffffffffffffffff16815260200190815260200160002060008282546107e89190610bb1565b925050819055508373ffffffffffffffffffffffffffffffffffffffff163373ffffffffffffffffffffffffffffffffffffffff167fddf252ad1be2c89b69c2b068fc378daa952ba7f163c4a11628f55a4df523b3ef8560405161084c91906109c9565b60405180910390a350505050565b6000600260008473ffffffffffffffffffffffffffffffffffffffff1673ffffffffffffffffffffffffffffffffffffffff16815260200190815260200160002060008373ffffffffffffffffffffffffffffffffffffffff1673ffffffffffffffffffffffffffffffffffffffff16815260200190815260200160002054905092915050565b600080fd5b600073ffffffffffffffffffffffffffffffffffffffff82169050919050565b6000610911826108e6565b9050919050565b61092181610906565b811461092c57600080fd5b50565b60008135905061093e81610918565b92915050565b6000819050919050565b61095781610944565b811461096257600080fd5b50565b6000813590506109748161094e565b92915050565b60008060408385031215610991576109906108e1565b5b600061099f8582860161092f565b92505060206109b085828601610965565b9150509250929050565b6109c381610944565b82525050565b60006020820190506109de60008301846109ba565b92915050565b6000806000606084860312156109fd576109fc6108e1565b5b6000610a0b8682870161092f565b9350506020610a1c8682870161092f565b9250506040610a2d86828701610965565b9150509250925092565b600060208284031215610a4d57610a4c6108e1565b5b6000610a5b84828501610965565b91505092915050565b600060208284031215610a7a57610a796108e1565b5b6000610a888482850161092f565b91505092915050565b60008060408385031215610aa857610aa76108e1565b5b6000610ab68582860161092f565b9250506020610ac78582860161092f565b9150509250929050565b600082825260208201905092915050565b7f4e6f7420656e6f75676820746f6b656e73210000000000000000000000000000600082015250565b6000610b18601283610ad1565b9150610b2382610ae2565b602082019050919050565b60006020820190508181036000830152610b4781610b0b565b9050919050565b7f4e487b7100000000000000000000000000000000000000000000000000000000600052601160045260246000fd5b6000610b8882610944565b9150610b9383610944565b9250828203905081811115610bab57610baa610b4e565b5b92915050565b6000610bbc82610944565b9150610bc783610944565b9250828201905080821115610bdf57610bde610b4e565b5b9291505056fea264697066735822122066eb9c04eb79d10ed70df7d3b1caf271b81f0c18da635672f4192a308182ad0364736f6c63430008110033",
					"opcodes": "PUSH1 0x80 PUSH1 0x40 MSTORE CALLVALUE DUP1 ISZERO PUSH3 0x11 JUMPI PUSH1 0x0 DUP1 REVERT JUMPDEST POP PUSH1 0x40 MLOAD PUSH3 0xE61 CODESIZE SUB DUP1 PUSH3 0xE61 DUP4 CODECOPY DUP2 DUP2 ADD PUSH1 0x40 MSTORE DUP2 ADD SWAP1 PUSH3 0x37 SWAP2 SWAP1 PUSH3 0x16C JUMP JUMPDEST PUSH3 0x48 DUP2 PUSH3 0x4F PUSH1 0x20 SHL PUSH1 0x20 SHR JUMP JUMPDEST POP PUSH3 0x236 JUMP JUMPDEST DUP1 PUSH1 0x1 PUSH1 0x0 CALLER PUSH20 0xFFFFFFFFFFFFFFFFFFFFFFFFFFFFFFFFFFFFFFFF AND PUSH20 0xFFFFFFFFFFFFFFFFFFFFFFFFFFFFFFFFFFFFFFFF AND DUP2 MSTORE PUSH1 0x20 ADD SWAP1 DUP2 MSTORE PUSH1 0x20 ADD PUSH1 0x0 KECCAK256 PUSH1 0x0 DUP3 DUP3 SLOAD PUSH3 0xA0 SWAP2 SWAP1 PUSH3 0x1CD JUMP JUMPDEST SWAP3 POP POP DUP2 SWAP1 SSTORE POP DUP1 PUSH1 0x0 DUP1 DUP3 DUP3 SLOAD PUSH3 0xBA SWAP2 SWAP1 PUSH3 0x1CD JUMP JUMPDEST SWAP3 POP POP DUP2 SWAP1 SSTORE POP CALLER PUSH20 0xFFFFFFFFFFFFFFFFFFFFFFFFFFFFFFFFFFFFFFFF AND PUSH1 0x0 PUSH20 0xFFFFFFFFFFFFFFFFFFFFFFFFFFFFFFFFFFFFFFFF AND PUSH32 0xDDF252AD1BE2C89B69C2B068FC378DAA952BA7F163C4A11628F55A4DF523B3EF DUP4 PUSH1 0x40 MLOAD PUSH3 0x121 SWAP2 SWAP1 PUSH3 0x219 JUMP JUMPDEST PUSH1 0x40 MLOAD DUP1 SWAP2 SUB SWAP1 LOG3 POP JUMP JUMPDEST PUSH1 0x0 DUP1 REVERT JUMPDEST PUSH1 0x0 DUP2 SWAP1 POP SWAP2 SWAP1 POP JUMP JUMPDEST PUSH3 0x146 DUP2 PUSH3 0x131 JUMP JUMPDEST DUP2 EQ PUSH3 0x152 JUMPI PUSH1 0x0 DUP1 REVERT JUMPDEST POP JUMP JUMPDEST PUSH1 0x0 DUP2 MLOAD SWAP1 POP PUSH3 0x166 DUP2 PUSH3 0x13B JUMP JUMPDEST SWAP3 SWAP2 POP POP JUMP JUMPDEST PUSH1 0x0 PUSH1 0x20 DUP3 DUP5 SUB SLT ISZERO PUSH3 0x185 JUMPI PUSH3 0x184 PUSH3 0x12C JUMP JUMPDEST JUMPDEST PUSH1 0x0 PUSH3 0x195 DUP5 DUP3 DUP6 ADD PUSH3 0x155 JUMP JUMPDEST SWAP2 POP POP SWAP3 SWAP2 POP POP JUMP JUMPDEST PUSH32 0x4E487B7100000000000000000000000000000000000000000000000000000000 PUSH1 0x0 MSTORE PUSH1 0x11 PUSH1 0x4 MSTORE PUSH1 0x24 PUSH1 0x0 REVERT JUMPDEST PUSH1 0x0 PUSH3 0x1DA DUP3 PUSH3 0x131 JUMP JUMPDEST SWAP2 POP PUSH3 0x1E7 DUP4 PUSH3 0x131 JUMP JUMPDEST SWAP3 POP DUP3 DUP3 ADD SWAP1 POP DUP1 DUP3 GT ISZERO PUSH3 0x202 JUMPI PUSH3 0x201 PUSH3 0x19E JUMP JUMPDEST JUMPDEST SWAP3 SWAP2 POP POP JUMP JUMPDEST PUSH3 0x213 DUP2 PUSH3 0x131 JUMP JUMPDEST DUP3 MSTORE POP POP JUMP JUMPDEST PUSH1 0x0 PUSH1 0x20 DUP3 ADD SWAP1 POP PUSH3 0x230 PUSH1 0x0 DUP4 ADD DUP5 PUSH3 0x208 JUMP JUMPDEST SWAP3 SWAP2 POP POP JUMP JUMPDEST PUSH2 0xC1B DUP1 PUSH3 0x246 PUSH1 0x0 CODECOPY PUSH1 0x0 RETURN INVALID PUSH1 0x80 PUSH1 0x40 MSTORE CALLVALUE DUP1 ISZERO PUSH2 0x10 JUMPI PUSH1 0x0 DUP1 REVERT JUMPDEST POP PUSH1 0x4 CALLDATASIZE LT PUSH2 0x93 JUMPI PUSH1 0x0 CALLDATALOAD PUSH1 0xE0 SHR DUP1 PUSH4 0x42966C68 GT PUSH2 0x66 JUMPI DUP1 PUSH4 0x42966C68 EQ PUSH2 0x10C JUMPI DUP1 PUSH4 0x70A08231 EQ PUSH2 0x128 JUMPI DUP1 PUSH4 0xA0712D68 EQ PUSH2 0x158 JUMPI DUP1 PUSH4 0xA9059CBB EQ PUSH2 0x174 JUMPI DUP1 PUSH4 0xDD62ED3E EQ PUSH2 0x190 JUMPI PUSH2 0x93 JUMP JUMPDEST DUP1 PUSH4 0x95EA7B3 EQ PUSH2 0x98 JUMPI DUP1 PUSH4 0x18160DDD EQ PUSH2 0xB4 JUMPI DUP1 PUSH4 0x23B872DD EQ PUSH2 0xD2 JUMPI DUP1 PUSH4 0x313CE567 EQ PUSH2 0xEE JUMPI JUMPDEST PUSH1 0x0 DUP1 REVERT JUMPDEST PUSH2 0xB2 PUSH1 0x4 DUP1 CALLDATASIZE SUB DUP2 ADD SWAP1 PUSH2 0xAD SWAP2 SWAP1 PUSH2 0x97A JUMP JUMPDEST PUSH2 0x1C0 JUMP JUMPDEST STOP JUMPDEST PUSH2 0xBC PUSH2 0x2AA JUMP JUMPDEST PUSH1 0x40 MLOAD PUSH2 0xC9 SWAP2 SWAP1 PUSH2 0x9C9 JUMP JUMPDEST PUSH1 0x40 MLOAD DUP1 SWAP2 SUB SWAP1 RETURN JUMPDEST PUSH2 0xEC PUSH1 0x4 DUP1 CALLDATASIZE SUB DUP2 ADD SWAP1 PUSH2 0xE7 SWAP2 SWAP1 PUSH2 0x9E4 JUMP JUMPDEST PUSH2 0x2B3 JUMP JUMPDEST STOP JUMPDEST PUSH2 0xF6 PUSH2 0x4AB JUMP JUMPDEST PUSH1 0x40 MLOAD PUSH2 0x103 SWAP2 SWAP1 PUSH2 0x9C9 JUMP JUMPDEST PUSH1 0x40 MLOAD DUP1 SWAP2 SUB SWAP1 RETURN JUMPDEST PUSH2 0x126 PUSH1 0x4 DUP1 CALLDATASIZE SUB DUP2 ADD SWAP1 PUSH2 0x121 SWAP2 SWAP1 PUSH2 0xA37 JUMP JUMPDEST PUSH2 0x4B0 JUMP JUMPDEST STOP JUMPDEST PUSH2 0x142 PUSH1 0x4 DUP1 CALLDATASIZE SUB DUP2 ADD SWAP1 PUSH2 0x13D SWAP2 SWAP1 PUSH2 0xA64 JUMP JUMPDEST PUSH2 0x5D6 JUMP JUMPDEST PUSH1 0x40 MLOAD PUSH2 0x14F SWAP2 SWAP1 PUSH2 0x9C9 JUMP JUMPDEST PUSH1 0x40 MLOAD DUP1 SWAP2 SUB SWAP1 RETURN JUMPDEST PUSH2 0x172 PUSH1 0x4 DUP1 CALLDATASIZE SUB DUP2 ADD SWAP1 PUSH2 0x16D SWAP2 SWAP1 PUSH2 0xA37 JUMP JUMPDEST PUSH2 0x61F JUMP JUMPDEST STOP JUMPDEST PUSH2 0x18E PUSH1 0x4 DUP1 CALLDATASIZE SUB DUP2 ADD SWAP1 PUSH2 0x189 SWAP2 SWAP1 PUSH2 0x97A JUMP JUMPDEST PUSH2 0x6F6 JUMP JUMPDEST STOP JUMPDEST PUSH2 0x1AA PUSH1 0x4 DUP1 CALLDATASIZE SUB DUP2 ADD SWAP1 PUSH2 0x1A5 SWAP2 SWAP1 PUSH2 0xA91 JUMP JUMPDEST PUSH2 0x85A JUMP JUMPDEST PUSH1 0x40 MLOAD PUSH2 0x1B7 SWAP2 SWAP1 PUSH2 0x9C9 JUMP JUMPDEST PUSH1 0x40 MLOAD DUP1 SWAP2 SUB SWAP1 RETURN JUMPDEST DUP1 PUSH1 0x2 PUSH1 0x0 CALLER PUSH20 0xFFFFFFFFFFFFFFFFFFFFFFFFFFFFFFFFFFFFFFFF AND PUSH20 0xFFFFFFFFFFFFFFFFFFFFFFFFFFFFFFFFFFFFFFFF AND DUP2 MSTORE PUSH1 0x20 ADD SWAP1 DUP2 MSTORE PUSH1 0x20 ADD PUSH1 0x0 KECCAK256 PUSH1 0x0 DUP5 PUSH20 0xFFFFFFFFFFFFFFFFFFFFFFFFFFFFFFFFFFFFFFFF AND PUSH20 0xFFFFFFFFFFFFFFFFFFFFFFFFFFFFFFFFFFFFFFFF AND DUP2 MSTORE PUSH1 0x20 ADD SWAP1 DUP2 MSTORE PUSH1 0x20 ADD PUSH1 0x0 KECCAK256 DUP2 SWAP1 SSTORE POP DUP2 PUSH20 0xFFFFFFFFFFFFFFFFFFFFFFFFFFFFFFFFFFFFFFFF AND CALLER PUSH20 0xFFFFFFFFFFFFFFFFFFFFFFFFFFFFFFFFFFFFFFFF AND PUSH32 0x8C5BE1E5EBEC7D5BD14F71427D1E84F3DD0314C0F7B2291E5B200AC8C7C3B925 DUP4 PUSH1 0x40 MLOAD PUSH2 0x29E SWAP2 SWAP1 PUSH2 0x9C9 JUMP JUMPDEST PUSH1 0x40 MLOAD DUP1 SWAP2 SUB SWAP1 LOG3 POP POP JUMP JUMPDEST PUSH1 0x0 DUP1 SLOAD SWAP1 POP SWAP1 JUMP JUMPDEST CALLER DUP2 DUP1 PUSH2 0x2BF DUP4 PUSH2 0x5D6 JUMP JUMPDEST LT ISZERO PUSH2 0x300 JUMPI PUSH1 0x40 MLOAD PUSH32 0x8C379A000000000000000000000000000000000000000000000000000000000 DUP2 MSTORE PUSH1 0x4 ADD PUSH2 0x2F7 SWAP1 PUSH2 0xB2E JUMP JUMPDEST PUSH1 0x40 MLOAD DUP1 SWAP2 SUB SWAP1 REVERT JUMPDEST DUP3 PUSH1 0x2 PUSH1 0x0 DUP8 PUSH20 0xFFFFFFFFFFFFFFFFFFFFFFFFFFFFFFFFFFFFFFFF AND PUSH20 0xFFFFFFFFFFFFFFFFFFFFFFFFFFFFFFFFFFFFFFFF AND DUP2 MSTORE PUSH1 0x20 ADD SWAP1 DUP2 MSTORE PUSH1 0x20 ADD PUSH1 0x0 KECCAK256 PUSH1 0x0 DUP7 PUSH20 0xFFFFFFFFFFFFFFFFFFFFFFFFFFFFFFFFFFFFFFFF AND PUSH20 0xFFFFFFFFFFFFFFFFFFFFFFFFFFFFFFFFFFFFFFFF AND DUP2 MSTORE PUSH1 0x20 ADD SWAP1 DUP2 MSTORE PUSH1 0x20 ADD PUSH1 0x0 KECCAK256 PUSH1 0x0 DUP3 DUP3 SLOAD PUSH2 0x38C SWAP2 SWAP1 PUSH2 0xB7D JUMP JUMPDEST SWAP3 POP POP DUP2 SWAP1 SSTORE POP DUP3 PUSH1 0x1 PUSH1 0x0 DUP8 PUSH20 0xFFFFFFFFFFFFFFFFFFFFFFFFFFFFFFFFFFFFFFFF AND PUSH20 0xFFFFFFFFFFFFFFFFFFFFFFFFFFFFFFFFFFFFFFFF AND DUP2 MSTORE PUSH1 0x20 ADD SWAP1 DUP2 MSTORE PUSH1 0x20 ADD PUSH1 0x0 KECCAK256 PUSH1 0x0 DUP3 DUP3 SLOAD PUSH2 0x3E2 SWAP2 SWAP1 PUSH2 0xB7D JUMP JUMPDEST SWAP3 POP POP DUP2 SWAP1 SSTORE POP DUP3 PUSH1 0x1 PUSH1 0x0 DUP7 PUSH20 0xFFFFFFFFFFFFFFFFFFFFFFFFFFFFFFFFFFFFFFFF AND PUSH20 0xFFFFFFFFFFFFFFFFFFFFFFFFFFFFFFFFFFFFFFFF AND DUP2 MSTORE PUSH1 0x20 ADD SWAP1 DUP2 MSTORE PUSH1 0x20 ADD PUSH1 0x0 KECCAK256 PUSH1 0x0 DUP3 DUP3 SLOAD PUSH2 0x438 SWAP2 SWAP1 PUSH2 0xBB1 JUMP JUMPDEST SWAP3 POP POP DUP2 SWAP1 SSTORE POP DUP4 PUSH20 0xFFFFFFFFFFFFFFFFFFFFFFFFFFFFFFFFFFFFFFFF AND DUP6 PUSH20 0xFFFFFFFFFFFFFFFFFFFFFFFFFFFFFFFFFFFFFFFF AND PUSH32 0xDDF252AD1BE2C89B69C2B068FC378DAA952BA7F163C4A11628F55A4DF523B3EF DUP6 PUSH1 0x40 MLOAD PUSH2 0x49C SWAP2 SWAP1 PUSH2 0x9C9 JUMP JUMPDEST PUSH1 0x40 MLOAD DUP1 SWAP2 SUB SWAP1 LOG3 POP POP POP POP POP JUMP JUMPDEST PUSH1 0x0 SWAP1 JUMP JUMPDEST CALLER DUP2 DUP1 PUSH2 0x4BC DUP4 PUSH2 0x5D6 JUMP JUMPDEST LT ISZERO PUSH2 0x4FD JUMPI PUSH1 0x40 MLOAD PUSH32 0x8C379A000000000000000000000000000000000000000000000000000000000 DUP2 MSTORE PUSH1 0x4 ADD PUSH2 0x4F4 SWAP1 PUSH2 0xB2E JUMP JUMPDEST PUSH1 0x40 MLOAD DUP1 SWAP2 SUB SWAP1 REVERT JUMPDEST DUP3 PUSH1 0x1 PUSH1 0x0 CALLER PUSH20 0xFFFFFFFFFFFFFFFFFFFFFFFFFFFFFFFFFFFFFFFF AND PUSH20 0xFFFFFFFFFFFFFFFFFFFFFFFFFFFFFFFFFFFFFFFF AND DUP2 MSTORE PUSH1 0x20 ADD SWAP1 DUP2 MSTORE PUSH1 0x20 ADD PUSH1 0x0 KECCAK256 PUSH1 0x0 DUP3 DUP3 SLOAD PUSH2 0x54C SWAP2 SWAP1 PUSH2 0xB7D JUMP JUMPDEST SWAP3 POP POP DUP2 SWAP1 SSTORE POP DUP3 PUSH1 0x0 DUP1 DUP3 DUP3 SLOAD PUSH2 0x564 SWAP2 SWAP1 PUSH2 0xB7D JUMP JUMPDEST SWAP3 POP POP DUP2 SWAP1 SSTORE POP PUSH1 0x0 PUSH20 0xFFFFFFFFFFFFFFFFFFFFFFFFFFFFFFFFFFFFFFFF AND CALLER PUSH20 0xFFFFFFFFFFFFFFFFFFFFFFFFFFFFFFFFFFFFFFFF AND PUSH32 0xDDF252AD1BE2C89B69C2B068FC378DAA952BA7F163C4A11628F55A4DF523B3EF DUP6 PUSH1 0x40 MLOAD PUSH2 0x5C9 SWAP2 SWAP1 PUSH2 0x9C9 JUMP JUMPDEST PUSH1 0x40 MLOAD DUP1 SWAP2 SUB SWAP1 LOG3 POP POP POP JUMP JUMPDEST PUSH1 0x0 PUSH1 0x1 PUSH1 0x0 DUP4 PUSH20 0xFFFFFFFFFFFFFFFFFFFFFFFFFFFFFFFFFFFFFFFF AND PUSH20 0xFFFFFFFFFFFFFFFFFFFFFFFFFFFFFFFFFFFFFFFF AND DUP2 MSTORE PUSH1 0x20 ADD SWAP1 DUP2 MSTORE PUSH1 0x20 ADD PUSH1 0x0 KECCAK256 SLOAD SWAP1 POP SWAP2 SWAP1 POP JUMP JUMPDEST DUP1 PUSH1 0x1 PUSH1 0x0 CALLER PUSH20 0xFFFFFFFFFFFFFFFFFFFFFFFFFFFFFFFFFFFFFFFF AND PUSH20 0xFFFFFFFFFFFFFFFFFFFFFFFFFFFFFFFFFFFFFFFF AND DUP2 MSTORE PUSH1 0x20 ADD SWAP1 DUP2 MSTORE PUSH1 0x20 ADD PUSH1 0x0 KECCAK256 PUSH1 0x0 DUP3 DUP3 SLOAD PUSH2 0x66E SWAP2 SWAP1 PUSH2 0xBB1 JUMP JUMPDEST SWAP3 POP POP DUP2 SWAP1 SSTORE POP DUP1 PUSH1 0x0 DUP1 DUP3 DUP3 SLOAD PUSH2 0x686 SWAP2 SWAP1 PUSH2 0xBB1 JUMP JUMPDEST SWAP3 POP POP DUP2 SWAP1 SSTORE POP CALLER PUSH20 0xFFFFFFFFFFFFFFFFFFFFFFFFFFFFFFFFFFFFFFFF AND PUSH1 0x0 PUSH20 0xFFFFFFFFFFFFFFFFFFFFFFFFFFFFFFFFFFFFFFFF AND PUSH32 0xDDF252AD1BE2C89B69C2B068FC378DAA952BA7F163C4A11628F55A4DF523B3EF DUP4 PUSH1 0x40 MLOAD PUSH2 0x6EB SWAP2 SWAP1 PUSH2 0x9C9 JUMP JUMPDEST PUSH1 0x40 MLOAD DUP1 SWAP2 SUB SWAP1 LOG3 POP JUMP JUMPDEST CALLER DUP2 DUP1 PUSH2 0x702 DUP4 PUSH2 0x5D6 JUMP JUMPDEST LT ISZERO PUSH2 0x743 JUMPI PUSH1 0x40 MLOAD PUSH32 0x8C379A000000000000000000000000000000000000000000000000000000000 DUP2 MSTORE PUSH1 0x4 ADD PUSH2 0x73A SWAP1 PUSH2 0xB2E JUMP JUMPDEST PUSH1 0x40 MLOAD DUP1 SWAP2 SUB SWAP1 REVERT JUMPDEST DUP3 PUSH1 0x1 PUSH1 0x0 CALLER PUSH20 0xFFFFFFFFFFFFFFFFFFFFFFFFFFFFFFFFFFFFFFFF AND PUSH20 0xFFFFFFFFFFFFFFFFFFFFFFFFFFFFFFFFFFFFFFFF AND DUP2 MSTORE PUSH1 0x20 ADD SWAP1 DUP2 MSTORE PUSH1 0x20 ADD PUSH1 0x0 KECCAK256 PUSH1 0x0 DUP3 DUP3 SLOAD PUSH2 0x792 SWAP2 SWAP1 PUSH2 0xB7D JUMP JUMPDEST SWAP3 POP POP DUP2 SWAP1 SSTORE POP DUP3 PUSH1 0x1 PUSH1 0x0 DUP7 PUSH20 0xFFFFFFFFFFFFFFFFFFFFFFFFFFFFFFFFFFFFFFFF AND PUSH20 0xFFFFFFFFFFFFFFFFFFFFFFFFFFFFFFFFFFFFFFFF AND DUP2 MSTORE PUSH1 0x20 ADD SWAP1 DUP2 MSTORE PUSH1 0x20 ADD PUSH1 0x0 KECCAK256 PUSH1 0x0 DUP3 DUP3 SLOAD PUSH2 0x7E8 SWAP2 SWAP1 PUSH2 0xBB1 JUMP JUMPDEST SWAP3 POP POP DUP2 SWAP1 SSTORE POP DUP4 PUSH20 0xFFFFFFFFFFFFFFFFFFFFFFFFFFFFFFFFFFFFFFFF AND CALLER PUSH20 0xFFFFFFFFFFFFFFFFFFFFFFFFFFFFFFFFFFFFFFFF AND PUSH32 0xDDF252AD1BE2C89B69C2B068FC378DAA952BA7F163C4A11628F55A4DF523B3EF DUP6 PUSH1 0x40 MLOAD PUSH2 0x84C SWAP2 SWAP1 PUSH2 0x9C9 JUMP JUMPDEST PUSH1 0x40 MLOAD DUP1 SWAP2 SUB SWAP1 LOG3 POP POP POP POP JUMP JUMPDEST PUSH1 0x0 PUSH1 0x2 PUSH1 0x0 DUP5 PUSH20 0xFFFFFFFFFFFFFFFFFFFFFFFFFFFFFFFFFFFFFFFF AND PUSH20 0xFFFFFFFFFFFFFFFFFFFFFFFFFFFFFFFFFFFFFFFF AND DUP2 MSTORE PUSH1 0x20 ADD SWAP1 DUP2 MSTORE PUSH1 0x20 ADD PUSH1 0x0 KECCAK256 PUSH1 0x0 DUP4 PUSH20 0xFFFFFFFFFFFFFFFFFFFFFFFFFFFFFFFFFFFFFFFF AND PUSH20 0xFFFFFFFFFFFFFFFFFFFFFFFFFFFFFFFFFFFFFFFF AND DUP2 MSTORE PUSH1 0x20 ADD SWAP1 DUP2 MSTORE PUSH1 0x20 ADD PUSH1 0x0 KECCAK256 SLOAD SWAP1 POP SWAP3 SWAP2 POP POP JUMP JUMPDEST PUSH1 0x0 DUP1 REVERT JUMPDEST PUSH1 0x0 PUSH20 0xFFFFFFFFFFFFFFFFFFFFFFFFFFFFFFFFFFFFFFFF DUP3 AND SWAP1 POP SWAP2 SWAP1 POP JUMP JUMPDEST PUSH1 0x0 PUSH2 0x911 DUP3 PUSH2 0x8E6 JUMP JUMPDEST SWAP1 POP SWAP2 SWAP1 POP JUMP JUMPDEST PUSH2 0x921 DUP2 PUSH2 0x906 JUMP JUMPDEST DUP2 EQ PUSH2 0x92C JUMPI PUSH1 0x0 DUP1 REVERT JUMPDEST POP JUMP JUMPDEST PUSH1 0x0 DUP2 CALLDATALOAD SWAP1 POP PUSH2 0x93E DUP2 PUSH2 0x918 JUMP JUMPDEST SWAP3 SWAP2 POP POP JUMP JUMPDEST PUSH1 0x0 DUP2 SWAP1 POP SWAP2 SWAP1 POP JUMP JUMPDEST PUSH2 0x957 DUP2 PUSH2 0x944 JUMP JUMPDEST DUP2 EQ PUSH2 0x962 JUMPI PUSH1 0x0 DUP1 REVERT JUMPDEST POP JUMP JUMPDEST PUSH1 0x0 DUP2 CALLDATALOAD SWAP1 POP PUSH2 0x974 DUP2 PUSH2 0x94E JUMP JUMPDEST SWAP3 SWAP2 POP POP JUMP JUMPDEST PUSH1 0x0 DUP1 PUSH1 0x40 DUP4 DUP6 SUB SLT ISZERO PUSH2 0x991 JUMPI PUSH2 0x990 PUSH2 0x8E1 JUMP JUMPDEST JUMPDEST PUSH1 0x0 PUSH2 0x99F DUP6 DUP3 DUP7 ADD PUSH2 0x92F JUMP JUMPDEST SWAP3 POP POP PUSH1 0x20 PUSH2 0x9B0 DUP6 DUP3 DUP7 ADD PUSH2 0x965 JUMP JUMPDEST SWAP2 POP POP SWAP3 POP SWAP3 SWAP1 POP JUMP JUMPDEST PUSH2 0x9C3 DUP2 PUSH2 0x944 JUMP JUMPDEST DUP3 MSTORE POP POP JUMP JUMPDEST PUSH1 0x0 PUSH1 0x20 DUP3 ADD SWAP1 POP PUSH2 0x9DE PUSH1 0x0 DUP4 ADD DUP5 PUSH2 0x9BA JUMP JUMPDEST SWAP3 SWAP2 POP POP JUMP JUMPDEST PUSH1 0x0 DUP1 PUSH1 0x0 PUSH1 0x60 DUP5 DUP7 SUB SLT ISZERO PUSH2 0x9FD JUMPI PUSH2 0x9FC PUSH2 0x8E1 JUMP JUMPDEST JUMPDEST PUSH1 0x0 PUSH2 0xA0B DUP7 DUP3 DUP8 ADD PUSH2 0x92F JUMP JUMPDEST SWAP4 POP POP PUSH1 0x20 PUSH2 0xA1C DUP7 DUP3 DUP8 ADD PUSH2 0x92F JUMP JUMPDEST SWAP3 POP POP PUSH1 0x40 PUSH2 0xA2D DUP7 DUP3 DUP8 ADD PUSH2 0x965 JUMP JUMPDEST SWAP2 POP POP SWAP3 POP SWAP3 POP SWAP3 JUMP JUMPDEST PUSH1 0x0 PUSH1 0x20 DUP3 DUP5 SUB SLT ISZERO PUSH2 0xA4D JUMPI PUSH2 0xA4C PUSH2 0x8E1 JUMP JUMPDEST JUMPDEST PUSH1 0x0 PUSH2 0xA5B DUP5 DUP3 DUP6 ADD PUSH2 0x965 JUMP JUMPDEST SWAP2 POP POP SWAP3 SWAP2 POP POP JUMP JUMPDEST PUSH1 0x0 PUSH1 0x20 DUP3 DUP5 SUB SLT ISZERO PUSH2 0xA7A JUMPI PUSH2 0xA79 PUSH2 0x8E1 JUMP JUMPDEST JUMPDEST PUSH1 0x0 PUSH2 0xA88 DUP5 DUP3 DUP6 ADD PUSH2 0x92F JUMP JUMPDEST SWAP2 POP POP SWAP3 SWAP2 POP POP JUMP JUMPDEST PUSH1 0x0 DUP1 PUSH1 0x40 DUP4 DUP6 SUB SLT ISZERO PUSH2 0xAA8 JUMPI PUSH2 0xAA7 PUSH2 0x8E1 JUMP JUMPDEST JUMPDEST PUSH1 0x0 PUSH2 0xAB6 DUP6 DUP3 DUP7 ADD PUSH2 0x92F JUMP JUMPDEST SWAP3 POP POP PUSH1 0x20 PUSH2 0xAC7 DUP6 DUP3 DUP7 ADD PUSH2 0x92F JUMP JUMPDEST SWAP2 POP POP SWAP3 POP SWAP3 SWAP1 POP JUMP JUMPDEST PUSH1 0x0 DUP3 DUP3 MSTORE PUSH1 0x20 DUP3 ADD SWAP1 POP SWAP3 SWAP2 POP POP JUMP JUMPDEST PUSH32 0x4E6F7420656E6F75676820746F6B656E73210000000000000000000000000000 PUSH1 0x0 DUP3 ADD MSTORE POP JUMP JUMPDEST PUSH1 0x0 PUSH2 0xB18 PUSH1 0x12 DUP4 PUSH2 0xAD1 JUMP JUMPDEST SWAP2 POP PUSH2 0xB23 DUP3 PUSH2 0xAE2 JUMP JUMPDEST PUSH1 0x20 DUP3 ADD SWAP1 POP SWAP2 SWAP1 POP JUMP JUMPDEST PUSH1 0x0 PUSH1 0x20 DUP3 ADD SWAP1 POP DUP2 DUP2 SUB PUSH1 0x0 DUP4 ADD MSTORE PUSH2 0xB47 DUP2 PUSH2 0xB0B JUMP JUMPDEST SWAP1 POP SWAP2 SWAP1 POP JUMP JUMPDEST PUSH32 0x4E487B7100000000000000000000000000000000000000000000000000000000 PUSH1 0x0 MSTORE PUSH1 0x11 PUSH1 0x4 MSTORE PUSH1 0x24 PUSH1 0x0 REVERT JUMPDEST PUSH1 0x0 PUSH2 0xB88 DUP3 PUSH2 0x944 JUMP JUMPDEST SWAP2 POP PUSH2 0xB93 DUP4 PUSH2 0x944 JUMP JUMPDEST SWAP3 POP DUP3 DUP3 SUB SWAP1 POP DUP2 DUP2 GT ISZERO PUSH2 0xBAB JUMPI PUSH2 0xBAA PUSH2 0xB4E JUMP JUMPDEST JUMPDEST SWAP3 SWAP2 POP POP JUMP JUMPDEST PUSH1 0x0 PUSH2 0xBBC DUP3 PUSH2 0x944 JUMP JUMPDEST SWAP2 POP PUSH2 0xBC7 DUP4 PUSH2 0x944 JUMP JUMPDEST SWAP3 POP DUP3 DUP3 ADD SWAP1 POP DUP1 DUP3 GT ISZERO PUSH2 0xBDF JUMPI PUSH2 0xBDE PUSH2 0xB4E JUMP JUMPDEST JUMPDEST SWAP3 SWAP2 POP POP JUMP INVALID LOG2 PUSH5 0x6970667358 0x22 SLT KECCAK256 PUSH7 0xEB9C04EB79D10E 0xD7 0xD 0xF7 0xD3 0xB1 0xCA CALLCODE PUSH18 0xB81F0C18DA635672F4192A308182AD036473 PUSH16 0x6C634300081100330000000000000000 "
				},
				"gasEstimates": {
					"creation": {
						"codeDepositCost": "619800",
						"executionCost": "infinite",
						"totalCost": "infinite"
					},
					"external": {
						"allowance(address,address)": "infinite",
						"approve(address,uint256)": "infinite",
						"balanceOf(address)": "2863",
						"burn(uint256)": "infinite",
						"decimals()": "396",
						"mint(uint256)": "infinite",
						"totalSupply()": "2460",
						"transfer(address,uint256)": "infinite",
						"transferFrom(address,address,uint256)": "infinite"
					}
				},
				"methodIdentifiers": {
					"allowance(address,address)": "dd62ed3e",
					"approve(address,uint256)": "095ea7b3",
					"balanceOf(address)": "70a08231",
					"burn(uint256)": "42966c68",
					"decimals()": "313ce567",
					"mint(uint256)": "a0712d68",
					"totalSupply()": "18160ddd",
					"transfer(address,uint256)": "a9059cbb",
					"transferFrom(address,address,uint256)": "23b872dd"
				}
			},
			"storageLayout": {
				"storage": [
					{
						"astId": 7,
						"contract": "GitHub/MCS-School-Team/Project-Donat/ethereum/contracts/ERC20.sol:ERC20",
						"label": "totalTokens",
						"offset": 0,
						"slot": "0",
						"type": "t_uint256"
					},
					{
						"astId": 11,
						"contract": "GitHub/MCS-School-Team/Project-Donat/ethereum/contracts/ERC20.sol:ERC20",
						"label": "balances",
						"offset": 0,
						"slot": "1",
						"type": "t_mapping(t_address,t_uint256)"
					},
					{
						"astId": 17,
						"contract": "GitHub/MCS-School-Team/Project-Donat/ethereum/contracts/ERC20.sol:ERC20",
						"label": "allowances",
						"offset": 0,
						"slot": "2",
						"type": "t_mapping(t_address,t_mapping(t_address,t_uint256))"
					}
				],
				"types": {
					"t_address": {
						"encoding": "inplace",
						"label": "address",
						"numberOfBytes": "20"
					},
					"t_mapping(t_address,t_mapping(t_address,t_uint256))": {
						"encoding": "mapping",
						"key": "t_address",
						"label": "mapping(address => mapping(address => uint256))",
						"numberOfBytes": "32",
						"value": "t_mapping(t_address,t_uint256)"
					},
					"t_mapping(t_address,t_uint256)": {
						"encoding": "mapping",
						"key": "t_address",
						"label": "mapping(address => uint256)",
						"numberOfBytes": "32",
						"value": "t_uint256"
					},
					"t_uint256": {
						"encoding": "inplace",
						"label": "uint256",
						"numberOfBytes": "32"
					}
				}
			},
			"userdoc": {
				"kind": "user",
				"methods": {
					"decimals()": {
						"notice": "FUNCTIONS ///"
					}
				},
				"version": 1
			}
		}
	}
}