{
	"CrowdFunding_v1.sol": {
		"Crowd": {
			"abi": [
				{
					"inputs": [
						{
							"internalType": "address",
							"name": "_token",
							"type": "address"
						}
					],
					"stateMutability": "nonpayable",
					"type": "constructor"
				},
				{
					"inputs": [],
					"name": "ContributionsClosed",
					"type": "error"
				},
				{
					"inputs": [],
					"name": "RefundsClosed",
					"type": "error"
				},
				{
					"inputs": [],
					"name": "Unauthorized",
					"type": "error"
				},
				{
					"anonymous": false,
					"inputs": [
						{
							"indexed": false,
							"internalType": "uint256",
							"name": "id",
							"type": "uint256"
						}
					],
					"name": "Cancel",
					"type": "event"
				},
				{
					"anonymous": false,
					"inputs": [
						{
							"indexed": false,
							"internalType": "uint256",
							"name": "id",
							"type": "uint256"
						}
					],
					"name": "Claimed",
					"type": "event"
				},
				{
					"anonymous": false,
					"inputs": [
						{
							"indexed": false,
							"internalType": "uint256",
							"name": "id",
							"type": "uint256"
						},
						{
							"indexed": false,
							"internalType": "address",
							"name": "owner",
							"type": "address"
						},
						{
							"indexed": false,
							"internalType": "uint256",
							"name": "goal",
							"type": "uint256"
						},
						{
							"indexed": false,
							"internalType": "enum Crowd.State",
							"name": "_state",
							"type": "uint8"
						}
					],
					"name": "Launched",
					"type": "event"
				},
				{
					"anonymous": false,
					"inputs": [
						{
							"indexed": true,
							"internalType": "address",
							"name": "_changed",
							"type": "address"
						},
						{
							"indexed": false,
							"internalType": "uint256",
							"name": "_oldLimit",
							"type": "uint256"
						},
						{
							"indexed": false,
							"internalType": "uint256",
							"name": "_newLimit",
							"type": "uint256"
						}
					],
					"name": "LimitChanged",
					"type": "event"
				},
				{
					"anonymous": false,
					"inputs": [
						{
							"indexed": true,
							"internalType": "address",
							"name": "_from",
							"type": "address"
						},
						{
							"indexed": false,
							"internalType": "uint256",
							"name": "_amount",
							"type": "uint256"
						}
					],
					"name": "MoneyReceived",
					"type": "event"
				},
				{
					"anonymous": false,
					"inputs": [
						{
							"indexed": false,
							"internalType": "uint256",
							"name": "id",
							"type": "uint256"
						},
						{
							"indexed": false,
							"internalType": "address",
							"name": "pledger",
							"type": "address"
						},
						{
							"indexed": false,
							"internalType": "uint256",
							"name": "amount",
							"type": "uint256"
						}
					],
					"name": "Pledged",
					"type": "event"
				},
				{
					"anonymous": false,
					"inputs": [
						{
							"indexed": false,
							"internalType": "uint256",
							"name": "id",
							"type": "uint256"
						},
						{
							"indexed": false,
							"internalType": "address",
							"name": "pledger",
							"type": "address"
						},
						{
							"indexed": false,
							"internalType": "uint256",
							"name": "amount",
							"type": "uint256"
						}
					],
					"name": "Refunded",
					"type": "event"
				},
				{
					"anonymous": false,
					"inputs": [
						{
							"indexed": false,
							"internalType": "enum Crowd.State",
							"name": "state",
							"type": "uint8"
						}
					],
					"name": "StateUpdated",
					"type": "event"
				},
				{
					"anonymous": false,
					"inputs": [
						{
							"indexed": false,
							"internalType": "uint256",
							"name": "id",
							"type": "uint256"
						},
						{
							"indexed": false,
							"internalType": "address",
							"name": "pledger",
							"type": "address"
						},
						{
							"indexed": false,
							"internalType": "uint256",
							"name": "amount",
							"type": "uint256"
						}
					],
					"name": "Unpledged",
					"type": "event"
				},
				{
					"stateMutability": "payable",
					"type": "fallback"
				},
				{
					"inputs": [
						{
							"internalType": "uint256",
							"name": "",
							"type": "uint256"
						},
						{
							"internalType": "address",
							"name": "",
							"type": "address"
						}
					],
					"name": "admins",
					"outputs": [
						{
							"internalType": "bool",
							"name": "",
							"type": "bool"
						}
					],
					"stateMutability": "view",
					"type": "function"
				},
				{
					"inputs": [
						{
							"internalType": "uint256",
							"name": "",
							"type": "uint256"
						}
					],
					"name": "campaigns",
					"outputs": [
						{
							"internalType": "address",
							"name": "owner",
							"type": "address"
						},
						{
							"internalType": "uint256",
							"name": "goal",
							"type": "uint256"
						},
						{
							"internalType": "uint256",
							"name": "pledged",
							"type": "uint256"
						},
						{
							"internalType": "enum Crowd.State",
							"name": "state",
							"type": "uint8"
						},
						{
							"internalType": "bool",
							"name": "claimed",
							"type": "bool"
						}
					],
					"stateMutability": "view",
					"type": "function"
				},
				{
					"inputs": [
						{
							"internalType": "uint256",
							"name": "_id",
							"type": "uint256"
						}
					],
					"name": "cancel",
					"outputs": [],
					"stateMutability": "nonpayable",
					"type": "function"
				},
				{
					"inputs": [
						{
							"internalType": "uint256",
							"name": "_id",
							"type": "uint256"
						}
					],
					"name": "claim",
					"outputs": [],
					"stateMutability": "nonpayable",
					"type": "function"
				},
				{
					"inputs": [],
					"name": "currentId",
					"outputs": [
						{
							"internalType": "uint256",
							"name": "",
							"type": "uint256"
						}
					],
					"stateMutability": "view",
					"type": "function"
				},
				{
					"inputs": [],
					"name": "getValueClosed",
					"outputs": [
						{
							"internalType": "uint256",
							"name": "",
							"type": "uint256"
						}
					],
					"stateMutability": "view",
					"type": "function"
				},
				{
					"inputs": [],
					"name": "getValueOpen",
					"outputs": [
						{
							"internalType": "uint256",
							"name": "",
							"type": "uint256"
						}
					],
					"stateMutability": "view",
					"type": "function"
				},
				{
					"inputs": [
						{
							"internalType": "uint256",
							"name": "_goal",
							"type": "uint256"
						}
					],
					"name": "launch",
					"outputs": [],
					"stateMutability": "nonpayable",
					"type": "function"
				},
				{
					"inputs": [
						{
							"internalType": "uint256",
							"name": "_id",
							"type": "uint256"
						},
						{
							"internalType": "address",
							"name": "_member",
							"type": "address"
						}
					],
					"name": "makeAdmin",
					"outputs": [],
					"stateMutability": "nonpayable",
					"type": "function"
				},
				{
					"inputs": [
						{
							"internalType": "uint256",
							"name": "_id",
							"type": "uint256"
						},
						{
							"internalType": "uint256",
							"name": "_amount",
							"type": "uint256"
						}
					],
					"name": "pledge",
					"outputs": [],
					"stateMutability": "nonpayable",
					"type": "function"
				},
				{
					"inputs": [
						{
							"internalType": "uint256",
							"name": "",
							"type": "uint256"
						},
						{
							"internalType": "uint256",
							"name": "",
							"type": "uint256"
						}
					],
					"name": "pledgers",
					"outputs": [
						{
							"internalType": "address",
							"name": "",
							"type": "address"
						}
					],
					"stateMutability": "view",
					"type": "function"
				},
				{
					"inputs": [
						{
							"internalType": "uint256",
							"name": "",
							"type": "uint256"
						},
						{
							"internalType": "address",
							"name": "",
							"type": "address"
						}
					],
					"name": "pledges",
					"outputs": [
						{
							"internalType": "uint256",
							"name": "",
							"type": "uint256"
						}
					],
					"stateMutability": "view",
					"type": "function"
				},
				{
					"inputs": [
						{
							"internalType": "uint256",
							"name": "_id",
							"type": "uint256"
						},
						{
							"internalType": "address",
							"name": "_address",
							"type": "address"
						}
					],
					"name": "refund",
					"outputs": [],
					"stateMutability": "nonpayable",
					"type": "function"
				},
				{
					"inputs": [
						{
							"internalType": "uint256",
							"name": "_id",
							"type": "uint256"
						}
					],
					"name": "refundAll",
					"outputs": [],
					"stateMutability": "nonpayable",
					"type": "function"
				},
				{
					"inputs": [
						{
							"internalType": "uint256",
							"name": "_id",
							"type": "uint256"
						},
						{
							"internalType": "address",
							"name": "_member",
							"type": "address"
						}
					],
					"name": "revokeAdmin",
					"outputs": [],
					"stateMutability": "nonpayable",
					"type": "function"
				},
				{
					"inputs": [
						{
							"internalType": "uint256",
							"name": "_id",
							"type": "uint256"
						}
					],
					"name": "setState",
					"outputs": [],
					"stateMutability": "nonpayable",
					"type": "function"
				},
				{
					"inputs": [],
					"name": "token",
					"outputs": [
						{
							"internalType": "contract IERC20",
							"name": "",
							"type": "address"
						}
					],
					"stateMutability": "view",
					"type": "function"
				},
				{
					"stateMutability": "payable",
					"type": "receive"
				}
			],
			"devdoc": {
				"kind": "dev",
				"methods": {},
				"version": 1
			},
			"evm": {
				"assembly": "    /* \"CrowdFunding_v1.sol\":130:6979  contract Crowd {... */\n  mstore(0x40, 0xa0)\n    /* \"CrowdFunding_v1.sol\":2420:2489  constructor(address _token) {... */\n  callvalue\n  dup1\n  iszero\n  tag_1\n  jumpi\n  0x00\n  dup1\n  revert\ntag_1:\n  pop\n  mload(0x40)\n  sub(codesize, bytecodeSize)\n  dup1\n  bytecodeSize\n  dup4\n  codecopy\n  dup2\n  dup2\n  add\n  0x40\n  mstore\n  dup2\n  add\n  swap1\n  tag_2\n  swap2\n  swap1\n  tag_3\n  jump\t// in\ntag_2:\n    /* \"CrowdFunding_v1.sol\":2474:2480  _token */\n  dup1\n    /* \"CrowdFunding_v1.sol\":2459:2481  token = IERC20(_token) */\n  0xffffffffffffffffffffffffffffffffffffffff\n  and\n  0x80\n  dup2\n  0xffffffffffffffffffffffffffffffffffffffff\n  and\n  dup2\n  mstore\n  pop\n  pop\n    /* \"CrowdFunding_v1.sol\":2420:2489  constructor(address _token) {... */\n  pop\n    /* \"CrowdFunding_v1.sol\":130:6979  contract Crowd {... */\n  jump(tag_6)\n    /* \"#utility.yul\":88:205   */\ntag_8:\n    /* \"#utility.yul\":197:198   */\n  0x00\n    /* \"#utility.yul\":194:195   */\n  dup1\n    /* \"#utility.yul\":187:199   */\n  revert\n    /* \"#utility.yul\":334:460   */\ntag_10:\n    /* \"#utility.yul\":371:378   */\n  0x00\n    /* \"#utility.yul\":411:453   */\n  0xffffffffffffffffffffffffffffffffffffffff\n    /* \"#utility.yul\":404:409   */\n  dup3\n    /* \"#utility.yul\":400:454   */\n  and\n    /* \"#utility.yul\":389:454   */\n  swap1\n  pop\n    /* \"#utility.yul\":334:460   */\n  swap2\n  swap1\n  pop\n  jump\t// out\n    /* \"#utility.yul\":466:562   */\ntag_11:\n    /* \"#utility.yul\":503:510   */\n  0x00\n    /* \"#utility.yul\":532:556   */\n  tag_20\n    /* \"#utility.yul\":550:555   */\n  dup3\n    /* \"#utility.yul\":532:556   */\n  tag_10\n  jump\t// in\ntag_20:\n    /* \"#utility.yul\":521:556   */\n  swap1\n  pop\n    /* \"#utility.yul\":466:562   */\n  swap2\n  swap1\n  pop\n  jump\t// out\n    /* \"#utility.yul\":568:690   */\ntag_12:\n    /* \"#utility.yul\":641:665   */\n  tag_22\n    /* \"#utility.yul\":659:664   */\n  dup2\n    /* \"#utility.yul\":641:665   */\n  tag_11\n  jump\t// in\ntag_22:\n    /* \"#utility.yul\":634:639   */\n  dup2\n    /* \"#utility.yul\":631:666   */\n  eq\n    /* \"#utility.yul\":621:684   */\n  tag_23\n  jumpi\n    /* \"#utility.yul\":680:681   */\n  0x00\n    /* \"#utility.yul\":677:678   */\n  dup1\n    /* \"#utility.yul\":670:682   */\n  revert\n    /* \"#utility.yul\":621:684   */\ntag_23:\n    /* \"#utility.yul\":568:690   */\n  pop\n  jump\t// out\n    /* \"#utility.yul\":696:839   */\ntag_13:\n    /* \"#utility.yul\":753:758   */\n  0x00\n    /* \"#utility.yul\":784:790   */\n  dup2\n    /* \"#utility.yul\":778:791   */\n  mload\n    /* \"#utility.yul\":769:791   */\n  swap1\n  pop\n    /* \"#utility.yul\":800:833   */\n  tag_25\n    /* \"#utility.yul\":827:832   */\n  dup2\n    /* \"#utility.yul\":800:833   */\n  tag_12\n  jump\t// in\ntag_25:\n    /* \"#utility.yul\":696:839   */\n  swap3\n  swap2\n  pop\n  pop\n  jump\t// out\n    /* \"#utility.yul\":845:1196   */\ntag_3:\n    /* \"#utility.yul\":915:921   */\n  0x00\n    /* \"#utility.yul\":964:966   */\n  0x20\n    /* \"#utility.yul\":952:961   */\n  dup3\n    /* \"#utility.yul\":943:950   */\n  dup5\n    /* \"#utility.yul\":939:962   */\n  sub\n    /* \"#utility.yul\":935:967   */\n  slt\n    /* \"#utility.yul\":932:1051   */\n  iszero\n  tag_27\n  jumpi\n    /* \"#utility.yul\":970:1049   */\n  tag_28\n  tag_8\n  jump\t// in\ntag_28:\n    /* \"#utility.yul\":932:1051   */\ntag_27:\n    /* \"#utility.yul\":1090:1091   */\n  0x00\n    /* \"#utility.yul\":1115:1179   */\n  tag_29\n    /* \"#utility.yul\":1171:1178   */\n  dup5\n    /* \"#utility.yul\":1162:1168   */\n  dup3\n    /* \"#utility.yul\":1151:1160   */\n  dup6\n    /* \"#utility.yul\":1147:1169   */\n  add\n    /* \"#utility.yul\":1115:1179   */\n  tag_13\n  jump\t// in\ntag_29:\n    /* \"#utility.yul\":1105:1179   */\n  swap2\n  pop\n    /* \"#utility.yul\":1061:1189   */\n  pop\n    /* \"#utility.yul\":845:1196   */\n  swap3\n  swap2\n  pop\n  pop\n  jump\t// out\n    /* \"CrowdFunding_v1.sol\":130:6979  contract Crowd {... */\ntag_6:\n  mload(0x80)\n  codecopy(0x00, dataOffset(sub_0), dataSize(sub_0))\n  0x00\n  assignImmutable(\"0x3b4066bd7b7960752225af105d3beafb5c47a26c5aae7e6798a437b7c0bb33e6\")\n  return(0x00, dataSize(sub_0))\nstop\n\nsub_0: assembly {\n        /* \"CrowdFunding_v1.sol\":130:6979  contract Crowd {... */\n      mstore(0x40, 0x80)\n      jumpi(tag_1, lt(calldatasize, 0x04))\n      shr(0xe0, calldataload(0x00))\n      dup1\n      0x8e97f524\n      gt\n      tag_20\n      jumpi\n      dup1\n      0xba282398\n      gt\n      tag_21\n      jumpi\n      dup1\n      0xba282398\n      eq\n      tag_15\n      jumpi\n      dup1\n      0xe00dd161\n      eq\n      tag_16\n      jumpi\n      dup1\n      0xe9fee16f\n      eq\n      tag_17\n      jumpi\n      dup1\n      0xfc0c546a\n      eq\n      tag_18\n      jumpi\n      dup1\n      0xfde327be\n      eq\n      tag_19\n      jumpi\n      jump(tag_2)\n    tag_21:\n      dup1\n      0x8e97f524\n      eq\n      tag_11\n      jumpi\n      dup1\n      0x92f77154\n      eq\n      tag_12\n      jumpi\n      dup1\n      0xa41c57bc\n      eq\n      tag_13\n      jumpi\n      dup1\n      0xa9e966b7\n      eq\n      tag_14\n      jumpi\n      jump(tag_2)\n    tag_20:\n      dup1\n      0x51b1e474\n      gt\n      tag_22\n      jumpi\n      dup1\n      0x51b1e474\n      eq\n      tag_7\n      jumpi\n      dup1\n      0x6244c42f\n      eq\n      tag_8\n      jumpi\n      dup1\n      0x7ad226dc\n      eq\n      tag_9\n      jumpi\n      dup1\n      0x85b12c7c\n      eq\n      tag_10\n      jumpi\n      jump(tag_2)\n    tag_22:\n      dup1\n      0x0b46056b\n      eq\n      tag_3\n      jumpi\n      dup1\n      0x141961bc\n      eq\n      tag_4\n      jumpi\n      dup1\n      0x379607f5\n      eq\n      tag_5\n      jumpi\n      dup1\n      0x40e58ee5\n      eq\n      tag_6\n      jumpi\n      jump(tag_2)\n    tag_1:\n      jumpi(tag_2, calldatasize)\n        /* \"CrowdFunding_v1.sol\":6942:6952  msg.sender */\n      caller\n        /* \"CrowdFunding_v1.sol\":6928:6964  MoneyReceived(msg.sender, msg.value) */\n      0xffffffffffffffffffffffffffffffffffffffff\n      and\n      0x27b15ed4cf832749ed39f33a64e4707ed60a761485e41ffec7343ecaddc0c02a\n        /* \"CrowdFunding_v1.sol\":6954:6963  msg.value */\n      callvalue\n        /* \"CrowdFunding_v1.sol\":6928:6964  MoneyReceived(msg.sender, msg.value) */\n      mload(0x40)\n      tag_25\n      swap2\n      swap1\n      tag_26\n      jump\t// in\n    tag_25:\n      mload(0x40)\n      dup1\n      swap2\n      sub\n      swap1\n      log2\n        /* \"CrowdFunding_v1.sol\":130:6979  contract Crowd {... */\n      stop\n    tag_2:\n      stop\n        /* \"CrowdFunding_v1.sol\":1841:1897  mapping (uint => mapping(address => bool)) public admins */\n    tag_3:\n      callvalue\n      dup1\n      iszero\n      tag_29\n      jumpi\n      0x00\n      dup1\n      revert\n    tag_29:\n      pop\n      tag_30\n      0x04\n      dup1\n      calldatasize\n      sub\n      dup2\n      add\n      swap1\n      tag_31\n      swap2\n      swap1\n      tag_32\n      jump\t// in\n    tag_31:\n      tag_33\n      jump\t// in\n    tag_30:\n      mload(0x40)\n      tag_34\n      swap2\n      swap1\n      tag_35\n      jump\t// in\n    tag_34:\n      mload(0x40)\n      dup1\n      swap2\n      sub\n      swap1\n      return\n        /* \"CrowdFunding_v1.sol\":1318:1360  mapping(uint => Campaign) public campaigns */\n    tag_4:\n      callvalue\n      dup1\n      iszero\n      tag_36\n      jumpi\n      0x00\n      dup1\n      revert\n    tag_36:\n      pop\n      tag_37\n      0x04\n      dup1\n      calldatasize\n      sub\n      dup2\n      add\n      swap1\n      tag_38\n      swap2\n      swap1\n      tag_39\n      jump\t// in\n    tag_38:\n      tag_40\n      jump\t// in\n    tag_37:\n      mload(0x40)\n      tag_41\n      swap6\n      swap5\n      swap4\n      swap3\n      swap2\n      swap1\n      tag_42\n      jump\t// in\n    tag_41:\n      mload(0x40)\n      dup1\n      swap2\n      sub\n      swap1\n      return\n        /* \"CrowdFunding_v1.sol\":5055:5504  function claim(uint _id) external {... */\n    tag_5:\n      callvalue\n      dup1\n      iszero\n      tag_43\n      jumpi\n      0x00\n      dup1\n      revert\n    tag_43:\n      pop\n      tag_44\n      0x04\n      dup1\n      calldatasize\n      sub\n      dup2\n      add\n      swap1\n      tag_45\n      swap2\n      swap1\n      tag_39\n      jump\t// in\n    tag_45:\n      tag_46\n      jump\t// in\n    tag_44:\n      stop\n        /* \"CrowdFunding_v1.sol\":3262:3598  function cancel(uint _id) external {... */\n    tag_6:\n      callvalue\n      dup1\n      iszero\n      tag_47\n      jumpi\n      0x00\n      dup1\n      revert\n    tag_47:\n      pop\n      tag_48\n      0x04\n      dup1\n      calldatasize\n      sub\n      dup2\n      add\n      swap1\n      tag_49\n      swap2\n      swap1\n      tag_39\n      jump\t// in\n    tag_49:\n      tag_50\n      jump\t// in\n    tag_48:\n      stop\n        /* \"CrowdFunding_v1.sol\":1703:1745  mapping(uint => address[]) public pledgers */\n    tag_7:\n      callvalue\n      dup1\n      iszero\n      tag_51\n      jumpi\n      0x00\n      dup1\n      revert\n    tag_51:\n      pop\n      tag_52\n      0x04\n      dup1\n      calldatasize\n      sub\n      dup2\n      add\n      swap1\n      tag_53\n      swap2\n      swap1\n      tag_54\n      jump\t// in\n    tag_53:\n      tag_55\n      jump\t// in\n    tag_52:\n      mload(0x40)\n      tag_56\n      swap2\n      swap1\n      tag_57\n      jump\t// in\n    tag_56:\n      mload(0x40)\n      dup1\n      swap2\n      sub\n      swap1\n      return\n        /* \"CrowdFunding_v1.sol\":2592:2701  function getValueClosed() public view returns(uint) {... */\n    tag_8:\n      callvalue\n      dup1\n      iszero\n      tag_58\n      jumpi\n      0x00\n      dup1\n      revert\n    tag_58:\n      pop\n      tag_59\n      tag_60\n      jump\t// in\n    tag_59:\n      mload(0x40)\n      tag_61\n      swap2\n      swap1\n      tag_26\n      jump\t// in\n    tag_61:\n      mload(0x40)\n      dup1\n      swap2\n      sub\n      swap1\n      return\n        /* \"CrowdFunding_v1.sol\":5569:6060  function refund(uint _id, address _address) external {... */\n    tag_9:\n      callvalue\n      dup1\n      iszero\n      tag_62\n      jumpi\n      0x00\n      dup1\n      revert\n    tag_62:\n      pop\n      tag_63\n      0x04\n      dup1\n      calldatasize\n      sub\n      dup2\n      add\n      swap1\n      tag_64\n      swap2\n      swap1\n      tag_32\n      jump\t// in\n    tag_64:\n      tag_65\n      jump\t// in\n    tag_63:\n      stop\n        /* \"CrowdFunding_v1.sol\":2866:3207  function launch(uint _goal) public {... */\n    tag_10:\n      callvalue\n      dup1\n      iszero\n      tag_66\n      jumpi\n      0x00\n      dup1\n      revert\n    tag_66:\n      pop\n      tag_67\n      0x04\n      dup1\n      calldatasize\n      sub\n      dup2\n      add\n      swap1\n      tag_68\n      swap2\n      swap1\n      tag_39\n      jump\t// in\n    tag_68:\n      tag_69\n      jump\t// in\n    tag_67:\n      stop\n        /* \"CrowdFunding_v1.sol\":1541:1597  mapping(uint => mapping(address => uint)) public pledges */\n    tag_11:\n      callvalue\n      dup1\n      iszero\n      tag_70\n      jumpi\n      0x00\n      dup1\n      revert\n    tag_70:\n      pop\n      tag_71\n      0x04\n      dup1\n      calldatasize\n      sub\n      dup2\n      add\n      swap1\n      tag_72\n      swap2\n      swap1\n      tag_32\n      jump\t// in\n    tag_72:\n      tag_73\n      jump\t// in\n    tag_71:\n      mload(0x40)\n      tag_74\n      swap2\n      swap1\n      tag_26\n      jump\t// in\n    tag_74:\n      mload(0x40)\n      dup1\n      swap2\n      sub\n      swap1\n      return\n        /* \"CrowdFunding_v1.sol\":2706:2811  function getValueOpen() public view returns(uint) {... */\n    tag_12:\n      callvalue\n      dup1\n      iszero\n      tag_75\n      jumpi\n      0x00\n      dup1\n      revert\n    tag_75:\n      pop\n      tag_76\n      tag_77\n      jump\t// in\n    tag_76:\n      mload(0x40)\n      tag_78\n      swap2\n      swap1\n      tag_26\n      jump\t// in\n    tag_78:\n      mload(0x40)\n      dup1\n      swap2\n      sub\n      swap1\n      return\n        /* \"CrowdFunding_v1.sol\":3645:3871  function makeAdmin(uint _id, address _member) public {... */\n    tag_13:\n      callvalue\n      dup1\n      iszero\n      tag_79\n      jumpi\n      0x00\n      dup1\n      revert\n    tag_79:\n      pop\n      tag_80\n      0x04\n      dup1\n      calldatasize\n      sub\n      dup2\n      add\n      swap1\n      tag_81\n      swap2\n      swap1\n      tag_32\n      jump\t// in\n    tag_81:\n      tag_82\n      jump\t// in\n    tag_80:\n      stop\n        /* \"CrowdFunding_v1.sol\":4759:5004  function setState(uint _id) public {... */\n    tag_14:\n      callvalue\n      dup1\n      iszero\n      tag_83\n      jumpi\n      0x00\n      dup1\n      revert\n    tag_83:\n      pop\n      tag_84\n      0x04\n      dup1\n      calldatasize\n      sub\n      dup2\n      add\n      swap1\n      tag_85\n      swap2\n      swap1\n      tag_39\n      jump\t// in\n    tag_85:\n      tag_86\n      jump\t// in\n    tag_84:\n      stop\n        /* \"CrowdFunding_v1.sol\":3921:4149  function revokeAdmin(uint _id, address _member) public {... */\n    tag_15:\n      callvalue\n      dup1\n      iszero\n      tag_87\n      jumpi\n      0x00\n      dup1\n      revert\n    tag_87:\n      pop\n      tag_88\n      0x04\n      dup1\n      calldatasize\n      sub\n      dup2\n      add\n      swap1\n      tag_89\n      swap2\n      swap1\n      tag_32\n      jump\t// in\n    tag_89:\n      tag_90\n      jump\t// in\n    tag_88:\n      stop\n        /* \"CrowdFunding_v1.sol\":1411:1432  uint public currentId */\n    tag_16:\n      callvalue\n      dup1\n      iszero\n      tag_91\n      jumpi\n      0x00\n      dup1\n      revert\n    tag_91:\n      pop\n      tag_92\n      tag_93\n      jump\t// in\n    tag_92:\n      mload(0x40)\n      tag_94\n      swap2\n      swap1\n      tag_26\n      jump\t// in\n    tag_94:\n      mload(0x40)\n      dup1\n      swap2\n      sub\n      swap1\n      return\n        /* \"CrowdFunding_v1.sol\":6137:6807  function refundAll(uint _id) external {... */\n    tag_17:\n      callvalue\n      dup1\n      iszero\n      tag_95\n      jumpi\n      0x00\n      dup1\n      revert\n    tag_95:\n      pop\n      tag_96\n      0x04\n      dup1\n      calldatasize\n      sub\n      dup2\n      add\n      swap1\n      tag_97\n      swap2\n      swap1\n      tag_39\n      jump\t// in\n    tag_97:\n      tag_98\n      jump\t// in\n    tag_96:\n      stop\n        /* \"CrowdFunding_v1.sol\":1233:1262  IERC20 public immutable token */\n    tag_18:\n      callvalue\n      dup1\n      iszero\n      tag_99\n      jumpi\n      0x00\n      dup1\n      revert\n    tag_99:\n      pop\n      tag_100\n      tag_101\n      jump\t// in\n    tag_100:\n      mload(0x40)\n      tag_102\n      swap2\n      swap1\n      tag_103\n      jump\t// in\n    tag_102:\n      mload(0x40)\n      dup1\n      swap2\n      sub\n      swap1\n      return\n        /* \"CrowdFunding_v1.sol\":4192:4612  function pledge(uint _id, uint _amount) external {... */\n    tag_19:\n      callvalue\n      dup1\n      iszero\n      tag_104\n      jumpi\n      0x00\n      dup1\n      revert\n    tag_104:\n      pop\n      tag_105\n      0x04\n      dup1\n      calldatasize\n      sub\n      dup2\n      add\n      swap1\n      tag_106\n      swap2\n      swap1\n      tag_54\n      jump\t// in\n    tag_106:\n      tag_107\n      jump\t// in\n    tag_105:\n      stop\n        /* \"CrowdFunding_v1.sol\":1841:1897  mapping (uint => mapping(address => bool)) public admins */\n    tag_33:\n      mstore(0x20, 0x05)\n      dup2\n      0x00\n      mstore\n      mstore(0x20, keccak256(0x00, 0x40))\n      dup1\n      0x00\n      mstore\n      keccak256(0x00, 0x40)\n      0x00\n      swap2\n      pop\n      swap2\n      pop\n      swap1\n      sload\n      swap1\n      0x0100\n      exp\n      swap1\n      div\n      0xff\n      and\n      dup2\n      jump\t// out\n        /* \"CrowdFunding_v1.sol\":1318:1360  mapping(uint => Campaign) public campaigns */\n    tag_40:\n      mstore(0x20, 0x01)\n      dup1\n      0x00\n      mstore\n      keccak256(0x00, 0x40)\n      0x00\n      swap2\n      pop\n      swap1\n      pop\n      dup1\n      0x00\n      add\n      0x00\n      swap1\n      sload\n      swap1\n      0x0100\n      exp\n      swap1\n      div\n      0xffffffffffffffffffffffffffffffffffffffff\n      and\n      swap1\n      dup1\n      0x01\n      add\n      sload\n      swap1\n      dup1\n      0x02\n      add\n      sload\n      swap1\n      dup1\n      0x03\n      add\n      0x00\n      swap1\n      sload\n      swap1\n      0x0100\n      exp\n      swap1\n      div\n      0xff\n      and\n      swap1\n      dup1\n      0x03\n      add\n      0x01\n      swap1\n      sload\n      swap1\n      0x0100\n      exp\n      swap1\n      div\n      0xff\n      and\n      swap1\n      pop\n      dup6\n      jump\t// out\n        /* \"CrowdFunding_v1.sol\":5055:5504  function claim(uint _id) external {... */\n    tag_46:\n        /* \"CrowdFunding_v1.sol\":5099:5124  Campaign storage campaign */\n      0x00\n        /* \"CrowdFunding_v1.sol\":5127:5136  campaigns */\n      0x01\n        /* \"CrowdFunding_v1.sol\":5127:5141  campaigns[_id] */\n      0x00\n        /* \"CrowdFunding_v1.sol\":5137:5140  _id */\n      dup4\n        /* \"CrowdFunding_v1.sol\":5127:5141  campaigns[_id] */\n      dup2\n      mstore\n      0x20\n      add\n      swap1\n      dup2\n      mstore\n      0x20\n      add\n      0x00\n      keccak256\n        /* \"CrowdFunding_v1.sol\":5099:5141  Campaign storage campaign = campaigns[_id] */\n      swap1\n      pop\n        /* \"CrowdFunding_v1.sol\":5173:5181  campaign */\n      dup1\n        /* \"CrowdFunding_v1.sol\":5173:5187  campaign.owner */\n      0x00\n      add\n      0x00\n      swap1\n      sload\n      swap1\n      0x0100\n      exp\n      swap1\n      div\n      0xffffffffffffffffffffffffffffffffffffffff\n      and\n        /* \"CrowdFunding_v1.sol\":5159:5187  msg.sender == campaign.owner */\n      0xffffffffffffffffffffffffffffffffffffffff\n      and\n        /* \"CrowdFunding_v1.sol\":5159:5169  msg.sender */\n      caller\n        /* \"CrowdFunding_v1.sol\":5159:5187  msg.sender == campaign.owner */\n      0xffffffffffffffffffffffffffffffffffffffff\n      and\n      eq\n        /* \"CrowdFunding_v1.sol\":5159:5222  msg.sender == campaign.owner || admins[_id][msg.sender] == true */\n      dup1\n      tag_109\n      jumpi\n      pop\n        /* \"CrowdFunding_v1.sol\":5218:5222  true */\n      0x01\n        /* \"CrowdFunding_v1.sol\":5191:5222  admins[_id][msg.sender] == true */\n      iszero\n      iszero\n        /* \"CrowdFunding_v1.sol\":5191:5197  admins */\n      0x05\n        /* \"CrowdFunding_v1.sol\":5191:5202  admins[_id] */\n      0x00\n        /* \"CrowdFunding_v1.sol\":5198:5201  _id */\n      dup5\n        /* \"CrowdFunding_v1.sol\":5191:5202  admins[_id] */\n      dup2\n      mstore\n      0x20\n      add\n      swap1\n      dup2\n      mstore\n      0x20\n      add\n      0x00\n      keccak256\n        /* \"CrowdFunding_v1.sol\":5191:5214  admins[_id][msg.sender] */\n      0x00\n        /* \"CrowdFunding_v1.sol\":5203:5213  msg.sender */\n      caller\n        /* \"CrowdFunding_v1.sol\":5191:5214  admins[_id][msg.sender] */\n      0xffffffffffffffffffffffffffffffffffffffff\n      and\n      0xffffffffffffffffffffffffffffffffffffffff\n      and\n      dup2\n      mstore\n      0x20\n      add\n      swap1\n      dup2\n      mstore\n      0x20\n      add\n      0x00\n      keccak256\n      0x00\n      swap1\n      sload\n      swap1\n      0x0100\n      exp\n      swap1\n      div\n      0xff\n      and\n        /* \"CrowdFunding_v1.sol\":5191:5222  admins[_id][msg.sender] == true */\n      iszero\n      iszero\n      eq\n        /* \"CrowdFunding_v1.sol\":5159:5222  msg.sender == campaign.owner || admins[_id][msg.sender] == true */\n    tag_109:\n        /* \"CrowdFunding_v1.sol\":5151:5245  require(msg.sender == campaign.owner || admins[_id][msg.sender] == true, \"not enough rights!\") */\n      tag_110\n      jumpi\n      mload(0x40)\n      0x08c379a000000000000000000000000000000000000000000000000000000000\n      dup2\n      mstore\n      0x04\n      add\n      tag_111\n      swap1\n      tag_112\n      jump\t// in\n    tag_111:\n      mload(0x40)\n      dup1\n      swap2\n      sub\n      swap1\n      revert\n    tag_110:\n        /* \"CrowdFunding_v1.sol\":5283:5291  campaign */\n      dup1\n        /* \"CrowdFunding_v1.sol\":5283:5296  campaign.goal */\n      0x01\n      add\n      sload\n        /* \"CrowdFunding_v1.sol\":5263:5271  campaign */\n      dup2\n        /* \"CrowdFunding_v1.sol\":5263:5279  campaign.pledged */\n      0x02\n      add\n      sload\n        /* \"CrowdFunding_v1.sol\":5263:5296  campaign.pledged >= campaign.goal */\n      lt\n      iszero\n        /* \"CrowdFunding_v1.sol\":5255:5319  require(campaign.pledged >= campaign.goal, \"pledged is too low\") */\n      tag_113\n      jumpi\n      mload(0x40)\n      0x08c379a000000000000000000000000000000000000000000000000000000000\n      dup2\n      mstore\n      0x04\n      add\n      tag_114\n      swap1\n      tag_115\n      jump\t// in\n    tag_114:\n      mload(0x40)\n      dup1\n      swap2\n      sub\n      swap1\n      revert\n    tag_113:\n        /* \"CrowdFunding_v1.sol\":5338:5346  campaign */\n      dup1\n        /* \"CrowdFunding_v1.sol\":5338:5354  campaign.claimed */\n      0x03\n      add\n      0x01\n      swap1\n      sload\n      swap1\n      0x0100\n      exp\n      swap1\n      div\n      0xff\n      and\n        /* \"CrowdFunding_v1.sol\":5337:5354  !campaign.claimed */\n      iszero\n        /* \"CrowdFunding_v1.sol\":5329:5374  require(!campaign.claimed, \"already claimed\") */\n      tag_116\n      jumpi\n      mload(0x40)\n      0x08c379a000000000000000000000000000000000000000000000000000000000\n      dup2\n      mstore\n      0x04\n      add\n      tag_117\n      swap1\n      tag_118\n      jump\t// in\n    tag_117:\n      mload(0x40)\n      dup1\n      swap2\n      sub\n      swap1\n      revert\n    tag_116:\n        /* \"CrowdFunding_v1.sol\":5412:5416  true */\n      0x01\n        /* \"CrowdFunding_v1.sol\":5393:5401  campaign */\n      dup2\n        /* \"CrowdFunding_v1.sol\":5393:5409  campaign.claimed */\n      0x03\n      add\n      0x01\n        /* \"CrowdFunding_v1.sol\":5393:5416  campaign.claimed = true */\n      0x0100\n      exp\n      dup2\n      sload\n      dup2\n      0xff\n      mul\n      not\n      and\n      swap1\n      dup4\n      iszero\n      iszero\n      mul\n      or\n      swap1\n      sstore\n      pop\n        /* \"CrowdFunding_v1.sol\":5426:5431  token */\n      immutable(\"0x3b4066bd7b7960752225af105d3beafb5c47a26c5aae7e6798a437b7c0bb33e6\")\n        /* \"CrowdFunding_v1.sol\":5426:5440  token.transfer */\n      0xffffffffffffffffffffffffffffffffffffffff\n      and\n      0xa9059cbb\n        /* \"CrowdFunding_v1.sol\":5441:5451  msg.sender */\n      caller\n        /* \"CrowdFunding_v1.sol\":5453:5461  campaign */\n      dup4\n        /* \"CrowdFunding_v1.sol\":5453:5469  campaign.pledged */\n      0x02\n      add\n      sload\n        /* \"CrowdFunding_v1.sol\":5426:5470  token.transfer(msg.sender, campaign.pledged) */\n      mload(0x40)\n      dup4\n      0xffffffff\n      and\n      0xe0\n      shl\n      dup2\n      mstore\n      0x04\n      add\n      tag_119\n      swap3\n      swap2\n      swap1\n      tag_120\n      jump\t// in\n    tag_119:\n      0x00\n      mload(0x40)\n      dup1\n      dup4\n      sub\n      dup2\n      0x00\n      dup8\n      dup1\n      extcodesize\n      iszero\n      dup1\n      iszero\n      tag_121\n      jumpi\n      0x00\n      dup1\n      revert\n    tag_121:\n      pop\n      gas\n      call\n      iszero\n      dup1\n      iszero\n      tag_123\n      jumpi\n      returndatasize\n      0x00\n      dup1\n      returndatacopy\n      revert(0x00, returndatasize)\n    tag_123:\n      pop\n      pop\n      pop\n      pop\n        /* \"CrowdFunding_v1.sol\":5485:5497  Claimed(_id) */\n      0x7a355715549cfe7c1cba26304350343fbddc4b4f72d3ce3e7c27117dd20b5cb8\n        /* \"CrowdFunding_v1.sol\":5493:5496  _id */\n      dup3\n        /* \"CrowdFunding_v1.sol\":5485:5497  Claimed(_id) */\n      mload(0x40)\n      tag_124\n      swap2\n      swap1\n      tag_26\n      jump\t// in\n    tag_124:\n      mload(0x40)\n      dup1\n      swap2\n      sub\n      swap1\n      log1\n        /* \"CrowdFunding_v1.sol\":5089:5504  {... */\n      pop\n        /* \"CrowdFunding_v1.sol\":5055:5504  function claim(uint _id) external {... */\n      pop\n      jump\t// out\n        /* \"CrowdFunding_v1.sol\":3262:3598  function cancel(uint _id) external {... */\n    tag_50:\n        /* \"CrowdFunding_v1.sol\":3308:3332  Campaign memory campaign */\n      0x00\n        /* \"CrowdFunding_v1.sol\":3335:3344  campaigns */\n      0x01\n        /* \"CrowdFunding_v1.sol\":3335:3349  campaigns[_id] */\n      0x00\n        /* \"CrowdFunding_v1.sol\":3345:3348  _id */\n      dup4\n        /* \"CrowdFunding_v1.sol\":3335:3349  campaigns[_id] */\n      dup2\n      mstore\n      0x20\n      add\n      swap1\n      dup2\n      mstore\n      0x20\n      add\n      0x00\n      keccak256\n        /* \"CrowdFunding_v1.sol\":3308:3349  Campaign memory campaign = campaigns[_id] */\n      mload(0x40)\n      dup1\n      0xa0\n      add\n      0x40\n      mstore\n      swap1\n      dup2\n      0x00\n      dup3\n      add\n      0x00\n      swap1\n      sload\n      swap1\n      0x0100\n      exp\n      swap1\n      div\n      0xffffffffffffffffffffffffffffffffffffffff\n      and\n      0xffffffffffffffffffffffffffffffffffffffff\n      and\n      0xffffffffffffffffffffffffffffffffffffffff\n      and\n      dup2\n      mstore\n      0x20\n      add\n      0x01\n      dup3\n      add\n      sload\n      dup2\n      mstore\n      0x20\n      add\n      0x02\n      dup3\n      add\n      sload\n      dup2\n      mstore\n      0x20\n      add\n      0x03\n      dup3\n      add\n      0x00\n      swap1\n      sload\n      swap1\n      0x0100\n      exp\n      swap1\n      div\n      0xff\n      and\n      0x01\n      dup2\n      gt\n      iszero\n      tag_126\n      jumpi\n      tag_127\n      tag_128\n      jump\t// in\n    tag_127:\n    tag_126:\n      0x01\n      dup2\n      gt\n      iszero\n      tag_129\n      jumpi\n      tag_130\n      tag_128\n      jump\t// in\n    tag_130:\n    tag_129:\n      dup2\n      mstore\n      0x20\n      add\n      0x03\n      dup3\n      add\n      0x01\n      swap1\n      sload\n      swap1\n      0x0100\n      exp\n      swap1\n      div\n      0xff\n      and\n      iszero\n      iszero\n      iszero\n      iszero\n      dup2\n      mstore\n      pop\n      pop\n      swap1\n      pop\n        /* \"CrowdFunding_v1.sol\":3382:3390  campaign */\n      dup1\n        /* \"CrowdFunding_v1.sol\":3382:3396  campaign.owner */\n      0x00\n      add\n      mload\n        /* \"CrowdFunding_v1.sol\":3368:3396  msg.sender == campaign.owner */\n      0xffffffffffffffffffffffffffffffffffffffff\n      and\n        /* \"CrowdFunding_v1.sol\":3368:3378  msg.sender */\n      caller\n        /* \"CrowdFunding_v1.sol\":3368:3396  msg.sender == campaign.owner */\n      0xffffffffffffffffffffffffffffffffffffffff\n      and\n      eq\n        /* \"CrowdFunding_v1.sol\":3360:3414  require(msg.sender == campaign.owner, \"not an owner!\") */\n      tag_131\n      jumpi\n      mload(0x40)\n      0x08c379a000000000000000000000000000000000000000000000000000000000\n      dup2\n      mstore\n      0x04\n      add\n      tag_132\n      swap1\n      tag_133\n      jump\t// in\n    tag_132:\n      mload(0x40)\n      dup1\n      swap2\n      sub\n      swap1\n      revert\n    tag_131:\n        /* \"CrowdFunding_v1.sol\":3451:3461  State.OPEN */\n      0x01\n        /* \"CrowdFunding_v1.sol\":3433:3461  campaign.state == State.OPEN */\n      dup1\n      dup2\n      gt\n      iszero\n      tag_134\n      jumpi\n      tag_135\n      tag_128\n      jump\t// in\n    tag_135:\n    tag_134:\n        /* \"CrowdFunding_v1.sol\":3433:3441  campaign */\n      dup2\n        /* \"CrowdFunding_v1.sol\":3433:3447  campaign.state */\n      0x60\n      add\n      mload\n        /* \"CrowdFunding_v1.sol\":3433:3461  campaign.state == State.OPEN */\n      0x01\n      dup2\n      gt\n      iszero\n      tag_136\n      jumpi\n      tag_137\n      tag_128\n      jump\t// in\n    tag_137:\n    tag_136:\n      eq\n        /* \"CrowdFunding_v1.sol\":3425:3489  require(campaign.state == State.OPEN, \"campaign is not opened!\") */\n      tag_138\n      jumpi\n      mload(0x40)\n      0x08c379a000000000000000000000000000000000000000000000000000000000\n      dup2\n      mstore\n      0x04\n      add\n      tag_139\n      swap1\n      tag_140\n      jump\t// in\n    tag_139:\n      mload(0x40)\n      dup1\n      swap2\n      sub\n      swap1\n      revert\n    tag_138:\n        /* \"CrowdFunding_v1.sol\":3509:3518  campaigns */\n      0x01\n        /* \"CrowdFunding_v1.sol\":3509:3523  campaigns[_id] */\n      0x00\n        /* \"CrowdFunding_v1.sol\":3519:3522  _id */\n      dup4\n        /* \"CrowdFunding_v1.sol\":3509:3523  campaigns[_id] */\n      dup2\n      mstore\n      0x20\n      add\n      swap1\n      dup2\n      mstore\n      0x20\n      add\n      0x00\n      keccak256\n      0x00\n        /* \"CrowdFunding_v1.sol\":3502:3523  delete campaigns[_id] */\n      dup1\n      dup3\n      add\n      exp(0x0100, 0x00)\n      dup2\n      sload\n      swap1\n      0xffffffffffffffffffffffffffffffffffffffff\n      mul\n      not\n      and\n      swap1\n      sstore\n      0x01\n      dup3\n      add\n      0x00\n      swap1\n      sstore\n      0x02\n      dup3\n      add\n      0x00\n      swap1\n      sstore\n      0x03\n      dup3\n      add\n      exp(0x0100, 0x00)\n      dup2\n      sload\n      swap1\n      0xff\n      mul\n      not\n      and\n      swap1\n      sstore\n      0x03\n      dup3\n      add\n      exp(0x0100, 0x01)\n      dup2\n      sload\n      swap1\n      0xff\n      mul\n      not\n      and\n      swap1\n      sstore\n      pop\n      pop\n        /* \"CrowdFunding_v1.sol\":3539:3550  Cancel(_id) */\n      0x8bf30e7ff26833413be5f69e1d373744864d600b664204b4a2f9844a8eedb9ed\n        /* \"CrowdFunding_v1.sol\":3546:3549  _id */\n      dup3\n        /* \"CrowdFunding_v1.sol\":3539:3550  Cancel(_id) */\n      mload(0x40)\n      tag_141\n      swap2\n      swap1\n      tag_26\n      jump\t// in\n    tag_141:\n      mload(0x40)\n      dup1\n      swap2\n      sub\n      swap1\n      log1\n        /* \"CrowdFunding_v1.sol\":3297:3598  {... */\n      pop\n        /* \"CrowdFunding_v1.sol\":3262:3598  function cancel(uint _id) external {... */\n      pop\n      jump\t// out\n        /* \"CrowdFunding_v1.sol\":1703:1745  mapping(uint => address[]) public pledgers */\n    tag_55:\n      mstore(0x20, 0x04)\n      dup2\n      0x00\n      mstore\n      keccak256(0x00, 0x40)\n      dup2\n      dup2\n      sload\n      dup2\n      lt\n      tag_142\n      jumpi\n      0x00\n      dup1\n      revert\n    tag_142:\n      swap1\n      0x00\n      mstore\n      keccak256(0x00, 0x20)\n      add\n      0x00\n      swap2\n      pop\n      swap2\n      pop\n      swap1\n      sload\n      swap1\n      0x0100\n      exp\n      swap1\n      div\n      0xffffffffffffffffffffffffffffffffffffffff\n      and\n      dup2\n      jump\t// out\n        /* \"CrowdFunding_v1.sol\":2592:2701  function getValueClosed() public view returns(uint) {... */\n    tag_60:\n        /* \"CrowdFunding_v1.sol\":2638:2642  uint */\n      0x00\n        /* \"CrowdFunding_v1.sol\":2662:2673  testMapping */\n      dup1\n        /* \"CrowdFunding_v1.sol\":2662:2693  testMapping[uint(State.CLOSED)] */\n      0x00\n        /* \"CrowdFunding_v1.sol\":2679:2691  State.CLOSED */\n      dup1\n        /* \"CrowdFunding_v1.sol\":2674:2692  uint(State.CLOSED) */\n      0x01\n      dup2\n      gt\n      iszero\n      tag_145\n      jumpi\n      tag_146\n      tag_128\n      jump\t// in\n    tag_146:\n    tag_145:\n        /* \"CrowdFunding_v1.sol\":2662:2693  testMapping[uint(State.CLOSED)] */\n      dup2\n      mstore\n      0x20\n      add\n      swap1\n      dup2\n      mstore\n      0x20\n      add\n      0x00\n      keccak256\n      sload\n        /* \"CrowdFunding_v1.sol\":2655:2693  return testMapping[uint(State.CLOSED)] */\n      swap1\n      pop\n        /* \"CrowdFunding_v1.sol\":2592:2701  function getValueClosed() public view returns(uint) {... */\n      swap1\n      jump\t// out\n        /* \"CrowdFunding_v1.sol\":5569:6060  function refund(uint _id, address _address) external {... */\n    tag_65:\n        /* \"CrowdFunding_v1.sol\":5632:5657  Campaign storage campaign */\n      0x00\n        /* \"CrowdFunding_v1.sol\":5660:5669  campaigns */\n      0x01\n        /* \"CrowdFunding_v1.sol\":5660:5674  campaigns[_id] */\n      0x00\n        /* \"CrowdFunding_v1.sol\":5670:5673  _id */\n      dup5\n        /* \"CrowdFunding_v1.sol\":5660:5674  campaigns[_id] */\n      dup2\n      mstore\n      0x20\n      add\n      swap1\n      dup2\n      mstore\n      0x20\n      add\n      0x00\n      keccak256\n        /* \"CrowdFunding_v1.sol\":5632:5674  Campaign storage campaign = campaigns[_id] */\n      swap1\n      pop\n        /* \"CrowdFunding_v1.sol\":5710:5720  State.OPEN */\n      0x01\n        /* \"CrowdFunding_v1.sol\":5692:5720  campaign.state == State.OPEN */\n      dup1\n      dup2\n      gt\n      iszero\n      tag_148\n      jumpi\n      tag_149\n      tag_128\n      jump\t// in\n    tag_149:\n    tag_148:\n        /* \"CrowdFunding_v1.sol\":5692:5700  campaign */\n      dup2\n        /* \"CrowdFunding_v1.sol\":5692:5706  campaign.state */\n      0x03\n      add\n      0x00\n      swap1\n      sload\n      swap1\n      0x0100\n      exp\n      swap1\n      div\n      0xff\n      and\n        /* \"CrowdFunding_v1.sol\":5692:5720  campaign.state == State.OPEN */\n      0x01\n      dup2\n      gt\n      iszero\n      tag_150\n      jumpi\n      tag_151\n      tag_128\n      jump\t// in\n    tag_151:\n    tag_150:\n      eq\n        /* \"CrowdFunding_v1.sol\":5684:5748  require(campaign.state == State.OPEN, \"campaign is not opened!\") */\n      tag_152\n      jumpi\n      mload(0x40)\n      0x08c379a000000000000000000000000000000000000000000000000000000000\n      dup2\n      mstore\n      0x04\n      add\n      tag_153\n      swap1\n      tag_140\n      jump\t// in\n    tag_153:\n      mload(0x40)\n      dup1\n      swap2\n      sub\n      swap1\n      revert\n    tag_152:\n        /* \"CrowdFunding_v1.sol\":5780:5788  campaign */\n      dup1\n        /* \"CrowdFunding_v1.sol\":5780:5794  campaign.owner */\n      0x00\n      add\n      0x00\n      swap1\n      sload\n      swap1\n      0x0100\n      exp\n      swap1\n      div\n      0xffffffffffffffffffffffffffffffffffffffff\n      and\n        /* \"CrowdFunding_v1.sol\":5766:5794  msg.sender == campaign.owner */\n      0xffffffffffffffffffffffffffffffffffffffff\n      and\n        /* \"CrowdFunding_v1.sol\":5766:5776  msg.sender */\n      caller\n        /* \"CrowdFunding_v1.sol\":5766:5794  msg.sender == campaign.owner */\n      0xffffffffffffffffffffffffffffffffffffffff\n      and\n      eq\n        /* \"CrowdFunding_v1.sol\":5758:5811  require(msg.sender == campaign.owner, \"not an owner\") */\n      tag_154\n      jumpi\n      mload(0x40)\n      0x08c379a000000000000000000000000000000000000000000000000000000000\n      dup2\n      mstore\n      0x04\n      add\n      tag_155\n      swap1\n      tag_156\n      jump\t// in\n    tag_155:\n      mload(0x40)\n      dup1\n      swap2\n      sub\n      swap1\n      revert\n    tag_154:\n        /* \"CrowdFunding_v1.sol\":5823:5841  uint pledgedAmount */\n      0x00\n        /* \"CrowdFunding_v1.sol\":5844:5851  pledges */\n      0x03\n        /* \"CrowdFunding_v1.sol\":5844:5856  pledges[_id] */\n      0x00\n        /* \"CrowdFunding_v1.sol\":5852:5855  _id */\n      dup6\n        /* \"CrowdFunding_v1.sol\":5844:5856  pledges[_id] */\n      dup2\n      mstore\n      0x20\n      add\n      swap1\n      dup2\n      mstore\n      0x20\n      add\n      0x00\n      keccak256\n        /* \"CrowdFunding_v1.sol\":5844:5866  pledges[_id][_address] */\n      0x00\n        /* \"CrowdFunding_v1.sol\":5857:5865  _address */\n      dup5\n        /* \"CrowdFunding_v1.sol\":5844:5866  pledges[_id][_address] */\n      0xffffffffffffffffffffffffffffffffffffffff\n      and\n      0xffffffffffffffffffffffffffffffffffffffff\n      and\n      dup2\n      mstore\n      0x20\n      add\n      swap1\n      dup2\n      mstore\n      0x20\n      add\n      0x00\n      keccak256\n      sload\n        /* \"CrowdFunding_v1.sol\":5823:5866  uint pledgedAmount = pledges[_id][_address] */\n      swap1\n      pop\n        /* \"CrowdFunding_v1.sol\":5901:5902  0 */\n      0x00\n        /* \"CrowdFunding_v1.sol\":5876:5883  pledges */\n      0x03\n        /* \"CrowdFunding_v1.sol\":5876:5888  pledges[_id] */\n      0x00\n        /* \"CrowdFunding_v1.sol\":5884:5887  _id */\n      dup7\n        /* \"CrowdFunding_v1.sol\":5876:5888  pledges[_id] */\n      dup2\n      mstore\n      0x20\n      add\n      swap1\n      dup2\n      mstore\n      0x20\n      add\n      0x00\n      keccak256\n        /* \"CrowdFunding_v1.sol\":5876:5898  pledges[_id][_address] */\n      0x00\n        /* \"CrowdFunding_v1.sol\":5889:5897  _address */\n      dup6\n        /* \"CrowdFunding_v1.sol\":5876:5898  pledges[_id][_address] */\n      0xffffffffffffffffffffffffffffffffffffffff\n      and\n      0xffffffffffffffffffffffffffffffffffffffff\n      and\n      dup2\n      mstore\n      0x20\n      add\n      swap1\n      dup2\n      mstore\n      0x20\n      add\n      0x00\n      keccak256\n        /* \"CrowdFunding_v1.sol\":5876:5902  pledges[_id][_address] = 0 */\n      dup2\n      swap1\n      sstore\n      pop\n        /* \"CrowdFunding_v1.sol\":5912:5917  token */\n      immutable(\"0x3b4066bd7b7960752225af105d3beafb5c47a26c5aae7e6798a437b7c0bb33e6\")\n        /* \"CrowdFunding_v1.sol\":5912:5926  token.transfer */\n      0xffffffffffffffffffffffffffffffffffffffff\n      and\n      0xa9059cbb\n        /* \"CrowdFunding_v1.sol\":5927:5935  _address */\n      dup5\n        /* \"CrowdFunding_v1.sol\":5937:5950  pledgedAmount */\n      dup4\n        /* \"CrowdFunding_v1.sol\":5912:5951  token.transfer(_address, pledgedAmount) */\n      mload(0x40)\n      dup4\n      0xffffffff\n      and\n      0xe0\n      shl\n      dup2\n      mstore\n      0x04\n      add\n      tag_157\n      swap3\n      swap2\n      swap1\n      tag_120\n      jump\t// in\n    tag_157:\n      0x00\n      mload(0x40)\n      dup1\n      dup4\n      sub\n      dup2\n      0x00\n      dup8\n      dup1\n      extcodesize\n      iszero\n      dup1\n      iszero\n      tag_158\n      jumpi\n      0x00\n      dup1\n      revert\n    tag_158:\n      pop\n      gas\n      call\n      iszero\n      dup1\n      iszero\n      tag_160\n      jumpi\n      returndatasize\n      0x00\n      dup1\n      returndatacopy\n      revert(0x00, returndatasize)\n    tag_160:\n      pop\n      pop\n      pop\n      pop\n        /* \"CrowdFunding_v1.sol\":5987:6000  pledgedAmount */\n      dup1\n        /* \"CrowdFunding_v1.sol\":5961:5970  campaigns */\n      0x01\n        /* \"CrowdFunding_v1.sol\":5961:5975  campaigns[_id] */\n      0x00\n        /* \"CrowdFunding_v1.sol\":5971:5974  _id */\n      dup7\n        /* \"CrowdFunding_v1.sol\":5961:5975  campaigns[_id] */\n      dup2\n      mstore\n      0x20\n      add\n      swap1\n      dup2\n      mstore\n      0x20\n      add\n      0x00\n      keccak256\n        /* \"CrowdFunding_v1.sol\":5961:5983  campaigns[_id].pledged */\n      0x02\n      add\n      0x00\n        /* \"CrowdFunding_v1.sol\":5961:6000  campaigns[_id].pledged -= pledgedAmount */\n      dup3\n      dup3\n      sload\n      tag_161\n      swap2\n      swap1\n      tag_162\n      jump\t// in\n    tag_161:\n      swap3\n      pop\n      pop\n      dup2\n      swap1\n      sstore\n      pop\n        /* \"CrowdFunding_v1.sol\":6015:6053  Refunded(_id, _address, pledgedAmount) */\n      0x7ca5472b7ea78c2c0141c5a12ee6d170cf4ce8ed06be3d22c8252ddfc7a6a2c4\n        /* \"CrowdFunding_v1.sol\":6024:6027  _id */\n      dup5\n        /* \"CrowdFunding_v1.sol\":6029:6037  _address */\n      dup5\n        /* \"CrowdFunding_v1.sol\":6039:6052  pledgedAmount */\n      dup4\n        /* \"CrowdFunding_v1.sol\":6015:6053  Refunded(_id, _address, pledgedAmount) */\n      mload(0x40)\n      tag_163\n      swap4\n      swap3\n      swap2\n      swap1\n      tag_164\n      jump\t// in\n    tag_163:\n      mload(0x40)\n      dup1\n      swap2\n      sub\n      swap1\n      log1\n        /* \"CrowdFunding_v1.sol\":5622:6060  {... */\n      pop\n      pop\n        /* \"CrowdFunding_v1.sol\":5569:6060  function refund(uint _id, address _address) external {... */\n      pop\n      pop\n      jump\t// out\n        /* \"CrowdFunding_v1.sol\":2866:3207  function launch(uint _goal) public {... */\n    tag_69:\n        /* \"CrowdFunding_v1.sol\":2941:3106  Campaign({... */\n      mload(0x40)\n      dup1\n      0xa0\n      add\n      0x40\n      mstore\n      dup1\n        /* \"CrowdFunding_v1.sol\":2972:2982  msg.sender */\n      caller\n        /* \"CrowdFunding_v1.sol\":2941:3106  Campaign({... */\n      0xffffffffffffffffffffffffffffffffffffffff\n      and\n      dup2\n      mstore\n      0x20\n      add\n        /* \"CrowdFunding_v1.sol\":3003:3008  _goal */\n      dup3\n        /* \"CrowdFunding_v1.sol\":2941:3106  Campaign({... */\n      dup2\n      mstore\n      0x20\n      add\n        /* \"CrowdFunding_v1.sol\":3032:3033  0 */\n      0x00\n        /* \"CrowdFunding_v1.sol\":2941:3106  Campaign({... */\n      dup2\n      mstore\n      0x20\n      add\n        /* \"CrowdFunding_v1.sol\":3055:3065  State.OPEN */\n      0x01\n        /* \"CrowdFunding_v1.sol\":2941:3106  Campaign({... */\n      dup1\n      dup2\n      gt\n      iszero\n      tag_166\n      jumpi\n      tag_167\n      tag_128\n      jump\t// in\n    tag_167:\n    tag_166:\n      dup2\n      mstore\n      0x20\n      add\n        /* \"CrowdFunding_v1.sol\":3089:3094  false */\n      0x00\n        /* \"CrowdFunding_v1.sol\":2941:3106  Campaign({... */\n      iszero\n      iszero\n      dup2\n      mstore\n      pop\n        /* \"CrowdFunding_v1.sol\":2918:2927  campaigns */\n      0x01\n        /* \"CrowdFunding_v1.sol\":2918:2938  campaigns[currentId] */\n      0x00\n        /* \"CrowdFunding_v1.sol\":2928:2937  currentId */\n      sload(0x02)\n        /* \"CrowdFunding_v1.sol\":2918:2938  campaigns[currentId] */\n      dup2\n      mstore\n      0x20\n      add\n      swap1\n      dup2\n      mstore\n      0x20\n      add\n      0x00\n      keccak256\n        /* \"CrowdFunding_v1.sol\":2918:3106  campaigns[currentId] = Campaign({... */\n      0x00\n      dup3\n      add\n      mload\n      dup2\n      0x00\n      add\n      exp(0x0100, 0x00)\n      dup2\n      sload\n      dup2\n      0xffffffffffffffffffffffffffffffffffffffff\n      mul\n      not\n      and\n      swap1\n      dup4\n      0xffffffffffffffffffffffffffffffffffffffff\n      and\n      mul\n      or\n      swap1\n      sstore\n      pop\n      0x20\n      dup3\n      add\n      mload\n      dup2\n      0x01\n      add\n      sstore\n      0x40\n      dup3\n      add\n      mload\n      dup2\n      0x02\n      add\n      sstore\n      0x60\n      dup3\n      add\n      mload\n      dup2\n      0x03\n      add\n      exp(0x0100, 0x00)\n      dup2\n      sload\n      dup2\n      0xff\n      mul\n      not\n      and\n      swap1\n      dup4\n      0x01\n      dup2\n      gt\n      iszero\n      tag_168\n      jumpi\n      tag_169\n      tag_128\n      jump\t// in\n    tag_169:\n    tag_168:\n      mul\n      or\n      swap1\n      sstore\n      pop\n      0x80\n      dup3\n      add\n      mload\n      dup2\n      0x03\n      add\n      exp(0x0100, 0x01)\n      dup2\n      sload\n      dup2\n      0xff\n      mul\n      not\n      and\n      swap1\n      dup4\n      iszero\n      iszero\n      mul\n      or\n      swap1\n      sstore\n      pop\n      swap1\n      pop\n      pop\n        /* \"CrowdFunding_v1.sol\":3124:3174  Launched(currentId, msg.sender, _goal, State.OPEN) */\n      0x7832315d5668befce61bef59a74a00e6c0e8fd754af2f6943ffce187e5ad3c57\n        /* \"CrowdFunding_v1.sol\":3133:3142  currentId */\n      sload(0x02)\n        /* \"CrowdFunding_v1.sol\":3144:3154  msg.sender */\n      caller\n        /* \"CrowdFunding_v1.sol\":3156:3161  _goal */\n      dup4\n        /* \"CrowdFunding_v1.sol\":3163:3173  State.OPEN */\n      0x01\n        /* \"CrowdFunding_v1.sol\":3124:3174  Launched(currentId, msg.sender, _goal, State.OPEN) */\n      mload(0x40)\n      tag_170\n      swap5\n      swap4\n      swap3\n      swap2\n      swap1\n      tag_171\n      jump\t// in\n    tag_170:\n      mload(0x40)\n      dup1\n      swap2\n      sub\n      swap1\n      log1\n        /* \"CrowdFunding_v1.sol\":3198:3199  1 */\n      0x01\n        /* \"CrowdFunding_v1.sol\":3185:3194  currentId */\n      0x02\n      0x00\n        /* \"CrowdFunding_v1.sol\":3185:3199  currentId += 1 */\n      dup3\n      dup3\n      sload\n      tag_172\n      swap2\n      swap1\n      tag_173\n      jump\t// in\n    tag_172:\n      swap3\n      pop\n      pop\n      dup2\n      swap1\n      sstore\n      pop\n        /* \"CrowdFunding_v1.sol\":2866:3207  function launch(uint _goal) public {... */\n      pop\n      jump\t// out\n        /* \"CrowdFunding_v1.sol\":1541:1597  mapping(uint => mapping(address => uint)) public pledges */\n    tag_73:\n      mstore(0x20, 0x03)\n      dup2\n      0x00\n      mstore\n      mstore(0x20, keccak256(0x00, 0x40))\n      dup1\n      0x00\n      mstore\n      keccak256(0x00, 0x40)\n      0x00\n      swap2\n      pop\n      swap2\n      pop\n      pop\n      sload\n      dup2\n      jump\t// out\n        /* \"CrowdFunding_v1.sol\":2706:2811  function getValueOpen() public view returns(uint) {... */\n    tag_77:\n        /* \"CrowdFunding_v1.sol\":2750:2754  uint */\n      0x00\n        /* \"CrowdFunding_v1.sol\":2774:2785  testMapping */\n      dup1\n        /* \"CrowdFunding_v1.sol\":2774:2803  testMapping[uint(State.OPEN)] */\n      0x00\n        /* \"CrowdFunding_v1.sol\":2791:2801  State.OPEN */\n      0x01\n        /* \"CrowdFunding_v1.sol\":2786:2802  uint(State.OPEN) */\n      dup1\n      dup2\n      gt\n      iszero\n      tag_175\n      jumpi\n      tag_176\n      tag_128\n      jump\t// in\n    tag_176:\n    tag_175:\n        /* \"CrowdFunding_v1.sol\":2774:2803  testMapping[uint(State.OPEN)] */\n      dup2\n      mstore\n      0x20\n      add\n      swap1\n      dup2\n      mstore\n      0x20\n      add\n      0x00\n      keccak256\n      sload\n        /* \"CrowdFunding_v1.sol\":2767:2803  return testMapping[uint(State.OPEN)] */\n      swap1\n      pop\n        /* \"CrowdFunding_v1.sol\":2706:2811  function getValueOpen() public view returns(uint) {... */\n      swap1\n      jump\t// out\n        /* \"CrowdFunding_v1.sol\":3645:3871  function makeAdmin(uint _id, address _member) public {... */\n    tag_82:\n        /* \"CrowdFunding_v1.sol\":3709:3733  Campaign memory campaign */\n      0x00\n        /* \"CrowdFunding_v1.sol\":3736:3745  campaigns */\n      0x01\n        /* \"CrowdFunding_v1.sol\":3736:3750  campaigns[_id] */\n      0x00\n        /* \"CrowdFunding_v1.sol\":3746:3749  _id */\n      dup5\n        /* \"CrowdFunding_v1.sol\":3736:3750  campaigns[_id] */\n      dup2\n      mstore\n      0x20\n      add\n      swap1\n      dup2\n      mstore\n      0x20\n      add\n      0x00\n      keccak256\n        /* \"CrowdFunding_v1.sol\":3709:3750  Campaign memory campaign = campaigns[_id] */\n      mload(0x40)\n      dup1\n      0xa0\n      add\n      0x40\n      mstore\n      swap1\n      dup2\n      0x00\n      dup3\n      add\n      0x00\n      swap1\n      sload\n      swap1\n      0x0100\n      exp\n      swap1\n      div\n      0xffffffffffffffffffffffffffffffffffffffff\n      and\n      0xffffffffffffffffffffffffffffffffffffffff\n      and\n      0xffffffffffffffffffffffffffffffffffffffff\n      and\n      dup2\n      mstore\n      0x20\n      add\n      0x01\n      dup3\n      add\n      sload\n      dup2\n      mstore\n      0x20\n      add\n      0x02\n      dup3\n      add\n      sload\n      dup2\n      mstore\n      0x20\n      add\n      0x03\n      dup3\n      add\n      0x00\n      swap1\n      sload\n      swap1\n      0x0100\n      exp\n      swap1\n      div\n      0xff\n      and\n      0x01\n      dup2\n      gt\n      iszero\n      tag_178\n      jumpi\n      tag_179\n      tag_128\n      jump\t// in\n    tag_179:\n    tag_178:\n      0x01\n      dup2\n      gt\n      iszero\n      tag_180\n      jumpi\n      tag_181\n      tag_128\n      jump\t// in\n    tag_181:\n    tag_180:\n      dup2\n      mstore\n      0x20\n      add\n      0x03\n      dup3\n      add\n      0x01\n      swap1\n      sload\n      swap1\n      0x0100\n      exp\n      swap1\n      div\n      0xff\n      and\n      iszero\n      iszero\n      iszero\n      iszero\n      dup2\n      mstore\n      pop\n      pop\n      swap1\n      pop\n        /* \"CrowdFunding_v1.sol\":3783:3791  campaign */\n      dup1\n        /* \"CrowdFunding_v1.sol\":3783:3797  campaign.owner */\n      0x00\n      add\n      mload\n        /* \"CrowdFunding_v1.sol\":3769:3797  msg.sender == campaign.owner */\n      0xffffffffffffffffffffffffffffffffffffffff\n      and\n        /* \"CrowdFunding_v1.sol\":3769:3779  msg.sender */\n      caller\n        /* \"CrowdFunding_v1.sol\":3769:3797  msg.sender == campaign.owner */\n      0xffffffffffffffffffffffffffffffffffffffff\n      and\n      eq\n        /* \"CrowdFunding_v1.sol\":3761:3815  require(msg.sender == campaign.owner, \"not an owner!\") */\n      tag_182\n      jumpi\n      mload(0x40)\n      0x08c379a000000000000000000000000000000000000000000000000000000000\n      dup2\n      mstore\n      0x04\n      add\n      tag_183\n      swap1\n      tag_133\n      jump\t// in\n    tag_183:\n      mload(0x40)\n      dup1\n      swap2\n      sub\n      swap1\n      revert\n    tag_182:\n        /* \"CrowdFunding_v1.sol\":3859:3863  true */\n      0x01\n        /* \"CrowdFunding_v1.sol\":3836:3842  admins */\n      0x05\n        /* \"CrowdFunding_v1.sol\":3836:3847  admins[_id] */\n      0x00\n        /* \"CrowdFunding_v1.sol\":3843:3846  _id */\n      dup6\n        /* \"CrowdFunding_v1.sol\":3836:3847  admins[_id] */\n      dup2\n      mstore\n      0x20\n      add\n      swap1\n      dup2\n      mstore\n      0x20\n      add\n      0x00\n      keccak256\n        /* \"CrowdFunding_v1.sol\":3836:3856  admins[_id][_member] */\n      0x00\n        /* \"CrowdFunding_v1.sol\":3848:3855  _member */\n      dup5\n        /* \"CrowdFunding_v1.sol\":3836:3856  admins[_id][_member] */\n      0xffffffffffffffffffffffffffffffffffffffff\n      and\n      0xffffffffffffffffffffffffffffffffffffffff\n      and\n      dup2\n      mstore\n      0x20\n      add\n      swap1\n      dup2\n      mstore\n      0x20\n      add\n      0x00\n      keccak256\n      0x00\n        /* \"CrowdFunding_v1.sol\":3836:3863  admins[_id][_member] = true */\n      0x0100\n      exp\n      dup2\n      sload\n      dup2\n      0xff\n      mul\n      not\n      and\n      swap1\n      dup4\n      iszero\n      iszero\n      mul\n      or\n      swap1\n      sstore\n      pop\n        /* \"CrowdFunding_v1.sol\":3698:3871  {... */\n      pop\n        /* \"CrowdFunding_v1.sol\":3645:3871  function makeAdmin(uint _id, address _member) public {... */\n      pop\n      pop\n      jump\t// out\n        /* \"CrowdFunding_v1.sol\":4759:5004  function setState(uint _id) public {... */\n    tag_86:\n        /* \"CrowdFunding_v1.sol\":4805:4830  Campaign storage campaign */\n      0x00\n        /* \"CrowdFunding_v1.sol\":4833:4842  campaigns */\n      0x01\n        /* \"CrowdFunding_v1.sol\":4833:4847  campaigns[_id] */\n      0x00\n        /* \"CrowdFunding_v1.sol\":4843:4846  _id */\n      dup4\n        /* \"CrowdFunding_v1.sol\":4833:4847  campaigns[_id] */\n      dup2\n      mstore\n      0x20\n      add\n      swap1\n      dup2\n      mstore\n      0x20\n      add\n      0x00\n      keccak256\n        /* \"CrowdFunding_v1.sol\":4805:4847  Campaign storage campaign = campaigns[_id] */\n      swap1\n      pop\n        /* \"CrowdFunding_v1.sol\":4880:4888  campaign */\n      dup1\n        /* \"CrowdFunding_v1.sol\":4880:4894  campaign.owner */\n      0x00\n      add\n      0x00\n      swap1\n      sload\n      swap1\n      0x0100\n      exp\n      swap1\n      div\n      0xffffffffffffffffffffffffffffffffffffffff\n      and\n        /* \"CrowdFunding_v1.sol\":4866:4894  msg.sender == campaign.owner */\n      0xffffffffffffffffffffffffffffffffffffffff\n      and\n        /* \"CrowdFunding_v1.sol\":4866:4876  msg.sender */\n      caller\n        /* \"CrowdFunding_v1.sol\":4866:4894  msg.sender == campaign.owner */\n      0xffffffffffffffffffffffffffffffffffffffff\n      and\n      eq\n        /* \"CrowdFunding_v1.sol\":4858:4911  require(msg.sender == campaign.owner, \"not an owner\") */\n      tag_185\n      jumpi\n      mload(0x40)\n      0x08c379a000000000000000000000000000000000000000000000000000000000\n      dup2\n      mstore\n      0x04\n      add\n      tag_186\n      swap1\n      tag_156\n      jump\t// in\n    tag_186:\n      mload(0x40)\n      dup1\n      swap2\n      sub\n      swap1\n      revert\n    tag_185:\n        /* \"CrowdFunding_v1.sol\":4941:4953  State.CLOSED */\n      0x00\n        /* \"CrowdFunding_v1.sol\":4924:4932  campaign */\n      dup2\n        /* \"CrowdFunding_v1.sol\":4924:4938  campaign.state */\n      0x03\n      add\n      0x00\n        /* \"CrowdFunding_v1.sol\":4924:4953  campaign.state = State.CLOSED */\n      0x0100\n      exp\n      dup2\n      sload\n      dup2\n      0xff\n      mul\n      not\n      and\n      swap1\n      dup4\n      0x01\n      dup2\n      gt\n      iszero\n      tag_187\n      jumpi\n      tag_188\n      tag_128\n      jump\t// in\n    tag_188:\n    tag_187:\n      mul\n      or\n      swap1\n      sstore\n      pop\n        /* \"CrowdFunding_v1.sol\":4969:4997  StateUpdated(campaign.state) */\n      0x23ad33ab6a13a00aa7d06cd167b2abd03dec86af3cf3cc91759dcd3ae8411887\n        /* \"CrowdFunding_v1.sol\":4982:4990  campaign */\n      dup2\n        /* \"CrowdFunding_v1.sol\":4982:4996  campaign.state */\n      0x03\n      add\n      0x00\n      swap1\n      sload\n      swap1\n      0x0100\n      exp\n      swap1\n      div\n      0xff\n      and\n        /* \"CrowdFunding_v1.sol\":4969:4997  StateUpdated(campaign.state) */\n      mload(0x40)\n      tag_189\n      swap2\n      swap1\n      tag_190\n      jump\t// in\n    tag_189:\n      mload(0x40)\n      dup1\n      swap2\n      sub\n      swap1\n      log1\n        /* \"CrowdFunding_v1.sol\":4794:5004  {... */\n      pop\n        /* \"CrowdFunding_v1.sol\":4759:5004  function setState(uint _id) public {... */\n      pop\n      jump\t// out\n        /* \"CrowdFunding_v1.sol\":3921:4149  function revokeAdmin(uint _id, address _member) public {... */\n    tag_90:\n        /* \"CrowdFunding_v1.sol\":3987:4011  Campaign memory campaign */\n      0x00\n        /* \"CrowdFunding_v1.sol\":4014:4023  campaigns */\n      0x01\n        /* \"CrowdFunding_v1.sol\":4014:4028  campaigns[_id] */\n      0x00\n        /* \"CrowdFunding_v1.sol\":4024:4027  _id */\n      dup5\n        /* \"CrowdFunding_v1.sol\":4014:4028  campaigns[_id] */\n      dup2\n      mstore\n      0x20\n      add\n      swap1\n      dup2\n      mstore\n      0x20\n      add\n      0x00\n      keccak256\n        /* \"CrowdFunding_v1.sol\":3987:4028  Campaign memory campaign = campaigns[_id] */\n      mload(0x40)\n      dup1\n      0xa0\n      add\n      0x40\n      mstore\n      swap1\n      dup2\n      0x00\n      dup3\n      add\n      0x00\n      swap1\n      sload\n      swap1\n      0x0100\n      exp\n      swap1\n      div\n      0xffffffffffffffffffffffffffffffffffffffff\n      and\n      0xffffffffffffffffffffffffffffffffffffffff\n      and\n      0xffffffffffffffffffffffffffffffffffffffff\n      and\n      dup2\n      mstore\n      0x20\n      add\n      0x01\n      dup3\n      add\n      sload\n      dup2\n      mstore\n      0x20\n      add\n      0x02\n      dup3\n      add\n      sload\n      dup2\n      mstore\n      0x20\n      add\n      0x03\n      dup3\n      add\n      0x00\n      swap1\n      sload\n      swap1\n      0x0100\n      exp\n      swap1\n      div\n      0xff\n      and\n      0x01\n      dup2\n      gt\n      iszero\n      tag_192\n      jumpi\n      tag_193\n      tag_128\n      jump\t// in\n    tag_193:\n    tag_192:\n      0x01\n      dup2\n      gt\n      iszero\n      tag_194\n      jumpi\n      tag_195\n      tag_128\n      jump\t// in\n    tag_195:\n    tag_194:\n      dup2\n      mstore\n      0x20\n      add\n      0x03\n      dup3\n      add\n      0x01\n      swap1\n      sload\n      swap1\n      0x0100\n      exp\n      swap1\n      div\n      0xff\n      and\n      iszero\n      iszero\n      iszero\n      iszero\n      dup2\n      mstore\n      pop\n      pop\n      swap1\n      pop\n        /* \"CrowdFunding_v1.sol\":4061:4069  campaign */\n      dup1\n        /* \"CrowdFunding_v1.sol\":4061:4075  campaign.owner */\n      0x00\n      add\n      mload\n        /* \"CrowdFunding_v1.sol\":4047:4075  msg.sender == campaign.owner */\n      0xffffffffffffffffffffffffffffffffffffffff\n      and\n        /* \"CrowdFunding_v1.sol\":4047:4057  msg.sender */\n      caller\n        /* \"CrowdFunding_v1.sol\":4047:4075  msg.sender == campaign.owner */\n      0xffffffffffffffffffffffffffffffffffffffff\n      and\n      eq\n        /* \"CrowdFunding_v1.sol\":4039:4093  require(msg.sender == campaign.owner, \"not an owner!\") */\n      tag_196\n      jumpi\n      mload(0x40)\n      0x08c379a000000000000000000000000000000000000000000000000000000000\n      dup2\n      mstore\n      0x04\n      add\n      tag_197\n      swap1\n      tag_133\n      jump\t// in\n    tag_197:\n      mload(0x40)\n      dup1\n      swap2\n      sub\n      swap1\n      revert\n    tag_196:\n        /* \"CrowdFunding_v1.sol\":4137:4141  true */\n      0x01\n        /* \"CrowdFunding_v1.sol\":4114:4120  admins */\n      0x05\n        /* \"CrowdFunding_v1.sol\":4114:4125  admins[_id] */\n      0x00\n        /* \"CrowdFunding_v1.sol\":4121:4124  _id */\n      dup6\n        /* \"CrowdFunding_v1.sol\":4114:4125  admins[_id] */\n      dup2\n      mstore\n      0x20\n      add\n      swap1\n      dup2\n      mstore\n      0x20\n      add\n      0x00\n      keccak256\n        /* \"CrowdFunding_v1.sol\":4114:4134  admins[_id][_member] */\n      0x00\n        /* \"CrowdFunding_v1.sol\":4126:4133  _member */\n      dup5\n        /* \"CrowdFunding_v1.sol\":4114:4134  admins[_id][_member] */\n      0xffffffffffffffffffffffffffffffffffffffff\n      and\n      0xffffffffffffffffffffffffffffffffffffffff\n      and\n      dup2\n      mstore\n      0x20\n      add\n      swap1\n      dup2\n      mstore\n      0x20\n      add\n      0x00\n      keccak256\n      0x00\n        /* \"CrowdFunding_v1.sol\":4114:4141  admins[_id][_member] = true */\n      0x0100\n      exp\n      dup2\n      sload\n      dup2\n      0xff\n      mul\n      not\n      and\n      swap1\n      dup4\n      iszero\n      iszero\n      mul\n      or\n      swap1\n      sstore\n      pop\n        /* \"CrowdFunding_v1.sol\":3976:4149  {... */\n      pop\n        /* \"CrowdFunding_v1.sol\":3921:4149  function revokeAdmin(uint _id, address _member) public {... */\n      pop\n      pop\n      jump\t// out\n        /* \"CrowdFunding_v1.sol\":1411:1432  uint public currentId */\n    tag_93:\n      sload(0x02)\n      dup2\n      jump\t// out\n        /* \"CrowdFunding_v1.sol\":6137:6807  function refundAll(uint _id) external {... */\n    tag_98:\n        /* \"CrowdFunding_v1.sol\":6185:6210  Campaign storage campaign */\n      0x00\n        /* \"CrowdFunding_v1.sol\":6213:6222  campaigns */\n      0x01\n        /* \"CrowdFunding_v1.sol\":6213:6227  campaigns[_id] */\n      0x00\n        /* \"CrowdFunding_v1.sol\":6223:6226  _id */\n      dup4\n        /* \"CrowdFunding_v1.sol\":6213:6227  campaigns[_id] */\n      dup2\n      mstore\n      0x20\n      add\n      swap1\n      dup2\n      mstore\n      0x20\n      add\n      0x00\n      keccak256\n        /* \"CrowdFunding_v1.sol\":6185:6227  Campaign storage campaign = campaigns[_id] */\n      swap1\n      pop\n        /* \"CrowdFunding_v1.sol\":6263:6273  State.OPEN */\n      0x01\n        /* \"CrowdFunding_v1.sol\":6245:6273  campaign.state == State.OPEN */\n      dup1\n      dup2\n      gt\n      iszero\n      tag_199\n      jumpi\n      tag_200\n      tag_128\n      jump\t// in\n    tag_200:\n    tag_199:\n        /* \"CrowdFunding_v1.sol\":6245:6253  campaign */\n      dup2\n        /* \"CrowdFunding_v1.sol\":6245:6259  campaign.state */\n      0x03\n      add\n      0x00\n      swap1\n      sload\n      swap1\n      0x0100\n      exp\n      swap1\n      div\n      0xff\n      and\n        /* \"CrowdFunding_v1.sol\":6245:6273  campaign.state == State.OPEN */\n      0x01\n      dup2\n      gt\n      iszero\n      tag_201\n      jumpi\n      tag_202\n      tag_128\n      jump\t// in\n    tag_202:\n    tag_201:\n      eq\n        /* \"CrowdFunding_v1.sol\":6237:6301  require(campaign.state == State.OPEN, \"campaign is not opened!\") */\n      tag_203\n      jumpi\n      mload(0x40)\n      0x08c379a000000000000000000000000000000000000000000000000000000000\n      dup2\n      mstore\n      0x04\n      add\n      tag_204\n      swap1\n      tag_140\n      jump\t// in\n    tag_204:\n      mload(0x40)\n      dup1\n      swap2\n      sub\n      swap1\n      revert\n    tag_203:\n        /* \"CrowdFunding_v1.sol\":6333:6341  campaign */\n      dup1\n        /* \"CrowdFunding_v1.sol\":6333:6347  campaign.owner */\n      0x00\n      add\n      0x00\n      swap1\n      sload\n      swap1\n      0x0100\n      exp\n      swap1\n      div\n      0xffffffffffffffffffffffffffffffffffffffff\n      and\n        /* \"CrowdFunding_v1.sol\":6319:6347  msg.sender == campaign.owner */\n      0xffffffffffffffffffffffffffffffffffffffff\n      and\n        /* \"CrowdFunding_v1.sol\":6319:6329  msg.sender */\n      caller\n        /* \"CrowdFunding_v1.sol\":6319:6347  msg.sender == campaign.owner */\n      0xffffffffffffffffffffffffffffffffffffffff\n      and\n      eq\n        /* \"CrowdFunding_v1.sol\":6311:6364  require(msg.sender == campaign.owner, \"not an owner\") */\n      tag_205\n      jumpi\n      mload(0x40)\n      0x08c379a000000000000000000000000000000000000000000000000000000000\n      dup2\n      mstore\n      0x04\n      add\n      tag_206\n      swap1\n      tag_156\n      jump\t// in\n    tag_206:\n      mload(0x40)\n      dup1\n      swap2\n      sub\n      swap1\n      revert\n    tag_205:\n        /* \"CrowdFunding_v1.sol\":6376:6409  address[] memory campaignPledgers */\n      0x00\n        /* \"CrowdFunding_v1.sol\":6412:6420  pledgers */\n      0x04\n        /* \"CrowdFunding_v1.sol\":6412:6425  pledgers[_id] */\n      0x00\n        /* \"CrowdFunding_v1.sol\":6421:6424  _id */\n      dup5\n        /* \"CrowdFunding_v1.sol\":6412:6425  pledgers[_id] */\n      dup2\n      mstore\n      0x20\n      add\n      swap1\n      dup2\n      mstore\n      0x20\n      add\n      0x00\n      keccak256\n        /* \"CrowdFunding_v1.sol\":6376:6425  address[] memory campaignPledgers = pledgers[_id] */\n      dup1\n      sload\n      dup1\n      0x20\n      mul\n      0x20\n      add\n      mload(0x40)\n      swap1\n      dup2\n      add\n      0x40\n      mstore\n      dup1\n      swap3\n      swap2\n      swap1\n      dup2\n      dup2\n      mstore\n      0x20\n      add\n      dup3\n      dup1\n      sload\n      dup1\n      iszero\n      tag_207\n      jumpi\n      0x20\n      mul\n      dup3\n      add\n      swap2\n      swap1\n      0x00\n      mstore\n      keccak256(0x00, 0x20)\n      swap1\n    tag_208:\n      dup2\n      0x00\n      swap1\n      sload\n      swap1\n      0x0100\n      exp\n      swap1\n      div\n      0xffffffffffffffffffffffffffffffffffffffff\n      and\n      0xffffffffffffffffffffffffffffffffffffffff\n      and\n      dup2\n      mstore\n      0x20\n      add\n      swap1\n      0x01\n      add\n      swap1\n      dup1\n      dup4\n      gt\n      tag_208\n      jumpi\n    tag_207:\n      pop\n      pop\n      pop\n      pop\n      pop\n      swap1\n      pop\n        /* \"CrowdFunding_v1.sol\":6439:6445  uint i */\n      0x00\n        /* \"CrowdFunding_v1.sol\":6435:6801  for(uint i = 0; i <= campaignPledgers.length; i++) {... */\n    tag_209:\n        /* \"CrowdFunding_v1.sol\":6456:6472  campaignPledgers */\n      dup2\n        /* \"CrowdFunding_v1.sol\":6456:6479  campaignPledgers.length */\n      mload\n        /* \"CrowdFunding_v1.sol\":6451:6452  i */\n      dup2\n        /* \"CrowdFunding_v1.sol\":6451:6479  i <= campaignPledgers.length */\n      gt\n        /* \"CrowdFunding_v1.sol\":6435:6801  for(uint i = 0; i <= campaignPledgers.length; i++) {... */\n      tag_210\n      jumpi\n        /* \"CrowdFunding_v1.sol\":6500:6518  uint pledgedAmount */\n      0x00\n        /* \"CrowdFunding_v1.sol\":6521:6528  pledges */\n      0x03\n        /* \"CrowdFunding_v1.sol\":6521:6533  pledges[_id] */\n      0x00\n        /* \"CrowdFunding_v1.sol\":6529:6532  _id */\n      dup7\n        /* \"CrowdFunding_v1.sol\":6521:6533  pledges[_id] */\n      dup2\n      mstore\n      0x20\n      add\n      swap1\n      dup2\n      mstore\n      0x20\n      add\n      0x00\n      keccak256\n        /* \"CrowdFunding_v1.sol\":6521:6554  pledges[_id][campaignPledgers[i]] */\n      0x00\n        /* \"CrowdFunding_v1.sol\":6534:6550  campaignPledgers */\n      dup5\n        /* \"CrowdFunding_v1.sol\":6551:6552  i */\n      dup5\n        /* \"CrowdFunding_v1.sol\":6534:6553  campaignPledgers[i] */\n      dup2\n      mload\n      dup2\n      lt\n      tag_212\n      jumpi\n      tag_213\n      tag_214\n      jump\t// in\n    tag_213:\n    tag_212:\n      0x20\n      mul\n      0x20\n      add\n      add\n      mload\n        /* \"CrowdFunding_v1.sol\":6521:6554  pledges[_id][campaignPledgers[i]] */\n      0xffffffffffffffffffffffffffffffffffffffff\n      and\n      0xffffffffffffffffffffffffffffffffffffffff\n      and\n      dup2\n      mstore\n      0x20\n      add\n      swap1\n      dup2\n      mstore\n      0x20\n      add\n      0x00\n      keccak256\n      sload\n        /* \"CrowdFunding_v1.sol\":6500:6554  uint pledgedAmount = pledges[_id][campaignPledgers[i]] */\n      swap1\n      pop\n        /* \"CrowdFunding_v1.sol\":6604:6605  0 */\n      0x00\n        /* \"CrowdFunding_v1.sol\":6568:6575  pledges */\n      0x03\n        /* \"CrowdFunding_v1.sol\":6568:6580  pledges[_id] */\n      0x00\n        /* \"CrowdFunding_v1.sol\":6576:6579  _id */\n      dup8\n        /* \"CrowdFunding_v1.sol\":6568:6580  pledges[_id] */\n      dup2\n      mstore\n      0x20\n      add\n      swap1\n      dup2\n      mstore\n      0x20\n      add\n      0x00\n      keccak256\n        /* \"CrowdFunding_v1.sol\":6568:6601  pledges[_id][campaignPledgers[i]] */\n      0x00\n        /* \"CrowdFunding_v1.sol\":6581:6597  campaignPledgers */\n      dup6\n        /* \"CrowdFunding_v1.sol\":6598:6599  i */\n      dup6\n        /* \"CrowdFunding_v1.sol\":6581:6600  campaignPledgers[i] */\n      dup2\n      mload\n      dup2\n      lt\n      tag_215\n      jumpi\n      tag_216\n      tag_214\n      jump\t// in\n    tag_216:\n    tag_215:\n      0x20\n      mul\n      0x20\n      add\n      add\n      mload\n        /* \"CrowdFunding_v1.sol\":6568:6601  pledges[_id][campaignPledgers[i]] */\n      0xffffffffffffffffffffffffffffffffffffffff\n      and\n      0xffffffffffffffffffffffffffffffffffffffff\n      and\n      dup2\n      mstore\n      0x20\n      add\n      swap1\n      dup2\n      mstore\n      0x20\n      add\n      0x00\n      keccak256\n        /* \"CrowdFunding_v1.sol\":6568:6605  pledges[_id][campaignPledgers[i]] = 0 */\n      dup2\n      swap1\n      sstore\n      pop\n        /* \"CrowdFunding_v1.sol\":6645:6658  pledgedAmount */\n      dup1\n        /* \"CrowdFunding_v1.sol\":6619:6628  campaigns */\n      0x01\n        /* \"CrowdFunding_v1.sol\":6619:6633  campaigns[_id] */\n      0x00\n        /* \"CrowdFunding_v1.sol\":6629:6632  _id */\n      dup8\n        /* \"CrowdFunding_v1.sol\":6619:6633  campaigns[_id] */\n      dup2\n      mstore\n      0x20\n      add\n      swap1\n      dup2\n      mstore\n      0x20\n      add\n      0x00\n      keccak256\n        /* \"CrowdFunding_v1.sol\":6619:6641  campaigns[_id].pledged */\n      0x02\n      add\n      0x00\n        /* \"CrowdFunding_v1.sol\":6619:6658  campaigns[_id].pledged -= pledgedAmount */\n      dup3\n      dup3\n      sload\n      tag_217\n      swap2\n      swap1\n      tag_162\n      jump\t// in\n    tag_217:\n      swap3\n      pop\n      pop\n      dup2\n      swap1\n      sstore\n      pop\n        /* \"CrowdFunding_v1.sol\":6672:6677  token */\n      immutable(\"0x3b4066bd7b7960752225af105d3beafb5c47a26c5aae7e6798a437b7c0bb33e6\")\n        /* \"CrowdFunding_v1.sol\":6672:6686  token.transfer */\n      0xffffffffffffffffffffffffffffffffffffffff\n      and\n      0xa9059cbb\n        /* \"CrowdFunding_v1.sol\":6687:6703  campaignPledgers */\n      dup5\n        /* \"CrowdFunding_v1.sol\":6704:6705  i */\n      dup5\n        /* \"CrowdFunding_v1.sol\":6687:6706  campaignPledgers[i] */\n      dup2\n      mload\n      dup2\n      lt\n      tag_218\n      jumpi\n      tag_219\n      tag_214\n      jump\t// in\n    tag_219:\n    tag_218:\n      0x20\n      mul\n      0x20\n      add\n      add\n      mload\n        /* \"CrowdFunding_v1.sol\":6708:6721  pledgedAmount */\n      dup4\n        /* \"CrowdFunding_v1.sol\":6672:6722  token.transfer(campaignPledgers[i], pledgedAmount) */\n      mload(0x40)\n      dup4\n      0xffffffff\n      and\n      0xe0\n      shl\n      dup2\n      mstore\n      0x04\n      add\n      tag_220\n      swap3\n      swap2\n      swap1\n      tag_120\n      jump\t// in\n    tag_220:\n      0x00\n      mload(0x40)\n      dup1\n      dup4\n      sub\n      dup2\n      0x00\n      dup8\n      dup1\n      extcodesize\n      iszero\n      dup1\n      iszero\n      tag_221\n      jumpi\n      0x00\n      dup1\n      revert\n    tag_221:\n      pop\n      gas\n      call\n      iszero\n      dup1\n      iszero\n      tag_223\n      jumpi\n      returndatasize\n      0x00\n      dup1\n      returndatacopy\n      revert(0x00, returndatasize)\n    tag_223:\n      pop\n      pop\n      pop\n      pop\n        /* \"CrowdFunding_v1.sol\":6741:6790  Refunded(_id, campaignPledgers[i], pledgedAmount) */\n      0x7ca5472b7ea78c2c0141c5a12ee6d170cf4ce8ed06be3d22c8252ddfc7a6a2c4\n        /* \"CrowdFunding_v1.sol\":6750:6753  _id */\n      dup6\n        /* \"CrowdFunding_v1.sol\":6755:6771  campaignPledgers */\n      dup5\n        /* \"CrowdFunding_v1.sol\":6772:6773  i */\n      dup5\n        /* \"CrowdFunding_v1.sol\":6755:6774  campaignPledgers[i] */\n      dup2\n      mload\n      dup2\n      lt\n      tag_224\n      jumpi\n      tag_225\n      tag_214\n      jump\t// in\n    tag_225:\n    tag_224:\n      0x20\n      mul\n      0x20\n      add\n      add\n      mload\n        /* \"CrowdFunding_v1.sol\":6776:6789  pledgedAmount */\n      dup4\n        /* \"CrowdFunding_v1.sol\":6741:6790  Refunded(_id, campaignPledgers[i], pledgedAmount) */\n      mload(0x40)\n      tag_226\n      swap4\n      swap3\n      swap2\n      swap1\n      tag_164\n      jump\t// in\n    tag_226:\n      mload(0x40)\n      dup1\n      swap2\n      sub\n      swap1\n      log1\n        /* \"CrowdFunding_v1.sol\":6486:6801  {... */\n      pop\n        /* \"CrowdFunding_v1.sol\":6481:6484  i++ */\n      dup1\n      dup1\n      tag_227\n      swap1\n      tag_228\n      jump\t// in\n    tag_227:\n      swap2\n      pop\n      pop\n        /* \"CrowdFunding_v1.sol\":6435:6801  for(uint i = 0; i <= campaignPledgers.length; i++) {... */\n      jump(tag_209)\n    tag_210:\n      pop\n        /* \"CrowdFunding_v1.sol\":6175:6807  {... */\n      pop\n      pop\n        /* \"CrowdFunding_v1.sol\":6137:6807  function refundAll(uint _id) external {... */\n      pop\n      jump\t// out\n        /* \"CrowdFunding_v1.sol\":1233:1262  IERC20 public immutable token */\n    tag_101:\n      immutable(\"0x3b4066bd7b7960752225af105d3beafb5c47a26c5aae7e6798a437b7c0bb33e6\")\n      dup2\n      jump\t// out\n        /* \"CrowdFunding_v1.sol\":4192:4612  function pledge(uint _id, uint _amount) external {... */\n    tag_107:\n        /* \"CrowdFunding_v1.sol\":4251:4276  Campaign storage campaign */\n      0x00\n        /* \"CrowdFunding_v1.sol\":4279:4288  campaigns */\n      0x01\n        /* \"CrowdFunding_v1.sol\":4279:4293  campaigns[_id] */\n      0x00\n        /* \"CrowdFunding_v1.sol\":4289:4292  _id */\n      dup5\n        /* \"CrowdFunding_v1.sol\":4279:4293  campaigns[_id] */\n      dup2\n      mstore\n      0x20\n      add\n      swap1\n      dup2\n      mstore\n      0x20\n      add\n      0x00\n      keccak256\n        /* \"CrowdFunding_v1.sol\":4251:4293  Campaign storage campaign = campaigns[_id] */\n      swap1\n      pop\n        /* \"CrowdFunding_v1.sol\":4329:4339  State.OPEN */\n      0x01\n        /* \"CrowdFunding_v1.sol\":4311:4339  campaign.state == State.OPEN */\n      dup1\n      dup2\n      gt\n      iszero\n      tag_230\n      jumpi\n      tag_231\n      tag_128\n      jump\t// in\n    tag_231:\n    tag_230:\n        /* \"CrowdFunding_v1.sol\":4311:4319  campaign */\n      dup2\n        /* \"CrowdFunding_v1.sol\":4311:4325  campaign.state */\n      0x03\n      add\n      0x00\n      swap1\n      sload\n      swap1\n      0x0100\n      exp\n      swap1\n      div\n      0xff\n      and\n        /* \"CrowdFunding_v1.sol\":4311:4339  campaign.state == State.OPEN */\n      0x01\n      dup2\n      gt\n      iszero\n      tag_232\n      jumpi\n      tag_233\n      tag_128\n      jump\t// in\n    tag_233:\n    tag_232:\n      eq\n        /* \"CrowdFunding_v1.sol\":4303:4367  require(campaign.state == State.OPEN, \"campaign is not opened!\") */\n      tag_234\n      jumpi\n      mload(0x40)\n      0x08c379a000000000000000000000000000000000000000000000000000000000\n      dup2\n      mstore\n      0x04\n      add\n      tag_235\n      swap1\n      tag_140\n      jump\t// in\n    tag_235:\n      mload(0x40)\n      dup1\n      swap2\n      sub\n      swap1\n      revert\n    tag_234:\n        /* \"CrowdFunding_v1.sol\":4399:4406  _amount */\n      dup2\n        /* \"CrowdFunding_v1.sol\":4379:4387  campaign */\n      dup2\n        /* \"CrowdFunding_v1.sol\":4379:4395  campaign.pledged */\n      0x02\n      add\n      0x00\n        /* \"CrowdFunding_v1.sol\":4379:4406  campaign.pledged += _amount */\n      dup3\n      dup3\n      sload\n      tag_236\n      swap2\n      swap1\n      tag_173\n      jump\t// in\n    tag_236:\n      swap3\n      pop\n      pop\n      dup2\n      swap1\n      sstore\n      pop\n        /* \"CrowdFunding_v1.sol\":4444:4451  _amount */\n      dup2\n        /* \"CrowdFunding_v1.sol\":4416:4423  pledges */\n      0x03\n        /* \"CrowdFunding_v1.sol\":4416:4428  pledges[_id] */\n      0x00\n        /* \"CrowdFunding_v1.sol\":4424:4427  _id */\n      dup6\n        /* \"CrowdFunding_v1.sol\":4416:4428  pledges[_id] */\n      dup2\n      mstore\n      0x20\n      add\n      swap1\n      dup2\n      mstore\n      0x20\n      add\n      0x00\n      keccak256\n        /* \"CrowdFunding_v1.sol\":4416:4440  pledges[_id][msg.sender] */\n      0x00\n        /* \"CrowdFunding_v1.sol\":4429:4439  msg.sender */\n      caller\n        /* \"CrowdFunding_v1.sol\":4416:4440  pledges[_id][msg.sender] */\n      0xffffffffffffffffffffffffffffffffffffffff\n      and\n      0xffffffffffffffffffffffffffffffffffffffff\n      and\n      dup2\n      mstore\n      0x20\n      add\n      swap1\n      dup2\n      mstore\n      0x20\n      add\n      0x00\n      keccak256\n      0x00\n        /* \"CrowdFunding_v1.sol\":4416:4451  pledges[_id][msg.sender] += _amount */\n      dup3\n      dup3\n      sload\n      tag_237\n      swap2\n      swap1\n      tag_173\n      jump\t// in\n    tag_237:\n      swap3\n      pop\n      pop\n      dup2\n      swap1\n      sstore\n      pop\n        /* \"CrowdFunding_v1.sol\":4461:4466  token */\n      immutable(\"0x3b4066bd7b7960752225af105d3beafb5c47a26c5aae7e6798a437b7c0bb33e6\")\n        /* \"CrowdFunding_v1.sol\":4461:4479  token.transferFrom */\n      0xffffffffffffffffffffffffffffffffffffffff\n      and\n      0x23b872dd\n        /* \"CrowdFunding_v1.sol\":4480:4490  msg.sender */\n      caller\n        /* \"CrowdFunding_v1.sol\":4500:4504  this */\n      address\n        /* \"CrowdFunding_v1.sol\":4507:4514  _amount */\n      dup6\n        /* \"CrowdFunding_v1.sol\":4461:4515  token.transferFrom(msg.sender, address(this), _amount) */\n      mload(0x40)\n      dup5\n      0xffffffff\n      and\n      0xe0\n      shl\n      dup2\n      mstore\n      0x04\n      add\n      tag_238\n      swap4\n      swap3\n      swap2\n      swap1\n      tag_239\n      jump\t// in\n    tag_238:\n      0x00\n      mload(0x40)\n      dup1\n      dup4\n      sub\n      dup2\n      0x00\n      dup8\n      dup1\n      extcodesize\n      iszero\n      dup1\n      iszero\n      tag_240\n      jumpi\n      0x00\n      dup1\n      revert\n    tag_240:\n      pop\n      gas\n      call\n      iszero\n      dup1\n      iszero\n      tag_242\n      jumpi\n      returndatasize\n      0x00\n      dup1\n      returndatacopy\n      revert(0x00, returndatasize)\n    tag_242:\n      pop\n      pop\n      pop\n      pop\n        /* \"CrowdFunding_v1.sol\":4525:4533  pledgers */\n      0x04\n        /* \"CrowdFunding_v1.sol\":4525:4538  pledgers[_id] */\n      0x00\n        /* \"CrowdFunding_v1.sol\":4534:4537  _id */\n      dup5\n        /* \"CrowdFunding_v1.sol\":4525:4538  pledgers[_id] */\n      dup2\n      mstore\n      0x20\n      add\n      swap1\n      dup2\n      mstore\n      0x20\n      add\n      0x00\n      keccak256\n        /* \"CrowdFunding_v1.sol\":4544:4554  msg.sender */\n      caller\n        /* \"CrowdFunding_v1.sol\":4525:4555  pledgers[_id].push(msg.sender) */\n      swap1\n      dup1\n      0x01\n      dup2\n      sload\n      add\n      dup1\n      dup3\n      sstore\n      dup1\n      swap2\n      pop\n      pop\n      0x01\n      swap1\n      sub\n      swap1\n      0x00\n      mstore\n      keccak256(0x00, 0x20)\n      add\n      0x00\n      swap1\n      swap2\n      swap1\n      swap2\n      swap1\n      swap2\n      0x0100\n      exp\n      dup2\n      sload\n      dup2\n      0xffffffffffffffffffffffffffffffffffffffff\n      mul\n      not\n      and\n      swap1\n      dup4\n      0xffffffffffffffffffffffffffffffffffffffff\n      and\n      mul\n      or\n      swap1\n      sstore\n      pop\n        /* \"CrowdFunding_v1.sol\":4572:4605  Pledged(_id, msg.sender, _amount) */\n      0x2757ac6a40883f4491cc56930ae964df9034e343e660d5179eb01e198336756b\n        /* \"CrowdFunding_v1.sol\":4580:4583  _id */\n      dup4\n        /* \"CrowdFunding_v1.sol\":4585:4595  msg.sender */\n      caller\n        /* \"CrowdFunding_v1.sol\":4597:4604  _amount */\n      dup5\n        /* \"CrowdFunding_v1.sol\":4572:4605  Pledged(_id, msg.sender, _amount) */\n      mload(0x40)\n      tag_244\n      swap4\n      swap3\n      swap2\n      swap1\n      tag_164\n      jump\t// in\n    tag_244:\n      mload(0x40)\n      dup1\n      swap2\n      sub\n      swap1\n      log1\n        /* \"CrowdFunding_v1.sol\":4241:4612  {... */\n      pop\n        /* \"CrowdFunding_v1.sol\":4192:4612  function pledge(uint _id, uint _amount) external {... */\n      pop\n      pop\n      jump\t// out\n        /* \"#utility.yul\":7:84   */\n    tag_245:\n        /* \"#utility.yul\":44:51   */\n      0x00\n        /* \"#utility.yul\":73:78   */\n      dup2\n        /* \"#utility.yul\":62:78   */\n      swap1\n      pop\n        /* \"#utility.yul\":7:84   */\n      swap2\n      swap1\n      pop\n      jump\t// out\n        /* \"#utility.yul\":90:208   */\n    tag_246:\n        /* \"#utility.yul\":177:201   */\n      tag_285\n        /* \"#utility.yul\":195:200   */\n      dup2\n        /* \"#utility.yul\":177:201   */\n      tag_245\n      jump\t// in\n    tag_285:\n        /* \"#utility.yul\":172:175   */\n      dup3\n        /* \"#utility.yul\":165:202   */\n      mstore\n        /* \"#utility.yul\":90:208   */\n      pop\n      pop\n      jump\t// out\n        /* \"#utility.yul\":214:436   */\n    tag_26:\n        /* \"#utility.yul\":307:311   */\n      0x00\n        /* \"#utility.yul\":345:347   */\n      0x20\n        /* \"#utility.yul\":334:343   */\n      dup3\n        /* \"#utility.yul\":330:348   */\n      add\n        /* \"#utility.yul\":322:348   */\n      swap1\n      pop\n        /* \"#utility.yul\":358:429   */\n      tag_287\n        /* \"#utility.yul\":426:427   */\n      0x00\n        /* \"#utility.yul\":415:424   */\n      dup4\n        /* \"#utility.yul\":411:428   */\n      add\n        /* \"#utility.yul\":402:408   */\n      dup5\n        /* \"#utility.yul\":358:429   */\n      tag_246\n      jump\t// in\n    tag_287:\n        /* \"#utility.yul\":214:436   */\n      swap3\n      swap2\n      pop\n      pop\n      jump\t// out\n        /* \"#utility.yul\":523:640   */\n    tag_248:\n        /* \"#utility.yul\":632:633   */\n      0x00\n        /* \"#utility.yul\":629:630   */\n      dup1\n        /* \"#utility.yul\":622:634   */\n      revert\n        /* \"#utility.yul\":769:891   */\n    tag_250:\n        /* \"#utility.yul\":842:866   */\n      tag_292\n        /* \"#utility.yul\":860:865   */\n      dup2\n        /* \"#utility.yul\":842:866   */\n      tag_245\n      jump\t// in\n    tag_292:\n        /* \"#utility.yul\":835:840   */\n      dup2\n        /* \"#utility.yul\":832:867   */\n      eq\n        /* \"#utility.yul\":822:885   */\n      tag_293\n      jumpi\n        /* \"#utility.yul\":881:882   */\n      0x00\n        /* \"#utility.yul\":878:879   */\n      dup1\n        /* \"#utility.yul\":871:883   */\n      revert\n        /* \"#utility.yul\":822:885   */\n    tag_293:\n        /* \"#utility.yul\":769:891   */\n      pop\n      jump\t// out\n        /* \"#utility.yul\":897:1036   */\n    tag_251:\n        /* \"#utility.yul\":943:948   */\n      0x00\n        /* \"#utility.yul\":981:987   */\n      dup2\n        /* \"#utility.yul\":968:988   */\n      calldataload\n        /* \"#utility.yul\":959:988   */\n      swap1\n      pop\n        /* \"#utility.yul\":997:1030   */\n      tag_295\n        /* \"#utility.yul\":1024:1029   */\n      dup2\n        /* \"#utility.yul\":997:1030   */\n      tag_250\n      jump\t// in\n    tag_295:\n        /* \"#utility.yul\":897:1036   */\n      swap3\n      swap2\n      pop\n      pop\n      jump\t// out\n        /* \"#utility.yul\":1042:1168   */\n    tag_252:\n        /* \"#utility.yul\":1079:1086   */\n      0x00\n        /* \"#utility.yul\":1119:1161   */\n      0xffffffffffffffffffffffffffffffffffffffff\n        /* \"#utility.yul\":1112:1117   */\n      dup3\n        /* \"#utility.yul\":1108:1162   */\n      and\n        /* \"#utility.yul\":1097:1162   */\n      swap1\n      pop\n        /* \"#utility.yul\":1042:1168   */\n      swap2\n      swap1\n      pop\n      jump\t// out\n        /* \"#utility.yul\":1174:1270   */\n    tag_253:\n        /* \"#utility.yul\":1211:1218   */\n      0x00\n        /* \"#utility.yul\":1240:1264   */\n      tag_298\n        /* \"#utility.yul\":1258:1263   */\n      dup3\n        /* \"#utility.yul\":1240:1264   */\n      tag_252\n      jump\t// in\n    tag_298:\n        /* \"#utility.yul\":1229:1264   */\n      swap1\n      pop\n        /* \"#utility.yul\":1174:1270   */\n      swap2\n      swap1\n      pop\n      jump\t// out\n        /* \"#utility.yul\":1276:1398   */\n    tag_254:\n        /* \"#utility.yul\":1349:1373   */\n      tag_300\n        /* \"#utility.yul\":1367:1372   */\n      dup2\n        /* \"#utility.yul\":1349:1373   */\n      tag_253\n      jump\t// in\n    tag_300:\n        /* \"#utility.yul\":1342:1347   */\n      dup2\n        /* \"#utility.yul\":1339:1374   */\n      eq\n        /* \"#utility.yul\":1329:1392   */\n      tag_301\n      jumpi\n        /* \"#utility.yul\":1388:1389   */\n      0x00\n        /* \"#utility.yul\":1385:1386   */\n      dup1\n        /* \"#utility.yul\":1378:1390   */\n      revert\n        /* \"#utility.yul\":1329:1392   */\n    tag_301:\n        /* \"#utility.yul\":1276:1398   */\n      pop\n      jump\t// out\n        /* \"#utility.yul\":1404:1543   */\n    tag_255:\n        /* \"#utility.yul\":1450:1455   */\n      0x00\n        /* \"#utility.yul\":1488:1494   */\n      dup2\n        /* \"#utility.yul\":1475:1495   */\n      calldataload\n        /* \"#utility.yul\":1466:1495   */\n      swap1\n      pop\n        /* \"#utility.yul\":1504:1537   */\n      tag_303\n        /* \"#utility.yul\":1531:1536   */\n      dup2\n        /* \"#utility.yul\":1504:1537   */\n      tag_254\n      jump\t// in\n    tag_303:\n        /* \"#utility.yul\":1404:1543   */\n      swap3\n      swap2\n      pop\n      pop\n      jump\t// out\n        /* \"#utility.yul\":1549:2023   */\n    tag_32:\n        /* \"#utility.yul\":1617:1623   */\n      0x00\n        /* \"#utility.yul\":1625:1631   */\n      dup1\n        /* \"#utility.yul\":1674:1676   */\n      0x40\n        /* \"#utility.yul\":1662:1671   */\n      dup4\n        /* \"#utility.yul\":1653:1660   */\n      dup6\n        /* \"#utility.yul\":1649:1672   */\n      sub\n        /* \"#utility.yul\":1645:1677   */\n      slt\n        /* \"#utility.yul\":1642:1761   */\n      iszero\n      tag_305\n      jumpi\n        /* \"#utility.yul\":1680:1759   */\n      tag_306\n      tag_248\n      jump\t// in\n    tag_306:\n        /* \"#utility.yul\":1642:1761   */\n    tag_305:\n        /* \"#utility.yul\":1800:1801   */\n      0x00\n        /* \"#utility.yul\":1825:1878   */\n      tag_307\n        /* \"#utility.yul\":1870:1877   */\n      dup6\n        /* \"#utility.yul\":1861:1867   */\n      dup3\n        /* \"#utility.yul\":1850:1859   */\n      dup7\n        /* \"#utility.yul\":1846:1868   */\n      add\n        /* \"#utility.yul\":1825:1878   */\n      tag_251\n      jump\t// in\n    tag_307:\n        /* \"#utility.yul\":1815:1878   */\n      swap3\n      pop\n        /* \"#utility.yul\":1771:1888   */\n      pop\n        /* \"#utility.yul\":1927:1929   */\n      0x20\n        /* \"#utility.yul\":1953:2006   */\n      tag_308\n        /* \"#utility.yul\":1998:2005   */\n      dup6\n        /* \"#utility.yul\":1989:1995   */\n      dup3\n        /* \"#utility.yul\":1978:1987   */\n      dup7\n        /* \"#utility.yul\":1974:1996   */\n      add\n        /* \"#utility.yul\":1953:2006   */\n      tag_255\n      jump\t// in\n    tag_308:\n        /* \"#utility.yul\":1943:2006   */\n      swap2\n      pop\n        /* \"#utility.yul\":1898:2016   */\n      pop\n        /* \"#utility.yul\":1549:2023   */\n      swap3\n      pop\n      swap3\n      swap1\n      pop\n      jump\t// out\n        /* \"#utility.yul\":2029:2119   */\n    tag_256:\n        /* \"#utility.yul\":2063:2070   */\n      0x00\n        /* \"#utility.yul\":2106:2111   */\n      dup2\n        /* \"#utility.yul\":2099:2112   */\n      iszero\n        /* \"#utility.yul\":2092:2113   */\n      iszero\n        /* \"#utility.yul\":2081:2113   */\n      swap1\n      pop\n        /* \"#utility.yul\":2029:2119   */\n      swap2\n      swap1\n      pop\n      jump\t// out\n        /* \"#utility.yul\":2125:2234   */\n    tag_257:\n        /* \"#utility.yul\":2206:2227   */\n      tag_311\n        /* \"#utility.yul\":2221:2226   */\n      dup2\n        /* \"#utility.yul\":2206:2227   */\n      tag_256\n      jump\t// in\n    tag_311:\n        /* \"#utility.yul\":2201:2204   */\n      dup3\n        /* \"#utility.yul\":2194:2228   */\n      mstore\n        /* \"#utility.yul\":2125:2234   */\n      pop\n      pop\n      jump\t// out\n        /* \"#utility.yul\":2240:2450   */\n    tag_35:\n        /* \"#utility.yul\":2327:2331   */\n      0x00\n        /* \"#utility.yul\":2365:2367   */\n      0x20\n        /* \"#utility.yul\":2354:2363   */\n      dup3\n        /* \"#utility.yul\":2350:2368   */\n      add\n        /* \"#utility.yul\":2342:2368   */\n      swap1\n      pop\n        /* \"#utility.yul\":2378:2443   */\n      tag_313\n        /* \"#utility.yul\":2440:2441   */\n      0x00\n        /* \"#utility.yul\":2429:2438   */\n      dup4\n        /* \"#utility.yul\":2425:2442   */\n      add\n        /* \"#utility.yul\":2416:2422   */\n      dup5\n        /* \"#utility.yul\":2378:2443   */\n      tag_257\n      jump\t// in\n    tag_313:\n        /* \"#utility.yul\":2240:2450   */\n      swap3\n      swap2\n      pop\n      pop\n      jump\t// out\n        /* \"#utility.yul\":2456:2785   */\n    tag_39:\n        /* \"#utility.yul\":2515:2521   */\n      0x00\n        /* \"#utility.yul\":2564:2566   */\n      0x20\n        /* \"#utility.yul\":2552:2561   */\n      dup3\n        /* \"#utility.yul\":2543:2550   */\n      dup5\n        /* \"#utility.yul\":2539:2562   */\n      sub\n        /* \"#utility.yul\":2535:2567   */\n      slt\n        /* \"#utility.yul\":2532:2651   */\n      iszero\n      tag_315\n      jumpi\n        /* \"#utility.yul\":2570:2649   */\n      tag_316\n      tag_248\n      jump\t// in\n    tag_316:\n        /* \"#utility.yul\":2532:2651   */\n    tag_315:\n        /* \"#utility.yul\":2690:2691   */\n      0x00\n        /* \"#utility.yul\":2715:2768   */\n      tag_317\n        /* \"#utility.yul\":2760:2767   */\n      dup5\n        /* \"#utility.yul\":2751:2757   */\n      dup3\n        /* \"#utility.yul\":2740:2749   */\n      dup6\n        /* \"#utility.yul\":2736:2758   */\n      add\n        /* \"#utility.yul\":2715:2768   */\n      tag_251\n      jump\t// in\n    tag_317:\n        /* \"#utility.yul\":2705:2768   */\n      swap2\n      pop\n        /* \"#utility.yul\":2661:2778   */\n      pop\n        /* \"#utility.yul\":2456:2785   */\n      swap3\n      swap2\n      pop\n      pop\n      jump\t// out\n        /* \"#utility.yul\":2791:2909   */\n    tag_258:\n        /* \"#utility.yul\":2878:2902   */\n      tag_319\n        /* \"#utility.yul\":2896:2901   */\n      dup2\n        /* \"#utility.yul\":2878:2902   */\n      tag_253\n      jump\t// in\n    tag_319:\n        /* \"#utility.yul\":2873:2876   */\n      dup3\n        /* \"#utility.yul\":2866:2903   */\n      mstore\n        /* \"#utility.yul\":2791:2909   */\n      pop\n      pop\n      jump\t// out\n        /* \"#utility.yul\":2915:3095   */\n    tag_128:\n        /* \"#utility.yul\":2963:3040   */\n      0x4e487b7100000000000000000000000000000000000000000000000000000000\n        /* \"#utility.yul\":2960:2961   */\n      0x00\n        /* \"#utility.yul\":2953:3041   */\n      mstore\n        /* \"#utility.yul\":3060:3064   */\n      0x21\n        /* \"#utility.yul\":3057:3058   */\n      0x04\n        /* \"#utility.yul\":3050:3065   */\n      mstore\n        /* \"#utility.yul\":3084:3088   */\n      0x24\n        /* \"#utility.yul\":3081:3082   */\n      0x00\n        /* \"#utility.yul\":3074:3089   */\n      revert\n        /* \"#utility.yul\":3101:3214   */\n    tag_259:\n        /* \"#utility.yul\":3182:3183   */\n      0x02\n        /* \"#utility.yul\":3175:3180   */\n      dup2\n        /* \"#utility.yul\":3172:3184   */\n      lt\n        /* \"#utility.yul\":3162:3208   */\n      tag_322\n      jumpi\n        /* \"#utility.yul\":3188:3206   */\n      tag_323\n      tag_128\n      jump\t// in\n    tag_323:\n        /* \"#utility.yul\":3162:3208   */\n    tag_322:\n        /* \"#utility.yul\":3101:3214   */\n      pop\n      jump\t// out\n        /* \"#utility.yul\":3220:3347   */\n    tag_260:\n        /* \"#utility.yul\":3265:3272   */\n      0x00\n        /* \"#utility.yul\":3294:3299   */\n      dup2\n        /* \"#utility.yul\":3283:3299   */\n      swap1\n      pop\n        /* \"#utility.yul\":3300:3341   */\n      tag_325\n        /* \"#utility.yul\":3335:3340   */\n      dup3\n        /* \"#utility.yul\":3300:3341   */\n      tag_259\n      jump\t// in\n    tag_325:\n        /* \"#utility.yul\":3220:3347   */\n      swap2\n      swap1\n      pop\n      jump\t// out\n        /* \"#utility.yul\":3353:3480   */\n    tag_261:\n        /* \"#utility.yul\":3409:3418   */\n      0x00\n        /* \"#utility.yul\":3442:3474   */\n      tag_327\n        /* \"#utility.yul\":3468:3473   */\n      dup3\n        /* \"#utility.yul\":3442:3474   */\n      tag_260\n      jump\t// in\n    tag_327:\n        /* \"#utility.yul\":3429:3474   */\n      swap1\n      pop\n        /* \"#utility.yul\":3353:3480   */\n      swap2\n      swap1\n      pop\n      jump\t// out\n        /* \"#utility.yul\":3486:3629   */\n    tag_262:\n        /* \"#utility.yul\":3579:3622   */\n      tag_329\n        /* \"#utility.yul\":3616:3621   */\n      dup2\n        /* \"#utility.yul\":3579:3622   */\n      tag_261\n      jump\t// in\n    tag_329:\n        /* \"#utility.yul\":3574:3577   */\n      dup3\n        /* \"#utility.yul\":3567:3623   */\n      mstore\n        /* \"#utility.yul\":3486:3629   */\n      pop\n      pop\n      jump\t// out\n        /* \"#utility.yul\":3635:4299   */\n    tag_42:\n        /* \"#utility.yul\":3840:3844   */\n      0x00\n        /* \"#utility.yul\":3878:3881   */\n      0xa0\n        /* \"#utility.yul\":3867:3876   */\n      dup3\n        /* \"#utility.yul\":3863:3882   */\n      add\n        /* \"#utility.yul\":3855:3882   */\n      swap1\n      pop\n        /* \"#utility.yul\":3892:3963   */\n      tag_331\n        /* \"#utility.yul\":3960:3961   */\n      0x00\n        /* \"#utility.yul\":3949:3958   */\n      dup4\n        /* \"#utility.yul\":3945:3962   */\n      add\n        /* \"#utility.yul\":3936:3942   */\n      dup9\n        /* \"#utility.yul\":3892:3963   */\n      tag_258\n      jump\t// in\n    tag_331:\n        /* \"#utility.yul\":3973:4045   */\n      tag_332\n        /* \"#utility.yul\":4041:4043   */\n      0x20\n        /* \"#utility.yul\":4030:4039   */\n      dup4\n        /* \"#utility.yul\":4026:4044   */\n      add\n        /* \"#utility.yul\":4017:4023   */\n      dup8\n        /* \"#utility.yul\":3973:4045   */\n      tag_246\n      jump\t// in\n    tag_332:\n        /* \"#utility.yul\":4055:4127   */\n      tag_333\n        /* \"#utility.yul\":4123:4125   */\n      0x40\n        /* \"#utility.yul\":4112:4121   */\n      dup4\n        /* \"#utility.yul\":4108:4126   */\n      add\n        /* \"#utility.yul\":4099:4105   */\n      dup7\n        /* \"#utility.yul\":4055:4127   */\n      tag_246\n      jump\t// in\n    tag_333:\n        /* \"#utility.yul\":4137:4215   */\n      tag_334\n        /* \"#utility.yul\":4211:4213   */\n      0x60\n        /* \"#utility.yul\":4200:4209   */\n      dup4\n        /* \"#utility.yul\":4196:4214   */\n      add\n        /* \"#utility.yul\":4187:4193   */\n      dup6\n        /* \"#utility.yul\":4137:4215   */\n      tag_262\n      jump\t// in\n    tag_334:\n        /* \"#utility.yul\":4225:4292   */\n      tag_335\n        /* \"#utility.yul\":4287:4290   */\n      0x80\n        /* \"#utility.yul\":4276:4285   */\n      dup4\n        /* \"#utility.yul\":4272:4291   */\n      add\n        /* \"#utility.yul\":4263:4269   */\n      dup5\n        /* \"#utility.yul\":4225:4292   */\n      tag_257\n      jump\t// in\n    tag_335:\n        /* \"#utility.yul\":3635:4299   */\n      swap7\n      swap6\n      pop\n      pop\n      pop\n      pop\n      pop\n      pop\n      jump\t// out\n        /* \"#utility.yul\":4305:4779   */\n    tag_54:\n        /* \"#utility.yul\":4373:4379   */\n      0x00\n        /* \"#utility.yul\":4381:4387   */\n      dup1\n        /* \"#utility.yul\":4430:4432   */\n      0x40\n        /* \"#utility.yul\":4418:4427   */\n      dup4\n        /* \"#utility.yul\":4409:4416   */\n      dup6\n        /* \"#utility.yul\":4405:4428   */\n      sub\n        /* \"#utility.yul\":4401:4433   */\n      slt\n        /* \"#utility.yul\":4398:4517   */\n      iszero\n      tag_337\n      jumpi\n        /* \"#utility.yul\":4436:4515   */\n      tag_338\n      tag_248\n      jump\t// in\n    tag_338:\n        /* \"#utility.yul\":4398:4517   */\n    tag_337:\n        /* \"#utility.yul\":4556:4557   */\n      0x00\n        /* \"#utility.yul\":4581:4634   */\n      tag_339\n        /* \"#utility.yul\":4626:4633   */\n      dup6\n        /* \"#utility.yul\":4617:4623   */\n      dup3\n        /* \"#utility.yul\":4606:4615   */\n      dup7\n        /* \"#utility.yul\":4602:4624   */\n      add\n        /* \"#utility.yul\":4581:4634   */\n      tag_251\n      jump\t// in\n    tag_339:\n        /* \"#utility.yul\":4571:4634   */\n      swap3\n      pop\n        /* \"#utility.yul\":4527:4644   */\n      pop\n        /* \"#utility.yul\":4683:4685   */\n      0x20\n        /* \"#utility.yul\":4709:4762   */\n      tag_340\n        /* \"#utility.yul\":4754:4761   */\n      dup6\n        /* \"#utility.yul\":4745:4751   */\n      dup3\n        /* \"#utility.yul\":4734:4743   */\n      dup7\n        /* \"#utility.yul\":4730:4752   */\n      add\n        /* \"#utility.yul\":4709:4762   */\n      tag_251\n      jump\t// in\n    tag_340:\n        /* \"#utility.yul\":4699:4762   */\n      swap2\n      pop\n        /* \"#utility.yul\":4654:4772   */\n      pop\n        /* \"#utility.yul\":4305:4779   */\n      swap3\n      pop\n      swap3\n      swap1\n      pop\n      jump\t// out\n        /* \"#utility.yul\":4785:5007   */\n    tag_57:\n        /* \"#utility.yul\":4878:4882   */\n      0x00\n        /* \"#utility.yul\":4916:4918   */\n      0x20\n        /* \"#utility.yul\":4905:4914   */\n      dup3\n        /* \"#utility.yul\":4901:4919   */\n      add\n        /* \"#utility.yul\":4893:4919   */\n      swap1\n      pop\n        /* \"#utility.yul\":4929:5000   */\n      tag_342\n        /* \"#utility.yul\":4997:4998   */\n      0x00\n        /* \"#utility.yul\":4986:4995   */\n      dup4\n        /* \"#utility.yul\":4982:4999   */\n      add\n        /* \"#utility.yul\":4973:4979   */\n      dup5\n        /* \"#utility.yul\":4929:5000   */\n      tag_258\n      jump\t// in\n    tag_342:\n        /* \"#utility.yul\":4785:5007   */\n      swap3\n      swap2\n      pop\n      pop\n      jump\t// out\n        /* \"#utility.yul\":5013:5073   */\n    tag_263:\n        /* \"#utility.yul\":5041:5044   */\n      0x00\n        /* \"#utility.yul\":5062:5067   */\n      dup2\n        /* \"#utility.yul\":5055:5067   */\n      swap1\n      pop\n        /* \"#utility.yul\":5013:5073   */\n      swap2\n      swap1\n      pop\n      jump\t// out\n        /* \"#utility.yul\":5079:5221   */\n    tag_264:\n        /* \"#utility.yul\":5129:5138   */\n      0x00\n        /* \"#utility.yul\":5162:5215   */\n      tag_345\n        /* \"#utility.yul\":5180:5214   */\n      tag_346\n        /* \"#utility.yul\":5189:5213   */\n      tag_347\n        /* \"#utility.yul\":5207:5212   */\n      dup5\n        /* \"#utility.yul\":5189:5213   */\n      tag_252\n      jump\t// in\n    tag_347:\n        /* \"#utility.yul\":5180:5214   */\n      tag_263\n      jump\t// in\n    tag_346:\n        /* \"#utility.yul\":5162:5215   */\n      tag_252\n      jump\t// in\n    tag_345:\n        /* \"#utility.yul\":5149:5215   */\n      swap1\n      pop\n        /* \"#utility.yul\":5079:5221   */\n      swap2\n      swap1\n      pop\n      jump\t// out\n        /* \"#utility.yul\":5227:5353   */\n    tag_265:\n        /* \"#utility.yul\":5277:5286   */\n      0x00\n        /* \"#utility.yul\":5310:5347   */\n      tag_349\n        /* \"#utility.yul\":5341:5346   */\n      dup3\n        /* \"#utility.yul\":5310:5347   */\n      tag_264\n      jump\t// in\n    tag_349:\n        /* \"#utility.yul\":5297:5347   */\n      swap1\n      pop\n        /* \"#utility.yul\":5227:5353   */\n      swap2\n      swap1\n      pop\n      jump\t// out\n        /* \"#utility.yul\":5359:5500   */\n    tag_266:\n        /* \"#utility.yul\":5424:5433   */\n      0x00\n        /* \"#utility.yul\":5457:5494   */\n      tag_351\n        /* \"#utility.yul\":5488:5493   */\n      dup3\n        /* \"#utility.yul\":5457:5494   */\n      tag_265\n      jump\t// in\n    tag_351:\n        /* \"#utility.yul\":5444:5494   */\n      swap1\n      pop\n        /* \"#utility.yul\":5359:5500   */\n      swap2\n      swap1\n      pop\n      jump\t// out\n        /* \"#utility.yul\":5506:5667   */\n    tag_267:\n        /* \"#utility.yul\":5608:5660   */\n      tag_353\n        /* \"#utility.yul\":5654:5659   */\n      dup2\n        /* \"#utility.yul\":5608:5660   */\n      tag_266\n      jump\t// in\n    tag_353:\n        /* \"#utility.yul\":5603:5606   */\n      dup3\n        /* \"#utility.yul\":5596:5661   */\n      mstore\n        /* \"#utility.yul\":5506:5667   */\n      pop\n      pop\n      jump\t// out\n        /* \"#utility.yul\":5673:5925   */\n    tag_103:\n        /* \"#utility.yul\":5781:5785   */\n      0x00\n        /* \"#utility.yul\":5819:5821   */\n      0x20\n        /* \"#utility.yul\":5808:5817   */\n      dup3\n        /* \"#utility.yul\":5804:5822   */\n      add\n        /* \"#utility.yul\":5796:5822   */\n      swap1\n      pop\n        /* \"#utility.yul\":5832:5918   */\n      tag_355\n        /* \"#utility.yul\":5915:5916   */\n      0x00\n        /* \"#utility.yul\":5904:5913   */\n      dup4\n        /* \"#utility.yul\":5900:5917   */\n      add\n        /* \"#utility.yul\":5891:5897   */\n      dup5\n        /* \"#utility.yul\":5832:5918   */\n      tag_267\n      jump\t// in\n    tag_355:\n        /* \"#utility.yul\":5673:5925   */\n      swap3\n      swap2\n      pop\n      pop\n      jump\t// out\n        /* \"#utility.yul\":5931:6100   */\n    tag_268:\n        /* \"#utility.yul\":6015:6026   */\n      0x00\n        /* \"#utility.yul\":6049:6055   */\n      dup3\n        /* \"#utility.yul\":6044:6047   */\n      dup3\n        /* \"#utility.yul\":6037:6056   */\n      mstore\n        /* \"#utility.yul\":6089:6093   */\n      0x20\n        /* \"#utility.yul\":6084:6087   */\n      dup3\n        /* \"#utility.yul\":6080:6094   */\n      add\n        /* \"#utility.yul\":6065:6094   */\n      swap1\n      pop\n        /* \"#utility.yul\":5931:6100   */\n      swap3\n      swap2\n      pop\n      pop\n      jump\t// out\n        /* \"#utility.yul\":6106:6274   */\n    tag_269:\n        /* \"#utility.yul\":6246:6266   */\n      0x6e6f7420656e6f75676820726967687473210000000000000000000000000000\n        /* \"#utility.yul\":6242:6243   */\n      0x00\n        /* \"#utility.yul\":6234:6240   */\n      dup3\n        /* \"#utility.yul\":6230:6244   */\n      add\n        /* \"#utility.yul\":6223:6267   */\n      mstore\n        /* \"#utility.yul\":6106:6274   */\n      pop\n      jump\t// out\n        /* \"#utility.yul\":6280:6646   */\n    tag_270:\n        /* \"#utility.yul\":6422:6425   */\n      0x00\n        /* \"#utility.yul\":6443:6510   */\n      tag_359\n        /* \"#utility.yul\":6507:6509   */\n      0x12\n        /* \"#utility.yul\":6502:6505   */\n      dup4\n        /* \"#utility.yul\":6443:6510   */\n      tag_268\n      jump\t// in\n    tag_359:\n        /* \"#utility.yul\":6436:6510   */\n      swap2\n      pop\n        /* \"#utility.yul\":6519:6612   */\n      tag_360\n        /* \"#utility.yul\":6608:6611   */\n      dup3\n        /* \"#utility.yul\":6519:6612   */\n      tag_269\n      jump\t// in\n    tag_360:\n        /* \"#utility.yul\":6637:6639   */\n      0x20\n        /* \"#utility.yul\":6632:6635   */\n      dup3\n        /* \"#utility.yul\":6628:6640   */\n      add\n        /* \"#utility.yul\":6621:6640   */\n      swap1\n      pop\n        /* \"#utility.yul\":6280:6646   */\n      swap2\n      swap1\n      pop\n      jump\t// out\n        /* \"#utility.yul\":6652:7071   */\n    tag_112:\n        /* \"#utility.yul\":6818:6822   */\n      0x00\n        /* \"#utility.yul\":6856:6858   */\n      0x20\n        /* \"#utility.yul\":6845:6854   */\n      dup3\n        /* \"#utility.yul\":6841:6859   */\n      add\n        /* \"#utility.yul\":6833:6859   */\n      swap1\n      pop\n        /* \"#utility.yul\":6905:6914   */\n      dup2\n        /* \"#utility.yul\":6899:6903   */\n      dup2\n        /* \"#utility.yul\":6895:6915   */\n      sub\n        /* \"#utility.yul\":6891:6892   */\n      0x00\n        /* \"#utility.yul\":6880:6889   */\n      dup4\n        /* \"#utility.yul\":6876:6893   */\n      add\n        /* \"#utility.yul\":6869:6916   */\n      mstore\n        /* \"#utility.yul\":6933:7064   */\n      tag_362\n        /* \"#utility.yul\":7059:7063   */\n      dup2\n        /* \"#utility.yul\":6933:7064   */\n      tag_270\n      jump\t// in\n    tag_362:\n        /* \"#utility.yul\":6925:7064   */\n      swap1\n      pop\n        /* \"#utility.yul\":6652:7071   */\n      swap2\n      swap1\n      pop\n      jump\t// out\n        /* \"#utility.yul\":7077:7245   */\n    tag_271:\n        /* \"#utility.yul\":7217:7237   */\n      0x706c656467656420697320746f6f206c6f770000000000000000000000000000\n        /* \"#utility.yul\":7213:7214   */\n      0x00\n        /* \"#utility.yul\":7205:7211   */\n      dup3\n        /* \"#utility.yul\":7201:7215   */\n      add\n        /* \"#utility.yul\":7194:7238   */\n      mstore\n        /* \"#utility.yul\":7077:7245   */\n      pop\n      jump\t// out\n        /* \"#utility.yul\":7251:7617   */\n    tag_272:\n        /* \"#utility.yul\":7393:7396   */\n      0x00\n        /* \"#utility.yul\":7414:7481   */\n      tag_365\n        /* \"#utility.yul\":7478:7480   */\n      0x12\n        /* \"#utility.yul\":7473:7476   */\n      dup4\n        /* \"#utility.yul\":7414:7481   */\n      tag_268\n      jump\t// in\n    tag_365:\n        /* \"#utility.yul\":7407:7481   */\n      swap2\n      pop\n        /* \"#utility.yul\":7490:7583   */\n      tag_366\n        /* \"#utility.yul\":7579:7582   */\n      dup3\n        /* \"#utility.yul\":7490:7583   */\n      tag_271\n      jump\t// in\n    tag_366:\n        /* \"#utility.yul\":7608:7610   */\n      0x20\n        /* \"#utility.yul\":7603:7606   */\n      dup3\n        /* \"#utility.yul\":7599:7611   */\n      add\n        /* \"#utility.yul\":7592:7611   */\n      swap1\n      pop\n        /* \"#utility.yul\":7251:7617   */\n      swap2\n      swap1\n      pop\n      jump\t// out\n        /* \"#utility.yul\":7623:8042   */\n    tag_115:\n        /* \"#utility.yul\":7789:7793   */\n      0x00\n        /* \"#utility.yul\":7827:7829   */\n      0x20\n        /* \"#utility.yul\":7816:7825   */\n      dup3\n        /* \"#utility.yul\":7812:7830   */\n      add\n        /* \"#utility.yul\":7804:7830   */\n      swap1\n      pop\n        /* \"#utility.yul\":7876:7885   */\n      dup2\n        /* \"#utility.yul\":7870:7874   */\n      dup2\n        /* \"#utility.yul\":7866:7886   */\n      sub\n        /* \"#utility.yul\":7862:7863   */\n      0x00\n        /* \"#utility.yul\":7851:7860   */\n      dup4\n        /* \"#utility.yul\":7847:7864   */\n      add\n        /* \"#utility.yul\":7840:7887   */\n      mstore\n        /* \"#utility.yul\":7904:8035   */\n      tag_368\n        /* \"#utility.yul\":8030:8034   */\n      dup2\n        /* \"#utility.yul\":7904:8035   */\n      tag_272\n      jump\t// in\n    tag_368:\n        /* \"#utility.yul\":7896:8035   */\n      swap1\n      pop\n        /* \"#utility.yul\":7623:8042   */\n      swap2\n      swap1\n      pop\n      jump\t// out\n        /* \"#utility.yul\":8048:8213   */\n    tag_273:\n        /* \"#utility.yul\":8188:8205   */\n      0x616c726561647920636c61696d65640000000000000000000000000000000000\n        /* \"#utility.yul\":8184:8185   */\n      0x00\n        /* \"#utility.yul\":8176:8182   */\n      dup3\n        /* \"#utility.yul\":8172:8186   */\n      add\n        /* \"#utility.yul\":8165:8206   */\n      mstore\n        /* \"#utility.yul\":8048:8213   */\n      pop\n      jump\t// out\n        /* \"#utility.yul\":8219:8585   */\n    tag_274:\n        /* \"#utility.yul\":8361:8364   */\n      0x00\n        /* \"#utility.yul\":8382:8449   */\n      tag_371\n        /* \"#utility.yul\":8446:8448   */\n      0x0f\n        /* \"#utility.yul\":8441:8444   */\n      dup4\n        /* \"#utility.yul\":8382:8449   */\n      tag_268\n      jump\t// in\n    tag_371:\n        /* \"#utility.yul\":8375:8449   */\n      swap2\n      pop\n        /* \"#utility.yul\":8458:8551   */\n      tag_372\n        /* \"#utility.yul\":8547:8550   */\n      dup3\n        /* \"#utility.yul\":8458:8551   */\n      tag_273\n      jump\t// in\n    tag_372:\n        /* \"#utility.yul\":8576:8578   */\n      0x20\n        /* \"#utility.yul\":8571:8574   */\n      dup3\n        /* \"#utility.yul\":8567:8579   */\n      add\n        /* \"#utility.yul\":8560:8579   */\n      swap1\n      pop\n        /* \"#utility.yul\":8219:8585   */\n      swap2\n      swap1\n      pop\n      jump\t// out\n        /* \"#utility.yul\":8591:9010   */\n    tag_118:\n        /* \"#utility.yul\":8757:8761   */\n      0x00\n        /* \"#utility.yul\":8795:8797   */\n      0x20\n        /* \"#utility.yul\":8784:8793   */\n      dup3\n        /* \"#utility.yul\":8780:8798   */\n      add\n        /* \"#utility.yul\":8772:8798   */\n      swap1\n      pop\n        /* \"#utility.yul\":8844:8853   */\n      dup2\n        /* \"#utility.yul\":8838:8842   */\n      dup2\n        /* \"#utility.yul\":8834:8854   */\n      sub\n        /* \"#utility.yul\":8830:8831   */\n      0x00\n        /* \"#utility.yul\":8819:8828   */\n      dup4\n        /* \"#utility.yul\":8815:8832   */\n      add\n        /* \"#utility.yul\":8808:8855   */\n      mstore\n        /* \"#utility.yul\":8872:9003   */\n      tag_374\n        /* \"#utility.yul\":8998:9002   */\n      dup2\n        /* \"#utility.yul\":8872:9003   */\n      tag_274\n      jump\t// in\n    tag_374:\n        /* \"#utility.yul\":8864:9003   */\n      swap1\n      pop\n        /* \"#utility.yul\":8591:9010   */\n      swap2\n      swap1\n      pop\n      jump\t// out\n        /* \"#utility.yul\":9016:9348   */\n    tag_120:\n        /* \"#utility.yul\":9137:9141   */\n      0x00\n        /* \"#utility.yul\":9175:9177   */\n      0x40\n        /* \"#utility.yul\":9164:9173   */\n      dup3\n        /* \"#utility.yul\":9160:9178   */\n      add\n        /* \"#utility.yul\":9152:9178   */\n      swap1\n      pop\n        /* \"#utility.yul\":9188:9259   */\n      tag_376\n        /* \"#utility.yul\":9256:9257   */\n      0x00\n        /* \"#utility.yul\":9245:9254   */\n      dup4\n        /* \"#utility.yul\":9241:9258   */\n      add\n        /* \"#utility.yul\":9232:9238   */\n      dup6\n        /* \"#utility.yul\":9188:9259   */\n      tag_258\n      jump\t// in\n    tag_376:\n        /* \"#utility.yul\":9269:9341   */\n      tag_377\n        /* \"#utility.yul\":9337:9339   */\n      0x20\n        /* \"#utility.yul\":9326:9335   */\n      dup4\n        /* \"#utility.yul\":9322:9340   */\n      add\n        /* \"#utility.yul\":9313:9319   */\n      dup5\n        /* \"#utility.yul\":9269:9341   */\n      tag_246\n      jump\t// in\n    tag_377:\n        /* \"#utility.yul\":9016:9348   */\n      swap4\n      swap3\n      pop\n      pop\n      pop\n      jump\t// out\n        /* \"#utility.yul\":9354:9517   */\n    tag_275:\n        /* \"#utility.yul\":9494:9509   */\n      0x6e6f7420616e206f776e65722100000000000000000000000000000000000000\n        /* \"#utility.yul\":9490:9491   */\n      0x00\n        /* \"#utility.yul\":9482:9488   */\n      dup3\n        /* \"#utility.yul\":9478:9492   */\n      add\n        /* \"#utility.yul\":9471:9510   */\n      mstore\n        /* \"#utility.yul\":9354:9517   */\n      pop\n      jump\t// out\n        /* \"#utility.yul\":9523:9889   */\n    tag_276:\n        /* \"#utility.yul\":9665:9668   */\n      0x00\n        /* \"#utility.yul\":9686:9753   */\n      tag_380\n        /* \"#utility.yul\":9750:9752   */\n      0x0d\n        /* \"#utility.yul\":9745:9748   */\n      dup4\n        /* \"#utility.yul\":9686:9753   */\n      tag_268\n      jump\t// in\n    tag_380:\n        /* \"#utility.yul\":9679:9753   */\n      swap2\n      pop\n        /* \"#utility.yul\":9762:9855   */\n      tag_381\n        /* \"#utility.yul\":9851:9854   */\n      dup3\n        /* \"#utility.yul\":9762:9855   */\n      tag_275\n      jump\t// in\n    tag_381:\n        /* \"#utility.yul\":9880:9882   */\n      0x20\n        /* \"#utility.yul\":9875:9878   */\n      dup3\n        /* \"#utility.yul\":9871:9883   */\n      add\n        /* \"#utility.yul\":9864:9883   */\n      swap1\n      pop\n        /* \"#utility.yul\":9523:9889   */\n      swap2\n      swap1\n      pop\n      jump\t// out\n        /* \"#utility.yul\":9895:10314   */\n    tag_133:\n        /* \"#utility.yul\":10061:10065   */\n      0x00\n        /* \"#utility.yul\":10099:10101   */\n      0x20\n        /* \"#utility.yul\":10088:10097   */\n      dup3\n        /* \"#utility.yul\":10084:10102   */\n      add\n        /* \"#utility.yul\":10076:10102   */\n      swap1\n      pop\n        /* \"#utility.yul\":10148:10157   */\n      dup2\n        /* \"#utility.yul\":10142:10146   */\n      dup2\n        /* \"#utility.yul\":10138:10158   */\n      sub\n        /* \"#utility.yul\":10134:10135   */\n      0x00\n        /* \"#utility.yul\":10123:10132   */\n      dup4\n        /* \"#utility.yul\":10119:10136   */\n      add\n        /* \"#utility.yul\":10112:10159   */\n      mstore\n        /* \"#utility.yul\":10176:10307   */\n      tag_383\n        /* \"#utility.yul\":10302:10306   */\n      dup2\n        /* \"#utility.yul\":10176:10307   */\n      tag_276\n      jump\t// in\n    tag_383:\n        /* \"#utility.yul\":10168:10307   */\n      swap1\n      pop\n        /* \"#utility.yul\":9895:10314   */\n      swap2\n      swap1\n      pop\n      jump\t// out\n        /* \"#utility.yul\":10320:10493   */\n    tag_277:\n        /* \"#utility.yul\":10460:10485   */\n      0x63616d706169676e206973206e6f74206f70656e656421000000000000000000\n        /* \"#utility.yul\":10456:10457   */\n      0x00\n        /* \"#utility.yul\":10448:10454   */\n      dup3\n        /* \"#utility.yul\":10444:10458   */\n      add\n        /* \"#utility.yul\":10437:10486   */\n      mstore\n        /* \"#utility.yul\":10320:10493   */\n      pop\n      jump\t// out\n        /* \"#utility.yul\":10499:10865   */\n    tag_278:\n        /* \"#utility.yul\":10641:10644   */\n      0x00\n        /* \"#utility.yul\":10662:10729   */\n      tag_386\n        /* \"#utility.yul\":10726:10728   */\n      0x17\n        /* \"#utility.yul\":10721:10724   */\n      dup4\n        /* \"#utility.yul\":10662:10729   */\n      tag_268\n      jump\t// in\n    tag_386:\n        /* \"#utility.yul\":10655:10729   */\n      swap2\n      pop\n        /* \"#utility.yul\":10738:10831   */\n      tag_387\n        /* \"#utility.yul\":10827:10830   */\n      dup3\n        /* \"#utility.yul\":10738:10831   */\n      tag_277\n      jump\t// in\n    tag_387:\n        /* \"#utility.yul\":10856:10858   */\n      0x20\n        /* \"#utility.yul\":10851:10854   */\n      dup3\n        /* \"#utility.yul\":10847:10859   */\n      add\n        /* \"#utility.yul\":10840:10859   */\n      swap1\n      pop\n        /* \"#utility.yul\":10499:10865   */\n      swap2\n      swap1\n      pop\n      jump\t// out\n        /* \"#utility.yul\":10871:11290   */\n    tag_140:\n        /* \"#utility.yul\":11037:11041   */\n      0x00\n        /* \"#utility.yul\":11075:11077   */\n      0x20\n        /* \"#utility.yul\":11064:11073   */\n      dup3\n        /* \"#utility.yul\":11060:11078   */\n      add\n        /* \"#utility.yul\":11052:11078   */\n      swap1\n      pop\n        /* \"#utility.yul\":11124:11133   */\n      dup2\n        /* \"#utility.yul\":11118:11122   */\n      dup2\n        /* \"#utility.yul\":11114:11134   */\n      sub\n        /* \"#utility.yul\":11110:11111   */\n      0x00\n        /* \"#utility.yul\":11099:11108   */\n      dup4\n        /* \"#utility.yul\":11095:11112   */\n      add\n        /* \"#utility.yul\":11088:11135   */\n      mstore\n        /* \"#utility.yul\":11152:11283   */\n      tag_389\n        /* \"#utility.yul\":11278:11282   */\n      dup2\n        /* \"#utility.yul\":11152:11283   */\n      tag_278\n      jump\t// in\n    tag_389:\n        /* \"#utility.yul\":11144:11283   */\n      swap1\n      pop\n        /* \"#utility.yul\":10871:11290   */\n      swap2\n      swap1\n      pop\n      jump\t// out\n        /* \"#utility.yul\":11296:11458   */\n    tag_279:\n        /* \"#utility.yul\":11436:11450   */\n      0x6e6f7420616e206f776e65720000000000000000000000000000000000000000\n        /* \"#utility.yul\":11432:11433   */\n      0x00\n        /* \"#utility.yul\":11424:11430   */\n      dup3\n        /* \"#utility.yul\":11420:11434   */\n      add\n        /* \"#utility.yul\":11413:11451   */\n      mstore\n        /* \"#utility.yul\":11296:11458   */\n      pop\n      jump\t// out\n        /* \"#utility.yul\":11464:11830   */\n    tag_280:\n        /* \"#utility.yul\":11606:11609   */\n      0x00\n        /* \"#utility.yul\":11627:11694   */\n      tag_392\n        /* \"#utility.yul\":11691:11693   */\n      0x0c\n        /* \"#utility.yul\":11686:11689   */\n      dup4\n        /* \"#utility.yul\":11627:11694   */\n      tag_268\n      jump\t// in\n    tag_392:\n        /* \"#utility.yul\":11620:11694   */\n      swap2\n      pop\n        /* \"#utility.yul\":11703:11796   */\n      tag_393\n        /* \"#utility.yul\":11792:11795   */\n      dup3\n        /* \"#utility.yul\":11703:11796   */\n      tag_279\n      jump\t// in\n    tag_393:\n        /* \"#utility.yul\":11821:11823   */\n      0x20\n        /* \"#utility.yul\":11816:11819   */\n      dup3\n        /* \"#utility.yul\":11812:11824   */\n      add\n        /* \"#utility.yul\":11805:11824   */\n      swap1\n      pop\n        /* \"#utility.yul\":11464:11830   */\n      swap2\n      swap1\n      pop\n      jump\t// out\n        /* \"#utility.yul\":11836:12255   */\n    tag_156:\n        /* \"#utility.yul\":12002:12006   */\n      0x00\n        /* \"#utility.yul\":12040:12042   */\n      0x20\n        /* \"#utility.yul\":12029:12038   */\n      dup3\n        /* \"#utility.yul\":12025:12043   */\n      add\n        /* \"#utility.yul\":12017:12043   */\n      swap1\n      pop\n        /* \"#utility.yul\":12089:12098   */\n      dup2\n        /* \"#utility.yul\":12083:12087   */\n      dup2\n        /* \"#utility.yul\":12079:12099   */\n      sub\n        /* \"#utility.yul\":12075:12076   */\n      0x00\n        /* \"#utility.yul\":12064:12073   */\n      dup4\n        /* \"#utility.yul\":12060:12077   */\n      add\n        /* \"#utility.yul\":12053:12100   */\n      mstore\n        /* \"#utility.yul\":12117:12248   */\n      tag_395\n        /* \"#utility.yul\":12243:12247   */\n      dup2\n        /* \"#utility.yul\":12117:12248   */\n      tag_280\n      jump\t// in\n    tag_395:\n        /* \"#utility.yul\":12109:12248   */\n      swap1\n      pop\n        /* \"#utility.yul\":11836:12255   */\n      swap2\n      swap1\n      pop\n      jump\t// out\n        /* \"#utility.yul\":12261:12441   */\n    tag_281:\n        /* \"#utility.yul\":12309:12386   */\n      0x4e487b7100000000000000000000000000000000000000000000000000000000\n        /* \"#utility.yul\":12306:12307   */\n      0x00\n        /* \"#utility.yul\":12299:12387   */\n      mstore\n        /* \"#utility.yul\":12406:12410   */\n      0x11\n        /* \"#utility.yul\":12403:12404   */\n      0x04\n        /* \"#utility.yul\":12396:12411   */\n      mstore\n        /* \"#utility.yul\":12430:12434   */\n      0x24\n        /* \"#utility.yul\":12427:12428   */\n      0x00\n        /* \"#utility.yul\":12420:12435   */\n      revert\n        /* \"#utility.yul\":12447:12641   */\n    tag_162:\n        /* \"#utility.yul\":12487:12491   */\n      0x00\n        /* \"#utility.yul\":12507:12527   */\n      tag_398\n        /* \"#utility.yul\":12525:12526   */\n      dup3\n        /* \"#utility.yul\":12507:12527   */\n      tag_245\n      jump\t// in\n    tag_398:\n        /* \"#utility.yul\":12502:12527   */\n      swap2\n      pop\n        /* \"#utility.yul\":12541:12561   */\n      tag_399\n        /* \"#utility.yul\":12559:12560   */\n      dup4\n        /* \"#utility.yul\":12541:12561   */\n      tag_245\n      jump\t// in\n    tag_399:\n        /* \"#utility.yul\":12536:12561   */\n      swap3\n      pop\n        /* \"#utility.yul\":12585:12586   */\n      dup3\n        /* \"#utility.yul\":12582:12583   */\n      dup3\n        /* \"#utility.yul\":12578:12587   */\n      sub\n        /* \"#utility.yul\":12570:12587   */\n      swap1\n      pop\n        /* \"#utility.yul\":12609:12610   */\n      dup2\n        /* \"#utility.yul\":12603:12607   */\n      dup2\n        /* \"#utility.yul\":12600:12611   */\n      gt\n        /* \"#utility.yul\":12597:12634   */\n      iszero\n      tag_400\n      jumpi\n        /* \"#utility.yul\":12614:12632   */\n      tag_401\n      tag_281\n      jump\t// in\n    tag_401:\n        /* \"#utility.yul\":12597:12634   */\n    tag_400:\n        /* \"#utility.yul\":12447:12641   */\n      swap3\n      swap2\n      pop\n      pop\n      jump\t// out\n        /* \"#utility.yul\":12647:13089   */\n    tag_164:\n        /* \"#utility.yul\":12796:12800   */\n      0x00\n        /* \"#utility.yul\":12834:12836   */\n      0x60\n        /* \"#utility.yul\":12823:12832   */\n      dup3\n        /* \"#utility.yul\":12819:12837   */\n      add\n        /* \"#utility.yul\":12811:12837   */\n      swap1\n      pop\n        /* \"#utility.yul\":12847:12918   */\n      tag_403\n        /* \"#utility.yul\":12915:12916   */\n      0x00\n        /* \"#utility.yul\":12904:12913   */\n      dup4\n        /* \"#utility.yul\":12900:12917   */\n      add\n        /* \"#utility.yul\":12891:12897   */\n      dup7\n        /* \"#utility.yul\":12847:12918   */\n      tag_246\n      jump\t// in\n    tag_403:\n        /* \"#utility.yul\":12928:13000   */\n      tag_404\n        /* \"#utility.yul\":12996:12998   */\n      0x20\n        /* \"#utility.yul\":12985:12994   */\n      dup4\n        /* \"#utility.yul\":12981:12999   */\n      add\n        /* \"#utility.yul\":12972:12978   */\n      dup6\n        /* \"#utility.yul\":12928:13000   */\n      tag_258\n      jump\t// in\n    tag_404:\n        /* \"#utility.yul\":13010:13082   */\n      tag_405\n        /* \"#utility.yul\":13078:13080   */\n      0x40\n        /* \"#utility.yul\":13067:13076   */\n      dup4\n        /* \"#utility.yul\":13063:13081   */\n      add\n        /* \"#utility.yul\":13054:13060   */\n      dup5\n        /* \"#utility.yul\":13010:13082   */\n      tag_246\n      jump\t// in\n    tag_405:\n        /* \"#utility.yul\":12647:13089   */\n      swap5\n      swap4\n      pop\n      pop\n      pop\n      pop\n      jump\t// out\n        /* \"#utility.yul\":13095:13660   */\n    tag_171:\n        /* \"#utility.yul\":13278:13282   */\n      0x00\n        /* \"#utility.yul\":13316:13319   */\n      0x80\n        /* \"#utility.yul\":13305:13314   */\n      dup3\n        /* \"#utility.yul\":13301:13320   */\n      add\n        /* \"#utility.yul\":13293:13320   */\n      swap1\n      pop\n        /* \"#utility.yul\":13330:13401   */\n      tag_407\n        /* \"#utility.yul\":13398:13399   */\n      0x00\n        /* \"#utility.yul\":13387:13396   */\n      dup4\n        /* \"#utility.yul\":13383:13400   */\n      add\n        /* \"#utility.yul\":13374:13380   */\n      dup8\n        /* \"#utility.yul\":13330:13401   */\n      tag_246\n      jump\t// in\n    tag_407:\n        /* \"#utility.yul\":13411:13483   */\n      tag_408\n        /* \"#utility.yul\":13479:13481   */\n      0x20\n        /* \"#utility.yul\":13468:13477   */\n      dup4\n        /* \"#utility.yul\":13464:13482   */\n      add\n        /* \"#utility.yul\":13455:13461   */\n      dup7\n        /* \"#utility.yul\":13411:13483   */\n      tag_258\n      jump\t// in\n    tag_408:\n        /* \"#utility.yul\":13493:13565   */\n      tag_409\n        /* \"#utility.yul\":13561:13563   */\n      0x40\n        /* \"#utility.yul\":13550:13559   */\n      dup4\n        /* \"#utility.yul\":13546:13564   */\n      add\n        /* \"#utility.yul\":13537:13543   */\n      dup6\n        /* \"#utility.yul\":13493:13565   */\n      tag_246\n      jump\t// in\n    tag_409:\n        /* \"#utility.yul\":13575:13653   */\n      tag_410\n        /* \"#utility.yul\":13649:13651   */\n      0x60\n        /* \"#utility.yul\":13638:13647   */\n      dup4\n        /* \"#utility.yul\":13634:13652   */\n      add\n        /* \"#utility.yul\":13625:13631   */\n      dup5\n        /* \"#utility.yul\":13575:13653   */\n      tag_262\n      jump\t// in\n    tag_410:\n        /* \"#utility.yul\":13095:13660   */\n      swap6\n      swap5\n      pop\n      pop\n      pop\n      pop\n      pop\n      jump\t// out\n        /* \"#utility.yul\":13666:13857   */\n    tag_173:\n        /* \"#utility.yul\":13706:13709   */\n      0x00\n        /* \"#utility.yul\":13725:13745   */\n      tag_412\n        /* \"#utility.yul\":13743:13744   */\n      dup3\n        /* \"#utility.yul\":13725:13745   */\n      tag_245\n      jump\t// in\n    tag_412:\n        /* \"#utility.yul\":13720:13745   */\n      swap2\n      pop\n        /* \"#utility.yul\":13759:13779   */\n      tag_413\n        /* \"#utility.yul\":13777:13778   */\n      dup4\n        /* \"#utility.yul\":13759:13779   */\n      tag_245\n      jump\t// in\n    tag_413:\n        /* \"#utility.yul\":13754:13779   */\n      swap3\n      pop\n        /* \"#utility.yul\":13802:13803   */\n      dup3\n        /* \"#utility.yul\":13799:13800   */\n      dup3\n        /* \"#utility.yul\":13795:13804   */\n      add\n        /* \"#utility.yul\":13788:13804   */\n      swap1\n      pop\n        /* \"#utility.yul\":13823:13826   */\n      dup1\n        /* \"#utility.yul\":13820:13821   */\n      dup3\n        /* \"#utility.yul\":13817:13827   */\n      gt\n        /* \"#utility.yul\":13814:13850   */\n      iszero\n      tag_414\n      jumpi\n        /* \"#utility.yul\":13830:13848   */\n      tag_415\n      tag_281\n      jump\t// in\n    tag_415:\n        /* \"#utility.yul\":13814:13850   */\n    tag_414:\n        /* \"#utility.yul\":13666:13857   */\n      swap3\n      swap2\n      pop\n      pop\n      jump\t// out\n        /* \"#utility.yul\":13863:14097   */\n    tag_190:\n        /* \"#utility.yul\":13962:13966   */\n      0x00\n        /* \"#utility.yul\":14000:14002   */\n      0x20\n        /* \"#utility.yul\":13989:13998   */\n      dup3\n        /* \"#utility.yul\":13985:14003   */\n      add\n        /* \"#utility.yul\":13977:14003   */\n      swap1\n      pop\n        /* \"#utility.yul\":14013:14090   */\n      tag_417\n        /* \"#utility.yul\":14087:14088   */\n      0x00\n        /* \"#utility.yul\":14076:14085   */\n      dup4\n        /* \"#utility.yul\":14072:14089   */\n      add\n        /* \"#utility.yul\":14063:14069   */\n      dup5\n        /* \"#utility.yul\":14013:14090   */\n      tag_262\n      jump\t// in\n    tag_417:\n        /* \"#utility.yul\":13863:14097   */\n      swap3\n      swap2\n      pop\n      pop\n      jump\t// out\n        /* \"#utility.yul\":14103:14283   */\n    tag_214:\n        /* \"#utility.yul\":14151:14228   */\n      0x4e487b7100000000000000000000000000000000000000000000000000000000\n        /* \"#utility.yul\":14148:14149   */\n      0x00\n        /* \"#utility.yul\":14141:14229   */\n      mstore\n        /* \"#utility.yul\":14248:14252   */\n      0x32\n        /* \"#utility.yul\":14245:14246   */\n      0x04\n        /* \"#utility.yul\":14238:14253   */\n      mstore\n        /* \"#utility.yul\":14272:14276   */\n      0x24\n        /* \"#utility.yul\":14269:14270   */\n      0x00\n        /* \"#utility.yul\":14262:14277   */\n      revert\n        /* \"#utility.yul\":14289:14522   */\n    tag_228:\n        /* \"#utility.yul\":14328:14331   */\n      0x00\n        /* \"#utility.yul\":14351:14375   */\n      tag_420\n        /* \"#utility.yul\":14369:14374   */\n      dup3\n        /* \"#utility.yul\":14351:14375   */\n      tag_245\n      jump\t// in\n    tag_420:\n        /* \"#utility.yul\":14342:14375   */\n      swap2\n      pop\n        /* \"#utility.yul\":14397:14463   */\n      0xffffffffffffffffffffffffffffffffffffffffffffffffffffffffffffffff\n        /* \"#utility.yul\":14390:14395   */\n      dup3\n        /* \"#utility.yul\":14387:14464   */\n      sub\n        /* \"#utility.yul\":14384:14487   */\n      tag_421\n      jumpi\n        /* \"#utility.yul\":14467:14485   */\n      tag_422\n      tag_281\n      jump\t// in\n    tag_422:\n        /* \"#utility.yul\":14384:14487   */\n    tag_421:\n        /* \"#utility.yul\":14514:14515   */\n      0x01\n        /* \"#utility.yul\":14507:14512   */\n      dup3\n        /* \"#utility.yul\":14503:14516   */\n      add\n        /* \"#utility.yul\":14496:14516   */\n      swap1\n      pop\n        /* \"#utility.yul\":14289:14522   */\n      swap2\n      swap1\n      pop\n      jump\t// out\n        /* \"#utility.yul\":14528:14970   */\n    tag_239:\n        /* \"#utility.yul\":14677:14681   */\n      0x00\n        /* \"#utility.yul\":14715:14717   */\n      0x60\n        /* \"#utility.yul\":14704:14713   */\n      dup3\n        /* \"#utility.yul\":14700:14718   */\n      add\n        /* \"#utility.yul\":14692:14718   */\n      swap1\n      pop\n        /* \"#utility.yul\":14728:14799   */\n      tag_424\n        /* \"#utility.yul\":14796:14797   */\n      0x00\n        /* \"#utility.yul\":14785:14794   */\n      dup4\n        /* \"#utility.yul\":14781:14798   */\n      add\n        /* \"#utility.yul\":14772:14778   */\n      dup7\n        /* \"#utility.yul\":14728:14799   */\n      tag_258\n      jump\t// in\n    tag_424:\n        /* \"#utility.yul\":14809:14881   */\n      tag_425\n        /* \"#utility.yul\":14877:14879   */\n      0x20\n        /* \"#utility.yul\":14866:14875   */\n      dup4\n        /* \"#utility.yul\":14862:14880   */\n      add\n        /* \"#utility.yul\":14853:14859   */\n      dup6\n        /* \"#utility.yul\":14809:14881   */\n      tag_258\n      jump\t// in\n    tag_425:\n        /* \"#utility.yul\":14891:14963   */\n      tag_426\n        /* \"#utility.yul\":14959:14961   */\n      0x40\n        /* \"#utility.yul\":14948:14957   */\n      dup4\n        /* \"#utility.yul\":14944:14962   */\n      add\n        /* \"#utility.yul\":14935:14941   */\n      dup5\n        /* \"#utility.yul\":14891:14963   */\n      tag_246\n      jump\t// in\n    tag_426:\n        /* \"#utility.yul\":14528:14970   */\n      swap5\n      swap4\n      pop\n      pop\n      pop\n      pop\n      jump\t// out\n\n    auxdata: 0xa26469706673582212207098f1d196abc45ab7198840b67fa7728f99485fa8bb0ada6fd69e97b749561264736f6c63430008110033\n}\n",
				"bytecode": {
					"linkReferences": {},
					"object": "60a06040523480156200001157600080fd5b5060405162002354380380620023548339818101604052810190620000379190620000dc565b8073ffffffffffffffffffffffffffffffffffffffff1660808173ffffffffffffffffffffffffffffffffffffffff1681525050506200010e565b600080fd5b600073ffffffffffffffffffffffffffffffffffffffff82169050919050565b6000620000a48262000077565b9050919050565b620000b68162000097565b8114620000c257600080fd5b50565b600081519050620000d681620000ab565b92915050565b600060208284031215620000f557620000f462000072565b5b60006200010584828501620000c5565b91505092915050565b60805161220e62000146600039600081816106de01528181610c5d0152818161169b015281816117b101526118e5015261220e6000f3fe6080604052600436106101025760003560e01c80638e97f52411610095578063ba28239811610064578063ba2823981461039d578063e00dd161146103c6578063e9fee16f146103f1578063fc0c546a1461041a578063fde327be1461044557610157565b80638e97f524146102e357806392f7715414610320578063a41c57bc1461034b578063a9e966b71461037457610157565b806351b1e474116100d157806351b1e474146102295780636244c42f146102665780637ad226dc1461029157806385b12c7c146102ba57610157565b80630b46056b14610159578063141961bc14610196578063379607f5146101d757806340e58ee51461020057610157565b36610157573373ffffffffffffffffffffffffffffffffffffffff167f27b15ed4cf832749ed39f33a64e4707ed60a761485e41ffec7343ecaddc0c02a3460405161014d9190611a3f565b60405180910390a2005b005b34801561016557600080fd5b50610180600480360381019061017b9190611ae9565b61046e565b60405161018d9190611b44565b60405180910390f35b3480156101a257600080fd5b506101bd60048036038101906101b89190611b5f565b61049d565b6040516101ce959493929190611c12565b60405180910390f35b3480156101e357600080fd5b506101fe60048036038101906101f99190611b5f565b61050d565b005b34801561020c57600080fd5b5061022760048036038101906102229190611b5f565b6107a8565b005b34801561023557600080fd5b50610250600480360381019061024b9190611c65565b610a16565b60405161025d9190611ca5565b60405180910390f35b34801561027257600080fd5b5061027b610a64565b6040516102889190611a3f565b60405180910390f35b34801561029d57600080fd5b506102b860048036038101906102b39190611ae9565b610a90565b005b3480156102c657600080fd5b506102e160048036038101906102dc9190611b5f565b610d56565b005b3480156102ef57600080fd5b5061030a60048036038101906103059190611ae9565b610ec9565b6040516103179190611a3f565b60405180910390f35b34801561032c57600080fd5b50610335610eee565b6040516103429190611a3f565b60405180910390f35b34801561035757600080fd5b50610372600480360381019061036d9190611ae9565b610f1a565b005b34801561038057600080fd5b5061039b60048036038101906103969190611b5f565b6110dc565b005b3480156103a957600080fd5b506103c460048036038101906103bf9190611ae9565b6111fe565b005b3480156103d257600080fd5b506103db6113c0565b6040516103e89190611a3f565b60405180910390f35b3480156103fd57600080fd5b5061041860048036038101906104139190611b5f565b6113c6565b005b34801561042657600080fd5b5061042f6117af565b60405161043c9190611d1f565b60405180910390f35b34801561045157600080fd5b5061046c60048036038101906104679190611c65565b6117d3565b005b60056020528160005260406000206020528060005260406000206000915091509054906101000a900460ff1681565b60016020528060005260406000206000915090508060000160009054906101000a900473ffffffffffffffffffffffffffffffffffffffff16908060010154908060020154908060030160009054906101000a900460ff16908060030160019054906101000a900460ff16905085565b60006001600083815260200190815260200160002090508060000160009054906101000a900473ffffffffffffffffffffffffffffffffffffffff1673ffffffffffffffffffffffffffffffffffffffff163373ffffffffffffffffffffffffffffffffffffffff1614806105e35750600115156005600084815260200190815260200160002060003373ffffffffffffffffffffffffffffffffffffffff1673ffffffffffffffffffffffffffffffffffffffff16815260200190815260200160002060009054906101000a900460ff161515145b610622576040517f08c379a000000000000000000000000000000000000000000000000000000000815260040161061990611d97565b60405180910390fd5b80600101548160020154101561066d576040517f08c379a000000000000000000000000000000000000000000000000000000000815260040161066490611e03565b60405180910390fd5b8060030160019054906101000a900460ff16156106bf576040517f08c379a00000000000000000000000000000000000000000000000000000000081526004016106b690611e6f565b60405180910390fd5b60018160030160016101000a81548160ff0219169083151502179055507f000000000000000000000000000000000000000000000000000000000000000073ffffffffffffffffffffffffffffffffffffffff1663a9059cbb3383600201546040518363ffffffff1660e01b815260040161073b929190611e8f565b600060405180830381600087803b15801561075557600080fd5b505af1158015610769573d6000803e3d6000fd5b505050507f7a355715549cfe7c1cba26304350343fbddc4b4f72d3ce3e7c27117dd20b5cb88260405161079c9190611a3f565b60405180910390a15050565b6000600160008381526020019081526020016000206040518060a00160405290816000820160009054906101000a900473ffffffffffffffffffffffffffffffffffffffff1673ffffffffffffffffffffffffffffffffffffffff1673ffffffffffffffffffffffffffffffffffffffff16815260200160018201548152602001600282015481526020016003820160009054906101000a900460ff16600181111561085757610856611b9b565b5b600181111561086957610868611b9b565b5b81526020016003820160019054906101000a900460ff1615151515815250509050806000015173ffffffffffffffffffffffffffffffffffffffff163373ffffffffffffffffffffffffffffffffffffffff16146108fc576040517f08c379a00000000000000000000000000000000000000000000000000000000081526004016108f390611f04565b60405180910390fd5b60018081111561090f5761090e611b9b565b5b8160600151600181111561092657610925611b9b565b5b14610966576040517f08c379a000000000000000000000000000000000000000000000000000000000815260040161095d90611f70565b60405180910390fd5b60016000838152602001908152602001600020600080820160006101000a81549073ffffffffffffffffffffffffffffffffffffffff0219169055600182016000905560028201600090556003820160006101000a81549060ff02191690556003820160016101000a81549060ff021916905550507f8bf30e7ff26833413be5f69e1d373744864d600b664204b4a2f9844a8eedb9ed82604051610a0a9190611a3f565b60405180910390a15050565b60046020528160005260406000208181548110610a3257600080fd5b906000526020600020016000915091509054906101000a900473ffffffffffffffffffffffffffffffffffffffff1681565b6000806000806001811115610a7c57610a7b611b9b565b5b815260200190815260200160002054905090565b6000600160008481526020019081526020016000209050600180811115610aba57610ab9611b9b565b5b8160030160009054906101000a900460ff166001811115610ade57610add611b9b565b5b14610b1e576040517f08c379a0000000000000000000000000000000000000000000000000000000008152600401610b1590611f70565b60405180910390fd5b8060000160009054906101000a900473ffffffffffffffffffffffffffffffffffffffff1673ffffffffffffffffffffffffffffffffffffffff163373ffffffffffffffffffffffffffffffffffffffff1614610bb0576040517f08c379a0000000000000000000000000000000000000000000000000000000008152600401610ba790611fdc565b60405180910390fd5b60006003600085815260200190815260200160002060008473ffffffffffffffffffffffffffffffffffffffff1673ffffffffffffffffffffffffffffffffffffffff16815260200190815260200160002054905060006003600086815260200190815260200160002060008573ffffffffffffffffffffffffffffffffffffffff1673ffffffffffffffffffffffffffffffffffffffff168152602001908152602001600020819055507f000000000000000000000000000000000000000000000000000000000000000073ffffffffffffffffffffffffffffffffffffffff1663a9059cbb84836040518363ffffffff1660e01b8152600401610cb6929190611e8f565b600060405180830381600087803b158015610cd057600080fd5b505af1158015610ce4573d6000803e3d6000fd5b5050505080600160008681526020019081526020016000206002016000828254610d0e919061202b565b925050819055507f7ca5472b7ea78c2c0141c5a12ee6d170cf4ce8ed06be3d22c8252ddfc7a6a2c4848483604051610d489392919061205f565b60405180910390a150505050565b6040518060a001604052803373ffffffffffffffffffffffffffffffffffffffff16815260200182815260200160008152602001600180811115610d9d57610d9c611b9b565b5b81526020016000151581525060016000600254815260200190815260200160002060008201518160000160006101000a81548173ffffffffffffffffffffffffffffffffffffffff021916908373ffffffffffffffffffffffffffffffffffffffff160217905550602082015181600101556040820151816002015560608201518160030160006101000a81548160ff02191690836001811115610e4457610e43611b9b565b5b021790555060808201518160030160016101000a81548160ff0219169083151502179055509050507f7832315d5668befce61bef59a74a00e6c0e8fd754af2f6943ffce187e5ad3c5760025433836001604051610ea49493929190612096565b60405180910390a1600160026000828254610ebf91906120db565b9250508190555050565b6003602052816000526040600020602052806000526040600020600091509150505481565b6000806000600180811115610f0657610f05611b9b565b5b815260200190815260200160002054905090565b6000600160008481526020019081526020016000206040518060a00160405290816000820160009054906101000a900473ffffffffffffffffffffffffffffffffffffffff1673ffffffffffffffffffffffffffffffffffffffff1673ffffffffffffffffffffffffffffffffffffffff16815260200160018201548152602001600282015481526020016003820160009054906101000a900460ff166001811115610fc957610fc8611b9b565b5b6001811115610fdb57610fda611b9b565b5b81526020016003820160019054906101000a900460ff1615151515815250509050806000015173ffffffffffffffffffffffffffffffffffffffff163373ffffffffffffffffffffffffffffffffffffffff161461106e576040517f08c379a000000000000000000000000000000000000000000000000000000000815260040161106590611f04565b60405180910390fd5b60016005600085815260200190815260200160002060008473ffffffffffffffffffffffffffffffffffffffff1673ffffffffffffffffffffffffffffffffffffffff16815260200190815260200160002060006101000a81548160ff021916908315150217905550505050565b60006001600083815260200190815260200160002090508060000160009054906101000a900473ffffffffffffffffffffffffffffffffffffffff1673ffffffffffffffffffffffffffffffffffffffff163373ffffffffffffffffffffffffffffffffffffffff1614611185576040517f08c379a000000000000000000000000000000000000000000000000000000000815260040161117c90611fdc565b60405180910390fd5b60008160030160006101000a81548160ff021916908360018111156111ad576111ac611b9b565b5b02179055507f23ad33ab6a13a00aa7d06cd167b2abd03dec86af3cf3cc91759dcd3ae84118878160030160009054906101000a900460ff166040516111f2919061210f565b60405180910390a15050565b6000600160008481526020019081526020016000206040518060a00160405290816000820160009054906101000a900473ffffffffffffffffffffffffffffffffffffffff1673ffffffffffffffffffffffffffffffffffffffff1673ffffffffffffffffffffffffffffffffffffffff16815260200160018201548152602001600282015481526020016003820160009054906101000a900460ff1660018111156112ad576112ac611b9b565b5b60018111156112bf576112be611b9b565b5b81526020016003820160019054906101000a900460ff1615151515815250509050806000015173ffffffffffffffffffffffffffffffffffffffff163373ffffffffffffffffffffffffffffffffffffffff1614611352576040517f08c379a000000000000000000000000000000000000000000000000000000000815260040161134990611f04565b60405180910390fd5b60016005600085815260200190815260200160002060008473ffffffffffffffffffffffffffffffffffffffff1673ffffffffffffffffffffffffffffffffffffffff16815260200190815260200160002060006101000a81548160ff021916908315150217905550505050565b60025481565b60006001600083815260200190815260200160002090506001808111156113f0576113ef611b9b565b5b8160030160009054906101000a900460ff16600181111561141457611413611b9b565b5b14611454576040517f08c379a000000000000000000000000000000000000000000000000000000000815260040161144b90611f70565b60405180910390fd5b8060000160009054906101000a900473ffffffffffffffffffffffffffffffffffffffff1673ffffffffffffffffffffffffffffffffffffffff163373ffffffffffffffffffffffffffffffffffffffff16146114e6576040517f08c379a00000000000000000000000000000000000000000000000000000000081526004016114dd90611fdc565b60405180910390fd5b60006004600084815260200190815260200160002080548060200260200160405190810160405280929190818152602001828054801561157b57602002820191906000526020600020905b8160009054906101000a900473ffffffffffffffffffffffffffffffffffffffff1673ffffffffffffffffffffffffffffffffffffffff1681526020019060010190808311611531575b5050505050905060005b815181116117a95760006003600086815260200190815260200160002060008484815181106115b7576115b661212a565b5b602002602001015173ffffffffffffffffffffffffffffffffffffffff1673ffffffffffffffffffffffffffffffffffffffff16815260200190815260200160002054905060006003600087815260200190815260200160002060008585815181106116265761162561212a565b5b602002602001015173ffffffffffffffffffffffffffffffffffffffff1673ffffffffffffffffffffffffffffffffffffffff1681526020019081526020016000208190555080600160008781526020019081526020016000206002016000828254611692919061202b565b925050819055507f000000000000000000000000000000000000000000000000000000000000000073ffffffffffffffffffffffffffffffffffffffff1663a9059cbb8484815181106116e8576116e761212a565b5b6020026020010151836040518363ffffffff1660e01b815260040161170e929190611e8f565b600060405180830381600087803b15801561172857600080fd5b505af115801561173c573d6000803e3d6000fd5b505050507f7ca5472b7ea78c2c0141c5a12ee6d170cf4ce8ed06be3d22c8252ddfc7a6a2c4858484815181106117755761177461212a565b5b60200260200101518360405161178d9392919061205f565b60405180910390a15080806117a190612159565b915050611585565b50505050565b7f000000000000000000000000000000000000000000000000000000000000000081565b60006001600084815260200190815260200160002090506001808111156117fd576117fc611b9b565b5b8160030160009054906101000a900460ff16600181111561182157611820611b9b565b5b14611861576040517f08c379a000000000000000000000000000000000000000000000000000000000815260040161185890611f70565b60405180910390fd5b8181600201600082825461187591906120db565b92505081905550816003600085815260200190815260200160002060003373ffffffffffffffffffffffffffffffffffffffff1673ffffffffffffffffffffffffffffffffffffffff16815260200190815260200160002060008282546118dc91906120db565b925050819055507f000000000000000000000000000000000000000000000000000000000000000073ffffffffffffffffffffffffffffffffffffffff166323b872dd3330856040518463ffffffff1660e01b8152600401611940939291906121a1565b600060405180830381600087803b15801561195a57600080fd5b505af115801561196e573d6000803e3d6000fd5b5050505060046000848152602001908152602001600020339080600181540180825580915050600190039060005260206000200160009091909190916101000a81548173ffffffffffffffffffffffffffffffffffffffff021916908373ffffffffffffffffffffffffffffffffffffffff1602179055507f2757ac6a40883f4491cc56930ae964df9034e343e660d5179eb01e198336756b833384604051611a199392919061205f565b60405180910390a1505050565b6000819050919050565b611a3981611a26565b82525050565b6000602082019050611a546000830184611a30565b92915050565b600080fd5b611a6881611a26565b8114611a7357600080fd5b50565b600081359050611a8581611a5f565b92915050565b600073ffffffffffffffffffffffffffffffffffffffff82169050919050565b6000611ab682611a8b565b9050919050565b611ac681611aab565b8114611ad157600080fd5b50565b600081359050611ae381611abd565b92915050565b60008060408385031215611b0057611aff611a5a565b5b6000611b0e85828601611a76565b9250506020611b1f85828601611ad4565b9150509250929050565b60008115159050919050565b611b3e81611b29565b82525050565b6000602082019050611b596000830184611b35565b92915050565b600060208284031215611b7557611b74611a5a565b5b6000611b8384828501611a76565b91505092915050565b611b9581611aab565b82525050565b7f4e487b7100000000000000000000000000000000000000000000000000000000600052602160045260246000fd5b60028110611bdb57611bda611b9b565b5b50565b6000819050611bec82611bca565b919050565b6000611bfc82611bde565b9050919050565b611c0c81611bf1565b82525050565b600060a082019050611c276000830188611b8c565b611c346020830187611a30565b611c416040830186611a30565b611c4e6060830185611c03565b611c5b6080830184611b35565b9695505050505050565b60008060408385031215611c7c57611c7b611a5a565b5b6000611c8a85828601611a76565b9250506020611c9b85828601611a76565b9150509250929050565b6000602082019050611cba6000830184611b8c565b92915050565b6000819050919050565b6000611ce5611ce0611cdb84611a8b565b611cc0565b611a8b565b9050919050565b6000611cf782611cca565b9050919050565b6000611d0982611cec565b9050919050565b611d1981611cfe565b82525050565b6000602082019050611d346000830184611d10565b92915050565b600082825260208201905092915050565b7f6e6f7420656e6f75676820726967687473210000000000000000000000000000600082015250565b6000611d81601283611d3a565b9150611d8c82611d4b565b602082019050919050565b60006020820190508181036000830152611db081611d74565b9050919050565b7f706c656467656420697320746f6f206c6f770000000000000000000000000000600082015250565b6000611ded601283611d3a565b9150611df882611db7565b602082019050919050565b60006020820190508181036000830152611e1c81611de0565b9050919050565b7f616c726561647920636c61696d65640000000000000000000000000000000000600082015250565b6000611e59600f83611d3a565b9150611e6482611e23565b602082019050919050565b60006020820190508181036000830152611e8881611e4c565b9050919050565b6000604082019050611ea46000830185611b8c565b611eb16020830184611a30565b9392505050565b7f6e6f7420616e206f776e65722100000000000000000000000000000000000000600082015250565b6000611eee600d83611d3a565b9150611ef982611eb8565b602082019050919050565b60006020820190508181036000830152611f1d81611ee1565b9050919050565b7f63616d706169676e206973206e6f74206f70656e656421000000000000000000600082015250565b6000611f5a601783611d3a565b9150611f6582611f24565b602082019050919050565b60006020820190508181036000830152611f8981611f4d565b9050919050565b7f6e6f7420616e206f776e65720000000000000000000000000000000000000000600082015250565b6000611fc6600c83611d3a565b9150611fd182611f90565b602082019050919050565b60006020820190508181036000830152611ff581611fb9565b9050919050565b7f4e487b7100000000000000000000000000000000000000000000000000000000600052601160045260246000fd5b600061203682611a26565b915061204183611a26565b925082820390508181111561205957612058611ffc565b5b92915050565b60006060820190506120746000830186611a30565b6120816020830185611b8c565b61208e6040830184611a30565b949350505050565b60006080820190506120ab6000830187611a30565b6120b86020830186611b8c565b6120c56040830185611a30565b6120d26060830184611c03565b95945050505050565b60006120e682611a26565b91506120f183611a26565b925082820190508082111561210957612108611ffc565b5b92915050565b60006020820190506121246000830184611c03565b92915050565b7f4e487b7100000000000000000000000000000000000000000000000000000000600052603260045260246000fd5b600061216482611a26565b91507fffffffffffffffffffffffffffffffffffffffffffffffffffffffffffffffff820361219657612195611ffc565b5b600182019050919050565b60006060820190506121b66000830186611b8c565b6121c36020830185611b8c565b6121d06040830184611a30565b94935050505056fea26469706673582212207098f1d196abc45ab7198840b67fa7728f99485fa8bb0ada6fd69e97b749561264736f6c63430008110033",
					"opcodes": "PUSH1 0xA0 PUSH1 0x40 MSTORE CALLVALUE DUP1 ISZERO PUSH3 0x11 JUMPI PUSH1 0x0 DUP1 REVERT JUMPDEST POP PUSH1 0x40 MLOAD PUSH3 0x2354 CODESIZE SUB DUP1 PUSH3 0x2354 DUP4 CODECOPY DUP2 DUP2 ADD PUSH1 0x40 MSTORE DUP2 ADD SWAP1 PUSH3 0x37 SWAP2 SWAP1 PUSH3 0xDC JUMP JUMPDEST DUP1 PUSH20 0xFFFFFFFFFFFFFFFFFFFFFFFFFFFFFFFFFFFFFFFF AND PUSH1 0x80 DUP2 PUSH20 0xFFFFFFFFFFFFFFFFFFFFFFFFFFFFFFFFFFFFFFFF AND DUP2 MSTORE POP POP POP PUSH3 0x10E JUMP JUMPDEST PUSH1 0x0 DUP1 REVERT JUMPDEST PUSH1 0x0 PUSH20 0xFFFFFFFFFFFFFFFFFFFFFFFFFFFFFFFFFFFFFFFF DUP3 AND SWAP1 POP SWAP2 SWAP1 POP JUMP JUMPDEST PUSH1 0x0 PUSH3 0xA4 DUP3 PUSH3 0x77 JUMP JUMPDEST SWAP1 POP SWAP2 SWAP1 POP JUMP JUMPDEST PUSH3 0xB6 DUP2 PUSH3 0x97 JUMP JUMPDEST DUP2 EQ PUSH3 0xC2 JUMPI PUSH1 0x0 DUP1 REVERT JUMPDEST POP JUMP JUMPDEST PUSH1 0x0 DUP2 MLOAD SWAP1 POP PUSH3 0xD6 DUP2 PUSH3 0xAB JUMP JUMPDEST SWAP3 SWAP2 POP POP JUMP JUMPDEST PUSH1 0x0 PUSH1 0x20 DUP3 DUP5 SUB SLT ISZERO PUSH3 0xF5 JUMPI PUSH3 0xF4 PUSH3 0x72 JUMP JUMPDEST JUMPDEST PUSH1 0x0 PUSH3 0x105 DUP5 DUP3 DUP6 ADD PUSH3 0xC5 JUMP JUMPDEST SWAP2 POP POP SWAP3 SWAP2 POP POP JUMP JUMPDEST PUSH1 0x80 MLOAD PUSH2 0x220E PUSH3 0x146 PUSH1 0x0 CODECOPY PUSH1 0x0 DUP2 DUP2 PUSH2 0x6DE ADD MSTORE DUP2 DUP2 PUSH2 0xC5D ADD MSTORE DUP2 DUP2 PUSH2 0x169B ADD MSTORE DUP2 DUP2 PUSH2 0x17B1 ADD MSTORE PUSH2 0x18E5 ADD MSTORE PUSH2 0x220E PUSH1 0x0 RETURN INVALID PUSH1 0x80 PUSH1 0x40 MSTORE PUSH1 0x4 CALLDATASIZE LT PUSH2 0x102 JUMPI PUSH1 0x0 CALLDATALOAD PUSH1 0xE0 SHR DUP1 PUSH4 0x8E97F524 GT PUSH2 0x95 JUMPI DUP1 PUSH4 0xBA282398 GT PUSH2 0x64 JUMPI DUP1 PUSH4 0xBA282398 EQ PUSH2 0x39D JUMPI DUP1 PUSH4 0xE00DD161 EQ PUSH2 0x3C6 JUMPI DUP1 PUSH4 0xE9FEE16F EQ PUSH2 0x3F1 JUMPI DUP1 PUSH4 0xFC0C546A EQ PUSH2 0x41A JUMPI DUP1 PUSH4 0xFDE327BE EQ PUSH2 0x445 JUMPI PUSH2 0x157 JUMP JUMPDEST DUP1 PUSH4 0x8E97F524 EQ PUSH2 0x2E3 JUMPI DUP1 PUSH4 0x92F77154 EQ PUSH2 0x320 JUMPI DUP1 PUSH4 0xA41C57BC EQ PUSH2 0x34B JUMPI DUP1 PUSH4 0xA9E966B7 EQ PUSH2 0x374 JUMPI PUSH2 0x157 JUMP JUMPDEST DUP1 PUSH4 0x51B1E474 GT PUSH2 0xD1 JUMPI DUP1 PUSH4 0x51B1E474 EQ PUSH2 0x229 JUMPI DUP1 PUSH4 0x6244C42F EQ PUSH2 0x266 JUMPI DUP1 PUSH4 0x7AD226DC EQ PUSH2 0x291 JUMPI DUP1 PUSH4 0x85B12C7C EQ PUSH2 0x2BA JUMPI PUSH2 0x157 JUMP JUMPDEST DUP1 PUSH4 0xB46056B EQ PUSH2 0x159 JUMPI DUP1 PUSH4 0x141961BC EQ PUSH2 0x196 JUMPI DUP1 PUSH4 0x379607F5 EQ PUSH2 0x1D7 JUMPI DUP1 PUSH4 0x40E58EE5 EQ PUSH2 0x200 JUMPI PUSH2 0x157 JUMP JUMPDEST CALLDATASIZE PUSH2 0x157 JUMPI CALLER PUSH20 0xFFFFFFFFFFFFFFFFFFFFFFFFFFFFFFFFFFFFFFFF AND PUSH32 0x27B15ED4CF832749ED39F33A64E4707ED60A761485E41FFEC7343ECADDC0C02A CALLVALUE PUSH1 0x40 MLOAD PUSH2 0x14D SWAP2 SWAP1 PUSH2 0x1A3F JUMP JUMPDEST PUSH1 0x40 MLOAD DUP1 SWAP2 SUB SWAP1 LOG2 STOP JUMPDEST STOP JUMPDEST CALLVALUE DUP1 ISZERO PUSH2 0x165 JUMPI PUSH1 0x0 DUP1 REVERT JUMPDEST POP PUSH2 0x180 PUSH1 0x4 DUP1 CALLDATASIZE SUB DUP2 ADD SWAP1 PUSH2 0x17B SWAP2 SWAP1 PUSH2 0x1AE9 JUMP JUMPDEST PUSH2 0x46E JUMP JUMPDEST PUSH1 0x40 MLOAD PUSH2 0x18D SWAP2 SWAP1 PUSH2 0x1B44 JUMP JUMPDEST PUSH1 0x40 MLOAD DUP1 SWAP2 SUB SWAP1 RETURN JUMPDEST CALLVALUE DUP1 ISZERO PUSH2 0x1A2 JUMPI PUSH1 0x0 DUP1 REVERT JUMPDEST POP PUSH2 0x1BD PUSH1 0x4 DUP1 CALLDATASIZE SUB DUP2 ADD SWAP1 PUSH2 0x1B8 SWAP2 SWAP1 PUSH2 0x1B5F JUMP JUMPDEST PUSH2 0x49D JUMP JUMPDEST PUSH1 0x40 MLOAD PUSH2 0x1CE SWAP6 SWAP5 SWAP4 SWAP3 SWAP2 SWAP1 PUSH2 0x1C12 JUMP JUMPDEST PUSH1 0x40 MLOAD DUP1 SWAP2 SUB SWAP1 RETURN JUMPDEST CALLVALUE DUP1 ISZERO PUSH2 0x1E3 JUMPI PUSH1 0x0 DUP1 REVERT JUMPDEST POP PUSH2 0x1FE PUSH1 0x4 DUP1 CALLDATASIZE SUB DUP2 ADD SWAP1 PUSH2 0x1F9 SWAP2 SWAP1 PUSH2 0x1B5F JUMP JUMPDEST PUSH2 0x50D JUMP JUMPDEST STOP JUMPDEST CALLVALUE DUP1 ISZERO PUSH2 0x20C JUMPI PUSH1 0x0 DUP1 REVERT JUMPDEST POP PUSH2 0x227 PUSH1 0x4 DUP1 CALLDATASIZE SUB DUP2 ADD SWAP1 PUSH2 0x222 SWAP2 SWAP1 PUSH2 0x1B5F JUMP JUMPDEST PUSH2 0x7A8 JUMP JUMPDEST STOP JUMPDEST CALLVALUE DUP1 ISZERO PUSH2 0x235 JUMPI PUSH1 0x0 DUP1 REVERT JUMPDEST POP PUSH2 0x250 PUSH1 0x4 DUP1 CALLDATASIZE SUB DUP2 ADD SWAP1 PUSH2 0x24B SWAP2 SWAP1 PUSH2 0x1C65 JUMP JUMPDEST PUSH2 0xA16 JUMP JUMPDEST PUSH1 0x40 MLOAD PUSH2 0x25D SWAP2 SWAP1 PUSH2 0x1CA5 JUMP JUMPDEST PUSH1 0x40 MLOAD DUP1 SWAP2 SUB SWAP1 RETURN JUMPDEST CALLVALUE DUP1 ISZERO PUSH2 0x272 JUMPI PUSH1 0x0 DUP1 REVERT JUMPDEST POP PUSH2 0x27B PUSH2 0xA64 JUMP JUMPDEST PUSH1 0x40 MLOAD PUSH2 0x288 SWAP2 SWAP1 PUSH2 0x1A3F JUMP JUMPDEST PUSH1 0x40 MLOAD DUP1 SWAP2 SUB SWAP1 RETURN JUMPDEST CALLVALUE DUP1 ISZERO PUSH2 0x29D JUMPI PUSH1 0x0 DUP1 REVERT JUMPDEST POP PUSH2 0x2B8 PUSH1 0x4 DUP1 CALLDATASIZE SUB DUP2 ADD SWAP1 PUSH2 0x2B3 SWAP2 SWAP1 PUSH2 0x1AE9 JUMP JUMPDEST PUSH2 0xA90 JUMP JUMPDEST STOP JUMPDEST CALLVALUE DUP1 ISZERO PUSH2 0x2C6 JUMPI PUSH1 0x0 DUP1 REVERT JUMPDEST POP PUSH2 0x2E1 PUSH1 0x4 DUP1 CALLDATASIZE SUB DUP2 ADD SWAP1 PUSH2 0x2DC SWAP2 SWAP1 PUSH2 0x1B5F JUMP JUMPDEST PUSH2 0xD56 JUMP JUMPDEST STOP JUMPDEST CALLVALUE DUP1 ISZERO PUSH2 0x2EF JUMPI PUSH1 0x0 DUP1 REVERT JUMPDEST POP PUSH2 0x30A PUSH1 0x4 DUP1 CALLDATASIZE SUB DUP2 ADD SWAP1 PUSH2 0x305 SWAP2 SWAP1 PUSH2 0x1AE9 JUMP JUMPDEST PUSH2 0xEC9 JUMP JUMPDEST PUSH1 0x40 MLOAD PUSH2 0x317 SWAP2 SWAP1 PUSH2 0x1A3F JUMP JUMPDEST PUSH1 0x40 MLOAD DUP1 SWAP2 SUB SWAP1 RETURN JUMPDEST CALLVALUE DUP1 ISZERO PUSH2 0x32C JUMPI PUSH1 0x0 DUP1 REVERT JUMPDEST POP PUSH2 0x335 PUSH2 0xEEE JUMP JUMPDEST PUSH1 0x40 MLOAD PUSH2 0x342 SWAP2 SWAP1 PUSH2 0x1A3F JUMP JUMPDEST PUSH1 0x40 MLOAD DUP1 SWAP2 SUB SWAP1 RETURN JUMPDEST CALLVALUE DUP1 ISZERO PUSH2 0x357 JUMPI PUSH1 0x0 DUP1 REVERT JUMPDEST POP PUSH2 0x372 PUSH1 0x4 DUP1 CALLDATASIZE SUB DUP2 ADD SWAP1 PUSH2 0x36D SWAP2 SWAP1 PUSH2 0x1AE9 JUMP JUMPDEST PUSH2 0xF1A JUMP JUMPDEST STOP JUMPDEST CALLVALUE DUP1 ISZERO PUSH2 0x380 JUMPI PUSH1 0x0 DUP1 REVERT JUMPDEST POP PUSH2 0x39B PUSH1 0x4 DUP1 CALLDATASIZE SUB DUP2 ADD SWAP1 PUSH2 0x396 SWAP2 SWAP1 PUSH2 0x1B5F JUMP JUMPDEST PUSH2 0x10DC JUMP JUMPDEST STOP JUMPDEST CALLVALUE DUP1 ISZERO PUSH2 0x3A9 JUMPI PUSH1 0x0 DUP1 REVERT JUMPDEST POP PUSH2 0x3C4 PUSH1 0x4 DUP1 CALLDATASIZE SUB DUP2 ADD SWAP1 PUSH2 0x3BF SWAP2 SWAP1 PUSH2 0x1AE9 JUMP JUMPDEST PUSH2 0x11FE JUMP JUMPDEST STOP JUMPDEST CALLVALUE DUP1 ISZERO PUSH2 0x3D2 JUMPI PUSH1 0x0 DUP1 REVERT JUMPDEST POP PUSH2 0x3DB PUSH2 0x13C0 JUMP JUMPDEST PUSH1 0x40 MLOAD PUSH2 0x3E8 SWAP2 SWAP1 PUSH2 0x1A3F JUMP JUMPDEST PUSH1 0x40 MLOAD DUP1 SWAP2 SUB SWAP1 RETURN JUMPDEST CALLVALUE DUP1 ISZERO PUSH2 0x3FD JUMPI PUSH1 0x0 DUP1 REVERT JUMPDEST POP PUSH2 0x418 PUSH1 0x4 DUP1 CALLDATASIZE SUB DUP2 ADD SWAP1 PUSH2 0x413 SWAP2 SWAP1 PUSH2 0x1B5F JUMP JUMPDEST PUSH2 0x13C6 JUMP JUMPDEST STOP JUMPDEST CALLVALUE DUP1 ISZERO PUSH2 0x426 JUMPI PUSH1 0x0 DUP1 REVERT JUMPDEST POP PUSH2 0x42F PUSH2 0x17AF JUMP JUMPDEST PUSH1 0x40 MLOAD PUSH2 0x43C SWAP2 SWAP1 PUSH2 0x1D1F JUMP JUMPDEST PUSH1 0x40 MLOAD DUP1 SWAP2 SUB SWAP1 RETURN JUMPDEST CALLVALUE DUP1 ISZERO PUSH2 0x451 JUMPI PUSH1 0x0 DUP1 REVERT JUMPDEST POP PUSH2 0x46C PUSH1 0x4 DUP1 CALLDATASIZE SUB DUP2 ADD SWAP1 PUSH2 0x467 SWAP2 SWAP1 PUSH2 0x1C65 JUMP JUMPDEST PUSH2 0x17D3 JUMP JUMPDEST STOP JUMPDEST PUSH1 0x5 PUSH1 0x20 MSTORE DUP2 PUSH1 0x0 MSTORE PUSH1 0x40 PUSH1 0x0 KECCAK256 PUSH1 0x20 MSTORE DUP1 PUSH1 0x0 MSTORE PUSH1 0x40 PUSH1 0x0 KECCAK256 PUSH1 0x0 SWAP2 POP SWAP2 POP SWAP1 SLOAD SWAP1 PUSH2 0x100 EXP SWAP1 DIV PUSH1 0xFF AND DUP2 JUMP JUMPDEST PUSH1 0x1 PUSH1 0x20 MSTORE DUP1 PUSH1 0x0 MSTORE PUSH1 0x40 PUSH1 0x0 KECCAK256 PUSH1 0x0 SWAP2 POP SWAP1 POP DUP1 PUSH1 0x0 ADD PUSH1 0x0 SWAP1 SLOAD SWAP1 PUSH2 0x100 EXP SWAP1 DIV PUSH20 0xFFFFFFFFFFFFFFFFFFFFFFFFFFFFFFFFFFFFFFFF AND SWAP1 DUP1 PUSH1 0x1 ADD SLOAD SWAP1 DUP1 PUSH1 0x2 ADD SLOAD SWAP1 DUP1 PUSH1 0x3 ADD PUSH1 0x0 SWAP1 SLOAD SWAP1 PUSH2 0x100 EXP SWAP1 DIV PUSH1 0xFF AND SWAP1 DUP1 PUSH1 0x3 ADD PUSH1 0x1 SWAP1 SLOAD SWAP1 PUSH2 0x100 EXP SWAP1 DIV PUSH1 0xFF AND SWAP1 POP DUP6 JUMP JUMPDEST PUSH1 0x0 PUSH1 0x1 PUSH1 0x0 DUP4 DUP2 MSTORE PUSH1 0x20 ADD SWAP1 DUP2 MSTORE PUSH1 0x20 ADD PUSH1 0x0 KECCAK256 SWAP1 POP DUP1 PUSH1 0x0 ADD PUSH1 0x0 SWAP1 SLOAD SWAP1 PUSH2 0x100 EXP SWAP1 DIV PUSH20 0xFFFFFFFFFFFFFFFFFFFFFFFFFFFFFFFFFFFFFFFF AND PUSH20 0xFFFFFFFFFFFFFFFFFFFFFFFFFFFFFFFFFFFFFFFF AND CALLER PUSH20 0xFFFFFFFFFFFFFFFFFFFFFFFFFFFFFFFFFFFFFFFF AND EQ DUP1 PUSH2 0x5E3 JUMPI POP PUSH1 0x1 ISZERO ISZERO PUSH1 0x5 PUSH1 0x0 DUP5 DUP2 MSTORE PUSH1 0x20 ADD SWAP1 DUP2 MSTORE PUSH1 0x20 ADD PUSH1 0x0 KECCAK256 PUSH1 0x0 CALLER PUSH20 0xFFFFFFFFFFFFFFFFFFFFFFFFFFFFFFFFFFFFFFFF AND PUSH20 0xFFFFFFFFFFFFFFFFFFFFFFFFFFFFFFFFFFFFFFFF AND DUP2 MSTORE PUSH1 0x20 ADD SWAP1 DUP2 MSTORE PUSH1 0x20 ADD PUSH1 0x0 KECCAK256 PUSH1 0x0 SWAP1 SLOAD SWAP1 PUSH2 0x100 EXP SWAP1 DIV PUSH1 0xFF AND ISZERO ISZERO EQ JUMPDEST PUSH2 0x622 JUMPI PUSH1 0x40 MLOAD PUSH32 0x8C379A000000000000000000000000000000000000000000000000000000000 DUP2 MSTORE PUSH1 0x4 ADD PUSH2 0x619 SWAP1 PUSH2 0x1D97 JUMP JUMPDEST PUSH1 0x40 MLOAD DUP1 SWAP2 SUB SWAP1 REVERT JUMPDEST DUP1 PUSH1 0x1 ADD SLOAD DUP2 PUSH1 0x2 ADD SLOAD LT ISZERO PUSH2 0x66D JUMPI PUSH1 0x40 MLOAD PUSH32 0x8C379A000000000000000000000000000000000000000000000000000000000 DUP2 MSTORE PUSH1 0x4 ADD PUSH2 0x664 SWAP1 PUSH2 0x1E03 JUMP JUMPDEST PUSH1 0x40 MLOAD DUP1 SWAP2 SUB SWAP1 REVERT JUMPDEST DUP1 PUSH1 0x3 ADD PUSH1 0x1 SWAP1 SLOAD SWAP1 PUSH2 0x100 EXP SWAP1 DIV PUSH1 0xFF AND ISZERO PUSH2 0x6BF JUMPI PUSH1 0x40 MLOAD PUSH32 0x8C379A000000000000000000000000000000000000000000000000000000000 DUP2 MSTORE PUSH1 0x4 ADD PUSH2 0x6B6 SWAP1 PUSH2 0x1E6F JUMP JUMPDEST PUSH1 0x40 MLOAD DUP1 SWAP2 SUB SWAP1 REVERT JUMPDEST PUSH1 0x1 DUP2 PUSH1 0x3 ADD PUSH1 0x1 PUSH2 0x100 EXP DUP2 SLOAD DUP2 PUSH1 0xFF MUL NOT AND SWAP1 DUP4 ISZERO ISZERO MUL OR SWAP1 SSTORE POP PUSH32 0x0 PUSH20 0xFFFFFFFFFFFFFFFFFFFFFFFFFFFFFFFFFFFFFFFF AND PUSH4 0xA9059CBB CALLER DUP4 PUSH1 0x2 ADD SLOAD PUSH1 0x40 MLOAD DUP4 PUSH4 0xFFFFFFFF AND PUSH1 0xE0 SHL DUP2 MSTORE PUSH1 0x4 ADD PUSH2 0x73B SWAP3 SWAP2 SWAP1 PUSH2 0x1E8F JUMP JUMPDEST PUSH1 0x0 PUSH1 0x40 MLOAD DUP1 DUP4 SUB DUP2 PUSH1 0x0 DUP8 DUP1 EXTCODESIZE ISZERO DUP1 ISZERO PUSH2 0x755 JUMPI PUSH1 0x0 DUP1 REVERT JUMPDEST POP GAS CALL ISZERO DUP1 ISZERO PUSH2 0x769 JUMPI RETURNDATASIZE PUSH1 0x0 DUP1 RETURNDATACOPY RETURNDATASIZE PUSH1 0x0 REVERT JUMPDEST POP POP POP POP PUSH32 0x7A355715549CFE7C1CBA26304350343FBDDC4B4F72D3CE3E7C27117DD20B5CB8 DUP3 PUSH1 0x40 MLOAD PUSH2 0x79C SWAP2 SWAP1 PUSH2 0x1A3F JUMP JUMPDEST PUSH1 0x40 MLOAD DUP1 SWAP2 SUB SWAP1 LOG1 POP POP JUMP JUMPDEST PUSH1 0x0 PUSH1 0x1 PUSH1 0x0 DUP4 DUP2 MSTORE PUSH1 0x20 ADD SWAP1 DUP2 MSTORE PUSH1 0x20 ADD PUSH1 0x0 KECCAK256 PUSH1 0x40 MLOAD DUP1 PUSH1 0xA0 ADD PUSH1 0x40 MSTORE SWAP1 DUP2 PUSH1 0x0 DUP3 ADD PUSH1 0x0 SWAP1 SLOAD SWAP1 PUSH2 0x100 EXP SWAP1 DIV PUSH20 0xFFFFFFFFFFFFFFFFFFFFFFFFFFFFFFFFFFFFFFFF AND PUSH20 0xFFFFFFFFFFFFFFFFFFFFFFFFFFFFFFFFFFFFFFFF AND PUSH20 0xFFFFFFFFFFFFFFFFFFFFFFFFFFFFFFFFFFFFFFFF AND DUP2 MSTORE PUSH1 0x20 ADD PUSH1 0x1 DUP3 ADD SLOAD DUP2 MSTORE PUSH1 0x20 ADD PUSH1 0x2 DUP3 ADD SLOAD DUP2 MSTORE PUSH1 0x20 ADD PUSH1 0x3 DUP3 ADD PUSH1 0x0 SWAP1 SLOAD SWAP1 PUSH2 0x100 EXP SWAP1 DIV PUSH1 0xFF AND PUSH1 0x1 DUP2 GT ISZERO PUSH2 0x857 JUMPI PUSH2 0x856 PUSH2 0x1B9B JUMP JUMPDEST JUMPDEST PUSH1 0x1 DUP2 GT ISZERO PUSH2 0x869 JUMPI PUSH2 0x868 PUSH2 0x1B9B JUMP JUMPDEST JUMPDEST DUP2 MSTORE PUSH1 0x20 ADD PUSH1 0x3 DUP3 ADD PUSH1 0x1 SWAP1 SLOAD SWAP1 PUSH2 0x100 EXP SWAP1 DIV PUSH1 0xFF AND ISZERO ISZERO ISZERO ISZERO DUP2 MSTORE POP POP SWAP1 POP DUP1 PUSH1 0x0 ADD MLOAD PUSH20 0xFFFFFFFFFFFFFFFFFFFFFFFFFFFFFFFFFFFFFFFF AND CALLER PUSH20 0xFFFFFFFFFFFFFFFFFFFFFFFFFFFFFFFFFFFFFFFF AND EQ PUSH2 0x8FC JUMPI PUSH1 0x40 MLOAD PUSH32 0x8C379A000000000000000000000000000000000000000000000000000000000 DUP2 MSTORE PUSH1 0x4 ADD PUSH2 0x8F3 SWAP1 PUSH2 0x1F04 JUMP JUMPDEST PUSH1 0x40 MLOAD DUP1 SWAP2 SUB SWAP1 REVERT JUMPDEST PUSH1 0x1 DUP1 DUP2 GT ISZERO PUSH2 0x90F JUMPI PUSH2 0x90E PUSH2 0x1B9B JUMP JUMPDEST JUMPDEST DUP2 PUSH1 0x60 ADD MLOAD PUSH1 0x1 DUP2 GT ISZERO PUSH2 0x926 JUMPI PUSH2 0x925 PUSH2 0x1B9B JUMP JUMPDEST JUMPDEST EQ PUSH2 0x966 JUMPI PUSH1 0x40 MLOAD PUSH32 0x8C379A000000000000000000000000000000000000000000000000000000000 DUP2 MSTORE PUSH1 0x4 ADD PUSH2 0x95D SWAP1 PUSH2 0x1F70 JUMP JUMPDEST PUSH1 0x40 MLOAD DUP1 SWAP2 SUB SWAP1 REVERT JUMPDEST PUSH1 0x1 PUSH1 0x0 DUP4 DUP2 MSTORE PUSH1 0x20 ADD SWAP1 DUP2 MSTORE PUSH1 0x20 ADD PUSH1 0x0 KECCAK256 PUSH1 0x0 DUP1 DUP3 ADD PUSH1 0x0 PUSH2 0x100 EXP DUP2 SLOAD SWAP1 PUSH20 0xFFFFFFFFFFFFFFFFFFFFFFFFFFFFFFFFFFFFFFFF MUL NOT AND SWAP1 SSTORE PUSH1 0x1 DUP3 ADD PUSH1 0x0 SWAP1 SSTORE PUSH1 0x2 DUP3 ADD PUSH1 0x0 SWAP1 SSTORE PUSH1 0x3 DUP3 ADD PUSH1 0x0 PUSH2 0x100 EXP DUP2 SLOAD SWAP1 PUSH1 0xFF MUL NOT AND SWAP1 SSTORE PUSH1 0x3 DUP3 ADD PUSH1 0x1 PUSH2 0x100 EXP DUP2 SLOAD SWAP1 PUSH1 0xFF MUL NOT AND SWAP1 SSTORE POP POP PUSH32 0x8BF30E7FF26833413BE5F69E1D373744864D600B664204B4A2F9844A8EEDB9ED DUP3 PUSH1 0x40 MLOAD PUSH2 0xA0A SWAP2 SWAP1 PUSH2 0x1A3F JUMP JUMPDEST PUSH1 0x40 MLOAD DUP1 SWAP2 SUB SWAP1 LOG1 POP POP JUMP JUMPDEST PUSH1 0x4 PUSH1 0x20 MSTORE DUP2 PUSH1 0x0 MSTORE PUSH1 0x40 PUSH1 0x0 KECCAK256 DUP2 DUP2 SLOAD DUP2 LT PUSH2 0xA32 JUMPI PUSH1 0x0 DUP1 REVERT JUMPDEST SWAP1 PUSH1 0x0 MSTORE PUSH1 0x20 PUSH1 0x0 KECCAK256 ADD PUSH1 0x0 SWAP2 POP SWAP2 POP SWAP1 SLOAD SWAP1 PUSH2 0x100 EXP SWAP1 DIV PUSH20 0xFFFFFFFFFFFFFFFFFFFFFFFFFFFFFFFFFFFFFFFF AND DUP2 JUMP JUMPDEST PUSH1 0x0 DUP1 PUSH1 0x0 DUP1 PUSH1 0x1 DUP2 GT ISZERO PUSH2 0xA7C JUMPI PUSH2 0xA7B PUSH2 0x1B9B JUMP JUMPDEST JUMPDEST DUP2 MSTORE PUSH1 0x20 ADD SWAP1 DUP2 MSTORE PUSH1 0x20 ADD PUSH1 0x0 KECCAK256 SLOAD SWAP1 POP SWAP1 JUMP JUMPDEST PUSH1 0x0 PUSH1 0x1 PUSH1 0x0 DUP5 DUP2 MSTORE PUSH1 0x20 ADD SWAP1 DUP2 MSTORE PUSH1 0x20 ADD PUSH1 0x0 KECCAK256 SWAP1 POP PUSH1 0x1 DUP1 DUP2 GT ISZERO PUSH2 0xABA JUMPI PUSH2 0xAB9 PUSH2 0x1B9B JUMP JUMPDEST JUMPDEST DUP2 PUSH1 0x3 ADD PUSH1 0x0 SWAP1 SLOAD SWAP1 PUSH2 0x100 EXP SWAP1 DIV PUSH1 0xFF AND PUSH1 0x1 DUP2 GT ISZERO PUSH2 0xADE JUMPI PUSH2 0xADD PUSH2 0x1B9B JUMP JUMPDEST JUMPDEST EQ PUSH2 0xB1E JUMPI PUSH1 0x40 MLOAD PUSH32 0x8C379A000000000000000000000000000000000000000000000000000000000 DUP2 MSTORE PUSH1 0x4 ADD PUSH2 0xB15 SWAP1 PUSH2 0x1F70 JUMP JUMPDEST PUSH1 0x40 MLOAD DUP1 SWAP2 SUB SWAP1 REVERT JUMPDEST DUP1 PUSH1 0x0 ADD PUSH1 0x0 SWAP1 SLOAD SWAP1 PUSH2 0x100 EXP SWAP1 DIV PUSH20 0xFFFFFFFFFFFFFFFFFFFFFFFFFFFFFFFFFFFFFFFF AND PUSH20 0xFFFFFFFFFFFFFFFFFFFFFFFFFFFFFFFFFFFFFFFF AND CALLER PUSH20 0xFFFFFFFFFFFFFFFFFFFFFFFFFFFFFFFFFFFFFFFF AND EQ PUSH2 0xBB0 JUMPI PUSH1 0x40 MLOAD PUSH32 0x8C379A000000000000000000000000000000000000000000000000000000000 DUP2 MSTORE PUSH1 0x4 ADD PUSH2 0xBA7 SWAP1 PUSH2 0x1FDC JUMP JUMPDEST PUSH1 0x40 MLOAD DUP1 SWAP2 SUB SWAP1 REVERT JUMPDEST PUSH1 0x0 PUSH1 0x3 PUSH1 0x0 DUP6 DUP2 MSTORE PUSH1 0x20 ADD SWAP1 DUP2 MSTORE PUSH1 0x20 ADD PUSH1 0x0 KECCAK256 PUSH1 0x0 DUP5 PUSH20 0xFFFFFFFFFFFFFFFFFFFFFFFFFFFFFFFFFFFFFFFF AND PUSH20 0xFFFFFFFFFFFFFFFFFFFFFFFFFFFFFFFFFFFFFFFF AND DUP2 MSTORE PUSH1 0x20 ADD SWAP1 DUP2 MSTORE PUSH1 0x20 ADD PUSH1 0x0 KECCAK256 SLOAD SWAP1 POP PUSH1 0x0 PUSH1 0x3 PUSH1 0x0 DUP7 DUP2 MSTORE PUSH1 0x20 ADD SWAP1 DUP2 MSTORE PUSH1 0x20 ADD PUSH1 0x0 KECCAK256 PUSH1 0x0 DUP6 PUSH20 0xFFFFFFFFFFFFFFFFFFFFFFFFFFFFFFFFFFFFFFFF AND PUSH20 0xFFFFFFFFFFFFFFFFFFFFFFFFFFFFFFFFFFFFFFFF AND DUP2 MSTORE PUSH1 0x20 ADD SWAP1 DUP2 MSTORE PUSH1 0x20 ADD PUSH1 0x0 KECCAK256 DUP2 SWAP1 SSTORE POP PUSH32 0x0 PUSH20 0xFFFFFFFFFFFFFFFFFFFFFFFFFFFFFFFFFFFFFFFF AND PUSH4 0xA9059CBB DUP5 DUP4 PUSH1 0x40 MLOAD DUP4 PUSH4 0xFFFFFFFF AND PUSH1 0xE0 SHL DUP2 MSTORE PUSH1 0x4 ADD PUSH2 0xCB6 SWAP3 SWAP2 SWAP1 PUSH2 0x1E8F JUMP JUMPDEST PUSH1 0x0 PUSH1 0x40 MLOAD DUP1 DUP4 SUB DUP2 PUSH1 0x0 DUP8 DUP1 EXTCODESIZE ISZERO DUP1 ISZERO PUSH2 0xCD0 JUMPI PUSH1 0x0 DUP1 REVERT JUMPDEST POP GAS CALL ISZERO DUP1 ISZERO PUSH2 0xCE4 JUMPI RETURNDATASIZE PUSH1 0x0 DUP1 RETURNDATACOPY RETURNDATASIZE PUSH1 0x0 REVERT JUMPDEST POP POP POP POP DUP1 PUSH1 0x1 PUSH1 0x0 DUP7 DUP2 MSTORE PUSH1 0x20 ADD SWAP1 DUP2 MSTORE PUSH1 0x20 ADD PUSH1 0x0 KECCAK256 PUSH1 0x2 ADD PUSH1 0x0 DUP3 DUP3 SLOAD PUSH2 0xD0E SWAP2 SWAP1 PUSH2 0x202B JUMP JUMPDEST SWAP3 POP POP DUP2 SWAP1 SSTORE POP PUSH32 0x7CA5472B7EA78C2C0141C5A12EE6D170CF4CE8ED06BE3D22C8252DDFC7A6A2C4 DUP5 DUP5 DUP4 PUSH1 0x40 MLOAD PUSH2 0xD48 SWAP4 SWAP3 SWAP2 SWAP1 PUSH2 0x205F JUMP JUMPDEST PUSH1 0x40 MLOAD DUP1 SWAP2 SUB SWAP1 LOG1 POP POP POP POP JUMP JUMPDEST PUSH1 0x40 MLOAD DUP1 PUSH1 0xA0 ADD PUSH1 0x40 MSTORE DUP1 CALLER PUSH20 0xFFFFFFFFFFFFFFFFFFFFFFFFFFFFFFFFFFFFFFFF AND DUP2 MSTORE PUSH1 0x20 ADD DUP3 DUP2 MSTORE PUSH1 0x20 ADD PUSH1 0x0 DUP2 MSTORE PUSH1 0x20 ADD PUSH1 0x1 DUP1 DUP2 GT ISZERO PUSH2 0xD9D JUMPI PUSH2 0xD9C PUSH2 0x1B9B JUMP JUMPDEST JUMPDEST DUP2 MSTORE PUSH1 0x20 ADD PUSH1 0x0 ISZERO ISZERO DUP2 MSTORE POP PUSH1 0x1 PUSH1 0x0 PUSH1 0x2 SLOAD DUP2 MSTORE PUSH1 0x20 ADD SWAP1 DUP2 MSTORE PUSH1 0x20 ADD PUSH1 0x0 KECCAK256 PUSH1 0x0 DUP3 ADD MLOAD DUP2 PUSH1 0x0 ADD PUSH1 0x0 PUSH2 0x100 EXP DUP2 SLOAD DUP2 PUSH20 0xFFFFFFFFFFFFFFFFFFFFFFFFFFFFFFFFFFFFFFFF MUL NOT AND SWAP1 DUP4 PUSH20 0xFFFFFFFFFFFFFFFFFFFFFFFFFFFFFFFFFFFFFFFF AND MUL OR SWAP1 SSTORE POP PUSH1 0x20 DUP3 ADD MLOAD DUP2 PUSH1 0x1 ADD SSTORE PUSH1 0x40 DUP3 ADD MLOAD DUP2 PUSH1 0x2 ADD SSTORE PUSH1 0x60 DUP3 ADD MLOAD DUP2 PUSH1 0x3 ADD PUSH1 0x0 PUSH2 0x100 EXP DUP2 SLOAD DUP2 PUSH1 0xFF MUL NOT AND SWAP1 DUP4 PUSH1 0x1 DUP2 GT ISZERO PUSH2 0xE44 JUMPI PUSH2 0xE43 PUSH2 0x1B9B JUMP JUMPDEST JUMPDEST MUL OR SWAP1 SSTORE POP PUSH1 0x80 DUP3 ADD MLOAD DUP2 PUSH1 0x3 ADD PUSH1 0x1 PUSH2 0x100 EXP DUP2 SLOAD DUP2 PUSH1 0xFF MUL NOT AND SWAP1 DUP4 ISZERO ISZERO MUL OR SWAP1 SSTORE POP SWAP1 POP POP PUSH32 0x7832315D5668BEFCE61BEF59A74A00E6C0E8FD754AF2F6943FFCE187E5AD3C57 PUSH1 0x2 SLOAD CALLER DUP4 PUSH1 0x1 PUSH1 0x40 MLOAD PUSH2 0xEA4 SWAP5 SWAP4 SWAP3 SWAP2 SWAP1 PUSH2 0x2096 JUMP JUMPDEST PUSH1 0x40 MLOAD DUP1 SWAP2 SUB SWAP1 LOG1 PUSH1 0x1 PUSH1 0x2 PUSH1 0x0 DUP3 DUP3 SLOAD PUSH2 0xEBF SWAP2 SWAP1 PUSH2 0x20DB JUMP JUMPDEST SWAP3 POP POP DUP2 SWAP1 SSTORE POP POP JUMP JUMPDEST PUSH1 0x3 PUSH1 0x20 MSTORE DUP2 PUSH1 0x0 MSTORE PUSH1 0x40 PUSH1 0x0 KECCAK256 PUSH1 0x20 MSTORE DUP1 PUSH1 0x0 MSTORE PUSH1 0x40 PUSH1 0x0 KECCAK256 PUSH1 0x0 SWAP2 POP SWAP2 POP POP SLOAD DUP2 JUMP JUMPDEST PUSH1 0x0 DUP1 PUSH1 0x0 PUSH1 0x1 DUP1 DUP2 GT ISZERO PUSH2 0xF06 JUMPI PUSH2 0xF05 PUSH2 0x1B9B JUMP JUMPDEST JUMPDEST DUP2 MSTORE PUSH1 0x20 ADD SWAP1 DUP2 MSTORE PUSH1 0x20 ADD PUSH1 0x0 KECCAK256 SLOAD SWAP1 POP SWAP1 JUMP JUMPDEST PUSH1 0x0 PUSH1 0x1 PUSH1 0x0 DUP5 DUP2 MSTORE PUSH1 0x20 ADD SWAP1 DUP2 MSTORE PUSH1 0x20 ADD PUSH1 0x0 KECCAK256 PUSH1 0x40 MLOAD DUP1 PUSH1 0xA0 ADD PUSH1 0x40 MSTORE SWAP1 DUP2 PUSH1 0x0 DUP3 ADD PUSH1 0x0 SWAP1 SLOAD SWAP1 PUSH2 0x100 EXP SWAP1 DIV PUSH20 0xFFFFFFFFFFFFFFFFFFFFFFFFFFFFFFFFFFFFFFFF AND PUSH20 0xFFFFFFFFFFFFFFFFFFFFFFFFFFFFFFFFFFFFFFFF AND PUSH20 0xFFFFFFFFFFFFFFFFFFFFFFFFFFFFFFFFFFFFFFFF AND DUP2 MSTORE PUSH1 0x20 ADD PUSH1 0x1 DUP3 ADD SLOAD DUP2 MSTORE PUSH1 0x20 ADD PUSH1 0x2 DUP3 ADD SLOAD DUP2 MSTORE PUSH1 0x20 ADD PUSH1 0x3 DUP3 ADD PUSH1 0x0 SWAP1 SLOAD SWAP1 PUSH2 0x100 EXP SWAP1 DIV PUSH1 0xFF AND PUSH1 0x1 DUP2 GT ISZERO PUSH2 0xFC9 JUMPI PUSH2 0xFC8 PUSH2 0x1B9B JUMP JUMPDEST JUMPDEST PUSH1 0x1 DUP2 GT ISZERO PUSH2 0xFDB JUMPI PUSH2 0xFDA PUSH2 0x1B9B JUMP JUMPDEST JUMPDEST DUP2 MSTORE PUSH1 0x20 ADD PUSH1 0x3 DUP3 ADD PUSH1 0x1 SWAP1 SLOAD SWAP1 PUSH2 0x100 EXP SWAP1 DIV PUSH1 0xFF AND ISZERO ISZERO ISZERO ISZERO DUP2 MSTORE POP POP SWAP1 POP DUP1 PUSH1 0x0 ADD MLOAD PUSH20 0xFFFFFFFFFFFFFFFFFFFFFFFFFFFFFFFFFFFFFFFF AND CALLER PUSH20 0xFFFFFFFFFFFFFFFFFFFFFFFFFFFFFFFFFFFFFFFF AND EQ PUSH2 0x106E JUMPI PUSH1 0x40 MLOAD PUSH32 0x8C379A000000000000000000000000000000000000000000000000000000000 DUP2 MSTORE PUSH1 0x4 ADD PUSH2 0x1065 SWAP1 PUSH2 0x1F04 JUMP JUMPDEST PUSH1 0x40 MLOAD DUP1 SWAP2 SUB SWAP1 REVERT JUMPDEST PUSH1 0x1 PUSH1 0x5 PUSH1 0x0 DUP6 DUP2 MSTORE PUSH1 0x20 ADD SWAP1 DUP2 MSTORE PUSH1 0x20 ADD PUSH1 0x0 KECCAK256 PUSH1 0x0 DUP5 PUSH20 0xFFFFFFFFFFFFFFFFFFFFFFFFFFFFFFFFFFFFFFFF AND PUSH20 0xFFFFFFFFFFFFFFFFFFFFFFFFFFFFFFFFFFFFFFFF AND DUP2 MSTORE PUSH1 0x20 ADD SWAP1 DUP2 MSTORE PUSH1 0x20 ADD PUSH1 0x0 KECCAK256 PUSH1 0x0 PUSH2 0x100 EXP DUP2 SLOAD DUP2 PUSH1 0xFF MUL NOT AND SWAP1 DUP4 ISZERO ISZERO MUL OR SWAP1 SSTORE POP POP POP POP JUMP JUMPDEST PUSH1 0x0 PUSH1 0x1 PUSH1 0x0 DUP4 DUP2 MSTORE PUSH1 0x20 ADD SWAP1 DUP2 MSTORE PUSH1 0x20 ADD PUSH1 0x0 KECCAK256 SWAP1 POP DUP1 PUSH1 0x0 ADD PUSH1 0x0 SWAP1 SLOAD SWAP1 PUSH2 0x100 EXP SWAP1 DIV PUSH20 0xFFFFFFFFFFFFFFFFFFFFFFFFFFFFFFFFFFFFFFFF AND PUSH20 0xFFFFFFFFFFFFFFFFFFFFFFFFFFFFFFFFFFFFFFFF AND CALLER PUSH20 0xFFFFFFFFFFFFFFFFFFFFFFFFFFFFFFFFFFFFFFFF AND EQ PUSH2 0x1185 JUMPI PUSH1 0x40 MLOAD PUSH32 0x8C379A000000000000000000000000000000000000000000000000000000000 DUP2 MSTORE PUSH1 0x4 ADD PUSH2 0x117C SWAP1 PUSH2 0x1FDC JUMP JUMPDEST PUSH1 0x40 MLOAD DUP1 SWAP2 SUB SWAP1 REVERT JUMPDEST PUSH1 0x0 DUP2 PUSH1 0x3 ADD PUSH1 0x0 PUSH2 0x100 EXP DUP2 SLOAD DUP2 PUSH1 0xFF MUL NOT AND SWAP1 DUP4 PUSH1 0x1 DUP2 GT ISZERO PUSH2 0x11AD JUMPI PUSH2 0x11AC PUSH2 0x1B9B JUMP JUMPDEST JUMPDEST MUL OR SWAP1 SSTORE POP PUSH32 0x23AD33AB6A13A00AA7D06CD167B2ABD03DEC86AF3CF3CC91759DCD3AE8411887 DUP2 PUSH1 0x3 ADD PUSH1 0x0 SWAP1 SLOAD SWAP1 PUSH2 0x100 EXP SWAP1 DIV PUSH1 0xFF AND PUSH1 0x40 MLOAD PUSH2 0x11F2 SWAP2 SWAP1 PUSH2 0x210F JUMP JUMPDEST PUSH1 0x40 MLOAD DUP1 SWAP2 SUB SWAP1 LOG1 POP POP JUMP JUMPDEST PUSH1 0x0 PUSH1 0x1 PUSH1 0x0 DUP5 DUP2 MSTORE PUSH1 0x20 ADD SWAP1 DUP2 MSTORE PUSH1 0x20 ADD PUSH1 0x0 KECCAK256 PUSH1 0x40 MLOAD DUP1 PUSH1 0xA0 ADD PUSH1 0x40 MSTORE SWAP1 DUP2 PUSH1 0x0 DUP3 ADD PUSH1 0x0 SWAP1 SLOAD SWAP1 PUSH2 0x100 EXP SWAP1 DIV PUSH20 0xFFFFFFFFFFFFFFFFFFFFFFFFFFFFFFFFFFFFFFFF AND PUSH20 0xFFFFFFFFFFFFFFFFFFFFFFFFFFFFFFFFFFFFFFFF AND PUSH20 0xFFFFFFFFFFFFFFFFFFFFFFFFFFFFFFFFFFFFFFFF AND DUP2 MSTORE PUSH1 0x20 ADD PUSH1 0x1 DUP3 ADD SLOAD DUP2 MSTORE PUSH1 0x20 ADD PUSH1 0x2 DUP3 ADD SLOAD DUP2 MSTORE PUSH1 0x20 ADD PUSH1 0x3 DUP3 ADD PUSH1 0x0 SWAP1 SLOAD SWAP1 PUSH2 0x100 EXP SWAP1 DIV PUSH1 0xFF AND PUSH1 0x1 DUP2 GT ISZERO PUSH2 0x12AD JUMPI PUSH2 0x12AC PUSH2 0x1B9B JUMP JUMPDEST JUMPDEST PUSH1 0x1 DUP2 GT ISZERO PUSH2 0x12BF JUMPI PUSH2 0x12BE PUSH2 0x1B9B JUMP JUMPDEST JUMPDEST DUP2 MSTORE PUSH1 0x20 ADD PUSH1 0x3 DUP3 ADD PUSH1 0x1 SWAP1 SLOAD SWAP1 PUSH2 0x100 EXP SWAP1 DIV PUSH1 0xFF AND ISZERO ISZERO ISZERO ISZERO DUP2 MSTORE POP POP SWAP1 POP DUP1 PUSH1 0x0 ADD MLOAD PUSH20 0xFFFFFFFFFFFFFFFFFFFFFFFFFFFFFFFFFFFFFFFF AND CALLER PUSH20 0xFFFFFFFFFFFFFFFFFFFFFFFFFFFFFFFFFFFFFFFF AND EQ PUSH2 0x1352 JUMPI PUSH1 0x40 MLOAD PUSH32 0x8C379A000000000000000000000000000000000000000000000000000000000 DUP2 MSTORE PUSH1 0x4 ADD PUSH2 0x1349 SWAP1 PUSH2 0x1F04 JUMP JUMPDEST PUSH1 0x40 MLOAD DUP1 SWAP2 SUB SWAP1 REVERT JUMPDEST PUSH1 0x1 PUSH1 0x5 PUSH1 0x0 DUP6 DUP2 MSTORE PUSH1 0x20 ADD SWAP1 DUP2 MSTORE PUSH1 0x20 ADD PUSH1 0x0 KECCAK256 PUSH1 0x0 DUP5 PUSH20 0xFFFFFFFFFFFFFFFFFFFFFFFFFFFFFFFFFFFFFFFF AND PUSH20 0xFFFFFFFFFFFFFFFFFFFFFFFFFFFFFFFFFFFFFFFF AND DUP2 MSTORE PUSH1 0x20 ADD SWAP1 DUP2 MSTORE PUSH1 0x20 ADD PUSH1 0x0 KECCAK256 PUSH1 0x0 PUSH2 0x100 EXP DUP2 SLOAD DUP2 PUSH1 0xFF MUL NOT AND SWAP1 DUP4 ISZERO ISZERO MUL OR SWAP1 SSTORE POP POP POP POP JUMP JUMPDEST PUSH1 0x2 SLOAD DUP2 JUMP JUMPDEST PUSH1 0x0 PUSH1 0x1 PUSH1 0x0 DUP4 DUP2 MSTORE PUSH1 0x20 ADD SWAP1 DUP2 MSTORE PUSH1 0x20 ADD PUSH1 0x0 KECCAK256 SWAP1 POP PUSH1 0x1 DUP1 DUP2 GT ISZERO PUSH2 0x13F0 JUMPI PUSH2 0x13EF PUSH2 0x1B9B JUMP JUMPDEST JUMPDEST DUP2 PUSH1 0x3 ADD PUSH1 0x0 SWAP1 SLOAD SWAP1 PUSH2 0x100 EXP SWAP1 DIV PUSH1 0xFF AND PUSH1 0x1 DUP2 GT ISZERO PUSH2 0x1414 JUMPI PUSH2 0x1413 PUSH2 0x1B9B JUMP JUMPDEST JUMPDEST EQ PUSH2 0x1454 JUMPI PUSH1 0x40 MLOAD PUSH32 0x8C379A000000000000000000000000000000000000000000000000000000000 DUP2 MSTORE PUSH1 0x4 ADD PUSH2 0x144B SWAP1 PUSH2 0x1F70 JUMP JUMPDEST PUSH1 0x40 MLOAD DUP1 SWAP2 SUB SWAP1 REVERT JUMPDEST DUP1 PUSH1 0x0 ADD PUSH1 0x0 SWAP1 SLOAD SWAP1 PUSH2 0x100 EXP SWAP1 DIV PUSH20 0xFFFFFFFFFFFFFFFFFFFFFFFFFFFFFFFFFFFFFFFF AND PUSH20 0xFFFFFFFFFFFFFFFFFFFFFFFFFFFFFFFFFFFFFFFF AND CALLER PUSH20 0xFFFFFFFFFFFFFFFFFFFFFFFFFFFFFFFFFFFFFFFF AND EQ PUSH2 0x14E6 JUMPI PUSH1 0x40 MLOAD PUSH32 0x8C379A000000000000000000000000000000000000000000000000000000000 DUP2 MSTORE PUSH1 0x4 ADD PUSH2 0x14DD SWAP1 PUSH2 0x1FDC JUMP JUMPDEST PUSH1 0x40 MLOAD DUP1 SWAP2 SUB SWAP1 REVERT JUMPDEST PUSH1 0x0 PUSH1 0x4 PUSH1 0x0 DUP5 DUP2 MSTORE PUSH1 0x20 ADD SWAP1 DUP2 MSTORE PUSH1 0x20 ADD PUSH1 0x0 KECCAK256 DUP1 SLOAD DUP1 PUSH1 0x20 MUL PUSH1 0x20 ADD PUSH1 0x40 MLOAD SWAP1 DUP2 ADD PUSH1 0x40 MSTORE DUP1 SWAP3 SWAP2 SWAP1 DUP2 DUP2 MSTORE PUSH1 0x20 ADD DUP3 DUP1 SLOAD DUP1 ISZERO PUSH2 0x157B JUMPI PUSH1 0x20 MUL DUP3 ADD SWAP2 SWAP1 PUSH1 0x0 MSTORE PUSH1 0x20 PUSH1 0x0 KECCAK256 SWAP1 JUMPDEST DUP2 PUSH1 0x0 SWAP1 SLOAD SWAP1 PUSH2 0x100 EXP SWAP1 DIV PUSH20 0xFFFFFFFFFFFFFFFFFFFFFFFFFFFFFFFFFFFFFFFF AND PUSH20 0xFFFFFFFFFFFFFFFFFFFFFFFFFFFFFFFFFFFFFFFF AND DUP2 MSTORE PUSH1 0x20 ADD SWAP1 PUSH1 0x1 ADD SWAP1 DUP1 DUP4 GT PUSH2 0x1531 JUMPI JUMPDEST POP POP POP POP POP SWAP1 POP PUSH1 0x0 JUMPDEST DUP2 MLOAD DUP2 GT PUSH2 0x17A9 JUMPI PUSH1 0x0 PUSH1 0x3 PUSH1 0x0 DUP7 DUP2 MSTORE PUSH1 0x20 ADD SWAP1 DUP2 MSTORE PUSH1 0x20 ADD PUSH1 0x0 KECCAK256 PUSH1 0x0 DUP5 DUP5 DUP2 MLOAD DUP2 LT PUSH2 0x15B7 JUMPI PUSH2 0x15B6 PUSH2 0x212A JUMP JUMPDEST JUMPDEST PUSH1 0x20 MUL PUSH1 0x20 ADD ADD MLOAD PUSH20 0xFFFFFFFFFFFFFFFFFFFFFFFFFFFFFFFFFFFFFFFF AND PUSH20 0xFFFFFFFFFFFFFFFFFFFFFFFFFFFFFFFFFFFFFFFF AND DUP2 MSTORE PUSH1 0x20 ADD SWAP1 DUP2 MSTORE PUSH1 0x20 ADD PUSH1 0x0 KECCAK256 SLOAD SWAP1 POP PUSH1 0x0 PUSH1 0x3 PUSH1 0x0 DUP8 DUP2 MSTORE PUSH1 0x20 ADD SWAP1 DUP2 MSTORE PUSH1 0x20 ADD PUSH1 0x0 KECCAK256 PUSH1 0x0 DUP6 DUP6 DUP2 MLOAD DUP2 LT PUSH2 0x1626 JUMPI PUSH2 0x1625 PUSH2 0x212A JUMP JUMPDEST JUMPDEST PUSH1 0x20 MUL PUSH1 0x20 ADD ADD MLOAD PUSH20 0xFFFFFFFFFFFFFFFFFFFFFFFFFFFFFFFFFFFFFFFF AND PUSH20 0xFFFFFFFFFFFFFFFFFFFFFFFFFFFFFFFFFFFFFFFF AND DUP2 MSTORE PUSH1 0x20 ADD SWAP1 DUP2 MSTORE PUSH1 0x20 ADD PUSH1 0x0 KECCAK256 DUP2 SWAP1 SSTORE POP DUP1 PUSH1 0x1 PUSH1 0x0 DUP8 DUP2 MSTORE PUSH1 0x20 ADD SWAP1 DUP2 MSTORE PUSH1 0x20 ADD PUSH1 0x0 KECCAK256 PUSH1 0x2 ADD PUSH1 0x0 DUP3 DUP3 SLOAD PUSH2 0x1692 SWAP2 SWAP1 PUSH2 0x202B JUMP JUMPDEST SWAP3 POP POP DUP2 SWAP1 SSTORE POP PUSH32 0x0 PUSH20 0xFFFFFFFFFFFFFFFFFFFFFFFFFFFFFFFFFFFFFFFF AND PUSH4 0xA9059CBB DUP5 DUP5 DUP2 MLOAD DUP2 LT PUSH2 0x16E8 JUMPI PUSH2 0x16E7 PUSH2 0x212A JUMP JUMPDEST JUMPDEST PUSH1 0x20 MUL PUSH1 0x20 ADD ADD MLOAD DUP4 PUSH1 0x40 MLOAD DUP4 PUSH4 0xFFFFFFFF AND PUSH1 0xE0 SHL DUP2 MSTORE PUSH1 0x4 ADD PUSH2 0x170E SWAP3 SWAP2 SWAP1 PUSH2 0x1E8F JUMP JUMPDEST PUSH1 0x0 PUSH1 0x40 MLOAD DUP1 DUP4 SUB DUP2 PUSH1 0x0 DUP8 DUP1 EXTCODESIZE ISZERO DUP1 ISZERO PUSH2 0x1728 JUMPI PUSH1 0x0 DUP1 REVERT JUMPDEST POP GAS CALL ISZERO DUP1 ISZERO PUSH2 0x173C JUMPI RETURNDATASIZE PUSH1 0x0 DUP1 RETURNDATACOPY RETURNDATASIZE PUSH1 0x0 REVERT JUMPDEST POP POP POP POP PUSH32 0x7CA5472B7EA78C2C0141C5A12EE6D170CF4CE8ED06BE3D22C8252DDFC7A6A2C4 DUP6 DUP5 DUP5 DUP2 MLOAD DUP2 LT PUSH2 0x1775 JUMPI PUSH2 0x1774 PUSH2 0x212A JUMP JUMPDEST JUMPDEST PUSH1 0x20 MUL PUSH1 0x20 ADD ADD MLOAD DUP4 PUSH1 0x40 MLOAD PUSH2 0x178D SWAP4 SWAP3 SWAP2 SWAP1 PUSH2 0x205F JUMP JUMPDEST PUSH1 0x40 MLOAD DUP1 SWAP2 SUB SWAP1 LOG1 POP DUP1 DUP1 PUSH2 0x17A1 SWAP1 PUSH2 0x2159 JUMP JUMPDEST SWAP2 POP POP PUSH2 0x1585 JUMP JUMPDEST POP POP POP POP JUMP JUMPDEST PUSH32 0x0 DUP2 JUMP JUMPDEST PUSH1 0x0 PUSH1 0x1 PUSH1 0x0 DUP5 DUP2 MSTORE PUSH1 0x20 ADD SWAP1 DUP2 MSTORE PUSH1 0x20 ADD PUSH1 0x0 KECCAK256 SWAP1 POP PUSH1 0x1 DUP1 DUP2 GT ISZERO PUSH2 0x17FD JUMPI PUSH2 0x17FC PUSH2 0x1B9B JUMP JUMPDEST JUMPDEST DUP2 PUSH1 0x3 ADD PUSH1 0x0 SWAP1 SLOAD SWAP1 PUSH2 0x100 EXP SWAP1 DIV PUSH1 0xFF AND PUSH1 0x1 DUP2 GT ISZERO PUSH2 0x1821 JUMPI PUSH2 0x1820 PUSH2 0x1B9B JUMP JUMPDEST JUMPDEST EQ PUSH2 0x1861 JUMPI PUSH1 0x40 MLOAD PUSH32 0x8C379A000000000000000000000000000000000000000000000000000000000 DUP2 MSTORE PUSH1 0x4 ADD PUSH2 0x1858 SWAP1 PUSH2 0x1F70 JUMP JUMPDEST PUSH1 0x40 MLOAD DUP1 SWAP2 SUB SWAP1 REVERT JUMPDEST DUP2 DUP2 PUSH1 0x2 ADD PUSH1 0x0 DUP3 DUP3 SLOAD PUSH2 0x1875 SWAP2 SWAP1 PUSH2 0x20DB JUMP JUMPDEST SWAP3 POP POP DUP2 SWAP1 SSTORE POP DUP2 PUSH1 0x3 PUSH1 0x0 DUP6 DUP2 MSTORE PUSH1 0x20 ADD SWAP1 DUP2 MSTORE PUSH1 0x20 ADD PUSH1 0x0 KECCAK256 PUSH1 0x0 CALLER PUSH20 0xFFFFFFFFFFFFFFFFFFFFFFFFFFFFFFFFFFFFFFFF AND PUSH20 0xFFFFFFFFFFFFFFFFFFFFFFFFFFFFFFFFFFFFFFFF AND DUP2 MSTORE PUSH1 0x20 ADD SWAP1 DUP2 MSTORE PUSH1 0x20 ADD PUSH1 0x0 KECCAK256 PUSH1 0x0 DUP3 DUP3 SLOAD PUSH2 0x18DC SWAP2 SWAP1 PUSH2 0x20DB JUMP JUMPDEST SWAP3 POP POP DUP2 SWAP1 SSTORE POP PUSH32 0x0 PUSH20 0xFFFFFFFFFFFFFFFFFFFFFFFFFFFFFFFFFFFFFFFF AND PUSH4 0x23B872DD CALLER ADDRESS DUP6 PUSH1 0x40 MLOAD DUP5 PUSH4 0xFFFFFFFF AND PUSH1 0xE0 SHL DUP2 MSTORE PUSH1 0x4 ADD PUSH2 0x1940 SWAP4 SWAP3 SWAP2 SWAP1 PUSH2 0x21A1 JUMP JUMPDEST PUSH1 0x0 PUSH1 0x40 MLOAD DUP1 DUP4 SUB DUP2 PUSH1 0x0 DUP8 DUP1 EXTCODESIZE ISZERO DUP1 ISZERO PUSH2 0x195A JUMPI PUSH1 0x0 DUP1 REVERT JUMPDEST POP GAS CALL ISZERO DUP1 ISZERO PUSH2 0x196E JUMPI RETURNDATASIZE PUSH1 0x0 DUP1 RETURNDATACOPY RETURNDATASIZE PUSH1 0x0 REVERT JUMPDEST POP POP POP POP PUSH1 0x4 PUSH1 0x0 DUP5 DUP2 MSTORE PUSH1 0x20 ADD SWAP1 DUP2 MSTORE PUSH1 0x20 ADD PUSH1 0x0 KECCAK256 CALLER SWAP1 DUP1 PUSH1 0x1 DUP2 SLOAD ADD DUP1 DUP3 SSTORE DUP1 SWAP2 POP POP PUSH1 0x1 SWAP1 SUB SWAP1 PUSH1 0x0 MSTORE PUSH1 0x20 PUSH1 0x0 KECCAK256 ADD PUSH1 0x0 SWAP1 SWAP2 SWAP1 SWAP2 SWAP1 SWAP2 PUSH2 0x100 EXP DUP2 SLOAD DUP2 PUSH20 0xFFFFFFFFFFFFFFFFFFFFFFFFFFFFFFFFFFFFFFFF MUL NOT AND SWAP1 DUP4 PUSH20 0xFFFFFFFFFFFFFFFFFFFFFFFFFFFFFFFFFFFFFFFF AND MUL OR SWAP1 SSTORE POP PUSH32 0x2757AC6A40883F4491CC56930AE964DF9034E343E660D5179EB01E198336756B DUP4 CALLER DUP5 PUSH1 0x40 MLOAD PUSH2 0x1A19 SWAP4 SWAP3 SWAP2 SWAP1 PUSH2 0x205F JUMP JUMPDEST PUSH1 0x40 MLOAD DUP1 SWAP2 SUB SWAP1 LOG1 POP POP POP JUMP JUMPDEST PUSH1 0x0 DUP2 SWAP1 POP SWAP2 SWAP1 POP JUMP JUMPDEST PUSH2 0x1A39 DUP2 PUSH2 0x1A26 JUMP JUMPDEST DUP3 MSTORE POP POP JUMP JUMPDEST PUSH1 0x0 PUSH1 0x20 DUP3 ADD SWAP1 POP PUSH2 0x1A54 PUSH1 0x0 DUP4 ADD DUP5 PUSH2 0x1A30 JUMP JUMPDEST SWAP3 SWAP2 POP POP JUMP JUMPDEST PUSH1 0x0 DUP1 REVERT JUMPDEST PUSH2 0x1A68 DUP2 PUSH2 0x1A26 JUMP JUMPDEST DUP2 EQ PUSH2 0x1A73 JUMPI PUSH1 0x0 DUP1 REVERT JUMPDEST POP JUMP JUMPDEST PUSH1 0x0 DUP2 CALLDATALOAD SWAP1 POP PUSH2 0x1A85 DUP2 PUSH2 0x1A5F JUMP JUMPDEST SWAP3 SWAP2 POP POP JUMP JUMPDEST PUSH1 0x0 PUSH20 0xFFFFFFFFFFFFFFFFFFFFFFFFFFFFFFFFFFFFFFFF DUP3 AND SWAP1 POP SWAP2 SWAP1 POP JUMP JUMPDEST PUSH1 0x0 PUSH2 0x1AB6 DUP3 PUSH2 0x1A8B JUMP JUMPDEST SWAP1 POP SWAP2 SWAP1 POP JUMP JUMPDEST PUSH2 0x1AC6 DUP2 PUSH2 0x1AAB JUMP JUMPDEST DUP2 EQ PUSH2 0x1AD1 JUMPI PUSH1 0x0 DUP1 REVERT JUMPDEST POP JUMP JUMPDEST PUSH1 0x0 DUP2 CALLDATALOAD SWAP1 POP PUSH2 0x1AE3 DUP2 PUSH2 0x1ABD JUMP JUMPDEST SWAP3 SWAP2 POP POP JUMP JUMPDEST PUSH1 0x0 DUP1 PUSH1 0x40 DUP4 DUP6 SUB SLT ISZERO PUSH2 0x1B00 JUMPI PUSH2 0x1AFF PUSH2 0x1A5A JUMP JUMPDEST JUMPDEST PUSH1 0x0 PUSH2 0x1B0E DUP6 DUP3 DUP7 ADD PUSH2 0x1A76 JUMP JUMPDEST SWAP3 POP POP PUSH1 0x20 PUSH2 0x1B1F DUP6 DUP3 DUP7 ADD PUSH2 0x1AD4 JUMP JUMPDEST SWAP2 POP POP SWAP3 POP SWAP3 SWAP1 POP JUMP JUMPDEST PUSH1 0x0 DUP2 ISZERO ISZERO SWAP1 POP SWAP2 SWAP1 POP JUMP JUMPDEST PUSH2 0x1B3E DUP2 PUSH2 0x1B29 JUMP JUMPDEST DUP3 MSTORE POP POP JUMP JUMPDEST PUSH1 0x0 PUSH1 0x20 DUP3 ADD SWAP1 POP PUSH2 0x1B59 PUSH1 0x0 DUP4 ADD DUP5 PUSH2 0x1B35 JUMP JUMPDEST SWAP3 SWAP2 POP POP JUMP JUMPDEST PUSH1 0x0 PUSH1 0x20 DUP3 DUP5 SUB SLT ISZERO PUSH2 0x1B75 JUMPI PUSH2 0x1B74 PUSH2 0x1A5A JUMP JUMPDEST JUMPDEST PUSH1 0x0 PUSH2 0x1B83 DUP5 DUP3 DUP6 ADD PUSH2 0x1A76 JUMP JUMPDEST SWAP2 POP POP SWAP3 SWAP2 POP POP JUMP JUMPDEST PUSH2 0x1B95 DUP2 PUSH2 0x1AAB JUMP JUMPDEST DUP3 MSTORE POP POP JUMP JUMPDEST PUSH32 0x4E487B7100000000000000000000000000000000000000000000000000000000 PUSH1 0x0 MSTORE PUSH1 0x21 PUSH1 0x4 MSTORE PUSH1 0x24 PUSH1 0x0 REVERT JUMPDEST PUSH1 0x2 DUP2 LT PUSH2 0x1BDB JUMPI PUSH2 0x1BDA PUSH2 0x1B9B JUMP JUMPDEST JUMPDEST POP JUMP JUMPDEST PUSH1 0x0 DUP2 SWAP1 POP PUSH2 0x1BEC DUP3 PUSH2 0x1BCA JUMP JUMPDEST SWAP2 SWAP1 POP JUMP JUMPDEST PUSH1 0x0 PUSH2 0x1BFC DUP3 PUSH2 0x1BDE JUMP JUMPDEST SWAP1 POP SWAP2 SWAP1 POP JUMP JUMPDEST PUSH2 0x1C0C DUP2 PUSH2 0x1BF1 JUMP JUMPDEST DUP3 MSTORE POP POP JUMP JUMPDEST PUSH1 0x0 PUSH1 0xA0 DUP3 ADD SWAP1 POP PUSH2 0x1C27 PUSH1 0x0 DUP4 ADD DUP9 PUSH2 0x1B8C JUMP JUMPDEST PUSH2 0x1C34 PUSH1 0x20 DUP4 ADD DUP8 PUSH2 0x1A30 JUMP JUMPDEST PUSH2 0x1C41 PUSH1 0x40 DUP4 ADD DUP7 PUSH2 0x1A30 JUMP JUMPDEST PUSH2 0x1C4E PUSH1 0x60 DUP4 ADD DUP6 PUSH2 0x1C03 JUMP JUMPDEST PUSH2 0x1C5B PUSH1 0x80 DUP4 ADD DUP5 PUSH2 0x1B35 JUMP JUMPDEST SWAP7 SWAP6 POP POP POP POP POP POP JUMP JUMPDEST PUSH1 0x0 DUP1 PUSH1 0x40 DUP4 DUP6 SUB SLT ISZERO PUSH2 0x1C7C JUMPI PUSH2 0x1C7B PUSH2 0x1A5A JUMP JUMPDEST JUMPDEST PUSH1 0x0 PUSH2 0x1C8A DUP6 DUP3 DUP7 ADD PUSH2 0x1A76 JUMP JUMPDEST SWAP3 POP POP PUSH1 0x20 PUSH2 0x1C9B DUP6 DUP3 DUP7 ADD PUSH2 0x1A76 JUMP JUMPDEST SWAP2 POP POP SWAP3 POP SWAP3 SWAP1 POP JUMP JUMPDEST PUSH1 0x0 PUSH1 0x20 DUP3 ADD SWAP1 POP PUSH2 0x1CBA PUSH1 0x0 DUP4 ADD DUP5 PUSH2 0x1B8C JUMP JUMPDEST SWAP3 SWAP2 POP POP JUMP JUMPDEST PUSH1 0x0 DUP2 SWAP1 POP SWAP2 SWAP1 POP JUMP JUMPDEST PUSH1 0x0 PUSH2 0x1CE5 PUSH2 0x1CE0 PUSH2 0x1CDB DUP5 PUSH2 0x1A8B JUMP JUMPDEST PUSH2 0x1CC0 JUMP JUMPDEST PUSH2 0x1A8B JUMP JUMPDEST SWAP1 POP SWAP2 SWAP1 POP JUMP JUMPDEST PUSH1 0x0 PUSH2 0x1CF7 DUP3 PUSH2 0x1CCA JUMP JUMPDEST SWAP1 POP SWAP2 SWAP1 POP JUMP JUMPDEST PUSH1 0x0 PUSH2 0x1D09 DUP3 PUSH2 0x1CEC JUMP JUMPDEST SWAP1 POP SWAP2 SWAP1 POP JUMP JUMPDEST PUSH2 0x1D19 DUP2 PUSH2 0x1CFE JUMP JUMPDEST DUP3 MSTORE POP POP JUMP JUMPDEST PUSH1 0x0 PUSH1 0x20 DUP3 ADD SWAP1 POP PUSH2 0x1D34 PUSH1 0x0 DUP4 ADD DUP5 PUSH2 0x1D10 JUMP JUMPDEST SWAP3 SWAP2 POP POP JUMP JUMPDEST PUSH1 0x0 DUP3 DUP3 MSTORE PUSH1 0x20 DUP3 ADD SWAP1 POP SWAP3 SWAP2 POP POP JUMP JUMPDEST PUSH32 0x6E6F7420656E6F75676820726967687473210000000000000000000000000000 PUSH1 0x0 DUP3 ADD MSTORE POP JUMP JUMPDEST PUSH1 0x0 PUSH2 0x1D81 PUSH1 0x12 DUP4 PUSH2 0x1D3A JUMP JUMPDEST SWAP2 POP PUSH2 0x1D8C DUP3 PUSH2 0x1D4B JUMP JUMPDEST PUSH1 0x20 DUP3 ADD SWAP1 POP SWAP2 SWAP1 POP JUMP JUMPDEST PUSH1 0x0 PUSH1 0x20 DUP3 ADD SWAP1 POP DUP2 DUP2 SUB PUSH1 0x0 DUP4 ADD MSTORE PUSH2 0x1DB0 DUP2 PUSH2 0x1D74 JUMP JUMPDEST SWAP1 POP SWAP2 SWAP1 POP JUMP JUMPDEST PUSH32 0x706C656467656420697320746F6F206C6F770000000000000000000000000000 PUSH1 0x0 DUP3 ADD MSTORE POP JUMP JUMPDEST PUSH1 0x0 PUSH2 0x1DED PUSH1 0x12 DUP4 PUSH2 0x1D3A JUMP JUMPDEST SWAP2 POP PUSH2 0x1DF8 DUP3 PUSH2 0x1DB7 JUMP JUMPDEST PUSH1 0x20 DUP3 ADD SWAP1 POP SWAP2 SWAP1 POP JUMP JUMPDEST PUSH1 0x0 PUSH1 0x20 DUP3 ADD SWAP1 POP DUP2 DUP2 SUB PUSH1 0x0 DUP4 ADD MSTORE PUSH2 0x1E1C DUP2 PUSH2 0x1DE0 JUMP JUMPDEST SWAP1 POP SWAP2 SWAP1 POP JUMP JUMPDEST PUSH32 0x616C726561647920636C61696D65640000000000000000000000000000000000 PUSH1 0x0 DUP3 ADD MSTORE POP JUMP JUMPDEST PUSH1 0x0 PUSH2 0x1E59 PUSH1 0xF DUP4 PUSH2 0x1D3A JUMP JUMPDEST SWAP2 POP PUSH2 0x1E64 DUP3 PUSH2 0x1E23 JUMP JUMPDEST PUSH1 0x20 DUP3 ADD SWAP1 POP SWAP2 SWAP1 POP JUMP JUMPDEST PUSH1 0x0 PUSH1 0x20 DUP3 ADD SWAP1 POP DUP2 DUP2 SUB PUSH1 0x0 DUP4 ADD MSTORE PUSH2 0x1E88 DUP2 PUSH2 0x1E4C JUMP JUMPDEST SWAP1 POP SWAP2 SWAP1 POP JUMP JUMPDEST PUSH1 0x0 PUSH1 0x40 DUP3 ADD SWAP1 POP PUSH2 0x1EA4 PUSH1 0x0 DUP4 ADD DUP6 PUSH2 0x1B8C JUMP JUMPDEST PUSH2 0x1EB1 PUSH1 0x20 DUP4 ADD DUP5 PUSH2 0x1A30 JUMP JUMPDEST SWAP4 SWAP3 POP POP POP JUMP JUMPDEST PUSH32 0x6E6F7420616E206F776E65722100000000000000000000000000000000000000 PUSH1 0x0 DUP3 ADD MSTORE POP JUMP JUMPDEST PUSH1 0x0 PUSH2 0x1EEE PUSH1 0xD DUP4 PUSH2 0x1D3A JUMP JUMPDEST SWAP2 POP PUSH2 0x1EF9 DUP3 PUSH2 0x1EB8 JUMP JUMPDEST PUSH1 0x20 DUP3 ADD SWAP1 POP SWAP2 SWAP1 POP JUMP JUMPDEST PUSH1 0x0 PUSH1 0x20 DUP3 ADD SWAP1 POP DUP2 DUP2 SUB PUSH1 0x0 DUP4 ADD MSTORE PUSH2 0x1F1D DUP2 PUSH2 0x1EE1 JUMP JUMPDEST SWAP1 POP SWAP2 SWAP1 POP JUMP JUMPDEST PUSH32 0x63616D706169676E206973206E6F74206F70656E656421000000000000000000 PUSH1 0x0 DUP3 ADD MSTORE POP JUMP JUMPDEST PUSH1 0x0 PUSH2 0x1F5A PUSH1 0x17 DUP4 PUSH2 0x1D3A JUMP JUMPDEST SWAP2 POP PUSH2 0x1F65 DUP3 PUSH2 0x1F24 JUMP JUMPDEST PUSH1 0x20 DUP3 ADD SWAP1 POP SWAP2 SWAP1 POP JUMP JUMPDEST PUSH1 0x0 PUSH1 0x20 DUP3 ADD SWAP1 POP DUP2 DUP2 SUB PUSH1 0x0 DUP4 ADD MSTORE PUSH2 0x1F89 DUP2 PUSH2 0x1F4D JUMP JUMPDEST SWAP1 POP SWAP2 SWAP1 POP JUMP JUMPDEST PUSH32 0x6E6F7420616E206F776E65720000000000000000000000000000000000000000 PUSH1 0x0 DUP3 ADD MSTORE POP JUMP JUMPDEST PUSH1 0x0 PUSH2 0x1FC6 PUSH1 0xC DUP4 PUSH2 0x1D3A JUMP JUMPDEST SWAP2 POP PUSH2 0x1FD1 DUP3 PUSH2 0x1F90 JUMP JUMPDEST PUSH1 0x20 DUP3 ADD SWAP1 POP SWAP2 SWAP1 POP JUMP JUMPDEST PUSH1 0x0 PUSH1 0x20 DUP3 ADD SWAP1 POP DUP2 DUP2 SUB PUSH1 0x0 DUP4 ADD MSTORE PUSH2 0x1FF5 DUP2 PUSH2 0x1FB9 JUMP JUMPDEST SWAP1 POP SWAP2 SWAP1 POP JUMP JUMPDEST PUSH32 0x4E487B7100000000000000000000000000000000000000000000000000000000 PUSH1 0x0 MSTORE PUSH1 0x11 PUSH1 0x4 MSTORE PUSH1 0x24 PUSH1 0x0 REVERT JUMPDEST PUSH1 0x0 PUSH2 0x2036 DUP3 PUSH2 0x1A26 JUMP JUMPDEST SWAP2 POP PUSH2 0x2041 DUP4 PUSH2 0x1A26 JUMP JUMPDEST SWAP3 POP DUP3 DUP3 SUB SWAP1 POP DUP2 DUP2 GT ISZERO PUSH2 0x2059 JUMPI PUSH2 0x2058 PUSH2 0x1FFC JUMP JUMPDEST JUMPDEST SWAP3 SWAP2 POP POP JUMP JUMPDEST PUSH1 0x0 PUSH1 0x60 DUP3 ADD SWAP1 POP PUSH2 0x2074 PUSH1 0x0 DUP4 ADD DUP7 PUSH2 0x1A30 JUMP JUMPDEST PUSH2 0x2081 PUSH1 0x20 DUP4 ADD DUP6 PUSH2 0x1B8C JUMP JUMPDEST PUSH2 0x208E PUSH1 0x40 DUP4 ADD DUP5 PUSH2 0x1A30 JUMP JUMPDEST SWAP5 SWAP4 POP POP POP POP JUMP JUMPDEST PUSH1 0x0 PUSH1 0x80 DUP3 ADD SWAP1 POP PUSH2 0x20AB PUSH1 0x0 DUP4 ADD DUP8 PUSH2 0x1A30 JUMP JUMPDEST PUSH2 0x20B8 PUSH1 0x20 DUP4 ADD DUP7 PUSH2 0x1B8C JUMP JUMPDEST PUSH2 0x20C5 PUSH1 0x40 DUP4 ADD DUP6 PUSH2 0x1A30 JUMP JUMPDEST PUSH2 0x20D2 PUSH1 0x60 DUP4 ADD DUP5 PUSH2 0x1C03 JUMP JUMPDEST SWAP6 SWAP5 POP POP POP POP POP JUMP JUMPDEST PUSH1 0x0 PUSH2 0x20E6 DUP3 PUSH2 0x1A26 JUMP JUMPDEST SWAP2 POP PUSH2 0x20F1 DUP4 PUSH2 0x1A26 JUMP JUMPDEST SWAP3 POP DUP3 DUP3 ADD SWAP1 POP DUP1 DUP3 GT ISZERO PUSH2 0x2109 JUMPI PUSH2 0x2108 PUSH2 0x1FFC JUMP JUMPDEST JUMPDEST SWAP3 SWAP2 POP POP JUMP JUMPDEST PUSH1 0x0 PUSH1 0x20 DUP3 ADD SWAP1 POP PUSH2 0x2124 PUSH1 0x0 DUP4 ADD DUP5 PUSH2 0x1C03 JUMP JUMPDEST SWAP3 SWAP2 POP POP JUMP JUMPDEST PUSH32 0x4E487B7100000000000000000000000000000000000000000000000000000000 PUSH1 0x0 MSTORE PUSH1 0x32 PUSH1 0x4 MSTORE PUSH1 0x24 PUSH1 0x0 REVERT JUMPDEST PUSH1 0x0 PUSH2 0x2164 DUP3 PUSH2 0x1A26 JUMP JUMPDEST SWAP2 POP PUSH32 0xFFFFFFFFFFFFFFFFFFFFFFFFFFFFFFFFFFFFFFFFFFFFFFFFFFFFFFFFFFFFFFFF DUP3 SUB PUSH2 0x2196 JUMPI PUSH2 0x2195 PUSH2 0x1FFC JUMP JUMPDEST JUMPDEST PUSH1 0x1 DUP3 ADD SWAP1 POP SWAP2 SWAP1 POP JUMP JUMPDEST PUSH1 0x0 PUSH1 0x60 DUP3 ADD SWAP1 POP PUSH2 0x21B6 PUSH1 0x0 DUP4 ADD DUP7 PUSH2 0x1B8C JUMP JUMPDEST PUSH2 0x21C3 PUSH1 0x20 DUP4 ADD DUP6 PUSH2 0x1B8C JUMP JUMPDEST PUSH2 0x21D0 PUSH1 0x40 DUP4 ADD DUP5 PUSH2 0x1A30 JUMP JUMPDEST SWAP5 SWAP4 POP POP POP POP JUMP INVALID LOG2 PUSH5 0x6970667358 0x22 SLT KECCAK256 PUSH17 0x98F1D196ABC45AB7198840B67FA7728F99 BASEFEE 0x5F 0xA8 0xBB EXP 0xDA PUSH16 0xD69E97B749561264736F6C6343000811 STOP CALLER "
				},
				"gasEstimates": {
					"creation": {
						"codeDepositCost": "1743600",
						"executionCost": "infinite",
						"totalCost": "infinite"
					},
					"external": {
						"": "197",
						"admins(uint256,address)": "3111",
						"campaigns(uint256)": "infinite",
						"cancel(uint256)": "infinite",
						"claim(uint256)": "infinite",
						"currentId()": "2473",
						"getValueClosed()": "2586",
						"getValueOpen()": "2586",
						"launch(uint256)": "infinite",
						"makeAdmin(uint256,address)": "36146",
						"pledge(uint256,uint256)": "infinite",
						"pledgers(uint256,uint256)": "infinite",
						"pledges(uint256,address)": "infinite",
						"refund(uint256,address)": "infinite",
						"refundAll(uint256)": "infinite",
						"revokeAdmin(uint256,address)": "36101",
						"setState(uint256)": "30483",
						"token()": "infinite"
					}
				},
				"methodIdentifiers": {
					"admins(uint256,address)": "0b46056b",
					"campaigns(uint256)": "141961bc",
					"cancel(uint256)": "40e58ee5",
					"claim(uint256)": "379607f5",
					"currentId()": "e00dd161",
					"getValueClosed()": "6244c42f",
					"getValueOpen()": "92f77154",
					"launch(uint256)": "85b12c7c",
					"makeAdmin(uint256,address)": "a41c57bc",
					"pledge(uint256,uint256)": "fde327be",
					"pledgers(uint256,uint256)": "51b1e474",
					"pledges(uint256,address)": "8e97f524",
					"refund(uint256,address)": "7ad226dc",
					"refundAll(uint256)": "e9fee16f",
					"revokeAdmin(uint256,address)": "ba282398",
					"setState(uint256)": "a9e966b7",
					"token()": "fc0c546a"
				}
			},
			"storageLayout": {
				"storage": [
					{
						"astId": 32,
						"contract": "CrowdFunding_v1.sol:Crowd",
						"label": "testMapping",
						"offset": 0,
						"slot": "0",
						"type": "t_mapping(t_uint256,t_uint256)"
					},
					{
						"astId": 42,
						"contract": "CrowdFunding_v1.sol:Crowd",
						"label": "campaigns",
						"offset": 0,
						"slot": "1",
						"type": "t_mapping(t_uint256,t_struct(Campaign)25_storage)"
					},
					{
						"astId": 45,
						"contract": "CrowdFunding_v1.sol:Crowd",
						"label": "currentId",
						"offset": 0,
						"slot": "2",
						"type": "t_uint256"
					},
					{
						"astId": 52,
						"contract": "CrowdFunding_v1.sol:Crowd",
						"label": "pledges",
						"offset": 0,
						"slot": "3",
						"type": "t_mapping(t_uint256,t_mapping(t_address,t_uint256))"
					},
					{
						"astId": 58,
						"contract": "CrowdFunding_v1.sol:Crowd",
						"label": "pledgers",
						"offset": 0,
						"slot": "4",
						"type": "t_mapping(t_uint256,t_array(t_address)dyn_storage)"
					},
					{
						"astId": 65,
						"contract": "CrowdFunding_v1.sol:Crowd",
						"label": "admins",
						"offset": 0,
						"slot": "5",
						"type": "t_mapping(t_uint256,t_mapping(t_address,t_bool))"
					}
				],
				"types": {
					"t_address": {
						"encoding": "inplace",
						"label": "address",
						"numberOfBytes": "20"
					},
					"t_array(t_address)dyn_storage": {
						"base": "t_address",
						"encoding": "dynamic_array",
						"label": "address[]",
						"numberOfBytes": "32"
					},
					"t_bool": {
						"encoding": "inplace",
						"label": "bool",
						"numberOfBytes": "1"
					},
					"t_enum(State)28": {
						"encoding": "inplace",
						"label": "enum Crowd.State",
						"numberOfBytes": "1"
					},
					"t_mapping(t_address,t_bool)": {
						"encoding": "mapping",
						"key": "t_address",
						"label": "mapping(address => bool)",
						"numberOfBytes": "32",
						"value": "t_bool"
					},
					"t_mapping(t_address,t_uint256)": {
						"encoding": "mapping",
						"key": "t_address",
						"label": "mapping(address => uint256)",
						"numberOfBytes": "32",
						"value": "t_uint256"
					},
					"t_mapping(t_uint256,t_array(t_address)dyn_storage)": {
						"encoding": "mapping",
						"key": "t_uint256",
						"label": "mapping(uint256 => address[])",
						"numberOfBytes": "32",
						"value": "t_array(t_address)dyn_storage"
					},
					"t_mapping(t_uint256,t_mapping(t_address,t_bool))": {
						"encoding": "mapping",
						"key": "t_uint256",
						"label": "mapping(uint256 => mapping(address => bool))",
						"numberOfBytes": "32",
						"value": "t_mapping(t_address,t_bool)"
					},
					"t_mapping(t_uint256,t_mapping(t_address,t_uint256))": {
						"encoding": "mapping",
						"key": "t_uint256",
						"label": "mapping(uint256 => mapping(address => uint256))",
						"numberOfBytes": "32",
						"value": "t_mapping(t_address,t_uint256)"
					},
					"t_mapping(t_uint256,t_struct(Campaign)25_storage)": {
						"encoding": "mapping",
						"key": "t_uint256",
						"label": "mapping(uint256 => struct Crowd.Campaign)",
						"numberOfBytes": "32",
						"value": "t_struct(Campaign)25_storage"
					},
					"t_mapping(t_uint256,t_uint256)": {
						"encoding": "mapping",
						"key": "t_uint256",
						"label": "mapping(uint256 => uint256)",
						"numberOfBytes": "32",
						"value": "t_uint256"
					},
					"t_struct(Campaign)25_storage": {
						"encoding": "inplace",
						"label": "struct Crowd.Campaign",
						"members": [
							{
								"astId": 15,
								"contract": "CrowdFunding_v1.sol:Crowd",
								"label": "owner",
								"offset": 0,
								"slot": "0",
								"type": "t_address"
							},
							{
								"astId": 17,
								"contract": "CrowdFunding_v1.sol:Crowd",
								"label": "goal",
								"offset": 0,
								"slot": "1",
								"type": "t_uint256"
							},
							{
								"astId": 19,
								"contract": "CrowdFunding_v1.sol:Crowd",
								"label": "pledged",
								"offset": 0,
								"slot": "2",
								"type": "t_uint256"
							},
							{
								"astId": 22,
								"contract": "CrowdFunding_v1.sol:Crowd",
								"label": "state",
								"offset": 0,
								"slot": "3",
								"type": "t_enum(State)28"
							},
							{
								"astId": 24,
								"contract": "CrowdFunding_v1.sol:Crowd",
								"label": "claimed",
								"offset": 1,
								"slot": "3",
								"type": "t_bool"
							}
						],
						"numberOfBytes": "128"
					},
					"t_uint256": {
						"encoding": "inplace",
						"label": "uint256",
						"numberOfBytes": "32"
					}
				}
			},
			"userdoc": {
				"errors": {
					"ContributionsClosed()": [
						{
							"notice": "Thrown when trying to contribute while contributions are closed"
						}
					],
					"RefundsClosed()": [
						{
							"notice": "Thrown when trying to claim a refund while refunds are closed"
						}
					],
					"Unauthorized()": [
						{
							"notice": "Thrown when trying to change the state of the campaign or renounce the contract without being the manager"
						}
					]
				},
				"events": {
					"Launched(uint256,address,uint256,uint8)": {
						"notice": "EVENTS ///"
					}
				},
				"kind": "user",
				"methods": {
					"admins(uint256,address)": {
						"notice": "mapping that keeps the addressess and admin rights of campaign managers"
					},
					"campaigns(uint256)": {
						"notice": "mapping keeps the campaigns' id"
					},
					"currentId()": {
						"notice": "id of the current campaign"
					},
					"getValueClosed()": {
						"notice": "FUNCTIONS ///"
					},
					"pledgers(uint256,uint256)": {
						"notice": "mapping that keeps the addressess and pledges of all the donators of the campaign"
					},
					"pledges(uint256,address)": {
						"notice": "mapping that keeps the addressess and pledges of all the donators of the campaign"
					},
					"token()": {
						"notice": "url to the token "
					}
				},
				"version": 1
			}
		}
	}
}