{
	"ERC20.sol": {
		"TokenSell": {
			"abi": [
				{
					"inputs": [
						{
							"internalType": "contract IERC20",
							"name": "_token",
							"type": "address"
						}
					],
					"stateMutability": "nonpayable",
					"type": "constructor"
				},
				{
					"anonymous": false,
					"inputs": [
						{
							"indexed": true,
							"internalType": "address",
							"name": "buyer",
							"type": "address"
						},
						{
							"indexed": false,
							"internalType": "uint256",
							"name": "amount",
							"type": "uint256"
						}
					],
					"name": "Bought",
					"type": "event"
				},
				{
					"anonymous": false,
					"inputs": [
						{
							"indexed": true,
							"internalType": "address",
							"name": "seller",
							"type": "address"
						},
						{
							"indexed": false,
							"internalType": "uint256",
							"name": "amount",
							"type": "uint256"
						}
					],
					"name": "Sell",
					"type": "event"
				},
				{
					"stateMutability": "payable",
					"type": "fallback"
				},
				{
					"inputs": [],
					"name": "balance",
					"outputs": [
						{
							"internalType": "uint256",
							"name": "",
							"type": "uint256"
						}
					],
					"stateMutability": "view",
					"type": "function"
				},
				{
					"inputs": [],
					"name": "buy",
					"outputs": [],
					"stateMutability": "payable",
					"type": "function"
				},
				{
					"inputs": [
						{
							"internalType": "uint256",
							"name": "amount",
							"type": "uint256"
						}
					],
					"name": "sell",
					"outputs": [],
					"stateMutability": "nonpayable",
					"type": "function"
				},
				{
					"inputs": [],
					"name": "thisAddr",
					"outputs": [
						{
							"internalType": "address",
							"name": "",
							"type": "address"
						}
					],
					"stateMutability": "view",
					"type": "function"
				},
				{
					"inputs": [],
					"name": "token",
					"outputs": [
						{
							"internalType": "contract IERC20",
							"name": "",
							"type": "address"
						}
					],
					"stateMutability": "view",
					"type": "function"
				},
				{
					"inputs": [
						{
							"internalType": "uint256",
							"name": "amount",
							"type": "uint256"
						}
					],
					"name": "withdraw",
					"outputs": [],
					"stateMutability": "nonpayable",
					"type": "function"
				},
				{
					"stateMutability": "payable",
					"type": "receive"
				}
			],
			"devdoc": {
				"kind": "dev",
				"methods": {},
				"version": 1
			},
			"evm": {
				"assembly": "    /* \"ERC20.sol\":2349:4014  contract TokenSell {... */\n  mstore(0x40, 0x80)\n    /* \"ERC20.sol\":2455:2459  this */\n  address\n    /* \"ERC20.sol\":2421:2460  address public thisAddr = address(this) */\n  0x02\n  exp(0x0100, 0x00)\n  dup2\n  sload\n  dup2\n  0xffffffffffffffffffffffffffffffffffffffff\n  mul\n  not\n  and\n  swap1\n  dup4\n  0xffffffffffffffffffffffffffffffffffffffff\n  and\n  mul\n  or\n  swap1\n  sstore\n  pop\n    /* \"ERC20.sol\":2580:2669  constructor(IERC20 _token) {... */\n  callvalue\n  dup1\n  iszero\n  tag_1\n  jumpi\n  0x00\n  dup1\n  revert\ntag_1:\n  pop\n  mload(0x40)\n  sub(codesize, bytecodeSize)\n  dup1\n  bytecodeSize\n  dup4\n  codecopy\n  dup2\n  dup2\n  add\n  0x40\n  mstore\n  dup2\n  add\n  swap1\n  tag_2\n  swap2\n  swap1\n  tag_3\n  jump\t// in\ntag_2:\n    /* \"ERC20.sol\":2626:2632  _token */\n  dup1\n    /* \"ERC20.sol\":2618:2623  token */\n  0x00\n  dup1\n    /* \"ERC20.sol\":2618:2632  token = _token */\n  0x0100\n  exp\n  dup2\n  sload\n  dup2\n  0xffffffffffffffffffffffffffffffffffffffff\n  mul\n  not\n  and\n  swap1\n  dup4\n  0xffffffffffffffffffffffffffffffffffffffff\n  and\n  mul\n  or\n  swap1\n  sstore\n  pop\n    /* \"ERC20.sol\":2651:2661  msg.sender */\n  caller\n    /* \"ERC20.sol\":2643:2648  owner */\n  0x01\n  0x00\n    /* \"ERC20.sol\":2643:2661  owner = msg.sender */\n  0x0100\n  exp\n  dup2\n  sload\n  dup2\n  0xffffffffffffffffffffffffffffffffffffffff\n  mul\n  not\n  and\n  swap1\n  dup4\n  0xffffffffffffffffffffffffffffffffffffffff\n  and\n  mul\n  or\n  swap1\n  sstore\n  pop\n    /* \"ERC20.sol\":2580:2669  constructor(IERC20 _token) {... */\n  pop\n    /* \"ERC20.sol\":2349:4014  contract TokenSell {... */\n  jump(tag_6)\n    /* \"#utility.yul\":88:205   */\ntag_8:\n    /* \"#utility.yul\":197:198   */\n  0x00\n    /* \"#utility.yul\":194:195   */\n  dup1\n    /* \"#utility.yul\":187:199   */\n  revert\n    /* \"#utility.yul\":334:460   */\ntag_10:\n    /* \"#utility.yul\":371:378   */\n  0x00\n    /* \"#utility.yul\":411:453   */\n  0xffffffffffffffffffffffffffffffffffffffff\n    /* \"#utility.yul\":404:409   */\n  dup3\n    /* \"#utility.yul\":400:454   */\n  and\n    /* \"#utility.yul\":389:454   */\n  swap1\n  pop\n    /* \"#utility.yul\":334:460   */\n  swap2\n  swap1\n  pop\n  jump\t// out\n    /* \"#utility.yul\":466:562   */\ntag_11:\n    /* \"#utility.yul\":503:510   */\n  0x00\n    /* \"#utility.yul\":532:556   */\n  tag_21\n    /* \"#utility.yul\":550:555   */\n  dup3\n    /* \"#utility.yul\":532:556   */\n  tag_10\n  jump\t// in\ntag_21:\n    /* \"#utility.yul\":521:556   */\n  swap1\n  pop\n    /* \"#utility.yul\":466:562   */\n  swap2\n  swap1\n  pop\n  jump\t// out\n    /* \"#utility.yul\":568:678   */\ntag_12:\n    /* \"#utility.yul\":619:626   */\n  0x00\n    /* \"#utility.yul\":648:672   */\n  tag_23\n    /* \"#utility.yul\":666:671   */\n  dup3\n    /* \"#utility.yul\":648:672   */\n  tag_11\n  jump\t// in\ntag_23:\n    /* \"#utility.yul\":637:672   */\n  swap1\n  pop\n    /* \"#utility.yul\":568:678   */\n  swap2\n  swap1\n  pop\n  jump\t// out\n    /* \"#utility.yul\":684:834   */\ntag_13:\n    /* \"#utility.yul\":771:809   */\n  tag_25\n    /* \"#utility.yul\":803:808   */\n  dup2\n    /* \"#utility.yul\":771:809   */\n  tag_12\n  jump\t// in\ntag_25:\n    /* \"#utility.yul\":764:769   */\n  dup2\n    /* \"#utility.yul\":761:810   */\n  eq\n    /* \"#utility.yul\":751:828   */\n  tag_26\n  jumpi\n    /* \"#utility.yul\":824:825   */\n  0x00\n    /* \"#utility.yul\":821:822   */\n  dup1\n    /* \"#utility.yul\":814:826   */\n  revert\n    /* \"#utility.yul\":751:828   */\ntag_26:\n    /* \"#utility.yul\":684:834   */\n  pop\n  jump\t// out\n    /* \"#utility.yul\":840:1011   */\ntag_14:\n    /* \"#utility.yul\":911:916   */\n  0x00\n    /* \"#utility.yul\":942:948   */\n  dup2\n    /* \"#utility.yul\":936:949   */\n  mload\n    /* \"#utility.yul\":927:949   */\n  swap1\n  pop\n    /* \"#utility.yul\":958:1005   */\n  tag_28\n    /* \"#utility.yul\":999:1004   */\n  dup2\n    /* \"#utility.yul\":958:1005   */\n  tag_13\n  jump\t// in\ntag_28:\n    /* \"#utility.yul\":840:1011   */\n  swap3\n  swap2\n  pop\n  pop\n  jump\t// out\n    /* \"#utility.yul\":1017:1396   */\ntag_3:\n    /* \"#utility.yul\":1101:1107   */\n  0x00\n    /* \"#utility.yul\":1150:1152   */\n  0x20\n    /* \"#utility.yul\":1138:1147   */\n  dup3\n    /* \"#utility.yul\":1129:1136   */\n  dup5\n    /* \"#utility.yul\":1125:1148   */\n  sub\n    /* \"#utility.yul\":1121:1153   */\n  slt\n    /* \"#utility.yul\":1118:1237   */\n  iszero\n  tag_30\n  jumpi\n    /* \"#utility.yul\":1156:1235   */\n  tag_31\n  tag_8\n  jump\t// in\ntag_31:\n    /* \"#utility.yul\":1118:1237   */\ntag_30:\n    /* \"#utility.yul\":1276:1277   */\n  0x00\n    /* \"#utility.yul\":1301:1379   */\n  tag_32\n    /* \"#utility.yul\":1371:1378   */\n  dup5\n    /* \"#utility.yul\":1362:1368   */\n  dup3\n    /* \"#utility.yul\":1351:1360   */\n  dup6\n    /* \"#utility.yul\":1347:1369   */\n  add\n    /* \"#utility.yul\":1301:1379   */\n  tag_14\n  jump\t// in\ntag_32:\n    /* \"#utility.yul\":1291:1379   */\n  swap2\n  pop\n    /* \"#utility.yul\":1247:1389   */\n  pop\n    /* \"#utility.yul\":1017:1396   */\n  swap3\n  swap2\n  pop\n  pop\n  jump\t// out\n    /* \"ERC20.sol\":2349:4014  contract TokenSell {... */\ntag_6:\n  dataSize(sub_0)\n  dup1\n  dataOffset(sub_0)\n  0x00\n  codecopy\n  0x00\n  return\nstop\n\nsub_0: assembly {\n        /* \"ERC20.sol\":2349:4014  contract TokenSell {... */\n      mstore(0x40, 0x80)\n      jumpi(tag_1, lt(calldatasize, 0x04))\n      shr(0xe0, calldataload(0x00))\n      dup1\n      0x2e1a7d4d\n      eq\n      tag_3\n      jumpi\n      dup1\n      0xa6f2ae3a\n      eq\n      tag_4\n      jumpi\n      dup1\n      0xb69ef8a8\n      eq\n      tag_5\n      jumpi\n      dup1\n      0xd9ef58a5\n      eq\n      tag_6\n      jumpi\n      dup1\n      0xe4849b32\n      eq\n      tag_7\n      jumpi\n      dup1\n      0xfc0c546a\n      eq\n      tag_8\n      jumpi\n      jump(tag_2)\n    tag_1:\n      jumpi(tag_2, calldatasize)\n      stop\n    tag_2:\n      stop\n        /* \"ERC20.sol\":3650:3813  function withdraw(uint amount) public onlyOwner {... */\n    tag_3:\n      callvalue\n      dup1\n      iszero\n      tag_13\n      jumpi\n      0x00\n      dup1\n      revert\n    tag_13:\n      pop\n      tag_14\n      0x04\n      dup1\n      calldatasize\n      sub\n      dup2\n      add\n      swap1\n      tag_15\n      swap2\n      swap1\n      tag_16\n      jump\t// in\n    tag_15:\n      tag_17\n      jump\t// in\n    tag_14:\n      stop\n        /* \"ERC20.sol\":2875:3248  function buy() public payable {... */\n    tag_4:\n      tag_18\n      tag_19\n      jump\t// in\n    tag_18:\n      stop\n        /* \"ERC20.sol\":2780:2867  function balance() public view returns(uint) {... */\n    tag_5:\n      callvalue\n      dup1\n      iszero\n      tag_20\n      jumpi\n      0x00\n      dup1\n      revert\n    tag_20:\n      pop\n      tag_21\n      tag_22\n      jump\t// in\n    tag_21:\n      mload(0x40)\n      tag_23\n      swap2\n      swap1\n      tag_24\n      jump\t// in\n    tag_23:\n      mload(0x40)\n      dup1\n      swap2\n      sub\n      swap1\n      return\n        /* \"ERC20.sol\":2421:2460  address public thisAddr = address(this) */\n    tag_6:\n      callvalue\n      dup1\n      iszero\n      tag_25\n      jumpi\n      0x00\n      dup1\n      revert\n    tag_25:\n      pop\n      tag_26\n      tag_27\n      jump\t// in\n    tag_26:\n      mload(0x40)\n      tag_28\n      swap2\n      swap1\n      tag_29\n      jump\t// in\n    tag_28:\n      mload(0x40)\n      dup1\n      swap2\n      sub\n      swap1\n      return\n        /* \"ERC20.sol\":3256:3642  function sell(uint amount) public {... */\n    tag_7:\n      callvalue\n      dup1\n      iszero\n      tag_30\n      jumpi\n      0x00\n      dup1\n      revert\n    tag_30:\n      pop\n      tag_31\n      0x04\n      dup1\n      calldatasize\n      sub\n      dup2\n      add\n      swap1\n      tag_32\n      swap2\n      swap1\n      tag_16\n      jump\t// in\n    tag_32:\n      tag_33\n      jump\t// in\n    tag_31:\n      stop\n        /* \"ERC20.sol\":2375:2394  IERC20 public token */\n    tag_8:\n      callvalue\n      dup1\n      iszero\n      tag_34\n      jumpi\n      0x00\n      dup1\n      revert\n    tag_34:\n      pop\n      tag_35\n      tag_36\n      jump\t// in\n    tag_35:\n      mload(0x40)\n      tag_37\n      swap2\n      swap1\n      tag_38\n      jump\t// in\n    tag_37:\n      mload(0x40)\n      dup1\n      swap2\n      sub\n      swap1\n      return\n        /* \"ERC20.sol\":3650:3813  function withdraw(uint amount) public onlyOwner {... */\n    tag_17:\n        /* \"ERC20.sol\":2731:2736  owner */\n      0x01\n      0x00\n      swap1\n      sload\n      swap1\n      0x0100\n      exp\n      swap1\n      div\n      0xffffffffffffffffffffffffffffffffffffffff\n      and\n        /* \"ERC20.sol\":2717:2736  msg.sender == owner */\n      0xffffffffffffffffffffffffffffffffffffffff\n      and\n        /* \"ERC20.sol\":2717:2727  msg.sender */\n      caller\n        /* \"ERC20.sol\":2717:2736  msg.sender == owner */\n      0xffffffffffffffffffffffffffffffffffffffff\n      and\n      eq\n        /* \"ERC20.sol\":2709:2752  require(msg.sender == owner, \"Only owner!\") */\n      tag_40\n      jumpi\n      mload(0x40)\n      0x08c379a000000000000000000000000000000000000000000000000000000000\n      dup2\n      mstore\n      0x04\n      add\n      tag_41\n      swap1\n      tag_42\n      jump\t// in\n    tag_41:\n      mload(0x40)\n      dup1\n      swap2\n      sub\n      swap1\n      revert\n    tag_40:\n        /* \"ERC20.sol\":3727:3736  balance() */\n      tag_44\n        /* \"ERC20.sol\":3727:3734  balance */\n      tag_22\n        /* \"ERC20.sol\":3727:3736  balance() */\n      jump\t// in\n    tag_44:\n        /* \"ERC20.sol\":3717:3723  amount */\n      dup2\n        /* \"ERC20.sol\":3717:3736  amount <= balance() */\n      gt\n      iszero\n        /* \"ERC20.sol\":3709:3758  require(amount <= balance(), \"Not enough funds!\") */\n      tag_45\n      jumpi\n      mload(0x40)\n      0x08c379a000000000000000000000000000000000000000000000000000000000\n      dup2\n      mstore\n      0x04\n      add\n      tag_46\n      swap1\n      tag_47\n      jump\t// in\n    tag_46:\n      mload(0x40)\n      dup1\n      swap2\n      sub\n      swap1\n      revert\n    tag_45:\n        /* \"ERC20.sol\":3777:3787  msg.sender */\n      caller\n        /* \"ERC20.sol\":3769:3797  payable(msg.sender).transfer */\n      0xffffffffffffffffffffffffffffffffffffffff\n      and\n        /* \"ERC20.sol\":3769:3805  payable(msg.sender).transfer(amount) */\n      0x08fc\n        /* \"ERC20.sol\":3798:3804  amount */\n      dup3\n        /* \"ERC20.sol\":3769:3805  payable(msg.sender).transfer(amount) */\n      swap1\n      dup2\n      iszero\n      mul\n      swap1\n      mload(0x40)\n      0x00\n      mload(0x40)\n      dup1\n      dup4\n      sub\n      dup2\n      dup6\n      dup9\n      dup9\n      call\n      swap4\n      pop\n      pop\n      pop\n      pop\n      iszero\n      dup1\n      iszero\n      tag_49\n      jumpi\n      returndatasize\n      0x00\n      dup1\n      returndatacopy\n      revert(0x00, returndatasize)\n    tag_49:\n      pop\n        /* \"ERC20.sol\":3650:3813  function withdraw(uint amount) public onlyOwner {... */\n      pop\n      jump\t// out\n        /* \"ERC20.sol\":2875:3248  function buy() public payable {... */\n    tag_19:\n        /* \"ERC20.sol\":2937:2944  _rate() */\n      tag_51\n        /* \"ERC20.sol\":2937:2942  _rate */\n      tag_52\n        /* \"ERC20.sol\":2937:2944  _rate() */\n      jump\t// in\n    tag_51:\n        /* \"ERC20.sol\":2924:2933  msg.value */\n      callvalue\n        /* \"ERC20.sol\":2924:2944  msg.value >= _rate() */\n      lt\n      iszero\n        /* \"ERC20.sol\":2916:2962  require(msg.value >= _rate(), \"Incorrect sum\") */\n      tag_53\n      jumpi\n      mload(0x40)\n      0x08c379a000000000000000000000000000000000000000000000000000000000\n      dup2\n      mstore\n      0x04\n      add\n      tag_54\n      swap1\n      tag_55\n      jump\t// in\n    tag_54:\n      mload(0x40)\n      dup1\n      swap2\n      sub\n      swap1\n      revert\n    tag_53:\n        /* \"ERC20.sol\":2973:2993  uint tokensAvailable */\n      0x00\n        /* \"ERC20.sol\":2996:3001  token */\n      dup1\n      0x00\n      swap1\n      sload\n      swap1\n      0x0100\n      exp\n      swap1\n      div\n      0xffffffffffffffffffffffffffffffffffffffff\n      and\n        /* \"ERC20.sol\":2996:3011  token.balanceOf */\n      0xffffffffffffffffffffffffffffffffffffffff\n      and\n      0x70a08231\n        /* \"ERC20.sol\":3012:3020  thisAddr */\n      0x02\n      0x00\n      swap1\n      sload\n      swap1\n      0x0100\n      exp\n      swap1\n      div\n      0xffffffffffffffffffffffffffffffffffffffff\n      and\n        /* \"ERC20.sol\":2996:3021  token.balanceOf(thisAddr) */\n      mload(0x40)\n      dup3\n      0xffffffff\n      and\n      0xe0\n      shl\n      dup2\n      mstore\n      0x04\n      add\n      tag_56\n      swap2\n      swap1\n      tag_29\n      jump\t// in\n    tag_56:\n      0x20\n      mload(0x40)\n      dup1\n      dup4\n      sub\n      dup2\n      dup7\n      gas\n      staticcall\n      iszero\n      dup1\n      iszero\n      tag_58\n      jumpi\n      returndatasize\n      0x00\n      dup1\n      returndatacopy\n      revert(0x00, returndatasize)\n    tag_58:\n      pop\n      pop\n      pop\n      pop\n      mload(0x40)\n      returndatasize\n      not(0x1f)\n      0x1f\n      dup3\n      add\n      and\n      dup3\n      add\n      dup1\n      0x40\n      mstore\n      pop\n      dup2\n      add\n      swap1\n      tag_59\n      swap2\n      swap1\n      tag_60\n      jump\t// in\n    tag_59:\n        /* \"ERC20.sol\":2973:3021  uint tokensAvailable = token.balanceOf(thisAddr) */\n      swap1\n      pop\n        /* \"ERC20.sol\":3032:3048  uint tokensToBuy */\n      0x00\n        /* \"ERC20.sol\":3063:3070  _rate() */\n      tag_61\n        /* \"ERC20.sol\":3063:3068  _rate */\n      tag_52\n        /* \"ERC20.sol\":3063:3070  _rate() */\n      jump\t// in\n    tag_61:\n        /* \"ERC20.sol\":3051:3060  msg.value */\n      callvalue\n        /* \"ERC20.sol\":3051:3070  msg.value / _rate() */\n      tag_62\n      swap2\n      swap1\n      tag_63\n      jump\t// in\n    tag_62:\n        /* \"ERC20.sol\":3032:3070  uint tokensToBuy = msg.value / _rate() */\n      swap1\n      pop\n        /* \"ERC20.sol\":3105:3120  tokensAvailable */\n      dup2\n        /* \"ERC20.sol\":3090:3101  tokensToBuy */\n      dup2\n        /* \"ERC20.sol\":3090:3120  tokensToBuy <= tokensAvailable */\n      gt\n      iszero\n        /* \"ERC20.sol\":3081:3143  require (tokensToBuy <= tokensAvailable, \"Not enough tokens!\") */\n      tag_64\n      jumpi\n      mload(0x40)\n      0x08c379a000000000000000000000000000000000000000000000000000000000\n      dup2\n      mstore\n      0x04\n      add\n      tag_65\n      swap1\n      tag_66\n      jump\t// in\n    tag_65:\n      mload(0x40)\n      dup1\n      swap2\n      sub\n      swap1\n      revert\n    tag_64:\n        /* \"ERC20.sol\":3154:3159  token */\n      0x00\n      dup1\n      sload\n      swap1\n      0x0100\n      exp\n      swap1\n      div\n      0xffffffffffffffffffffffffffffffffffffffff\n      and\n        /* \"ERC20.sol\":3154:3168  token.transfer */\n      0xffffffffffffffffffffffffffffffffffffffff\n      and\n      0xa9059cbb\n        /* \"ERC20.sol\":3169:3179  msg.sender */\n      caller\n        /* \"ERC20.sol\":3181:3192  tokensToBuy */\n      dup4\n        /* \"ERC20.sol\":3154:3193  token.transfer(msg.sender, tokensToBuy) */\n      mload(0x40)\n      dup4\n      0xffffffff\n      and\n      0xe0\n      shl\n      dup2\n      mstore\n      0x04\n      add\n      tag_67\n      swap3\n      swap2\n      swap1\n      tag_68\n      jump\t// in\n    tag_67:\n      0x00\n      mload(0x40)\n      dup1\n      dup4\n      sub\n      dup2\n      0x00\n      dup8\n      dup1\n      extcodesize\n      iszero\n      dup1\n      iszero\n      tag_69\n      jumpi\n      0x00\n      dup1\n      revert\n    tag_69:\n      pop\n      gas\n      call\n      iszero\n      dup1\n      iszero\n      tag_71\n      jumpi\n      returndatasize\n      0x00\n      dup1\n      returndatacopy\n      revert(0x00, returndatasize)\n    tag_71:\n      pop\n      pop\n      pop\n      pop\n        /* \"ERC20.sol\":3216:3226  msg.sender */\n      caller\n        /* \"ERC20.sol\":3209:3240  Bought(msg.sender, tokensToBuy) */\n      0xffffffffffffffffffffffffffffffffffffffff\n      and\n      0xc55650ccda1011e1cdc769b1fbf546ebb8c97800b6072b49e06cd560305b1d67\n        /* \"ERC20.sol\":3228:3239  tokensToBuy */\n      dup3\n        /* \"ERC20.sol\":3209:3240  Bought(msg.sender, tokensToBuy) */\n      mload(0x40)\n      tag_72\n      swap2\n      swap1\n      tag_24\n      jump\t// in\n    tag_72:\n      mload(0x40)\n      dup1\n      swap2\n      sub\n      swap1\n      log2\n        /* \"ERC20.sol\":2905:3248  {... */\n      pop\n      pop\n        /* \"ERC20.sol\":2875:3248  function buy() public payable {... */\n      jump\t// out\n        /* \"ERC20.sol\":2780:2867  function balance() public view returns(uint) {... */\n    tag_22:\n        /* \"ERC20.sol\":2819:2823  uint */\n      0x00\n        /* \"ERC20.sol\":2843:2851  thisAddr */\n      0x02\n      0x00\n      swap1\n      sload\n      swap1\n      0x0100\n      exp\n      swap1\n      div\n      0xffffffffffffffffffffffffffffffffffffffff\n      and\n        /* \"ERC20.sol\":2843:2859  thisAddr.balance */\n      0xffffffffffffffffffffffffffffffffffffffff\n      and\n      balance\n        /* \"ERC20.sol\":2836:2859  return thisAddr.balance */\n      swap1\n      pop\n        /* \"ERC20.sol\":2780:2867  function balance() public view returns(uint) {... */\n      swap1\n      jump\t// out\n        /* \"ERC20.sol\":2421:2460  address public thisAddr = address(this) */\n    tag_27:\n      0x02\n      0x00\n      swap1\n      sload\n      swap1\n      0x0100\n      exp\n      swap1\n      div\n      0xffffffffffffffffffffffffffffffffffffffff\n      and\n      dup2\n      jump\t// out\n        /* \"ERC20.sol\":3256:3642  function sell(uint amount) public {... */\n    tag_33:\n        /* \"ERC20.sol\":3318:3319  0 */\n      0x00\n        /* \"ERC20.sol\":3309:3315  amount */\n      dup2\n        /* \"ERC20.sol\":3309:3319  amount > 0 */\n      gt\n        /* \"ERC20.sol\":3301:3353  require(amount > 0, \"Tokens must be greater than 0\") */\n      tag_75\n      jumpi\n      mload(0x40)\n      0x08c379a000000000000000000000000000000000000000000000000000000000\n      dup2\n      mstore\n      0x04\n      add\n      tag_76\n      swap1\n      tag_77\n      jump\t// in\n    tag_76:\n      mload(0x40)\n      dup1\n      swap2\n      sub\n      swap1\n      revert\n    tag_75:\n        /* \"ERC20.sol\":3364:3378  uint allowance */\n      0x00\n        /* \"ERC20.sol\":3381:3386  token */\n      dup1\n      0x00\n      swap1\n      sload\n      swap1\n      0x0100\n      exp\n      swap1\n      div\n      0xffffffffffffffffffffffffffffffffffffffff\n      and\n        /* \"ERC20.sol\":3381:3396  token.allowance */\n      0xffffffffffffffffffffffffffffffffffffffff\n      and\n      0xdd62ed3e\n        /* \"ERC20.sol\":3397:3407  msg.sender */\n      caller\n        /* \"ERC20.sol\":3409:3417  thisAddr */\n      0x02\n      0x00\n      swap1\n      sload\n      swap1\n      0x0100\n      exp\n      swap1\n      div\n      0xffffffffffffffffffffffffffffffffffffffff\n      and\n        /* \"ERC20.sol\":3381:3418  token.allowance(msg.sender, thisAddr) */\n      mload(0x40)\n      dup4\n      0xffffffff\n      and\n      0xe0\n      shl\n      dup2\n      mstore\n      0x04\n      add\n      tag_78\n      swap3\n      swap2\n      swap1\n      tag_79\n      jump\t// in\n    tag_78:\n      0x20\n      mload(0x40)\n      dup1\n      dup4\n      sub\n      dup2\n      dup7\n      gas\n      staticcall\n      iszero\n      dup1\n      iszero\n      tag_81\n      jumpi\n      returndatasize\n      0x00\n      dup1\n      returndatacopy\n      revert(0x00, returndatasize)\n    tag_81:\n      pop\n      pop\n      pop\n      pop\n      mload(0x40)\n      returndatasize\n      not(0x1f)\n      0x1f\n      dup3\n      add\n      and\n      dup3\n      add\n      dup1\n      0x40\n      mstore\n      pop\n      dup2\n      add\n      swap1\n      tag_82\n      swap2\n      swap1\n      tag_60\n      jump\t// in\n    tag_82:\n        /* \"ERC20.sol\":3364:3418  uint allowance = token.allowance(msg.sender, thisAddr) */\n      swap1\n      pop\n        /* \"ERC20.sol\":3450:3456  amount */\n      dup2\n        /* \"ERC20.sol\":3437:3446  allowance */\n      dup2\n        /* \"ERC20.sol\":3437:3456  allowance >= amount */\n      lt\n      iszero\n        /* \"ERC20.sol\":3429:3476  require(allowance >= amount, \"Wrong allowance\") */\n      tag_83\n      jumpi\n      mload(0x40)\n      0x08c379a000000000000000000000000000000000000000000000000000000000\n      dup2\n      mstore\n      0x04\n      add\n      tag_84\n      swap1\n      tag_85\n      jump\t// in\n    tag_84:\n      mload(0x40)\n      dup1\n      swap2\n      sub\n      swap1\n      revert\n    tag_83:\n        /* \"ERC20.sol\":3489:3494  token */\n      0x00\n      dup1\n      sload\n      swap1\n      0x0100\n      exp\n      swap1\n      div\n      0xffffffffffffffffffffffffffffffffffffffff\n      and\n        /* \"ERC20.sol\":3489:3507  token.transferFrom */\n      0xffffffffffffffffffffffffffffffffffffffff\n      and\n      0x23b872dd\n        /* \"ERC20.sol\":3508:3518  msg.sender */\n      caller\n        /* \"ERC20.sol\":3520:3528  thisAddr */\n      0x02\n      0x00\n      swap1\n      sload\n      swap1\n      0x0100\n      exp\n      swap1\n      div\n      0xffffffffffffffffffffffffffffffffffffffff\n      and\n        /* \"ERC20.sol\":3530:3536  amount */\n      dup6\n        /* \"ERC20.sol\":3489:3537  token.transferFrom(msg.sender, thisAddr, amount) */\n      mload(0x40)\n      dup5\n      0xffffffff\n      and\n      0xe0\n      shl\n      dup2\n      mstore\n      0x04\n      add\n      tag_86\n      swap4\n      swap3\n      swap2\n      swap1\n      tag_87\n      jump\t// in\n    tag_86:\n      0x00\n      mload(0x40)\n      dup1\n      dup4\n      sub\n      dup2\n      0x00\n      dup8\n      dup1\n      extcodesize\n      iszero\n      dup1\n      iszero\n      tag_88\n      jumpi\n      0x00\n      dup1\n      revert\n    tag_88:\n      pop\n      gas\n      call\n      iszero\n      dup1\n      iszero\n      tag_90\n      jumpi\n      returndatasize\n      0x00\n      dup1\n      returndatacopy\n      revert(0x00, returndatasize)\n    tag_90:\n      pop\n      pop\n      pop\n      pop\n        /* \"ERC20.sol\":3556:3566  msg.sender */\n      caller\n        /* \"ERC20.sol\":3548:3576  payable(msg.sender).transfer */\n      0xffffffffffffffffffffffffffffffffffffffff\n      and\n        /* \"ERC20.sol\":3548:3594  payable(msg.sender).transfer(amount * _rate()) */\n      0x08fc\n        /* \"ERC20.sol\":3586:3593  _rate() */\n      tag_91\n        /* \"ERC20.sol\":3586:3591  _rate */\n      tag_52\n        /* \"ERC20.sol\":3586:3593  _rate() */\n      jump\t// in\n    tag_91:\n        /* \"ERC20.sol\":3577:3583  amount */\n      dup5\n        /* \"ERC20.sol\":3577:3593  amount * _rate() */\n      tag_92\n      swap2\n      swap1\n      tag_93\n      jump\t// in\n    tag_92:\n        /* \"ERC20.sol\":3548:3594  payable(msg.sender).transfer(amount * _rate()) */\n      swap1\n      dup2\n      iszero\n      mul\n      swap1\n      mload(0x40)\n      0x00\n      mload(0x40)\n      dup1\n      dup4\n      sub\n      dup2\n      dup6\n      dup9\n      dup9\n      call\n      swap4\n      pop\n      pop\n      pop\n      pop\n      iszero\n      dup1\n      iszero\n      tag_95\n      jumpi\n      returndatasize\n      0x00\n      dup1\n      returndatacopy\n      revert(0x00, returndatasize)\n    tag_95:\n      pop\n        /* \"ERC20.sol\":3615:3625  msg.sender */\n      caller\n        /* \"ERC20.sol\":3610:3634  Sell(msg.sender, amount) */\n      0xffffffffffffffffffffffffffffffffffffffff\n      and\n      0x5e5e995ce3133561afceaa51a9a154d5db228cd7525d34df5185582c18d3df09\n        /* \"ERC20.sol\":3627:3633  amount */\n      dup4\n        /* \"ERC20.sol\":3610:3634  Sell(msg.sender, amount) */\n      mload(0x40)\n      tag_96\n      swap2\n      swap1\n      tag_24\n      jump\t// in\n    tag_96:\n      mload(0x40)\n      dup1\n      swap2\n      sub\n      swap1\n      log2\n        /* \"ERC20.sol\":3290:3642  {... */\n      pop\n        /* \"ERC20.sol\":3256:3642  function sell(uint amount) public {... */\n      pop\n      jump\t// out\n        /* \"ERC20.sol\":2375:2394  IERC20 public token */\n    tag_36:\n      0x00\n      dup1\n      sload\n      swap1\n      0x0100\n      exp\n      swap1\n      div\n      0xffffffffffffffffffffffffffffffffffffffff\n      and\n      dup2\n      jump\t// out\n        /* \"ERC20.sol\":3821:3898  function _rate() private pure returns(uint) {... */\n    tag_52:\n        /* \"ERC20.sol\":3859:3863  uint */\n      0x00\n        /* \"ERC20.sol\":3883:3890  1 ether */\n      0x0de0b6b3a7640000\n        /* \"ERC20.sol\":3876:3890  return 1 ether */\n      swap1\n      pop\n        /* \"ERC20.sol\":3821:3898  function _rate() private pure returns(uint) {... */\n      swap1\n      jump\t// out\n        /* \"#utility.yul\":88:205   */\n    tag_99:\n        /* \"#utility.yul\":197:198   */\n      0x00\n        /* \"#utility.yul\":194:195   */\n      dup1\n        /* \"#utility.yul\":187:199   */\n      revert\n        /* \"#utility.yul\":334:411   */\n    tag_101:\n        /* \"#utility.yul\":371:378   */\n      0x00\n        /* \"#utility.yul\":400:405   */\n      dup2\n        /* \"#utility.yul\":389:405   */\n      swap1\n      pop\n        /* \"#utility.yul\":334:411   */\n      swap2\n      swap1\n      pop\n      jump\t// out\n        /* \"#utility.yul\":417:539   */\n    tag_102:\n        /* \"#utility.yul\":490:514   */\n      tag_135\n        /* \"#utility.yul\":508:513   */\n      dup2\n        /* \"#utility.yul\":490:514   */\n      tag_101\n      jump\t// in\n    tag_135:\n        /* \"#utility.yul\":483:488   */\n      dup2\n        /* \"#utility.yul\":480:515   */\n      eq\n        /* \"#utility.yul\":470:533   */\n      tag_136\n      jumpi\n        /* \"#utility.yul\":529:530   */\n      0x00\n        /* \"#utility.yul\":526:527   */\n      dup1\n        /* \"#utility.yul\":519:531   */\n      revert\n        /* \"#utility.yul\":470:533   */\n    tag_136:\n        /* \"#utility.yul\":417:539   */\n      pop\n      jump\t// out\n        /* \"#utility.yul\":545:684   */\n    tag_103:\n        /* \"#utility.yul\":591:596   */\n      0x00\n        /* \"#utility.yul\":629:635   */\n      dup2\n        /* \"#utility.yul\":616:636   */\n      calldataload\n        /* \"#utility.yul\":607:636   */\n      swap1\n      pop\n        /* \"#utility.yul\":645:678   */\n      tag_138\n        /* \"#utility.yul\":672:677   */\n      dup2\n        /* \"#utility.yul\":645:678   */\n      tag_102\n      jump\t// in\n    tag_138:\n        /* \"#utility.yul\":545:684   */\n      swap3\n      swap2\n      pop\n      pop\n      jump\t// out\n        /* \"#utility.yul\":690:1019   */\n    tag_16:\n        /* \"#utility.yul\":749:755   */\n      0x00\n        /* \"#utility.yul\":798:800   */\n      0x20\n        /* \"#utility.yul\":786:795   */\n      dup3\n        /* \"#utility.yul\":777:784   */\n      dup5\n        /* \"#utility.yul\":773:796   */\n      sub\n        /* \"#utility.yul\":769:801   */\n      slt\n        /* \"#utility.yul\":766:885   */\n      iszero\n      tag_140\n      jumpi\n        /* \"#utility.yul\":804:883   */\n      tag_141\n      tag_99\n      jump\t// in\n    tag_141:\n        /* \"#utility.yul\":766:885   */\n    tag_140:\n        /* \"#utility.yul\":924:925   */\n      0x00\n        /* \"#utility.yul\":949:1002   */\n      tag_142\n        /* \"#utility.yul\":994:1001   */\n      dup5\n        /* \"#utility.yul\":985:991   */\n      dup3\n        /* \"#utility.yul\":974:983   */\n      dup6\n        /* \"#utility.yul\":970:992   */\n      add\n        /* \"#utility.yul\":949:1002   */\n      tag_103\n      jump\t// in\n    tag_142:\n        /* \"#utility.yul\":939:1002   */\n      swap2\n      pop\n        /* \"#utility.yul\":895:1012   */\n      pop\n        /* \"#utility.yul\":690:1019   */\n      swap3\n      swap2\n      pop\n      pop\n      jump\t// out\n        /* \"#utility.yul\":1025:1143   */\n    tag_104:\n        /* \"#utility.yul\":1112:1136   */\n      tag_144\n        /* \"#utility.yul\":1130:1135   */\n      dup2\n        /* \"#utility.yul\":1112:1136   */\n      tag_101\n      jump\t// in\n    tag_144:\n        /* \"#utility.yul\":1107:1110   */\n      dup3\n        /* \"#utility.yul\":1100:1137   */\n      mstore\n        /* \"#utility.yul\":1025:1143   */\n      pop\n      pop\n      jump\t// out\n        /* \"#utility.yul\":1149:1371   */\n    tag_24:\n        /* \"#utility.yul\":1242:1246   */\n      0x00\n        /* \"#utility.yul\":1280:1282   */\n      0x20\n        /* \"#utility.yul\":1269:1278   */\n      dup3\n        /* \"#utility.yul\":1265:1283   */\n      add\n        /* \"#utility.yul\":1257:1283   */\n      swap1\n      pop\n        /* \"#utility.yul\":1293:1364   */\n      tag_146\n        /* \"#utility.yul\":1361:1362   */\n      0x00\n        /* \"#utility.yul\":1350:1359   */\n      dup4\n        /* \"#utility.yul\":1346:1363   */\n      add\n        /* \"#utility.yul\":1337:1343   */\n      dup5\n        /* \"#utility.yul\":1293:1364   */\n      tag_104\n      jump\t// in\n    tag_146:\n        /* \"#utility.yul\":1149:1371   */\n      swap3\n      swap2\n      pop\n      pop\n      jump\t// out\n        /* \"#utility.yul\":1377:1503   */\n    tag_105:\n        /* \"#utility.yul\":1414:1421   */\n      0x00\n        /* \"#utility.yul\":1454:1496   */\n      0xffffffffffffffffffffffffffffffffffffffff\n        /* \"#utility.yul\":1447:1452   */\n      dup3\n        /* \"#utility.yul\":1443:1497   */\n      and\n        /* \"#utility.yul\":1432:1497   */\n      swap1\n      pop\n        /* \"#utility.yul\":1377:1503   */\n      swap2\n      swap1\n      pop\n      jump\t// out\n        /* \"#utility.yul\":1509:1605   */\n    tag_106:\n        /* \"#utility.yul\":1546:1553   */\n      0x00\n        /* \"#utility.yul\":1575:1599   */\n      tag_149\n        /* \"#utility.yul\":1593:1598   */\n      dup3\n        /* \"#utility.yul\":1575:1599   */\n      tag_105\n      jump\t// in\n    tag_149:\n        /* \"#utility.yul\":1564:1599   */\n      swap1\n      pop\n        /* \"#utility.yul\":1509:1605   */\n      swap2\n      swap1\n      pop\n      jump\t// out\n        /* \"#utility.yul\":1611:1729   */\n    tag_107:\n        /* \"#utility.yul\":1698:1722   */\n      tag_151\n        /* \"#utility.yul\":1716:1721   */\n      dup2\n        /* \"#utility.yul\":1698:1722   */\n      tag_106\n      jump\t// in\n    tag_151:\n        /* \"#utility.yul\":1693:1696   */\n      dup3\n        /* \"#utility.yul\":1686:1723   */\n      mstore\n        /* \"#utility.yul\":1611:1729   */\n      pop\n      pop\n      jump\t// out\n        /* \"#utility.yul\":1735:1957   */\n    tag_29:\n        /* \"#utility.yul\":1828:1832   */\n      0x00\n        /* \"#utility.yul\":1866:1868   */\n      0x20\n        /* \"#utility.yul\":1855:1864   */\n      dup3\n        /* \"#utility.yul\":1851:1869   */\n      add\n        /* \"#utility.yul\":1843:1869   */\n      swap1\n      pop\n        /* \"#utility.yul\":1879:1950   */\n      tag_153\n        /* \"#utility.yul\":1947:1948   */\n      0x00\n        /* \"#utility.yul\":1936:1945   */\n      dup4\n        /* \"#utility.yul\":1932:1949   */\n      add\n        /* \"#utility.yul\":1923:1929   */\n      dup5\n        /* \"#utility.yul\":1879:1950   */\n      tag_107\n      jump\t// in\n    tag_153:\n        /* \"#utility.yul\":1735:1957   */\n      swap3\n      swap2\n      pop\n      pop\n      jump\t// out\n        /* \"#utility.yul\":1963:2023   */\n    tag_108:\n        /* \"#utility.yul\":1991:1994   */\n      0x00\n        /* \"#utility.yul\":2012:2017   */\n      dup2\n        /* \"#utility.yul\":2005:2017   */\n      swap1\n      pop\n        /* \"#utility.yul\":1963:2023   */\n      swap2\n      swap1\n      pop\n      jump\t// out\n        /* \"#utility.yul\":2029:2171   */\n    tag_109:\n        /* \"#utility.yul\":2079:2088   */\n      0x00\n        /* \"#utility.yul\":2112:2165   */\n      tag_156\n        /* \"#utility.yul\":2130:2164   */\n      tag_157\n        /* \"#utility.yul\":2139:2163   */\n      tag_158\n        /* \"#utility.yul\":2157:2162   */\n      dup5\n        /* \"#utility.yul\":2139:2163   */\n      tag_105\n      jump\t// in\n    tag_158:\n        /* \"#utility.yul\":2130:2164   */\n      tag_108\n      jump\t// in\n    tag_157:\n        /* \"#utility.yul\":2112:2165   */\n      tag_105\n      jump\t// in\n    tag_156:\n        /* \"#utility.yul\":2099:2165   */\n      swap1\n      pop\n        /* \"#utility.yul\":2029:2171   */\n      swap2\n      swap1\n      pop\n      jump\t// out\n        /* \"#utility.yul\":2177:2303   */\n    tag_110:\n        /* \"#utility.yul\":2227:2236   */\n      0x00\n        /* \"#utility.yul\":2260:2297   */\n      tag_160\n        /* \"#utility.yul\":2291:2296   */\n      dup3\n        /* \"#utility.yul\":2260:2297   */\n      tag_109\n      jump\t// in\n    tag_160:\n        /* \"#utility.yul\":2247:2297   */\n      swap1\n      pop\n        /* \"#utility.yul\":2177:2303   */\n      swap2\n      swap1\n      pop\n      jump\t// out\n        /* \"#utility.yul\":2309:2449   */\n    tag_111:\n        /* \"#utility.yul\":2373:2382   */\n      0x00\n        /* \"#utility.yul\":2406:2443   */\n      tag_162\n        /* \"#utility.yul\":2437:2442   */\n      dup3\n        /* \"#utility.yul\":2406:2443   */\n      tag_110\n      jump\t// in\n    tag_162:\n        /* \"#utility.yul\":2393:2443   */\n      swap1\n      pop\n        /* \"#utility.yul\":2309:2449   */\n      swap2\n      swap1\n      pop\n      jump\t// out\n        /* \"#utility.yul\":2455:2614   */\n    tag_112:\n        /* \"#utility.yul\":2556:2607   */\n      tag_164\n        /* \"#utility.yul\":2601:2606   */\n      dup2\n        /* \"#utility.yul\":2556:2607   */\n      tag_111\n      jump\t// in\n    tag_164:\n        /* \"#utility.yul\":2551:2554   */\n      dup3\n        /* \"#utility.yul\":2544:2608   */\n      mstore\n        /* \"#utility.yul\":2455:2614   */\n      pop\n      pop\n      jump\t// out\n        /* \"#utility.yul\":2620:2870   */\n    tag_38:\n        /* \"#utility.yul\":2727:2731   */\n      0x00\n        /* \"#utility.yul\":2765:2767   */\n      0x20\n        /* \"#utility.yul\":2754:2763   */\n      dup3\n        /* \"#utility.yul\":2750:2768   */\n      add\n        /* \"#utility.yul\":2742:2768   */\n      swap1\n      pop\n        /* \"#utility.yul\":2778:2863   */\n      tag_166\n        /* \"#utility.yul\":2860:2861   */\n      0x00\n        /* \"#utility.yul\":2849:2858   */\n      dup4\n        /* \"#utility.yul\":2845:2862   */\n      add\n        /* \"#utility.yul\":2836:2842   */\n      dup5\n        /* \"#utility.yul\":2778:2863   */\n      tag_112\n      jump\t// in\n    tag_166:\n        /* \"#utility.yul\":2620:2870   */\n      swap3\n      swap2\n      pop\n      pop\n      jump\t// out\n        /* \"#utility.yul\":2876:3045   */\n    tag_113:\n        /* \"#utility.yul\":2960:2971   */\n      0x00\n        /* \"#utility.yul\":2994:3000   */\n      dup3\n        /* \"#utility.yul\":2989:2992   */\n      dup3\n        /* \"#utility.yul\":2982:3001   */\n      mstore\n        /* \"#utility.yul\":3034:3038   */\n      0x20\n        /* \"#utility.yul\":3029:3032   */\n      dup3\n        /* \"#utility.yul\":3025:3039   */\n      add\n        /* \"#utility.yul\":3010:3039   */\n      swap1\n      pop\n        /* \"#utility.yul\":2876:3045   */\n      swap3\n      swap2\n      pop\n      pop\n      jump\t// out\n        /* \"#utility.yul\":3051:3212   */\n    tag_114:\n        /* \"#utility.yul\":3191:3204   */\n      0x4f6e6c79206f776e657221000000000000000000000000000000000000000000\n        /* \"#utility.yul\":3187:3188   */\n      0x00\n        /* \"#utility.yul\":3179:3185   */\n      dup3\n        /* \"#utility.yul\":3175:3189   */\n      add\n        /* \"#utility.yul\":3168:3205   */\n      mstore\n        /* \"#utility.yul\":3051:3212   */\n      pop\n      jump\t// out\n        /* \"#utility.yul\":3218:3584   */\n    tag_115:\n        /* \"#utility.yul\":3360:3363   */\n      0x00\n        /* \"#utility.yul\":3381:3448   */\n      tag_170\n        /* \"#utility.yul\":3445:3447   */\n      0x0b\n        /* \"#utility.yul\":3440:3443   */\n      dup4\n        /* \"#utility.yul\":3381:3448   */\n      tag_113\n      jump\t// in\n    tag_170:\n        /* \"#utility.yul\":3374:3448   */\n      swap2\n      pop\n        /* \"#utility.yul\":3457:3550   */\n      tag_171\n        /* \"#utility.yul\":3546:3549   */\n      dup3\n        /* \"#utility.yul\":3457:3550   */\n      tag_114\n      jump\t// in\n    tag_171:\n        /* \"#utility.yul\":3575:3577   */\n      0x20\n        /* \"#utility.yul\":3570:3573   */\n      dup3\n        /* \"#utility.yul\":3566:3578   */\n      add\n        /* \"#utility.yul\":3559:3578   */\n      swap1\n      pop\n        /* \"#utility.yul\":3218:3584   */\n      swap2\n      swap1\n      pop\n      jump\t// out\n        /* \"#utility.yul\":3590:4009   */\n    tag_42:\n        /* \"#utility.yul\":3756:3760   */\n      0x00\n        /* \"#utility.yul\":3794:3796   */\n      0x20\n        /* \"#utility.yul\":3783:3792   */\n      dup3\n        /* \"#utility.yul\":3779:3797   */\n      add\n        /* \"#utility.yul\":3771:3797   */\n      swap1\n      pop\n        /* \"#utility.yul\":3843:3852   */\n      dup2\n        /* \"#utility.yul\":3837:3841   */\n      dup2\n        /* \"#utility.yul\":3833:3853   */\n      sub\n        /* \"#utility.yul\":3829:3830   */\n      0x00\n        /* \"#utility.yul\":3818:3827   */\n      dup4\n        /* \"#utility.yul\":3814:3831   */\n      add\n        /* \"#utility.yul\":3807:3854   */\n      mstore\n        /* \"#utility.yul\":3871:4002   */\n      tag_173\n        /* \"#utility.yul\":3997:4001   */\n      dup2\n        /* \"#utility.yul\":3871:4002   */\n      tag_115\n      jump\t// in\n    tag_173:\n        /* \"#utility.yul\":3863:4002   */\n      swap1\n      pop\n        /* \"#utility.yul\":3590:4009   */\n      swap2\n      swap1\n      pop\n      jump\t// out\n        /* \"#utility.yul\":4015:4182   */\n    tag_116:\n        /* \"#utility.yul\":4155:4174   */\n      0x4e6f7420656e6f7567682066756e647321000000000000000000000000000000\n        /* \"#utility.yul\":4151:4152   */\n      0x00\n        /* \"#utility.yul\":4143:4149   */\n      dup3\n        /* \"#utility.yul\":4139:4153   */\n      add\n        /* \"#utility.yul\":4132:4175   */\n      mstore\n        /* \"#utility.yul\":4015:4182   */\n      pop\n      jump\t// out\n        /* \"#utility.yul\":4188:4554   */\n    tag_117:\n        /* \"#utility.yul\":4330:4333   */\n      0x00\n        /* \"#utility.yul\":4351:4418   */\n      tag_176\n        /* \"#utility.yul\":4415:4417   */\n      0x11\n        /* \"#utility.yul\":4410:4413   */\n      dup4\n        /* \"#utility.yul\":4351:4418   */\n      tag_113\n      jump\t// in\n    tag_176:\n        /* \"#utility.yul\":4344:4418   */\n      swap2\n      pop\n        /* \"#utility.yul\":4427:4520   */\n      tag_177\n        /* \"#utility.yul\":4516:4519   */\n      dup3\n        /* \"#utility.yul\":4427:4520   */\n      tag_116\n      jump\t// in\n    tag_177:\n        /* \"#utility.yul\":4545:4547   */\n      0x20\n        /* \"#utility.yul\":4540:4543   */\n      dup3\n        /* \"#utility.yul\":4536:4548   */\n      add\n        /* \"#utility.yul\":4529:4548   */\n      swap1\n      pop\n        /* \"#utility.yul\":4188:4554   */\n      swap2\n      swap1\n      pop\n      jump\t// out\n        /* \"#utility.yul\":4560:4979   */\n    tag_47:\n        /* \"#utility.yul\":4726:4730   */\n      0x00\n        /* \"#utility.yul\":4764:4766   */\n      0x20\n        /* \"#utility.yul\":4753:4762   */\n      dup3\n        /* \"#utility.yul\":4749:4767   */\n      add\n        /* \"#utility.yul\":4741:4767   */\n      swap1\n      pop\n        /* \"#utility.yul\":4813:4822   */\n      dup2\n        /* \"#utility.yul\":4807:4811   */\n      dup2\n        /* \"#utility.yul\":4803:4823   */\n      sub\n        /* \"#utility.yul\":4799:4800   */\n      0x00\n        /* \"#utility.yul\":4788:4797   */\n      dup4\n        /* \"#utility.yul\":4784:4801   */\n      add\n        /* \"#utility.yul\":4777:4824   */\n      mstore\n        /* \"#utility.yul\":4841:4972   */\n      tag_179\n        /* \"#utility.yul\":4967:4971   */\n      dup2\n        /* \"#utility.yul\":4841:4972   */\n      tag_117\n      jump\t// in\n    tag_179:\n        /* \"#utility.yul\":4833:4972   */\n      swap1\n      pop\n        /* \"#utility.yul\":4560:4979   */\n      swap2\n      swap1\n      pop\n      jump\t// out\n        /* \"#utility.yul\":4985:5148   */\n    tag_118:\n        /* \"#utility.yul\":5125:5140   */\n      0x496e636f72726563742073756d00000000000000000000000000000000000000\n        /* \"#utility.yul\":5121:5122   */\n      0x00\n        /* \"#utility.yul\":5113:5119   */\n      dup3\n        /* \"#utility.yul\":5109:5123   */\n      add\n        /* \"#utility.yul\":5102:5141   */\n      mstore\n        /* \"#utility.yul\":4985:5148   */\n      pop\n      jump\t// out\n        /* \"#utility.yul\":5154:5520   */\n    tag_119:\n        /* \"#utility.yul\":5296:5299   */\n      0x00\n        /* \"#utility.yul\":5317:5384   */\n      tag_182\n        /* \"#utility.yul\":5381:5383   */\n      0x0d\n        /* \"#utility.yul\":5376:5379   */\n      dup4\n        /* \"#utility.yul\":5317:5384   */\n      tag_113\n      jump\t// in\n    tag_182:\n        /* \"#utility.yul\":5310:5384   */\n      swap2\n      pop\n        /* \"#utility.yul\":5393:5486   */\n      tag_183\n        /* \"#utility.yul\":5482:5485   */\n      dup3\n        /* \"#utility.yul\":5393:5486   */\n      tag_118\n      jump\t// in\n    tag_183:\n        /* \"#utility.yul\":5511:5513   */\n      0x20\n        /* \"#utility.yul\":5506:5509   */\n      dup3\n        /* \"#utility.yul\":5502:5514   */\n      add\n        /* \"#utility.yul\":5495:5514   */\n      swap1\n      pop\n        /* \"#utility.yul\":5154:5520   */\n      swap2\n      swap1\n      pop\n      jump\t// out\n        /* \"#utility.yul\":5526:5945   */\n    tag_55:\n        /* \"#utility.yul\":5692:5696   */\n      0x00\n        /* \"#utility.yul\":5730:5732   */\n      0x20\n        /* \"#utility.yul\":5719:5728   */\n      dup3\n        /* \"#utility.yul\":5715:5733   */\n      add\n        /* \"#utility.yul\":5707:5733   */\n      swap1\n      pop\n        /* \"#utility.yul\":5779:5788   */\n      dup2\n        /* \"#utility.yul\":5773:5777   */\n      dup2\n        /* \"#utility.yul\":5769:5789   */\n      sub\n        /* \"#utility.yul\":5765:5766   */\n      0x00\n        /* \"#utility.yul\":5754:5763   */\n      dup4\n        /* \"#utility.yul\":5750:5767   */\n      add\n        /* \"#utility.yul\":5743:5790   */\n      mstore\n        /* \"#utility.yul\":5807:5938   */\n      tag_185\n        /* \"#utility.yul\":5933:5937   */\n      dup2\n        /* \"#utility.yul\":5807:5938   */\n      tag_119\n      jump\t// in\n    tag_185:\n        /* \"#utility.yul\":5799:5938   */\n      swap1\n      pop\n        /* \"#utility.yul\":5526:5945   */\n      swap2\n      swap1\n      pop\n      jump\t// out\n        /* \"#utility.yul\":5951:6094   */\n    tag_120:\n        /* \"#utility.yul\":6008:6013   */\n      0x00\n        /* \"#utility.yul\":6039:6045   */\n      dup2\n        /* \"#utility.yul\":6033:6046   */\n      mload\n        /* \"#utility.yul\":6024:6046   */\n      swap1\n      pop\n        /* \"#utility.yul\":6055:6088   */\n      tag_187\n        /* \"#utility.yul\":6082:6087   */\n      dup2\n        /* \"#utility.yul\":6055:6088   */\n      tag_102\n      jump\t// in\n    tag_187:\n        /* \"#utility.yul\":5951:6094   */\n      swap3\n      swap2\n      pop\n      pop\n      jump\t// out\n        /* \"#utility.yul\":6100:6451   */\n    tag_60:\n        /* \"#utility.yul\":6170:6176   */\n      0x00\n        /* \"#utility.yul\":6219:6221   */\n      0x20\n        /* \"#utility.yul\":6207:6216   */\n      dup3\n        /* \"#utility.yul\":6198:6205   */\n      dup5\n        /* \"#utility.yul\":6194:6217   */\n      sub\n        /* \"#utility.yul\":6190:6222   */\n      slt\n        /* \"#utility.yul\":6187:6306   */\n      iszero\n      tag_189\n      jumpi\n        /* \"#utility.yul\":6225:6304   */\n      tag_190\n      tag_99\n      jump\t// in\n    tag_190:\n        /* \"#utility.yul\":6187:6306   */\n    tag_189:\n        /* \"#utility.yul\":6345:6346   */\n      0x00\n        /* \"#utility.yul\":6370:6434   */\n      tag_191\n        /* \"#utility.yul\":6426:6433   */\n      dup5\n        /* \"#utility.yul\":6417:6423   */\n      dup3\n        /* \"#utility.yul\":6406:6415   */\n      dup6\n        /* \"#utility.yul\":6402:6424   */\n      add\n        /* \"#utility.yul\":6370:6434   */\n      tag_120\n      jump\t// in\n    tag_191:\n        /* \"#utility.yul\":6360:6434   */\n      swap2\n      pop\n        /* \"#utility.yul\":6316:6444   */\n      pop\n        /* \"#utility.yul\":6100:6451   */\n      swap3\n      swap2\n      pop\n      pop\n      jump\t// out\n        /* \"#utility.yul\":6457:6637   */\n    tag_121:\n        /* \"#utility.yul\":6505:6582   */\n      0x4e487b7100000000000000000000000000000000000000000000000000000000\n        /* \"#utility.yul\":6502:6503   */\n      0x00\n        /* \"#utility.yul\":6495:6583   */\n      mstore\n        /* \"#utility.yul\":6602:6606   */\n      0x12\n        /* \"#utility.yul\":6599:6600   */\n      0x04\n        /* \"#utility.yul\":6592:6607   */\n      mstore\n        /* \"#utility.yul\":6626:6630   */\n      0x24\n        /* \"#utility.yul\":6623:6624   */\n      0x00\n        /* \"#utility.yul\":6616:6631   */\n      revert\n        /* \"#utility.yul\":6643:6823   */\n    tag_122:\n        /* \"#utility.yul\":6691:6768   */\n      0x4e487b7100000000000000000000000000000000000000000000000000000000\n        /* \"#utility.yul\":6688:6689   */\n      0x00\n        /* \"#utility.yul\":6681:6769   */\n      mstore\n        /* \"#utility.yul\":6788:6792   */\n      0x11\n        /* \"#utility.yul\":6785:6786   */\n      0x04\n        /* \"#utility.yul\":6778:6793   */\n      mstore\n        /* \"#utility.yul\":6812:6816   */\n      0x24\n        /* \"#utility.yul\":6809:6810   */\n      0x00\n        /* \"#utility.yul\":6802:6817   */\n      revert\n        /* \"#utility.yul\":6829:7014   */\n    tag_63:\n        /* \"#utility.yul\":6869:6870   */\n      0x00\n        /* \"#utility.yul\":6886:6906   */\n      tag_195\n        /* \"#utility.yul\":6904:6905   */\n      dup3\n        /* \"#utility.yul\":6886:6906   */\n      tag_101\n      jump\t// in\n    tag_195:\n        /* \"#utility.yul\":6881:6906   */\n      swap2\n      pop\n        /* \"#utility.yul\":6920:6940   */\n      tag_196\n        /* \"#utility.yul\":6938:6939   */\n      dup4\n        /* \"#utility.yul\":6920:6940   */\n      tag_101\n      jump\t// in\n    tag_196:\n        /* \"#utility.yul\":6915:6940   */\n      swap3\n      pop\n        /* \"#utility.yul\":6959:6960   */\n      dup3\n        /* \"#utility.yul\":6949:6984   */\n      tag_197\n      jumpi\n        /* \"#utility.yul\":6964:6982   */\n      tag_198\n      tag_121\n      jump\t// in\n    tag_198:\n        /* \"#utility.yul\":6949:6984   */\n    tag_197:\n        /* \"#utility.yul\":7006:7007   */\n      dup3\n        /* \"#utility.yul\":7003:7004   */\n      dup3\n        /* \"#utility.yul\":6999:7008   */\n      div\n        /* \"#utility.yul\":6994:7008   */\n      swap1\n      pop\n        /* \"#utility.yul\":6829:7014   */\n      swap3\n      swap2\n      pop\n      pop\n      jump\t// out\n        /* \"#utility.yul\":7020:7188   */\n    tag_123:\n        /* \"#utility.yul\":7160:7180   */\n      0x4e6f7420656e6f75676820746f6b656e73210000000000000000000000000000\n        /* \"#utility.yul\":7156:7157   */\n      0x00\n        /* \"#utility.yul\":7148:7154   */\n      dup3\n        /* \"#utility.yul\":7144:7158   */\n      add\n        /* \"#utility.yul\":7137:7181   */\n      mstore\n        /* \"#utility.yul\":7020:7188   */\n      pop\n      jump\t// out\n        /* \"#utility.yul\":7194:7560   */\n    tag_124:\n        /* \"#utility.yul\":7336:7339   */\n      0x00\n        /* \"#utility.yul\":7357:7424   */\n      tag_201\n        /* \"#utility.yul\":7421:7423   */\n      0x12\n        /* \"#utility.yul\":7416:7419   */\n      dup4\n        /* \"#utility.yul\":7357:7424   */\n      tag_113\n      jump\t// in\n    tag_201:\n        /* \"#utility.yul\":7350:7424   */\n      swap2\n      pop\n        /* \"#utility.yul\":7433:7526   */\n      tag_202\n        /* \"#utility.yul\":7522:7525   */\n      dup3\n        /* \"#utility.yul\":7433:7526   */\n      tag_123\n      jump\t// in\n    tag_202:\n        /* \"#utility.yul\":7551:7553   */\n      0x20\n        /* \"#utility.yul\":7546:7549   */\n      dup3\n        /* \"#utility.yul\":7542:7554   */\n      add\n        /* \"#utility.yul\":7535:7554   */\n      swap1\n      pop\n        /* \"#utility.yul\":7194:7560   */\n      swap2\n      swap1\n      pop\n      jump\t// out\n        /* \"#utility.yul\":7566:7985   */\n    tag_66:\n        /* \"#utility.yul\":7732:7736   */\n      0x00\n        /* \"#utility.yul\":7770:7772   */\n      0x20\n        /* \"#utility.yul\":7759:7768   */\n      dup3\n        /* \"#utility.yul\":7755:7773   */\n      add\n        /* \"#utility.yul\":7747:7773   */\n      swap1\n      pop\n        /* \"#utility.yul\":7819:7828   */\n      dup2\n        /* \"#utility.yul\":7813:7817   */\n      dup2\n        /* \"#utility.yul\":7809:7829   */\n      sub\n        /* \"#utility.yul\":7805:7806   */\n      0x00\n        /* \"#utility.yul\":7794:7803   */\n      dup4\n        /* \"#utility.yul\":7790:7807   */\n      add\n        /* \"#utility.yul\":7783:7830   */\n      mstore\n        /* \"#utility.yul\":7847:7978   */\n      tag_204\n        /* \"#utility.yul\":7973:7977   */\n      dup2\n        /* \"#utility.yul\":7847:7978   */\n      tag_124\n      jump\t// in\n    tag_204:\n        /* \"#utility.yul\":7839:7978   */\n      swap1\n      pop\n        /* \"#utility.yul\":7566:7985   */\n      swap2\n      swap1\n      pop\n      jump\t// out\n        /* \"#utility.yul\":7991:8323   */\n    tag_68:\n        /* \"#utility.yul\":8112:8116   */\n      0x00\n        /* \"#utility.yul\":8150:8152   */\n      0x40\n        /* \"#utility.yul\":8139:8148   */\n      dup3\n        /* \"#utility.yul\":8135:8153   */\n      add\n        /* \"#utility.yul\":8127:8153   */\n      swap1\n      pop\n        /* \"#utility.yul\":8163:8234   */\n      tag_206\n        /* \"#utility.yul\":8231:8232   */\n      0x00\n        /* \"#utility.yul\":8220:8229   */\n      dup4\n        /* \"#utility.yul\":8216:8233   */\n      add\n        /* \"#utility.yul\":8207:8213   */\n      dup6\n        /* \"#utility.yul\":8163:8234   */\n      tag_107\n      jump\t// in\n    tag_206:\n        /* \"#utility.yul\":8244:8316   */\n      tag_207\n        /* \"#utility.yul\":8312:8314   */\n      0x20\n        /* \"#utility.yul\":8301:8310   */\n      dup4\n        /* \"#utility.yul\":8297:8315   */\n      add\n        /* \"#utility.yul\":8288:8294   */\n      dup5\n        /* \"#utility.yul\":8244:8316   */\n      tag_104\n      jump\t// in\n    tag_207:\n        /* \"#utility.yul\":7991:8323   */\n      swap4\n      swap3\n      pop\n      pop\n      pop\n      jump\t// out\n        /* \"#utility.yul\":8329:8508   */\n    tag_125:\n        /* \"#utility.yul\":8469:8500   */\n      0x546f6b656e73206d7573742062652067726561746572207468616e2030000000\n        /* \"#utility.yul\":8465:8466   */\n      0x00\n        /* \"#utility.yul\":8457:8463   */\n      dup3\n        /* \"#utility.yul\":8453:8467   */\n      add\n        /* \"#utility.yul\":8446:8501   */\n      mstore\n        /* \"#utility.yul\":8329:8508   */\n      pop\n      jump\t// out\n        /* \"#utility.yul\":8514:8880   */\n    tag_126:\n        /* \"#utility.yul\":8656:8659   */\n      0x00\n        /* \"#utility.yul\":8677:8744   */\n      tag_210\n        /* \"#utility.yul\":8741:8743   */\n      0x1d\n        /* \"#utility.yul\":8736:8739   */\n      dup4\n        /* \"#utility.yul\":8677:8744   */\n      tag_113\n      jump\t// in\n    tag_210:\n        /* \"#utility.yul\":8670:8744   */\n      swap2\n      pop\n        /* \"#utility.yul\":8753:8846   */\n      tag_211\n        /* \"#utility.yul\":8842:8845   */\n      dup3\n        /* \"#utility.yul\":8753:8846   */\n      tag_125\n      jump\t// in\n    tag_211:\n        /* \"#utility.yul\":8871:8873   */\n      0x20\n        /* \"#utility.yul\":8866:8869   */\n      dup3\n        /* \"#utility.yul\":8862:8874   */\n      add\n        /* \"#utility.yul\":8855:8874   */\n      swap1\n      pop\n        /* \"#utility.yul\":8514:8880   */\n      swap2\n      swap1\n      pop\n      jump\t// out\n        /* \"#utility.yul\":8886:9305   */\n    tag_77:\n        /* \"#utility.yul\":9052:9056   */\n      0x00\n        /* \"#utility.yul\":9090:9092   */\n      0x20\n        /* \"#utility.yul\":9079:9088   */\n      dup3\n        /* \"#utility.yul\":9075:9093   */\n      add\n        /* \"#utility.yul\":9067:9093   */\n      swap1\n      pop\n        /* \"#utility.yul\":9139:9148   */\n      dup2\n        /* \"#utility.yul\":9133:9137   */\n      dup2\n        /* \"#utility.yul\":9129:9149   */\n      sub\n        /* \"#utility.yul\":9125:9126   */\n      0x00\n        /* \"#utility.yul\":9114:9123   */\n      dup4\n        /* \"#utility.yul\":9110:9127   */\n      add\n        /* \"#utility.yul\":9103:9150   */\n      mstore\n        /* \"#utility.yul\":9167:9298   */\n      tag_213\n        /* \"#utility.yul\":9293:9297   */\n      dup2\n        /* \"#utility.yul\":9167:9298   */\n      tag_126\n      jump\t// in\n    tag_213:\n        /* \"#utility.yul\":9159:9298   */\n      swap1\n      pop\n        /* \"#utility.yul\":8886:9305   */\n      swap2\n      swap1\n      pop\n      jump\t// out\n        /* \"#utility.yul\":9311:9643   */\n    tag_79:\n        /* \"#utility.yul\":9432:9436   */\n      0x00\n        /* \"#utility.yul\":9470:9472   */\n      0x40\n        /* \"#utility.yul\":9459:9468   */\n      dup3\n        /* \"#utility.yul\":9455:9473   */\n      add\n        /* \"#utility.yul\":9447:9473   */\n      swap1\n      pop\n        /* \"#utility.yul\":9483:9554   */\n      tag_215\n        /* \"#utility.yul\":9551:9552   */\n      0x00\n        /* \"#utility.yul\":9540:9549   */\n      dup4\n        /* \"#utility.yul\":9536:9553   */\n      add\n        /* \"#utility.yul\":9527:9533   */\n      dup6\n        /* \"#utility.yul\":9483:9554   */\n      tag_107\n      jump\t// in\n    tag_215:\n        /* \"#utility.yul\":9564:9636   */\n      tag_216\n        /* \"#utility.yul\":9632:9634   */\n      0x20\n        /* \"#utility.yul\":9621:9630   */\n      dup4\n        /* \"#utility.yul\":9617:9635   */\n      add\n        /* \"#utility.yul\":9608:9614   */\n      dup5\n        /* \"#utility.yul\":9564:9636   */\n      tag_107\n      jump\t// in\n    tag_216:\n        /* \"#utility.yul\":9311:9643   */\n      swap4\n      swap3\n      pop\n      pop\n      pop\n      jump\t// out\n        /* \"#utility.yul\":9649:9814   */\n    tag_127:\n        /* \"#utility.yul\":9789:9806   */\n      0x57726f6e6720616c6c6f77616e63650000000000000000000000000000000000\n        /* \"#utility.yul\":9785:9786   */\n      0x00\n        /* \"#utility.yul\":9777:9783   */\n      dup3\n        /* \"#utility.yul\":9773:9787   */\n      add\n        /* \"#utility.yul\":9766:9807   */\n      mstore\n        /* \"#utility.yul\":9649:9814   */\n      pop\n      jump\t// out\n        /* \"#utility.yul\":9820:10186   */\n    tag_128:\n        /* \"#utility.yul\":9962:9965   */\n      0x00\n        /* \"#utility.yul\":9983:10050   */\n      tag_219\n        /* \"#utility.yul\":10047:10049   */\n      0x0f\n        /* \"#utility.yul\":10042:10045   */\n      dup4\n        /* \"#utility.yul\":9983:10050   */\n      tag_113\n      jump\t// in\n    tag_219:\n        /* \"#utility.yul\":9976:10050   */\n      swap2\n      pop\n        /* \"#utility.yul\":10059:10152   */\n      tag_220\n        /* \"#utility.yul\":10148:10151   */\n      dup3\n        /* \"#utility.yul\":10059:10152   */\n      tag_127\n      jump\t// in\n    tag_220:\n        /* \"#utility.yul\":10177:10179   */\n      0x20\n        /* \"#utility.yul\":10172:10175   */\n      dup3\n        /* \"#utility.yul\":10168:10180   */\n      add\n        /* \"#utility.yul\":10161:10180   */\n      swap1\n      pop\n        /* \"#utility.yul\":9820:10186   */\n      swap2\n      swap1\n      pop\n      jump\t// out\n        /* \"#utility.yul\":10192:10611   */\n    tag_85:\n        /* \"#utility.yul\":10358:10362   */\n      0x00\n        /* \"#utility.yul\":10396:10398   */\n      0x20\n        /* \"#utility.yul\":10385:10394   */\n      dup3\n        /* \"#utility.yul\":10381:10399   */\n      add\n        /* \"#utility.yul\":10373:10399   */\n      swap1\n      pop\n        /* \"#utility.yul\":10445:10454   */\n      dup2\n        /* \"#utility.yul\":10439:10443   */\n      dup2\n        /* \"#utility.yul\":10435:10455   */\n      sub\n        /* \"#utility.yul\":10431:10432   */\n      0x00\n        /* \"#utility.yul\":10420:10429   */\n      dup4\n        /* \"#utility.yul\":10416:10433   */\n      add\n        /* \"#utility.yul\":10409:10456   */\n      mstore\n        /* \"#utility.yul\":10473:10604   */\n      tag_222\n        /* \"#utility.yul\":10599:10603   */\n      dup2\n        /* \"#utility.yul\":10473:10604   */\n      tag_128\n      jump\t// in\n    tag_222:\n        /* \"#utility.yul\":10465:10604   */\n      swap1\n      pop\n        /* \"#utility.yul\":10192:10611   */\n      swap2\n      swap1\n      pop\n      jump\t// out\n        /* \"#utility.yul\":10617:11059   */\n    tag_87:\n        /* \"#utility.yul\":10766:10770   */\n      0x00\n        /* \"#utility.yul\":10804:10806   */\n      0x60\n        /* \"#utility.yul\":10793:10802   */\n      dup3\n        /* \"#utility.yul\":10789:10807   */\n      add\n        /* \"#utility.yul\":10781:10807   */\n      swap1\n      pop\n        /* \"#utility.yul\":10817:10888   */\n      tag_224\n        /* \"#utility.yul\":10885:10886   */\n      0x00\n        /* \"#utility.yul\":10874:10883   */\n      dup4\n        /* \"#utility.yul\":10870:10887   */\n      add\n        /* \"#utility.yul\":10861:10867   */\n      dup7\n        /* \"#utility.yul\":10817:10888   */\n      tag_107\n      jump\t// in\n    tag_224:\n        /* \"#utility.yul\":10898:10970   */\n      tag_225\n        /* \"#utility.yul\":10966:10968   */\n      0x20\n        /* \"#utility.yul\":10955:10964   */\n      dup4\n        /* \"#utility.yul\":10951:10969   */\n      add\n        /* \"#utility.yul\":10942:10948   */\n      dup6\n        /* \"#utility.yul\":10898:10970   */\n      tag_107\n      jump\t// in\n    tag_225:\n        /* \"#utility.yul\":10980:11052   */\n      tag_226\n        /* \"#utility.yul\":11048:11050   */\n      0x40\n        /* \"#utility.yul\":11037:11046   */\n      dup4\n        /* \"#utility.yul\":11033:11051   */\n      add\n        /* \"#utility.yul\":11024:11030   */\n      dup5\n        /* \"#utility.yul\":10980:11052   */\n      tag_104\n      jump\t// in\n    tag_226:\n        /* \"#utility.yul\":10617:11059   */\n      swap5\n      swap4\n      pop\n      pop\n      pop\n      pop\n      jump\t// out\n        /* \"#utility.yul\":11065:11475   */\n    tag_93:\n        /* \"#utility.yul\":11105:11112   */\n      0x00\n        /* \"#utility.yul\":11128:11148   */\n      tag_228\n        /* \"#utility.yul\":11146:11147   */\n      dup3\n        /* \"#utility.yul\":11128:11148   */\n      tag_101\n      jump\t// in\n    tag_228:\n        /* \"#utility.yul\":11123:11148   */\n      swap2\n      pop\n        /* \"#utility.yul\":11162:11182   */\n      tag_229\n        /* \"#utility.yul\":11180:11181   */\n      dup4\n        /* \"#utility.yul\":11162:11182   */\n      tag_101\n      jump\t// in\n    tag_229:\n        /* \"#utility.yul\":11157:11182   */\n      swap3\n      pop\n        /* \"#utility.yul\":11217:11218   */\n      dup3\n        /* \"#utility.yul\":11214:11215   */\n      dup3\n        /* \"#utility.yul\":11210:11219   */\n      mul\n        /* \"#utility.yul\":11239:11269   */\n      tag_230\n        /* \"#utility.yul\":11257:11268   */\n      dup2\n        /* \"#utility.yul\":11239:11269   */\n      tag_101\n      jump\t// in\n    tag_230:\n        /* \"#utility.yul\":11228:11269   */\n      swap2\n      pop\n        /* \"#utility.yul\":11418:11419   */\n      dup3\n        /* \"#utility.yul\":11409:11416   */\n      dup3\n        /* \"#utility.yul\":11405:11420   */\n      div\n        /* \"#utility.yul\":11402:11403   */\n      dup5\n        /* \"#utility.yul\":11399:11421   */\n      eq\n        /* \"#utility.yul\":11379:11380   */\n      dup4\n        /* \"#utility.yul\":11372:11381   */\n      iszero\n        /* \"#utility.yul\":11352:11435   */\n      or\n        /* \"#utility.yul\":11329:11468   */\n      tag_231\n      jumpi\n        /* \"#utility.yul\":11448:11466   */\n      tag_232\n      tag_122\n      jump\t// in\n    tag_232:\n        /* \"#utility.yul\":11329:11468   */\n    tag_231:\n        /* \"#utility.yul\":11113:11475   */\n      pop\n        /* \"#utility.yul\":11065:11475   */\n      swap3\n      swap2\n      pop\n      pop\n      jump\t// out\n\n    auxdata: 0xa26469706673582212205307d562527e016eda5c00d743ed7bfa2ae8e08b94f229ff6ebfed3e3e4e1f2464736f6c63430008110033\n}\n",
				"bytecode": {
					"linkReferences": {},
					"object": "608060405230600260006101000a81548173ffffffffffffffffffffffffffffffffffffffff021916908373ffffffffffffffffffffffffffffffffffffffff1602179055503480156200005257600080fd5b5060405162000f7a38038062000f7a83398181016040528101906200007891906200017e565b806000806101000a81548173ffffffffffffffffffffffffffffffffffffffff021916908373ffffffffffffffffffffffffffffffffffffffff16021790555033600160006101000a81548173ffffffffffffffffffffffffffffffffffffffff021916908373ffffffffffffffffffffffffffffffffffffffff16021790555050620001b0565b600080fd5b600073ffffffffffffffffffffffffffffffffffffffff82169050919050565b6000620001328262000105565b9050919050565b6000620001468262000125565b9050919050565b620001588162000139565b81146200016457600080fd5b50565b60008151905062000178816200014d565b92915050565b60006020828403121562000197576200019662000100565b5b6000620001a78482850162000167565b91505092915050565b610dba80620001c06000396000f3fe6080604052600436106100595760003560e01c80632e1a7d4d14610062578063a6f2ae3a1461008b578063b69ef8a814610095578063d9ef58a5146100c0578063e4849b32146100eb578063fc0c546a1461011457610060565b3661006057005b005b34801561006e57600080fd5b5061008960048036038101906100849190610822565b61013f565b005b610093610263565b005b3480156100a157600080fd5b506100aa6104a7565b6040516100b7919061085e565b60405180910390f35b3480156100cc57600080fd5b506100d56104e8565b6040516100e291906108ba565b60405180910390f35b3480156100f757600080fd5b50610112600480360381019061010d9190610822565b61050e565b005b34801561012057600080fd5b506101296107b3565b6040516101369190610934565b60405180910390f35b600160009054906101000a900473ffffffffffffffffffffffffffffffffffffffff1673ffffffffffffffffffffffffffffffffffffffff163373ffffffffffffffffffffffffffffffffffffffff16146101cf576040517f08c379a00000000000000000000000000000000000000000000000000000000081526004016101c6906109ac565b60405180910390fd5b6101d76104a7565b811115610219576040517f08c379a000000000000000000000000000000000000000000000000000000000815260040161021090610a18565b60405180910390fd5b3373ffffffffffffffffffffffffffffffffffffffff166108fc829081150290604051600060405180830381858888f1935050505015801561025f573d6000803e3d6000fd5b5050565b61026b6107d7565b3410156102ad576040517f08c379a00000000000000000000000000000000000000000000000000000000081526004016102a490610a84565b60405180910390fd5b60008060009054906101000a900473ffffffffffffffffffffffffffffffffffffffff1673ffffffffffffffffffffffffffffffffffffffff166370a08231600260009054906101000a900473ffffffffffffffffffffffffffffffffffffffff166040518263ffffffff1660e01b815260040161032b91906108ba565b602060405180830381865afa158015610348573d6000803e3d6000fd5b505050506040513d601f19601f8201168201806040525081019061036c9190610ab9565b905060006103786107d7565b346103839190610b44565b9050818111156103c8576040517f08c379a00000000000000000000000000000000000000000000000000000000081526004016103bf90610bc1565b60405180910390fd5b60008054906101000a900473ffffffffffffffffffffffffffffffffffffffff1673ffffffffffffffffffffffffffffffffffffffff1663a9059cbb33836040518363ffffffff1660e01b8152600401610423929190610be1565b600060405180830381600087803b15801561043d57600080fd5b505af1158015610451573d6000803e3d6000fd5b505050503373ffffffffffffffffffffffffffffffffffffffff167fc55650ccda1011e1cdc769b1fbf546ebb8c97800b6072b49e06cd560305b1d678260405161049b919061085e565b60405180910390a25050565b6000600260009054906101000a900473ffffffffffffffffffffffffffffffffffffffff1673ffffffffffffffffffffffffffffffffffffffff1631905090565b600260009054906101000a900473ffffffffffffffffffffffffffffffffffffffff1681565b60008111610551576040517f08c379a000000000000000000000000000000000000000000000000000000000815260040161054890610c56565b60405180910390fd5b60008060009054906101000a900473ffffffffffffffffffffffffffffffffffffffff1673ffffffffffffffffffffffffffffffffffffffff1663dd62ed3e33600260009054906101000a900473ffffffffffffffffffffffffffffffffffffffff166040518363ffffffff1660e01b81526004016105d1929190610c76565b602060405180830381865afa1580156105ee573d6000803e3d6000fd5b505050506040513d601f19601f820116820180604052508101906106129190610ab9565b905081811015610657576040517f08c379a000000000000000000000000000000000000000000000000000000000815260040161064e90610ceb565b60405180910390fd5b60008054906101000a900473ffffffffffffffffffffffffffffffffffffffff1673ffffffffffffffffffffffffffffffffffffffff166323b872dd33600260009054906101000a900473ffffffffffffffffffffffffffffffffffffffff16856040518463ffffffff1660e01b81526004016106d693929190610d0b565b600060405180830381600087803b1580156106f057600080fd5b505af1158015610704573d6000803e3d6000fd5b505050503373ffffffffffffffffffffffffffffffffffffffff166108fc61072a6107d7565b846107359190610d42565b9081150290604051600060405180830381858888f19350505050158015610760573d6000803e3d6000fd5b503373ffffffffffffffffffffffffffffffffffffffff167f5e5e995ce3133561afceaa51a9a154d5db228cd7525d34df5185582c18d3df09836040516107a7919061085e565b60405180910390a25050565b60008054906101000a900473ffffffffffffffffffffffffffffffffffffffff1681565b6000670de0b6b3a7640000905090565b600080fd5b6000819050919050565b6107ff816107ec565b811461080a57600080fd5b50565b60008135905061081c816107f6565b92915050565b600060208284031215610838576108376107e7565b5b60006108468482850161080d565b91505092915050565b610858816107ec565b82525050565b6000602082019050610873600083018461084f565b92915050565b600073ffffffffffffffffffffffffffffffffffffffff82169050919050565b60006108a482610879565b9050919050565b6108b481610899565b82525050565b60006020820190506108cf60008301846108ab565b92915050565b6000819050919050565b60006108fa6108f56108f084610879565b6108d5565b610879565b9050919050565b600061090c826108df565b9050919050565b600061091e82610901565b9050919050565b61092e81610913565b82525050565b60006020820190506109496000830184610925565b92915050565b600082825260208201905092915050565b7f4f6e6c79206f776e657221000000000000000000000000000000000000000000600082015250565b6000610996600b8361094f565b91506109a182610960565b602082019050919050565b600060208201905081810360008301526109c581610989565b9050919050565b7f4e6f7420656e6f7567682066756e647321000000000000000000000000000000600082015250565b6000610a0260118361094f565b9150610a0d826109cc565b602082019050919050565b60006020820190508181036000830152610a31816109f5565b9050919050565b7f496e636f72726563742073756d00000000000000000000000000000000000000600082015250565b6000610a6e600d8361094f565b9150610a7982610a38565b602082019050919050565b60006020820190508181036000830152610a9d81610a61565b9050919050565b600081519050610ab3816107f6565b92915050565b600060208284031215610acf57610ace6107e7565b5b6000610add84828501610aa4565b91505092915050565b7f4e487b7100000000000000000000000000000000000000000000000000000000600052601260045260246000fd5b7f4e487b7100000000000000000000000000000000000000000000000000000000600052601160045260246000fd5b6000610b4f826107ec565b9150610b5a836107ec565b925082610b6a57610b69610ae6565b5b828204905092915050565b7f4e6f7420656e6f75676820746f6b656e73210000000000000000000000000000600082015250565b6000610bab60128361094f565b9150610bb682610b75565b602082019050919050565b60006020820190508181036000830152610bda81610b9e565b9050919050565b6000604082019050610bf660008301856108ab565b610c03602083018461084f565b9392505050565b7f546f6b656e73206d7573742062652067726561746572207468616e2030000000600082015250565b6000610c40601d8361094f565b9150610c4b82610c0a565b602082019050919050565b60006020820190508181036000830152610c6f81610c33565b9050919050565b6000604082019050610c8b60008301856108ab565b610c9860208301846108ab565b9392505050565b7f57726f6e6720616c6c6f77616e63650000000000000000000000000000000000600082015250565b6000610cd5600f8361094f565b9150610ce082610c9f565b602082019050919050565b60006020820190508181036000830152610d0481610cc8565b9050919050565b6000606082019050610d2060008301866108ab565b610d2d60208301856108ab565b610d3a604083018461084f565b949350505050565b6000610d4d826107ec565b9150610d58836107ec565b9250828202610d66816107ec565b91508282048414831517610d7d57610d7c610b15565b5b509291505056fea26469706673582212205307d562527e016eda5c00d743ed7bfa2ae8e08b94f229ff6ebfed3e3e4e1f2464736f6c63430008110033",
					"opcodes": "PUSH1 0x80 PUSH1 0x40 MSTORE ADDRESS PUSH1 0x2 PUSH1 0x0 PUSH2 0x100 EXP DUP2 SLOAD DUP2 PUSH20 0xFFFFFFFFFFFFFFFFFFFFFFFFFFFFFFFFFFFFFFFF MUL NOT AND SWAP1 DUP4 PUSH20 0xFFFFFFFFFFFFFFFFFFFFFFFFFFFFFFFFFFFFFFFF AND MUL OR SWAP1 SSTORE POP CALLVALUE DUP1 ISZERO PUSH3 0x52 JUMPI PUSH1 0x0 DUP1 REVERT JUMPDEST POP PUSH1 0x40 MLOAD PUSH3 0xF7A CODESIZE SUB DUP1 PUSH3 0xF7A DUP4 CODECOPY DUP2 DUP2 ADD PUSH1 0x40 MSTORE DUP2 ADD SWAP1 PUSH3 0x78 SWAP2 SWAP1 PUSH3 0x17E JUMP JUMPDEST DUP1 PUSH1 0x0 DUP1 PUSH2 0x100 EXP DUP2 SLOAD DUP2 PUSH20 0xFFFFFFFFFFFFFFFFFFFFFFFFFFFFFFFFFFFFFFFF MUL NOT AND SWAP1 DUP4 PUSH20 0xFFFFFFFFFFFFFFFFFFFFFFFFFFFFFFFFFFFFFFFF AND MUL OR SWAP1 SSTORE POP CALLER PUSH1 0x1 PUSH1 0x0 PUSH2 0x100 EXP DUP2 SLOAD DUP2 PUSH20 0xFFFFFFFFFFFFFFFFFFFFFFFFFFFFFFFFFFFFFFFF MUL NOT AND SWAP1 DUP4 PUSH20 0xFFFFFFFFFFFFFFFFFFFFFFFFFFFFFFFFFFFFFFFF AND MUL OR SWAP1 SSTORE POP POP PUSH3 0x1B0 JUMP JUMPDEST PUSH1 0x0 DUP1 REVERT JUMPDEST PUSH1 0x0 PUSH20 0xFFFFFFFFFFFFFFFFFFFFFFFFFFFFFFFFFFFFFFFF DUP3 AND SWAP1 POP SWAP2 SWAP1 POP JUMP JUMPDEST PUSH1 0x0 PUSH3 0x132 DUP3 PUSH3 0x105 JUMP JUMPDEST SWAP1 POP SWAP2 SWAP1 POP JUMP JUMPDEST PUSH1 0x0 PUSH3 0x146 DUP3 PUSH3 0x125 JUMP JUMPDEST SWAP1 POP SWAP2 SWAP1 POP JUMP JUMPDEST PUSH3 0x158 DUP2 PUSH3 0x139 JUMP JUMPDEST DUP2 EQ PUSH3 0x164 JUMPI PUSH1 0x0 DUP1 REVERT JUMPDEST POP JUMP JUMPDEST PUSH1 0x0 DUP2 MLOAD SWAP1 POP PUSH3 0x178 DUP2 PUSH3 0x14D JUMP JUMPDEST SWAP3 SWAP2 POP POP JUMP JUMPDEST PUSH1 0x0 PUSH1 0x20 DUP3 DUP5 SUB SLT ISZERO PUSH3 0x197 JUMPI PUSH3 0x196 PUSH3 0x100 JUMP JUMPDEST JUMPDEST PUSH1 0x0 PUSH3 0x1A7 DUP5 DUP3 DUP6 ADD PUSH3 0x167 JUMP JUMPDEST SWAP2 POP POP SWAP3 SWAP2 POP POP JUMP JUMPDEST PUSH2 0xDBA DUP1 PUSH3 0x1C0 PUSH1 0x0 CODECOPY PUSH1 0x0 RETURN INVALID PUSH1 0x80 PUSH1 0x40 MSTORE PUSH1 0x4 CALLDATASIZE LT PUSH2 0x59 JUMPI PUSH1 0x0 CALLDATALOAD PUSH1 0xE0 SHR DUP1 PUSH4 0x2E1A7D4D EQ PUSH2 0x62 JUMPI DUP1 PUSH4 0xA6F2AE3A EQ PUSH2 0x8B JUMPI DUP1 PUSH4 0xB69EF8A8 EQ PUSH2 0x95 JUMPI DUP1 PUSH4 0xD9EF58A5 EQ PUSH2 0xC0 JUMPI DUP1 PUSH4 0xE4849B32 EQ PUSH2 0xEB JUMPI DUP1 PUSH4 0xFC0C546A EQ PUSH2 0x114 JUMPI PUSH2 0x60 JUMP JUMPDEST CALLDATASIZE PUSH2 0x60 JUMPI STOP JUMPDEST STOP JUMPDEST CALLVALUE DUP1 ISZERO PUSH2 0x6E JUMPI PUSH1 0x0 DUP1 REVERT JUMPDEST POP PUSH2 0x89 PUSH1 0x4 DUP1 CALLDATASIZE SUB DUP2 ADD SWAP1 PUSH2 0x84 SWAP2 SWAP1 PUSH2 0x822 JUMP JUMPDEST PUSH2 0x13F JUMP JUMPDEST STOP JUMPDEST PUSH2 0x93 PUSH2 0x263 JUMP JUMPDEST STOP JUMPDEST CALLVALUE DUP1 ISZERO PUSH2 0xA1 JUMPI PUSH1 0x0 DUP1 REVERT JUMPDEST POP PUSH2 0xAA PUSH2 0x4A7 JUMP JUMPDEST PUSH1 0x40 MLOAD PUSH2 0xB7 SWAP2 SWAP1 PUSH2 0x85E JUMP JUMPDEST PUSH1 0x40 MLOAD DUP1 SWAP2 SUB SWAP1 RETURN JUMPDEST CALLVALUE DUP1 ISZERO PUSH2 0xCC JUMPI PUSH1 0x0 DUP1 REVERT JUMPDEST POP PUSH2 0xD5 PUSH2 0x4E8 JUMP JUMPDEST PUSH1 0x40 MLOAD PUSH2 0xE2 SWAP2 SWAP1 PUSH2 0x8BA JUMP JUMPDEST PUSH1 0x40 MLOAD DUP1 SWAP2 SUB SWAP1 RETURN JUMPDEST CALLVALUE DUP1 ISZERO PUSH2 0xF7 JUMPI PUSH1 0x0 DUP1 REVERT JUMPDEST POP PUSH2 0x112 PUSH1 0x4 DUP1 CALLDATASIZE SUB DUP2 ADD SWAP1 PUSH2 0x10D SWAP2 SWAP1 PUSH2 0x822 JUMP JUMPDEST PUSH2 0x50E JUMP JUMPDEST STOP JUMPDEST CALLVALUE DUP1 ISZERO PUSH2 0x120 JUMPI PUSH1 0x0 DUP1 REVERT JUMPDEST POP PUSH2 0x129 PUSH2 0x7B3 JUMP JUMPDEST PUSH1 0x40 MLOAD PUSH2 0x136 SWAP2 SWAP1 PUSH2 0x934 JUMP JUMPDEST PUSH1 0x40 MLOAD DUP1 SWAP2 SUB SWAP1 RETURN JUMPDEST PUSH1 0x1 PUSH1 0x0 SWAP1 SLOAD SWAP1 PUSH2 0x100 EXP SWAP1 DIV PUSH20 0xFFFFFFFFFFFFFFFFFFFFFFFFFFFFFFFFFFFFFFFF AND PUSH20 0xFFFFFFFFFFFFFFFFFFFFFFFFFFFFFFFFFFFFFFFF AND CALLER PUSH20 0xFFFFFFFFFFFFFFFFFFFFFFFFFFFFFFFFFFFFFFFF AND EQ PUSH2 0x1CF JUMPI PUSH1 0x40 MLOAD PUSH32 0x8C379A000000000000000000000000000000000000000000000000000000000 DUP2 MSTORE PUSH1 0x4 ADD PUSH2 0x1C6 SWAP1 PUSH2 0x9AC JUMP JUMPDEST PUSH1 0x40 MLOAD DUP1 SWAP2 SUB SWAP1 REVERT JUMPDEST PUSH2 0x1D7 PUSH2 0x4A7 JUMP JUMPDEST DUP2 GT ISZERO PUSH2 0x219 JUMPI PUSH1 0x40 MLOAD PUSH32 0x8C379A000000000000000000000000000000000000000000000000000000000 DUP2 MSTORE PUSH1 0x4 ADD PUSH2 0x210 SWAP1 PUSH2 0xA18 JUMP JUMPDEST PUSH1 0x40 MLOAD DUP1 SWAP2 SUB SWAP1 REVERT JUMPDEST CALLER PUSH20 0xFFFFFFFFFFFFFFFFFFFFFFFFFFFFFFFFFFFFFFFF AND PUSH2 0x8FC DUP3 SWAP1 DUP2 ISZERO MUL SWAP1 PUSH1 0x40 MLOAD PUSH1 0x0 PUSH1 0x40 MLOAD DUP1 DUP4 SUB DUP2 DUP6 DUP9 DUP9 CALL SWAP4 POP POP POP POP ISZERO DUP1 ISZERO PUSH2 0x25F JUMPI RETURNDATASIZE PUSH1 0x0 DUP1 RETURNDATACOPY RETURNDATASIZE PUSH1 0x0 REVERT JUMPDEST POP POP JUMP JUMPDEST PUSH2 0x26B PUSH2 0x7D7 JUMP JUMPDEST CALLVALUE LT ISZERO PUSH2 0x2AD JUMPI PUSH1 0x40 MLOAD PUSH32 0x8C379A000000000000000000000000000000000000000000000000000000000 DUP2 MSTORE PUSH1 0x4 ADD PUSH2 0x2A4 SWAP1 PUSH2 0xA84 JUMP JUMPDEST PUSH1 0x40 MLOAD DUP1 SWAP2 SUB SWAP1 REVERT JUMPDEST PUSH1 0x0 DUP1 PUSH1 0x0 SWAP1 SLOAD SWAP1 PUSH2 0x100 EXP SWAP1 DIV PUSH20 0xFFFFFFFFFFFFFFFFFFFFFFFFFFFFFFFFFFFFFFFF AND PUSH20 0xFFFFFFFFFFFFFFFFFFFFFFFFFFFFFFFFFFFFFFFF AND PUSH4 0x70A08231 PUSH1 0x2 PUSH1 0x0 SWAP1 SLOAD SWAP1 PUSH2 0x100 EXP SWAP1 DIV PUSH20 0xFFFFFFFFFFFFFFFFFFFFFFFFFFFFFFFFFFFFFFFF AND PUSH1 0x40 MLOAD DUP3 PUSH4 0xFFFFFFFF AND PUSH1 0xE0 SHL DUP2 MSTORE PUSH1 0x4 ADD PUSH2 0x32B SWAP2 SWAP1 PUSH2 0x8BA JUMP JUMPDEST PUSH1 0x20 PUSH1 0x40 MLOAD DUP1 DUP4 SUB DUP2 DUP7 GAS STATICCALL ISZERO DUP1 ISZERO PUSH2 0x348 JUMPI RETURNDATASIZE PUSH1 0x0 DUP1 RETURNDATACOPY RETURNDATASIZE PUSH1 0x0 REVERT JUMPDEST POP POP POP POP PUSH1 0x40 MLOAD RETURNDATASIZE PUSH1 0x1F NOT PUSH1 0x1F DUP3 ADD AND DUP3 ADD DUP1 PUSH1 0x40 MSTORE POP DUP2 ADD SWAP1 PUSH2 0x36C SWAP2 SWAP1 PUSH2 0xAB9 JUMP JUMPDEST SWAP1 POP PUSH1 0x0 PUSH2 0x378 PUSH2 0x7D7 JUMP JUMPDEST CALLVALUE PUSH2 0x383 SWAP2 SWAP1 PUSH2 0xB44 JUMP JUMPDEST SWAP1 POP DUP2 DUP2 GT ISZERO PUSH2 0x3C8 JUMPI PUSH1 0x40 MLOAD PUSH32 0x8C379A000000000000000000000000000000000000000000000000000000000 DUP2 MSTORE PUSH1 0x4 ADD PUSH2 0x3BF SWAP1 PUSH2 0xBC1 JUMP JUMPDEST PUSH1 0x40 MLOAD DUP1 SWAP2 SUB SWAP1 REVERT JUMPDEST PUSH1 0x0 DUP1 SLOAD SWAP1 PUSH2 0x100 EXP SWAP1 DIV PUSH20 0xFFFFFFFFFFFFFFFFFFFFFFFFFFFFFFFFFFFFFFFF AND PUSH20 0xFFFFFFFFFFFFFFFFFFFFFFFFFFFFFFFFFFFFFFFF AND PUSH4 0xA9059CBB CALLER DUP4 PUSH1 0x40 MLOAD DUP4 PUSH4 0xFFFFFFFF AND PUSH1 0xE0 SHL DUP2 MSTORE PUSH1 0x4 ADD PUSH2 0x423 SWAP3 SWAP2 SWAP1 PUSH2 0xBE1 JUMP JUMPDEST PUSH1 0x0 PUSH1 0x40 MLOAD DUP1 DUP4 SUB DUP2 PUSH1 0x0 DUP8 DUP1 EXTCODESIZE ISZERO DUP1 ISZERO PUSH2 0x43D JUMPI PUSH1 0x0 DUP1 REVERT JUMPDEST POP GAS CALL ISZERO DUP1 ISZERO PUSH2 0x451 JUMPI RETURNDATASIZE PUSH1 0x0 DUP1 RETURNDATACOPY RETURNDATASIZE PUSH1 0x0 REVERT JUMPDEST POP POP POP POP CALLER PUSH20 0xFFFFFFFFFFFFFFFFFFFFFFFFFFFFFFFFFFFFFFFF AND PUSH32 0xC55650CCDA1011E1CDC769B1FBF546EBB8C97800B6072B49E06CD560305B1D67 DUP3 PUSH1 0x40 MLOAD PUSH2 0x49B SWAP2 SWAP1 PUSH2 0x85E JUMP JUMPDEST PUSH1 0x40 MLOAD DUP1 SWAP2 SUB SWAP1 LOG2 POP POP JUMP JUMPDEST PUSH1 0x0 PUSH1 0x2 PUSH1 0x0 SWAP1 SLOAD SWAP1 PUSH2 0x100 EXP SWAP1 DIV PUSH20 0xFFFFFFFFFFFFFFFFFFFFFFFFFFFFFFFFFFFFFFFF AND PUSH20 0xFFFFFFFFFFFFFFFFFFFFFFFFFFFFFFFFFFFFFFFF AND BALANCE SWAP1 POP SWAP1 JUMP JUMPDEST PUSH1 0x2 PUSH1 0x0 SWAP1 SLOAD SWAP1 PUSH2 0x100 EXP SWAP1 DIV PUSH20 0xFFFFFFFFFFFFFFFFFFFFFFFFFFFFFFFFFFFFFFFF AND DUP2 JUMP JUMPDEST PUSH1 0x0 DUP2 GT PUSH2 0x551 JUMPI PUSH1 0x40 MLOAD PUSH32 0x8C379A000000000000000000000000000000000000000000000000000000000 DUP2 MSTORE PUSH1 0x4 ADD PUSH2 0x548 SWAP1 PUSH2 0xC56 JUMP JUMPDEST PUSH1 0x40 MLOAD DUP1 SWAP2 SUB SWAP1 REVERT JUMPDEST PUSH1 0x0 DUP1 PUSH1 0x0 SWAP1 SLOAD SWAP1 PUSH2 0x100 EXP SWAP1 DIV PUSH20 0xFFFFFFFFFFFFFFFFFFFFFFFFFFFFFFFFFFFFFFFF AND PUSH20 0xFFFFFFFFFFFFFFFFFFFFFFFFFFFFFFFFFFFFFFFF AND PUSH4 0xDD62ED3E CALLER PUSH1 0x2 PUSH1 0x0 SWAP1 SLOAD SWAP1 PUSH2 0x100 EXP SWAP1 DIV PUSH20 0xFFFFFFFFFFFFFFFFFFFFFFFFFFFFFFFFFFFFFFFF AND PUSH1 0x40 MLOAD DUP4 PUSH4 0xFFFFFFFF AND PUSH1 0xE0 SHL DUP2 MSTORE PUSH1 0x4 ADD PUSH2 0x5D1 SWAP3 SWAP2 SWAP1 PUSH2 0xC76 JUMP JUMPDEST PUSH1 0x20 PUSH1 0x40 MLOAD DUP1 DUP4 SUB DUP2 DUP7 GAS STATICCALL ISZERO DUP1 ISZERO PUSH2 0x5EE JUMPI RETURNDATASIZE PUSH1 0x0 DUP1 RETURNDATACOPY RETURNDATASIZE PUSH1 0x0 REVERT JUMPDEST POP POP POP POP PUSH1 0x40 MLOAD RETURNDATASIZE PUSH1 0x1F NOT PUSH1 0x1F DUP3 ADD AND DUP3 ADD DUP1 PUSH1 0x40 MSTORE POP DUP2 ADD SWAP1 PUSH2 0x612 SWAP2 SWAP1 PUSH2 0xAB9 JUMP JUMPDEST SWAP1 POP DUP2 DUP2 LT ISZERO PUSH2 0x657 JUMPI PUSH1 0x40 MLOAD PUSH32 0x8C379A000000000000000000000000000000000000000000000000000000000 DUP2 MSTORE PUSH1 0x4 ADD PUSH2 0x64E SWAP1 PUSH2 0xCEB JUMP JUMPDEST PUSH1 0x40 MLOAD DUP1 SWAP2 SUB SWAP1 REVERT JUMPDEST PUSH1 0x0 DUP1 SLOAD SWAP1 PUSH2 0x100 EXP SWAP1 DIV PUSH20 0xFFFFFFFFFFFFFFFFFFFFFFFFFFFFFFFFFFFFFFFF AND PUSH20 0xFFFFFFFFFFFFFFFFFFFFFFFFFFFFFFFFFFFFFFFF AND PUSH4 0x23B872DD CALLER PUSH1 0x2 PUSH1 0x0 SWAP1 SLOAD SWAP1 PUSH2 0x100 EXP SWAP1 DIV PUSH20 0xFFFFFFFFFFFFFFFFFFFFFFFFFFFFFFFFFFFFFFFF AND DUP6 PUSH1 0x40 MLOAD DUP5 PUSH4 0xFFFFFFFF AND PUSH1 0xE0 SHL DUP2 MSTORE PUSH1 0x4 ADD PUSH2 0x6D6 SWAP4 SWAP3 SWAP2 SWAP1 PUSH2 0xD0B JUMP JUMPDEST PUSH1 0x0 PUSH1 0x40 MLOAD DUP1 DUP4 SUB DUP2 PUSH1 0x0 DUP8 DUP1 EXTCODESIZE ISZERO DUP1 ISZERO PUSH2 0x6F0 JUMPI PUSH1 0x0 DUP1 REVERT JUMPDEST POP GAS CALL ISZERO DUP1 ISZERO PUSH2 0x704 JUMPI RETURNDATASIZE PUSH1 0x0 DUP1 RETURNDATACOPY RETURNDATASIZE PUSH1 0x0 REVERT JUMPDEST POP POP POP POP CALLER PUSH20 0xFFFFFFFFFFFFFFFFFFFFFFFFFFFFFFFFFFFFFFFF AND PUSH2 0x8FC PUSH2 0x72A PUSH2 0x7D7 JUMP JUMPDEST DUP5 PUSH2 0x735 SWAP2 SWAP1 PUSH2 0xD42 JUMP JUMPDEST SWAP1 DUP2 ISZERO MUL SWAP1 PUSH1 0x40 MLOAD PUSH1 0x0 PUSH1 0x40 MLOAD DUP1 DUP4 SUB DUP2 DUP6 DUP9 DUP9 CALL SWAP4 POP POP POP POP ISZERO DUP1 ISZERO PUSH2 0x760 JUMPI RETURNDATASIZE PUSH1 0x0 DUP1 RETURNDATACOPY RETURNDATASIZE PUSH1 0x0 REVERT JUMPDEST POP CALLER PUSH20 0xFFFFFFFFFFFFFFFFFFFFFFFFFFFFFFFFFFFFFFFF AND PUSH32 0x5E5E995CE3133561AFCEAA51A9A154D5DB228CD7525D34DF5185582C18D3DF09 DUP4 PUSH1 0x40 MLOAD PUSH2 0x7A7 SWAP2 SWAP1 PUSH2 0x85E JUMP JUMPDEST PUSH1 0x40 MLOAD DUP1 SWAP2 SUB SWAP1 LOG2 POP POP JUMP JUMPDEST PUSH1 0x0 DUP1 SLOAD SWAP1 PUSH2 0x100 EXP SWAP1 DIV PUSH20 0xFFFFFFFFFFFFFFFFFFFFFFFFFFFFFFFFFFFFFFFF AND DUP2 JUMP JUMPDEST PUSH1 0x0 PUSH8 0xDE0B6B3A7640000 SWAP1 POP SWAP1 JUMP JUMPDEST PUSH1 0x0 DUP1 REVERT JUMPDEST PUSH1 0x0 DUP2 SWAP1 POP SWAP2 SWAP1 POP JUMP JUMPDEST PUSH2 0x7FF DUP2 PUSH2 0x7EC JUMP JUMPDEST DUP2 EQ PUSH2 0x80A JUMPI PUSH1 0x0 DUP1 REVERT JUMPDEST POP JUMP JUMPDEST PUSH1 0x0 DUP2 CALLDATALOAD SWAP1 POP PUSH2 0x81C DUP2 PUSH2 0x7F6 JUMP JUMPDEST SWAP3 SWAP2 POP POP JUMP JUMPDEST PUSH1 0x0 PUSH1 0x20 DUP3 DUP5 SUB SLT ISZERO PUSH2 0x838 JUMPI PUSH2 0x837 PUSH2 0x7E7 JUMP JUMPDEST JUMPDEST PUSH1 0x0 PUSH2 0x846 DUP5 DUP3 DUP6 ADD PUSH2 0x80D JUMP JUMPDEST SWAP2 POP POP SWAP3 SWAP2 POP POP JUMP JUMPDEST PUSH2 0x858 DUP2 PUSH2 0x7EC JUMP JUMPDEST DUP3 MSTORE POP POP JUMP JUMPDEST PUSH1 0x0 PUSH1 0x20 DUP3 ADD SWAP1 POP PUSH2 0x873 PUSH1 0x0 DUP4 ADD DUP5 PUSH2 0x84F JUMP JUMPDEST SWAP3 SWAP2 POP POP JUMP JUMPDEST PUSH1 0x0 PUSH20 0xFFFFFFFFFFFFFFFFFFFFFFFFFFFFFFFFFFFFFFFF DUP3 AND SWAP1 POP SWAP2 SWAP1 POP JUMP JUMPDEST PUSH1 0x0 PUSH2 0x8A4 DUP3 PUSH2 0x879 JUMP JUMPDEST SWAP1 POP SWAP2 SWAP1 POP JUMP JUMPDEST PUSH2 0x8B4 DUP2 PUSH2 0x899 JUMP JUMPDEST DUP3 MSTORE POP POP JUMP JUMPDEST PUSH1 0x0 PUSH1 0x20 DUP3 ADD SWAP1 POP PUSH2 0x8CF PUSH1 0x0 DUP4 ADD DUP5 PUSH2 0x8AB JUMP JUMPDEST SWAP3 SWAP2 POP POP JUMP JUMPDEST PUSH1 0x0 DUP2 SWAP1 POP SWAP2 SWAP1 POP JUMP JUMPDEST PUSH1 0x0 PUSH2 0x8FA PUSH2 0x8F5 PUSH2 0x8F0 DUP5 PUSH2 0x879 JUMP JUMPDEST PUSH2 0x8D5 JUMP JUMPDEST PUSH2 0x879 JUMP JUMPDEST SWAP1 POP SWAP2 SWAP1 POP JUMP JUMPDEST PUSH1 0x0 PUSH2 0x90C DUP3 PUSH2 0x8DF JUMP JUMPDEST SWAP1 POP SWAP2 SWAP1 POP JUMP JUMPDEST PUSH1 0x0 PUSH2 0x91E DUP3 PUSH2 0x901 JUMP JUMPDEST SWAP1 POP SWAP2 SWAP1 POP JUMP JUMPDEST PUSH2 0x92E DUP2 PUSH2 0x913 JUMP JUMPDEST DUP3 MSTORE POP POP JUMP JUMPDEST PUSH1 0x0 PUSH1 0x20 DUP3 ADD SWAP1 POP PUSH2 0x949 PUSH1 0x0 DUP4 ADD DUP5 PUSH2 0x925 JUMP JUMPDEST SWAP3 SWAP2 POP POP JUMP JUMPDEST PUSH1 0x0 DUP3 DUP3 MSTORE PUSH1 0x20 DUP3 ADD SWAP1 POP SWAP3 SWAP2 POP POP JUMP JUMPDEST PUSH32 0x4F6E6C79206F776E657221000000000000000000000000000000000000000000 PUSH1 0x0 DUP3 ADD MSTORE POP JUMP JUMPDEST PUSH1 0x0 PUSH2 0x996 PUSH1 0xB DUP4 PUSH2 0x94F JUMP JUMPDEST SWAP2 POP PUSH2 0x9A1 DUP3 PUSH2 0x960 JUMP JUMPDEST PUSH1 0x20 DUP3 ADD SWAP1 POP SWAP2 SWAP1 POP JUMP JUMPDEST PUSH1 0x0 PUSH1 0x20 DUP3 ADD SWAP1 POP DUP2 DUP2 SUB PUSH1 0x0 DUP4 ADD MSTORE PUSH2 0x9C5 DUP2 PUSH2 0x989 JUMP JUMPDEST SWAP1 POP SWAP2 SWAP1 POP JUMP JUMPDEST PUSH32 0x4E6F7420656E6F7567682066756E647321000000000000000000000000000000 PUSH1 0x0 DUP3 ADD MSTORE POP JUMP JUMPDEST PUSH1 0x0 PUSH2 0xA02 PUSH1 0x11 DUP4 PUSH2 0x94F JUMP JUMPDEST SWAP2 POP PUSH2 0xA0D DUP3 PUSH2 0x9CC JUMP JUMPDEST PUSH1 0x20 DUP3 ADD SWAP1 POP SWAP2 SWAP1 POP JUMP JUMPDEST PUSH1 0x0 PUSH1 0x20 DUP3 ADD SWAP1 POP DUP2 DUP2 SUB PUSH1 0x0 DUP4 ADD MSTORE PUSH2 0xA31 DUP2 PUSH2 0x9F5 JUMP JUMPDEST SWAP1 POP SWAP2 SWAP1 POP JUMP JUMPDEST PUSH32 0x496E636F72726563742073756D00000000000000000000000000000000000000 PUSH1 0x0 DUP3 ADD MSTORE POP JUMP JUMPDEST PUSH1 0x0 PUSH2 0xA6E PUSH1 0xD DUP4 PUSH2 0x94F JUMP JUMPDEST SWAP2 POP PUSH2 0xA79 DUP3 PUSH2 0xA38 JUMP JUMPDEST PUSH1 0x20 DUP3 ADD SWAP1 POP SWAP2 SWAP1 POP JUMP JUMPDEST PUSH1 0x0 PUSH1 0x20 DUP3 ADD SWAP1 POP DUP2 DUP2 SUB PUSH1 0x0 DUP4 ADD MSTORE PUSH2 0xA9D DUP2 PUSH2 0xA61 JUMP JUMPDEST SWAP1 POP SWAP2 SWAP1 POP JUMP JUMPDEST PUSH1 0x0 DUP2 MLOAD SWAP1 POP PUSH2 0xAB3 DUP2 PUSH2 0x7F6 JUMP JUMPDEST SWAP3 SWAP2 POP POP JUMP JUMPDEST PUSH1 0x0 PUSH1 0x20 DUP3 DUP5 SUB SLT ISZERO PUSH2 0xACF JUMPI PUSH2 0xACE PUSH2 0x7E7 JUMP JUMPDEST JUMPDEST PUSH1 0x0 PUSH2 0xADD DUP5 DUP3 DUP6 ADD PUSH2 0xAA4 JUMP JUMPDEST SWAP2 POP POP SWAP3 SWAP2 POP POP JUMP JUMPDEST PUSH32 0x4E487B7100000000000000000000000000000000000000000000000000000000 PUSH1 0x0 MSTORE PUSH1 0x12 PUSH1 0x4 MSTORE PUSH1 0x24 PUSH1 0x0 REVERT JUMPDEST PUSH32 0x4E487B7100000000000000000000000000000000000000000000000000000000 PUSH1 0x0 MSTORE PUSH1 0x11 PUSH1 0x4 MSTORE PUSH1 0x24 PUSH1 0x0 REVERT JUMPDEST PUSH1 0x0 PUSH2 0xB4F DUP3 PUSH2 0x7EC JUMP JUMPDEST SWAP2 POP PUSH2 0xB5A DUP4 PUSH2 0x7EC JUMP JUMPDEST SWAP3 POP DUP3 PUSH2 0xB6A JUMPI PUSH2 0xB69 PUSH2 0xAE6 JUMP JUMPDEST JUMPDEST DUP3 DUP3 DIV SWAP1 POP SWAP3 SWAP2 POP POP JUMP JUMPDEST PUSH32 0x4E6F7420656E6F75676820746F6B656E73210000000000000000000000000000 PUSH1 0x0 DUP3 ADD MSTORE POP JUMP JUMPDEST PUSH1 0x0 PUSH2 0xBAB PUSH1 0x12 DUP4 PUSH2 0x94F JUMP JUMPDEST SWAP2 POP PUSH2 0xBB6 DUP3 PUSH2 0xB75 JUMP JUMPDEST PUSH1 0x20 DUP3 ADD SWAP1 POP SWAP2 SWAP1 POP JUMP JUMPDEST PUSH1 0x0 PUSH1 0x20 DUP3 ADD SWAP1 POP DUP2 DUP2 SUB PUSH1 0x0 DUP4 ADD MSTORE PUSH2 0xBDA DUP2 PUSH2 0xB9E JUMP JUMPDEST SWAP1 POP SWAP2 SWAP1 POP JUMP JUMPDEST PUSH1 0x0 PUSH1 0x40 DUP3 ADD SWAP1 POP PUSH2 0xBF6 PUSH1 0x0 DUP4 ADD DUP6 PUSH2 0x8AB JUMP JUMPDEST PUSH2 0xC03 PUSH1 0x20 DUP4 ADD DUP5 PUSH2 0x84F JUMP JUMPDEST SWAP4 SWAP3 POP POP POP JUMP JUMPDEST PUSH32 0x546F6B656E73206D7573742062652067726561746572207468616E2030000000 PUSH1 0x0 DUP3 ADD MSTORE POP JUMP JUMPDEST PUSH1 0x0 PUSH2 0xC40 PUSH1 0x1D DUP4 PUSH2 0x94F JUMP JUMPDEST SWAP2 POP PUSH2 0xC4B DUP3 PUSH2 0xC0A JUMP JUMPDEST PUSH1 0x20 DUP3 ADD SWAP1 POP SWAP2 SWAP1 POP JUMP JUMPDEST PUSH1 0x0 PUSH1 0x20 DUP3 ADD SWAP1 POP DUP2 DUP2 SUB PUSH1 0x0 DUP4 ADD MSTORE PUSH2 0xC6F DUP2 PUSH2 0xC33 JUMP JUMPDEST SWAP1 POP SWAP2 SWAP1 POP JUMP JUMPDEST PUSH1 0x0 PUSH1 0x40 DUP3 ADD SWAP1 POP PUSH2 0xC8B PUSH1 0x0 DUP4 ADD DUP6 PUSH2 0x8AB JUMP JUMPDEST PUSH2 0xC98 PUSH1 0x20 DUP4 ADD DUP5 PUSH2 0x8AB JUMP JUMPDEST SWAP4 SWAP3 POP POP POP JUMP JUMPDEST PUSH32 0x57726F6E6720616C6C6F77616E63650000000000000000000000000000000000 PUSH1 0x0 DUP3 ADD MSTORE POP JUMP JUMPDEST PUSH1 0x0 PUSH2 0xCD5 PUSH1 0xF DUP4 PUSH2 0x94F JUMP JUMPDEST SWAP2 POP PUSH2 0xCE0 DUP3 PUSH2 0xC9F JUMP JUMPDEST PUSH1 0x20 DUP3 ADD SWAP1 POP SWAP2 SWAP1 POP JUMP JUMPDEST PUSH1 0x0 PUSH1 0x20 DUP3 ADD SWAP1 POP DUP2 DUP2 SUB PUSH1 0x0 DUP4 ADD MSTORE PUSH2 0xD04 DUP2 PUSH2 0xCC8 JUMP JUMPDEST SWAP1 POP SWAP2 SWAP1 POP JUMP JUMPDEST PUSH1 0x0 PUSH1 0x60 DUP3 ADD SWAP1 POP PUSH2 0xD20 PUSH1 0x0 DUP4 ADD DUP7 PUSH2 0x8AB JUMP JUMPDEST PUSH2 0xD2D PUSH1 0x20 DUP4 ADD DUP6 PUSH2 0x8AB JUMP JUMPDEST PUSH2 0xD3A PUSH1 0x40 DUP4 ADD DUP5 PUSH2 0x84F JUMP JUMPDEST SWAP5 SWAP4 POP POP POP POP JUMP JUMPDEST PUSH1 0x0 PUSH2 0xD4D DUP3 PUSH2 0x7EC JUMP JUMPDEST SWAP2 POP PUSH2 0xD58 DUP4 PUSH2 0x7EC JUMP JUMPDEST SWAP3 POP DUP3 DUP3 MUL PUSH2 0xD66 DUP2 PUSH2 0x7EC JUMP JUMPDEST SWAP2 POP DUP3 DUP3 DIV DUP5 EQ DUP4 ISZERO OR PUSH2 0xD7D JUMPI PUSH2 0xD7C PUSH2 0xB15 JUMP JUMPDEST JUMPDEST POP SWAP3 SWAP2 POP POP JUMP INVALID LOG2 PUSH5 0x6970667358 0x22 SLT KECCAK256 MSTORE8 SMOD 0xD5 PUSH3 0x527E01 PUSH15 0xDA5C00D743ED7BFA2AE8E08B94F229 SELFDESTRUCT PUSH15 0xBFED3E3E4E1F2464736F6C63430008 GT STOP CALLER "
				},
				"gasEstimates": {
					"creation": {
						"codeDepositCost": "702800",
						"executionCost": "infinite",
						"totalCost": "infinite"
					},
					"external": {
						"": "195",
						"balance()": "5101",
						"buy()": "infinite",
						"sell(uint256)": "infinite",
						"thisAddr()": "2558",
						"token()": "infinite",
						"withdraw(uint256)": "infinite"
					},
					"internal": {
						"_rate()": "23"
					}
				},
				"methodIdentifiers": {
					"balance()": "b69ef8a8",
					"buy()": "a6f2ae3a",
					"sell(uint256)": "e4849b32",
					"thisAddr()": "d9ef58a5",
					"token()": "fc0c546a",
					"withdraw(uint256)": "2e1a7d4d"
				}
			},
			"storageLayout": {
				"storage": [
					{
						"astId": 273,
						"contract": "ERC20.sol:TokenSell",
						"label": "token",
						"offset": 0,
						"slot": "0",
						"type": "t_contract(IERC20)555"
					},
					{
						"astId": 275,
						"contract": "ERC20.sol:TokenSell",
						"label": "owner",
						"offset": 0,
						"slot": "1",
						"type": "t_address"
					},
					{
						"astId": 281,
						"contract": "ERC20.sol:TokenSell",
						"label": "thisAddr",
						"offset": 0,
						"slot": "2",
						"type": "t_address"
					}
				],
				"types": {
					"t_address": {
						"encoding": "inplace",
						"label": "address",
						"numberOfBytes": "20"
					},
					"t_contract(IERC20)555": {
						"encoding": "inplace",
						"label": "contract IERC20",
						"numberOfBytes": "20"
					}
				}
			},
			"userdoc": {
				"kind": "user",
				"methods": {},
				"version": 1
			}
		}
	}
}